:1020000000800020D1FD0000CDFD000045720000E1
:1020100000000000000000000000000000000000C0
:10202000000000000000000000000000CDFD0000E6
:102030000000000000000000CDFD0000CDFD00000C
:10204000CDFD0000CDFD0000CDFD0000CDFD000068
:10205000F5A50100CDFD000065CA0100AD930100AA
:10206000CDFD000091C60100A1C60100B1C601006E
:10207000C1C60100D1C60100E1C6010079B9010065
:1020800089B9010099B90100A9B90100B5B90100E8
:10209000C1B901000000000000000000CDFD0000FB
:1020A000CDFD0000CDFD0000CDFD0000CDFD000008
:1020B000000000007CB0EE877CB0EE87FF00FF00E0
:1020C000FF00FF00FF00FF00FF00FF00FF00FF0018
:1020D000FF00FF00FF00FF00FF00FF00FF00FF0008
:1020E000FF00FF00FF00FF00FF00FF0010B5064CDF
:1020F0002378002B07D1054B002B02D0044800E0C9
:1021000000BF0123237010BDE80200200000000082
:1021100070AA0200084B10B5002B03D007490848ED
:1021200000E000BF07480368002B00D110BD064B3C
:10213000002BFBD09847F9E700000000EC020020DC
:1021400070AA020070AA02000000000070B505002D
:102150000E0000F07FFA041E0ED00368DB6A984779
:10216000082D0AD02B00093B012B12D91023320075
:1021700029000D2004F0D2FB70BD236820005B6AAB
:1021800098470228F2DC236804211B6A2000984744
:10219000ECE7236820005B6A98470528E6DC2368A3
:1021A00008211B6A20009847E0E7C04670B505008B
:1021B00000F050FA041E3CD00368DB6A9847012DFA
:1021C0003DD030DD022D36D0032D32D120000FF06E
:1021D00067F91CF0B3FA061C20000FF06FF91CF031
:1021E000ADFA051C20000FF077F91CF0A7FA311C9E
:1021F000041C301C1BF0AEFF291C061C281C1BF005
:10220000A9FF011C301C1BF023FC211C051C201CF9
:102210001BF0A0FF011C281C1BF01AFC20F0D6F8B4
:102220001CF06CFA06E0002D03D120000FF038F905
:1022300000E0002070BD20000FF04EF9FAE720000A
:102240000FF03CF9F6E7C04670B5050000F002FA61
:10225000041E06D00368DB6A9847002D07D0012DC5
:1022600001D0002070BD20000FF0E4F9FAE7200053
:102270000FF0B6F9F6E7C04610B5040000F0EAF931
:10228000002803D0036821001B6A984710BDC04690
:102290000048704716FCFFFF7047C04610B50400A9
:1022A000024B03600EF0B2FE200010BDC897020082
:1022B00010B50400044B03600EF0A8FE200025F0CA
:1022C0003FFB200010BDC046C8970200F0B5CE46C7
:1022D000474680B5D14E85B03068002804D005B09F
:1022E0000CBC90469946F0BD01210130494201F0F5
:1022F00089FF05F049FB002800D174E10C2025F08E
:1023000023FB03210400512001F07CFF80250F27CF
:10231000010003116D00394080461F40054000D088
:1023200036E1BF4B3A00BF480EF00EF86A1E9541E9
:1023300043460F21EAB2194020003B0014F030FE62
:102340000023B948A3600DF0FFFF0121032049429B
:1023500001F058FF05F018FB012105004942022059
:1023600001F050FF05F010FB002D00D112E1002814
:1023700000D10FE10100280004F0B2FF071E00D1D8
:102380002DE101214620494201F03CFF0300303B92
:102390000500382B00D9CEE0A44A9B00D3589F46B5
:1023A0003B68019500951D6A0F2375226B446821D7
:1023B0003800A847002800D017E168219C480DF09C
:1023C000C3FF01210120494201F01CFF05F0DCFAA6
:1023D00080464C2025F0B8FA0523050001936333AD
:1023E000009342462300390012F034FB2800A0601D
:1023F00003689B6A9847A0680368DB6A98478D4822
:102400000DF0A2FF3460200069E73B68019500955C
:102410001B6A0D2298460F233C216B443800C047AD
:1024200000281FD13C2182480DF08EFF01210120A0
:10243000494201F0E7FE05F0A7FA05002C2025F03F
:1024400083FA2A003C233900804610F0C7FF3C2065
:1024500025F07AFA050005232200414611F0B8F86C
:102460002800C4E73B68019500951B6A0D22984639
:102470000F233A216B443800C047002890D13A21FD
:102480006B480DF061FF01210120494201F0BAFEC5
:1024900005F07AFA8046442025F056FA0523050017
:1024A00001933533009342462300390012F028FA95
:1024B00028009CE73B68019500951B6A0D22984611
:1024C0000F2338216B443800C04700289DD13821A4
:1024D00057480DF039FF01210120494201F092FED9
:1024E00005F052FA8046442025F02EFA0523050017
:1024F00001933333009342462300390012F000FA6F
:102500004D4B28002B6072E701210120494201F068
:1025100079FE05F039FA81464C2025F015FA05239D
:1025200080460193ABB200934A462300390012F073
:102530006DF840465BE700230125A3603B680195E9
:1025400000951B6A0F2298460F2332216B443800F6
:10255000C047002831D132233221994634480DF04A
:10256000F3FE01210120494201F04CFE05F00CFA76
:1025700080464C2025F0E8F9052301934B460500E1
:10258000009342462300390012F040F828002EE75D
:102590002A4BC7E62A480DF0D7FE012119204942EF
:1025A00001F030FE05F0F0F9012105004942182044
:1025B00001F028FE05F0E8F9DCE63B68019500959E
:1025C0001B6A0F2298460F2330216B443800C04706
:1025D000002800D06EE7302330219946BEE7194825
:1025E0000DF0B2FE0EE7306879E617480DF0ACFE4C
:1025F000A068002800D0FBE601210320494201F039
:1026000001FE05F0C1F9002803D010480DF09CFE32
:10261000F8E60F480DF098FEF4E6C04604030020EB
:10262000B0820200B8820200D882020088810200D3
:10263000948302007083020074820200A882020068
:10264000E8820200FC820200808302001483020000
:102650005083020010B5FFF739FE002801D08068D2
:1026600010BD0020FCE7C04610B501F007FF1EF0CA
:1026700087FD01F0F1FA10BD10B501F0FFFE1FF06B
:102680002FF901F0E9FA10BD10B501F0F7FE1EF0C8
:10269000F9FD01F0E1FA10BD10B501F0EFFE1FF0F9
:1026A000CDFC01F0D9FA10BD10B501F0E7FE1FF026
:1026B000ADF801F0D1FA10BD10B501F0DFFE1FF04A
:1026C0002DF801F0C9FA10BD10B501F0D7FE1DF0CC
:1026D00079FF01F0C1FA10BD10B501F0CFFE1EF078
:1026E0005DFF01F0B9FA10BD10B50C0002999142DE
:1026F00023DB002B0BD1042A19D0022A01D1C307F6
:1027000011D50100200007F0A5FD002010BD21001B
:102710008018A418002AF8DD013803780B70013105
:10272000A142F9D1F1E7038800202380EEE7830777
:10273000E7D1036800202360E8E70021200008F0CB
:1027400071FF01204042E1E708307047030000209C
:10275000002B06D0002904DB5A68914201DA5B188D
:10276000187A7047002806D0002904DB4368994294
:1027700001DA40180272704703000020002B06D0D7
:10278000002904DB5A68914201DA5B18187A704715
:102790000123820705D1002803D0000F434258418E
:1027A000C3B218007047C046002806D0002904DBD9
:1027B0004368994201DA40180272704770B5002BE5
:1027C00021DB00291FDB4668B1421CDC5568761A04
:1027D000ED1AB5420CDC002D15DB82420AD008321E
:1027E00008304018D1182A0007F034FD002070BDD1
:1027F0003500F0E70832D31850182A00190025F0E8
:10280000DDF80020F3E701204042F0E74068704720
:1028100010B5002A0DDB4468A2420ADC002B09DB5C
:10282000A41A9C4200DD1C0008308018220008F029
:10283000F9FE10BD2300F3E7436810B51C008B427E
:1028400000DD0C00002A08DB191B914200DD11009D
:102850000830001900F052FF10BD1A00F4E7C0461E
:1028600070B50E00002B20DB002A1DDB4468991890
:10287000A14219DC8A4217DC002B15D0710013D05D
:1028800059428E4214DDB34212DD08308518002E05
:1028900016DB9C1BA9192200280025F08FF82819A7
:1028A0003200002108F0BEFE70BD43689B1ADBE7D2
:1028B000002CF9DB22000021083008F0B3FEF3E71A
:1028C00074429A192900281925F078F8220000216D
:1028D000280008F0A7FEE7E710B54168083000F0CF
:1028E00079FE10BDF8B5040043680020590000F0DF
:1028F000EBFD6668002E0FDD0F272200A619074C9E
:10290000811D137A01321D113B40655DE35C0D7042
:102910004B7002319642F4D1F8BDC04630840200BB
:1029200070B50400160008001D1E2BDB002E28DBEE
:102930006268AB19934224DC9E4222DC002D20D039
:1029400043001ED0002822DB29001AF05FFE002978
:1029500020DB220008329219511855198A4210D0F2
:102960000B0004E003008A420FD0934209D0147890
:102970001E78581C167001321C708542F2D10B0073
:10298000F3E770BD63689D1AD0E70100EDE72B0205
:10299000C018D9E74919DCE7012300B55B4283B0D1
:1029A00000930023FFF70AFF03B000BD10B50C1E13
:1029B0000DDD4168083002F053FB1F2C06DC0300DC
:1029C000E34058400123A340013B184010BD0020C4
:1029D000FCE7C04610B50100002000F08FFE10BDDE
:1029E00070B50021050000F023FE0100002000F07A
:1029F00085FE010004000831280000F019FE2000C7
:102A000070BDC04630B5040083B00D00102A0DD84B
:102A1000544992008A589746180001F047FE0090EA
:102A2000032D03DDA30700D096E0206003B030BD86
:102A3000180001F0A7FD002DF8DD2070F6E7180062
:102A400001F0A0FD6B461880012DEFDD1B7863704F
:102A50006B465B782370E9E7180001F093FD009066
:102A6000032DE3DD00216A46231D505C013B1870F5
:102A700001319C42F9D1D9E7180001F083FDC0B2C1
:102A8000002DD3DD2070D1E7180001F0F7FC009095
:102A90000191072DCADD08226946200007F0DAFB04
:102AA000C4E7180001F012FD0090032DBADCBDE769
:102AB000180001F00BFD0090032DB7DD00216A46E0
:102AC000231D505C013B187001319C42F9D1ADE7E8
:102AD000180001F0D3FC00900191072DA6DD230022
:102AE0006A4608331178013B197001329C42F9D1D2
:102AF0009CE7180001F0DAFD0090032D96DD00211F
:102B00006A46231D505C013B187001319C42F9D18B
:102B10008CE7180001F036FD6B461880012D00DCB3
:102B200084E7E30716D502226946200007F092FBEE
:102B30007CE7180001F026FD6B4680B21880012D5D
:102B4000EFDC73E7180001F01DFD0090032D00DDA0
:102B500068E76BE7208069E704226946200007F0F8
:102B600079FB63E7A883020010B5002A07DB4468FD
:102B70000830A41A80180A002100FFF743FF10BD97
:102B800010B584B0102A00D977E03D4B92009B58D5
:102B90009F460123009102A90822FFF7A5FD029894
:102BA000039901F059F804B010BD002302AC009164
:102BB00001222100FFF798FD0020205601F048F97E
:102BC000F1E7002302AC009101222100FFF78CFD08
:102BD000207801F03DF9E6E7002302AC00910222E3
:102BE0002100FFF781FD0023E05E01F031F9DAE713
:102BF000002302AC009102222100FFF775FD20881E
:102C000001F026F9CFE700230091042202A9FFF783
:102C10006BFD029801F01CF9C5E702AC009101239D
:102C2000C6E702AC00910123CEE702AC009101237C
:102C3000D5E702AC00910123DDE700910123E4E731
:102C400000230091042202A9FFF74EFD029801F033
:102C50000BF9A8E700910123F4E700230091042277
:102C600002A9FFF741FD029801F0ECF89BE7009103
:102C7000002390E700910123F1E7002093E7C0468D
:102C8000EC83020010B5002A08DB436808309B1A69
:102C900080180A001900FFF773FF10BD002001F033
:102CA000D7F8FAE710B503F0F9FC10BD10B503F042
:102CB000F9FC8000800810BD10B503F02FFE10BD98
:102CC00010B50DF055F810BD10B5C11703F0A8FCF4
:102CD00010BDC04610B503F0B7FC10BD10B503F031
:102CE000C3FC10BD00B583B003F0D4FC009001918B
:102CF0000821684602F0B4F98000800803B000BDE6
:102D000000B583B003F0C6FC00900191082168462D
:102D100000F0F4FC03B000BD70B50C1E0CD00B68C5
:102D200008001B6A9847236805005B6A20009847E3
:102D30000100280005F07EFA70BDC04610B502F013
:102D4000ABF810BD10B5012002F048FB10BDC04625
:102D500010B5022002F042FB014809F0C9F910BD8C
:102D600093030000014B18607047C0460803002021
:102D70007047C04600207047F0B54E46DE465746C5
:102D80004546E0B5894685B0111E00DCE3E04023EE
:102D90005B429B467F339A46203B9C46103B002477
:102DA000002298464D4609E001347F2B1DD80132A0
:102DB000002801D003700130A14226DD2B5D5FB2F7
:102DC000002FF1DA1F006646B743FFB2C02F00D1D3
:102DD00077E01F004646B743FFB2E02F00D18DE0F9
:102DE000F8271F40F02F18D0013402320028E3D01A
:102DF0005E469F093743564633408026764233432A
:102E0000077043700230A142D8DC100005B03CBC12
:102E100090469946A246AB46F0BDE71CB942E3DDB9
:102E200057462E19019676780296BE43802EDBD146
:102E3000019EB6780396BE43802ED5D1019EF678CA
:102E4000370001965646B743802FCDD1E0279E0428
:102E50007F033E40B1465646019F37404E463E43B3
:102E6000B146029E3703FC26B60237404E463E432B
:102E7000039F0196BE01FC273F013E403700019EA3
:102E80003743524EB146524EB944B145ACD80434E2
:102E9000504B9F4267D80332002800D18CE7202690
:102EA0003B0B7642334356460370BB0933408026C2
:102EB00076423343437053463B4033438370033081
:102EC0007AE7661CB146B14200DC82E72F197E78B2
:102ED000370001965646B743802F00D079E7F82790
:102EE0009E01FF00374002975746019E3E40029FD9
:102EF00037437F2F31DD3B00023476E7A71CB94210
:102F000000DC6DE757462E19019676780296BE438F
:102F1000802E00D064E7019EB6783700B146564651
:102F2000B743802F00D05BE71F073F0C01974E4649
:102F300057463E40019F3E43029F0196BE01FC273B
:102F40003F013E403700019E3743234EB74200DC2D
:102F50004AE703349CE7002257E702324C46002838
:102F600000D045E72AE7D8263602B146174B06328D
:102F7000FB189F0A4F44002800D11DE7ED2601975A
:102F80000670BE0957463E4080277F423E4346704A
:102F90005646019F9B053740802676423743DC2604
:102FA0003602B146ED26C67056469B0D4B448770DF
:102FB0009F09374080267642374356463340802665
:102FC00076423343077143710630F5E60000FFFF98
:102FD000FFFF0F00FFFF0000FF0700000200007866
:102FE00041B2002900DB70471F2301009943C0292B
:102FF00010D0F0230340E02BF5D1FC2153780901D8
:103000009B01194003073F2092781B0C0B43104093
:103010001843E8E78301F820C00003403F205278BE
:1030200010401843DFE7C0467047C04680880A302A
:1030300080087047063070478088704783888B42CD
:1030400002D30630401870470020FCE780880A3021
:10305000800870477047C0460630704780887047C8
:10306000F0B58488851D0020002C16D000231F2673
:103070000F2702E001339C420FDDEA5C013051B2C0
:103080000029F7DA1100B143C02907D0BA43E02A7A
:10309000F0D1023301339C42EFDCF0BD0133E9E7AC
:1030A000F0B5851D86880F20002200231F27844647
:1030B00002E001339E4213DBE818013204789142AA
:1030C0000FDB60B20028F4DA2000B843C02809D032
:1030D00060468443E02CECD1023301339E42EBDAAC
:1030E0000020F0BD0133E4E7C38880681B095B0062
:1030F000C018704780887047C088704703207047A9
:1031000040680B3080087047F0B54E464546DE46B5
:103110005746E0B5C6888268360976003300944683
:1031200083B06344019380468488002903D0220041
:10313000180007F08FF80023019A13554346DF88E3
:103140003F0935D0130091467A00A14492461F00F2
:1031500000241F254B46DE1B1CD40F203A7810217B
:103160000023834607E001339E4213DBF818013940
:103170000278002925D050B20028F4DA1000A843C4
:10318000C0281CD058468243E02AECD102330133D8
:103190009E42EBDADC20800008F0AAFF0023019AAF
:1031A00000279B1A4246926813530234A245D1D19C
:1031B00003B03CBC90469946A246AB46F0BD0133F5
:1031C000D1E70300019A07009B1A42469268135305
:1031D0000234A245BED1EBE710B58068002801D0CB
:1031E00001F0DAFF10BDC04610B50400406801F0E0
:1031F000F9FFA06801F0F6FF10BDC046F0B5C64665
:10320000070000B5994225D3126809094900180939
:103210005118002824D11F20844610380024002291
:10322000804602E00132974214DB881801340578A9
:10323000A34210DB6EB2002EF4DA28006646B043DB
:10324000C0280BD040468543E02DEBD1023201323D
:103250009742EADA002004BC9046F0BD0132E1E773
:10326000054CA44660444000805A0F223F1A0918BA
:10327000BFB21340CFE7C046FFFFFF7F020010B58B
:103280000B000832C1888088FFF7B8FF10BDC04628
:10329000F0B5DE4657464E464546E0B5434C83B052
:1032A000A1888346002900D075E05A46200002F02C
:1032B000C9FD0023994698463D4EA388002B11D0A6
:1032C000200002F0D3FD036805009E424DD09B6AAA
:1032D00098472B6880445B6A28009847A3888144FC
:1032E000002BEDD143461E094B467600581C801931
:1032F00002F060FB8446A1880190664400294FD10A
:103300005A46200002F09EFD294B9A46A388002BC6
:1033100016D0200002F0AAFD036805009A452FD0C0
:103320005B6A98472B6807001B6A280098473A0099
:103330000100300006F08EFFA388F619002BE8D1BB
:103340005A461C4B002113605B464A469A8042460F
:10335000DA80019A58469A60FFF7D6FE03B03CBC6B
:1033600090469946A246AB46F0BDA18882682000EF
:1033700002F068FD6A68A188200002F063FD9CE706
:10338000A1888268200002F05DFD6A68A1882000A3
:1033900002F058FDBAE7084808F0AAFEA18884E7C1
:1033A000054808F0A5FEA188AAE7C0461003002042
:1033B000B4840200FC8402007103000010B5040014
:1033C000FFF766FFE08810BD10B50400FFF760FF4F
:1033D000A08810BD10B50400FFF75AFFE088A3686D
:1033E00000094000181810BD70B504000D00FFF76B
:1033F0004FFF22002B000832E188A088FFF7FEFE75
:1034000070BDC04603207047032070478088704716
:103410007047C04600280FD043688B4201D0002B74
:1034200006D1531C07D083689A4204D0002B02D0E7
:1034300000680028F0D170470020FCE7084B1B68AB
:10344000002B0BD05A68904201D0002AF7D14A1CB9
:1034500004D09A68914201D0002AF0D11800704738
:103460000C030020F0B5C646164F00B53B680400BB
:103470000D009046002B03D10DE01B68002B0AD0F5
:103480005A68A242F9D19A68AA42F6D14246DA6055
:1034900004BC9046F0BD102002F09EFA061E04D037
:1034A00010220021300008F0BDF83B683000336086
:1034B00043467460B560F3600C30012102F03CFBC0
:1034C0003E60E5E70C030020F8B506000C1E4FDB5C
:1034D000002C01D13B48F8BD002E68D0002C0CDD3B
:1034E00033787F2B1DD8731C311904E000229A56C3
:1034F0000133002A15DB9942F8D1E01D02F0A6F94C
:10350000051E5DD0304B2B60AC80002E04D0A81D72
:103510002200310006F09EFE00232C19A371280022
:10352000D9E7132C28DD0C2002F090F9051E01D0FC
:10353000264B036000232800AB6002F015FB0F212F
:10354000AC80002200231F278C4602E001339C42FE
:1035500019DDF15C013248B20028F7DA0800B843FF
:10356000C0282BD060468143E029EFD10233EDE73C
:1035700024F084FA0400ABE7E01D02F067F9051EB1
:103580001ED0134BBFE7002392B2EA80120950000D
:103590000134AB60001902F00DFA3100A860280078
:1035A000FFF7B2FD280002F0F1FA280093E7E01DD2
:1035B00002F04CF9051EA5D1B480ADE70133C5E793
:1035C000AC80A4E7548602005C850200FC84020003
:1035D0002C850200F8B505000C1E1DDB002C02D165
:1035E000124C2000F8BD220029000020FFF7C4FB88
:1035F0000600844214D0300002F0EEF907002200E9
:103600002900FFF7B9FB31003800FFF75DFF040028
:10361000380002F0FFF8E4E724F030FA0400DDE7B8
:1036200021002800FFF750FF0400DAE7548602006B
:10363000F8B5DE4657464E46454603680400E0B5F9
:103640001B6A0E009847236880465B6A20009847F3
:10365000071E4AD0264B002400259B4643461819D6
:103660000378ED2B0DD0002E00D0735501350134B9
:10367000BC42F3D328003CBC90469946A246AB46D8
:10368000F8BD621D9246BA42EDD2FFF7A7FC814613
:10369000E01C4044FFF7A2FC164B4B445B45E6D8C8
:1036A000154A82185A45E2D89022920194469B020C
:1036B0006044C318002E15D010213F209A144942AF
:1036C0000A4319130140BF38725501437219BF30C4
:1036D000517099110140BF38014391703F210B4057
:1036E0000343D37004355446C1E70020C3E7C04606
:1036F000FF0300000028FFFF0024FFFF70B5060055
:103700000D1E12DD0800083002F0A0F8041E01D0E2
:10371000094B23602000656008302A00002E06D087
:10372000310006F097FD200070BD0448FCE7002141
:1037300007F078FF2000F7E7C885020048860200FE
:10374000014B18607047C046B8000020034B044A84
:1037500058431368584010607047C046CB5725CA7D
:10376000B80000200F4BF0B59C46050001241F68EF
:103770002A000020BE09FB0F73407B403E097908F8
:103780007340BF087B404B40DB070B431F00230007
:1037900040003B4018435208ECD18542E8D36346D1
:1037A0001F60F0BDB800002000487047548602003A
:1037B00010B5030482B01B0C7F2B24DD144A01A832
:1037C000934213DD2022191352420A433F248021E1
:1037D00002709A114942224023400A4319438170E2
:1037E00003214270FFF770FE02B010BD4022991114
:1037F00052420A4302703F221A4080235B42134325
:1038000043700221EEE701A803700121EAE7C046F8
:10381000FF070000F0B5D6464F4646460400C0B547
:103820000D0000284DD04A4B00294FD0984200D1BE
:103830007EE09D4219D02668464FB7421BD0736A7E
:10384000200098472B6880465B6A2800984706004E
:1038500046448146322E3ED90C2001F0F7FF002865
:1038600000D0076044600400856020001CBC9046C6
:103870009946A246F0BD2B689E42EDD0A068036831
:103880009E42E9D05B6A98472B6880465B6A2800B5
:10389000984740443228DFD80C2001F0D7FF071E9C
:1038A00000D00660380002F05FF9636829007B6091
:1038B000A068FFF7AFFFB860380002F067F93C007E
:1038C000D3E7002939D0244C214BB2E798423CD0B1
:1038D0000668214DB0E7236820001B6A98472B68D3
:1038E00082461B6A28009847310007000020FFF736
:1038F000EBFD036804001B6A9847424651460500E9
:1039000006F0A8FC43464A46E818390006F0A2FC37
:10391000002EAAD02B787F2B0CD86B1C751904E0D5
:1039200000229A560133002A04DBAB42F8D19CE70F
:103930000C009AE7094B236097E7074D054F084EA7
:103940002C00B74200D07AE786E7034C8DE7C046EB
:1039500054860200B4840200A88602002C8502006E
:1039600040505854F8B505000E0088421BD003683B
:103970005B6A9847336807005B6A300098472B689A
:1039800004001B6A28009847336805001B6A300052
:103990009847BC4209D80023595D1A5C914206D170
:1039A0000133A342F8D90020F8BD3C00F3E7012021
:1039B0009142F9DA01204042F6E7C04610B50368AB
:1039C0009B6A984710BDC046F0B54646DE4657464E
:1039D0008846C0B57F22060082B037783B00093B9D
:1039E000042B5CD913003B40202B58D02B2F00D147
:1039F0007FE02D2F00D175E00023424C009301940D
:103A0000002F00D17BE000220023934600240025F4
:103A100021E000223C4B200029001BF069FE04003D
:103A20000D0050461CF04EFC22002B001AF01CFF2B
:103A30005A4604000D000123002A08D0009801997D
:103A4000314B00221BF020FA5B46009001910136B9
:103A50003778002F11D0302252429246BA44524653
:103A6000092AD6D95A46002A1BD12E2F19D1012254
:103A7000013637789346002FEDD122000098019946
:103A80002B001BF035FE04000D0043461E60200095
:103A9000290002B01CBC90469A46A346F0BD0136F0
:103AA0009BE7002B28D0009801992B0022001BF0E7
:103AB0001FFE202304000D009F43452FE5D10A225D
:103AC0004146701C23F016FF0F490200002019F038
:103AD00065FE02000B00200029001BF009FE040017
:103AE0000D00D4E70023094C777800930194013648
:103AF00086E7777801367CE70024054DC7E7002488
:103B00000025BAE70000F03F000024400000F0BFAD
:103B10000000F87FF8B505000C00161E1BDD0368D9
:103B20009B6A9847002C18DB001B864211DA2B6831
:103B30002100DB6A280098472B68A1190700DB6A7F
:103B400028009847041E12D0E11B3800FFF7BCFC88
:103B500002E0002809DC0848F8BD2418E343DB171D
:103B60001C40001B8642E2DBF3E70600DFE7034868
:103B700008F0BEFAE8E7C04654860200720300006F
:103B8000F8B54746CE46060080B514000F00002861
:103B90004CD000294AD003681B6A9847E14380460D
:103BA0003368C9172140DB6A300098474346C51A7D
:103BB000336804005B6A300098473B68451B5B6ACA
:103BC000380098470600002C30D085422ED33B6841
:103BD00038001B6A98478146077803E0013D0134AD
:103BE000B54223D32378BB42F8D1320049462000A6
:103BF00023F0D5FE0028F1D14346E41A0023002C1F
:103C000016DD1F250F2602E00130844210DD4246FA
:103C1000125C013351B20029F6DA1100A943C02920
:103C20000BD0B243E02AEFD10230EDE701235B4233
:103C300018000CBC90469946F8BD0130E4E7C04638
:103C400010B5FFF79DFF0130431E984110BDC046DF
:103C5000012358407047C04670B50A0005000C1E8D
:103C600014D10120002D10D02A00230028002100AB
:103C70001CF0D4FA002848D10C2001F0E7FD002800
:103C800001D0234B03604560846070BD4B00214927
:103C90005B0D59181D292AD8142915DC0028E3D1F9
:103CA0001D488446200063449840031EDCD18020D8
:103CB000E40200061F332043591AC840002A1FDBC4
:103CC000012340001843E0E7144884462800634479
:103CD0009840031EC8D18020E40200061F335B1AFF
:103CE0002043D8403423591ACD402843E6E71E2903
:103CF000BAD10028B8D10A4B9C42B5D10948C4E7D3
:103D00000123404240001843BFE70E20BDE7C046F4
:103D1000F885020001FCFFFF0DFCFFFFEDFBFFFF3C
:103D20000000D0C10100008070B5036882B01B6A3A
:103D3000984701A9FFF748FE04000D000022002368
:103D40002000290019F078FC002827D101226E00FC
:103D500076085242144B200031001CF05FFA002814
:103D60001AD10122104B52422000310019F07EFC82
:103D7000002811D1802300225B03200031001CF0B9
:103D80004DFA002808D1802300225B032000310077
:103D900019F058FC002801D00024044D200029000F
:103DA000FFF75AFF02B070BDFFFFEF7F0000F87F02
:103DB00010B51CF087FAFFF74FFF10BD036870B510
:103DC000DB6A04009847051E1AD0FFF707F90028A0
:103DD00006D043005A1090420FD0FFF7E9FF70BDA4
:103DE000236820001B6A9847236806005B6A20004E
:103DF00098473618B54203D0002301201843EEE758
:103E00000E20ECE710B5002802D0FFF7D7FF10BD59
:103E10000E20FCE710B500280ED0FFF7CFFF0400FE
:103E20000E2809D0C30703D56010FFF7C1FC10BDF1
:103E3000024808F05DF9F7E70148F8E77103000070
:103E40005486020010B51CF0B7FAFFF705FF10BD4D
:103E5000430010B55A10904202D0FFF7A9FF10BDE1
:103E600001201843FBE7C046064B10B5984203D823
:103E700001234000184310BD1CF066FAFFF7ECFE6A
:103E8000F9E7C046FFFFFF3F4223002800D1383B3F
:103E900018007047F0B54E464546DE465746E0B539
:103EA000002383B01600002205000C0019F0CAFBA5
:103EB000002800D0ACE0002200232800210019F0E7
:103EC000BBFB00280AD0302333700023737003B08B
:103ED0003CBC90469946A246AB46F0BD2800210066
:103EE0001DF074FE1CF0BAF97D4A80467D4B280017
:103EF000210019F0A7FB002800D191E04346002BD8
:103F000000DAD0E042460020774919F047FC020071
:103F10000B00280021001AF0B7FF05000C00012358
:103F2000019300239946714871492A0023001BF030
:103F3000DFFB00226F4B1AF097FC19F0ABFC0B0073
:103F4000012149428A460021C446C8468946019952
:103F50000200002900DC93E02E21674D674F01200D
:103F6000674C8B469D421CD89D4227D0302101E0F2
:103F70009D4227D0121BAB4101319D42F8D9CCB2F2
:103F800034701400711C1C4311D1019CA0421CDA36
:103F9000083F0F2819D03C6F7D6F01300E009D4205
:103FA000E2D9302434701400711C1C43EDD0019C04
:103FB000A042EDD15C46B11C7470E9E79442D5D9BA
:103FC0003024EFE79442D5D9D9E74B46002B0FD0E8
:103FD000524600233020541CC8540133E21A002AF0
:103FE000FADC5346DB435246DB1713400133C91852
:103FF0006346012B54D065230B706346002B60DDB4
:104000002B228B1C4A70190060460BF069FF5EE79B
:104010002D23337080231B069C46013664444AE7F7
:10402000384A394B2800210019F020FB002800D025
:1040300064E743460133019343460E2B45DD0E23CF
:104040005B4243441A0000202749994619F0A6FB19
:1040500002000B00280021001AF016FF0022254B59
:104060001AF002FC19F016FC0B000F2149424144E2
:104070008A4601218C4601990200002900DD6BE788
:104080002E203021707040463170B11CC643002E86
:1040900019D030208E19087001318E42FBD15BE7B8
:1040A00000230B7013E75A4200200F4919F076FBEA
:1040B00002000B00280021001BF01AFB05000C0079
:1040C0002DE74B1C9FE70E0046E743460E220020DB
:1040D000D21A054919F062FB0123C146984624E72C
:1040E0008DEDB5A0F7C6B03E000024400000901E44
:1040F000C4BCD6420000E03FF35A000040800200FA
:1041000000407A1050EFE2D6E41A4B44012070B51B
:104110004042FFF727FB04000D48FFF723FB060092
:1041200020001CF011F900220A4B1BF0E1FA0400F8
:1041300030000D001CF008F9074A084B1AF0A4FEE5
:1041400002000B00200029001AF08EFB70BDC04653
:10415000FFFFFF000000F03D0000E0DFFFFF6F43C6
:1041600010B5FFF7D3FFFFF777FD10BD4843704749
:1041700010B519F065F910BD10B50C2001F066FB03
:10418000041E01D001F07AFF200010BD00897047A5
:1041900010B5043001F0E0FE10BDC04610B50A00B5
:1041A0000430818801F0BEFE10BDC04610B5043059
:1041B00001F0E2FE10BDC04603894268994202D276
:1041C0008900885870470020FCE7C04610B50430CD
:1041D00001F0A8FE10BDC04610B5043001F0DCFEB1
:1041E00010BDC04610B5043001F0FAFE10BDC04647
:1041F000024B1B68588CC0007047C046500300201B
:104200007047C0461B4B70B51B6804000D00002BA7
:1042100016D0586A002813D003689C4227D0002B80
:104220000ED003000021083302E00833002A07D033
:104230001A680231A242F8D101318900405870BD9C
:1042400003F0E2FE002810D003689C420FD0002B40
:104250000BD003000021083302E00833002A04D009
:104260001A6802319442F8D1E6E72800E7E7042112
:10427000E4E7C04650030020406870474160704743
:1042800010B5082001F0E2FA041E01D001F000FF91
:10429000200010BD70B505000C00160000290EDBD3
:1042A000838899420BDAA4002C19E368002B03D011
:1042B0000B21054801F04EFF2800E66070BD0A2181
:1042C000014801F047FFEEE78603000010B507F054
:1042D0000FFF10BD002802D0024B984200D070475B
:1042E0000020FCE754860200431E98417047C046F8
:1042F00010B5142001F0AAFA041E01D001F0D0FE7E
:10430000200010BD10B5040001F0D6FE002806DB29
:10431000238AE268984202D28000805810BD0020B3
:10432000FCE7C046F0B5C646204B00B51B68070049
:10433000DB6A1A1D1C689B689046651E984220D354
:10434000AB009B5898421CD8002D15DD6410A300CB
:104350009B58984211D0012209E0621CAA420BDC52
:10436000414654196410A3005B589F4205D09F42F8
:10437000F3D8651EAA42F3DD0024200004BC904659
:10438000F0BD002DF8DD012602E0651EB542F3DB2D
:10439000424674196410A30098583900FFF7E2FAF6
:1043A0000028EAD0F1DA661CF0E7C046500300208E
:1043B000044B10B51B680131DB6A8900C958FFF74F
:1043C000A1FF10BD5003002070B504000D001600C1
:1043D00001F072FE002806DB0C34010032002000E0
:1043E00001F0A0FD70BD2189201D2A0001F09AFD79
:1043F0002000218A0C30320001F094FDF2E7C04623
:10440000044B10B51B680131DB6A8900C958FFF7FE
:10441000DBFF10BD50030020014B18687047C046F9
:104420004C0300207047C04610B50300820709D135
:1044300000281CD0012203689343DA78F92A14D0AB
:10444000042010BD0020002BFBD00220DA07F8D496
:104450000E2BF6D0422B0CD00A2B0AD0062BEFD015
:10446000054807F045FE0420EBE79878E9E70020CF
:10447000E7E70120E5E7C0462103000070B504002E
:104480000E281BD0002819D0830711D12000FFF778
:10449000CBFF0500022814D0032D0FD12000FFF719
:1044A00043FC04000E2809D0002C07D02C42EDD08C
:1044B000200000F00BF81BF005FF70BD0020024942
:1044C000FBE76068A168F8E70000F87F70B542106C
:1044D000C30741D4830741D4002844D0FFF7CEFF5F
:1044E00001224C0064080E005242244B21000500BA
:1044F0001BF094FE002836D10122204B52422800A6
:10450000210019F0B3F800282DD1802300225B038D
:10451000280021001BF082FE002824D180230022E5
:104520005B032800210019F08DF800281BD128001A
:1045300031001CF029FF0022114B1DF053FA00221C
:10454000002304000D0019F07DF800280DD1200093
:10455000290019F081F90200100070BD80110200DD
:10456000501E8241F8E70022F6E7200029000022D1
:10457000034B1AF079F904000D00E8E7FFFFEF7F25
:104580000000F04110B5FFF7A1FF10BD70B50D00A0
:10459000FFF79CFF04002800FFF798FF1F23184037
:1045A0008440630020005A10944202D0FFF700FCC0
:1045B00070BD01201843FBE770B50D00FFF786FFC3
:1045C00004002800FFF782FF1F2318400441630006
:1045D00020005A10944202D0FFF7EAFB70BD012080
:1045E0001843FBE770B50D00FFF770FF04002800CB
:1045F000FFF76CFF604043005A10904202D0FFF773
:10460000D7FB70BD01201843FBE7C04670B50D0015
:10461000FFF75CFF04002800FFF758FF204343002A
:104620005A10904202D0FFF7C3FB70BD012018431F
:10463000FBE7C04610B5FFF749FFC04343005A10DF
:10464000904202D0FFF7B4FB10BD01201843FBE7F6
:1046500070B50D00FFF73AFF04002800FFF736FFA2
:10466000204043005A10904202D0FFF7A1FB70BDDA
:1046700001201843FBE7C04670B50D00FFF726FF89
:1046800004002800FFF722FF1F231840C440064BF8
:1046900020009C4203D801236000184370BD1BF02A
:1046A00053FEFFF7D9FAF9E7FFFFFF3F10B5FFF719
:1046B000E5FE1BF0D3FE10BD70B50E00FFF7DEFE69
:1046C000040030000D00FFF7D9FE02000B002000AF
:1046D00029001AF0C9F8FFF7BFFA70BD70B50E00D7
:1046E000FFF7CCFE040030000D00FFF7C7FE02000C
:1046F0000B00200029001BF07BFAFFF7ADFA70BD1C
:10470000012213000B40D0B50C00184203D0C31394
:104710000133012B0FD9FFF7B1FE060020000F0077
:10472000FFF7ACFE02000B00300039001AF0E0FF8A
:10473000FFF792FAD0BDE3130133012BEBD8401001
:104740006410604343005910884202D0FFF730FBE9
:10475000F0E713431800EDE770B50E00FFF78EFE8B
:10476000040030000D00FFF789FE02000B0020005E
:1047700029001AF089FBFFF76FFA70BDF8B5012523
:104780000C00284201D029420FD1FFF777FE060026
:1047900020000F00FFF772FE02000B00300039000E
:1047A0001DF020F9FFF758FAF8BD4B10EDD0FFF7D8
:1047B0008DFE06002000FFF789FE0100300018F092
:1047C00025FF48004210914201D12843ECE7080040
:1047D000FFF7EEFAE8E7C04670B50E00FFF74EFEB1
:1047E000040030000D00FFF749FE02000B0020001E
:1047F00029001DF077FAFFF72FFA70BD0123F0B5FD
:104800000E0083B018421DD1FFF738FE04003000BF
:104810000D00FFF733FE06000F0002000B00200022
:10482000290018F023FF00282ED132003B00200081
:10483000290018F001FF002820D020002900FFF7F0
:104840000BFA08E01942DFD040107610864207DBF1
:1048500003D17000184303B0F0BD33000600180008
:10486000801BFEF77FFF301844006310984202D08F
:10487000FFF79EFAEFE701202043ECE732003B0010
:1048800026002F0014001D00FFF740FC32000090AE
:1048900001913B00200029001BF0AAF9009A019B1E
:1048A0001AF026FF32003B0019F0DEFFFFF7D4F9C3
:1048B000D1E7C04610B5FFF7E1FD1DF0FFF8FFF7A7
:1048C000CBF910BD10B5FFF7D9FD1DF07FF9FFF74B
:1048D000C3F910BD10B5FFF7D1FD1CF08DF9FFF73E
:1048E000BBF910BD10B5FFF7C9FD1CF0A5F8FFF727
:1048F000B3F910BD10B5FFF7C1FD1CF045FDFFF782
:10490000ABF910BD10B5FFF7B9FD0022034B19F04C
:10491000ABFF1CF071F9FFF79FF910BD0000E03FFD
:10492000F8B504000D000E2807D00E2905D08842E6
:1049300029D00B000340DB0701D50020F8BDFFF7AD
:1049400073FD06002800FFF76FFD8642F5D12300B6
:104950002B439B07F1D1032E17D0022EEDD120005F
:10496000FFF78CFD060028000F00FFF787FD02000F
:104970000B0030003900012418F05EFE002800D141
:104980000024E0B2DAE70120D8E729002000FEF792
:10499000E9FF43425841C0B2D0E7C04610B5FFF727
:1049A000BFFF4223002800D1383B180010BDC0468D
:1049B00010B5FFF7B5FF4223002800D0383B1800A0
:1049C00010BDC046F8B504000D000E2815D00E2904
:1049D00013D0062846D0422849D00A2831D00300F7
:1049E000062900D17EE0422D09D00A2D43D09D42F8
:1049F0003FD02B002340DB0704D50020F8BD032265
:104A0000934236D02000FFF70FFD06002800FFF785
:104A10000BFD0300032E30D0032816D0012E3AD010
:104A200001282FD09E42E8D122002A439207E4D1E8
:104A3000032B4FD0022B33D02C1B60426041C0B2FD
:104A4000DCE70123062DDDD0CDE7022E28D0012E94
:104A5000D3D1062CD1D00226422C39D00A2CDFD15A
:104A60000124DDE701200629C8D00023BBE703238A
:104A7000E8E70120C2E70122C2E7022810D003289C
:104A8000CED1D1E70223062D1ED0422D1ED00A2DF5
:104A9000C8D10125C6E7062CDDD102260024BFE7D8
:104AA0002000FFF7EBFC060028000F00FFF7E6FCF4
:104AB00002000B0030003900012418F0BDFD002871
:104AC00000D10024E0B299E70025ABE70325A9E770
:104AD0000324A5E729002000FEF744FF4342584184
:104AE000C0B28BE700228BE710B5FFF76BFF10BD5C
:104AF00010B5FFF767FF4223002800D1383B1800AC
:104B000010BDC04610B5FFF75DFF4223002800D05E
:104B1000383B180010BDC046F8B506890F0045683F
:104B20000024002E04D10BE001340435A64207D93D
:104B300039002868FFF746FF0028F5D0200001E083
:104B400001204042F8BDC04610B500220400FFF726
:104B5000E3FF002806DB04340100200001F01CFA0A
:104B6000012010BD0020FCE7F8B5040083071ED12A
:104B700000282AD0FFF758FC032828D00125022856
:104B800021D12000FFF77AFC02000B0006000F0085
:104B90001BF044FB002818D100230022300039000C
:104BA00018F04AFD434243415B421D400BE00A2896
:104BB0000BD0002C09D00E2C07D0062C05D0013CC0
:104BC00025006C1EA5412800F8BD0025FBE7024B1F
:104BD0009C42FAD00125F6E75486020010B542281F
:104BE00006D00A2802D0FFF7BFFF10BD0020FCE767
:104BF0000120FAE7F8B504000E000E2842D00E2975
:104C000040D0FFF711FC05003000FFF70DFC032D2D
:104C10002FD0B44234D02000FFF730FC0400300025
:104C20000D00FFF72BFC220006000F002B002000D8
:104C300029001BF0F3FA002824D132003B00300099
:104C400039001BF0EBFA00281CD132003B00200099
:104C5000290018F0F7FC002817D13B003200200093
:104C6000290018F003FD431E9841012340421840DB
:104C7000F8BD0328CDD131002000FEF773FEF7E721
:104C80000020F5E702204042F2E701204042EFE732
:104C90000B00034010B5DB0706D4FFF7ABFF0300A2
:104CA000C00F023308D010BD0123884201DAD8B208
:104CB000F9E70023D8B2F6E70020F4E70B00034041
:104CC00010B5DB0707D4FFF795FF831C01D0002840
:104CD00003DD0A2010BD8842FBDC4220FAE7C04613
:104CE0000B00034010B5DB0707D4FFF783FF831CDD
:104CF00001D0002803DB0A2010BD8842FBDA4220E5
:104D0000FAE7C0460B00034010B5DB0705D4FFF7F8
:104D100071FF002803DB422010BD8842FBDA0A2025
:104D2000FAE7C0460B00034010B5DB0705D4FFF7D8
:104D300061FF002803DD422010BD8842FBDC0A2011
:104D4000FAE7C04670B590B00400FFF76DFB03288A
:104D500042D002280ED0052832D0002C53D00A2C85
:104D600053D00E2C3AD0422C51D0062C51D02B4887
:104D700010B070BDE30725D40E2C2FD02000FFF714
:104D80007DFB01224C0064080E005242244B21009E
:104D900005001BF043FA002822D10122204B524289
:104DA0002800210018F058FC002819D10022002307
:104DB0002800310018F046FC00282CD11948D7E70C
:104DC0001948D5E7694660100BF08AF8012168465A
:104DD0004942FEF779FBCBE72000C9E71348C7E754
:104DE0002A003300280031001BF018FA0028F5D102
:104DF000280031006A46FFF74DF801216846494214
:104E0000FEF762FBB4E70A48B2E70A48B0E70A488F
:104E1000AEE70A48ACE70A48AAE7C046CC860200DB
:104E2000FFFFEF7F7C860200DC8602008C8602009A
:104E300038860200C0860200B4860200A8860200FE
:104E40009886020010B5FFF7EFFA05280FD80A4B35
:104E500080001B589F46094810BD0948FCE70948D7
:104E6000FAE70948F8E70948F6E70948F4E7094886
:104E700007F03EF90020EFE7448402006C86020050
:104E800028860200F08602001087020000870200D8
:104E90005C8602002203000070B50400FFF7C4FA2C
:104EA000042815D02000FFF74DFF05002000FFF774
:104EB000C9FF03681B6A98472B6806001B6A280015
:104EC00098472200030031000E480BF03DFA70BDF8
:104ED000002C01D0A30704D021000B480BF034FABA
:104EE000F5E7216801230A009A4353690748834282
:104EF00002D020009847EAE71388054812890BF092
:104F000023FAE4E7AC850200BC850200994E00005C
:104F10008C85020010B50100040011480BF014FA52
:104F2000002C03D0A3070BD0062C16D02000FFF7CF
:104F30007BFAF5239B009C46604407F0D9F810BD2E
:104F4000012321689943CB78F92BEDD10B898A781D
:104F500004480BF0F9F9062CE8D10348EDE7C04608
:104F60005C84020078840200DD03000010B50100BB
:104F700003480BF0E9F9E420800007F0B9F810BD10
:104F8000E484020010B501F091FB0400102000F051
:104F900023FD23690360206110BDC04670B501F098
:104FA00085FB04690500002C05D0236820002B61D7
:104FB00000F030FC70BD024807F09AF8F5E7C046F3
:104FC00053030000F0B5C64600B584B0804601F03A
:104FD0006DFB04690600002C16D0236822003361A3
:104FE0006B4683CA83C3126820001A6000F012FC6B
:104FF00043467361094B31001B6868469B6B9847B9
:1050000004B004BC9046F0BD05480BF09DF9404645
:10501000FFF742FF034807F06BF8DEE7500300207C
:1050200098840200E703000010B501F03FFB122353
:1050300044694361122C01D0200010BD014807F0E3
:1050400057F8F9E75303000010B501F02FFB43694F
:10505000122B03D0FFF7E8FFFFF7B4FF10BDC046E7
:1050600010B500290AD003004118054C05486043DB
:105070001A78013350408B42F9D110BD0148FCE74A
:1050800093010001C59D1C81032370B504680500D0
:105090009C4310D0A30F11D02501AD09002D05D0E0
:1050A00080235B019D4204D9002C02DB064807F0F7
:1050B0001FF8280070BD054807F01AF82800E369BA
:1050C00098470500EAE7C046490300005103000085
:1050D000124970B58A880B68551E0FD3AC00E4588E
:1050E000A04217D0023A92009B182A0004E01C004C
:1050F000043B5E68864206D0013AF8D2D220800096
:1051000006F0F6FF70BD954204D0080000F0AEFE38
:105110002060F7E7080000F0A9FEF3E72403002071
:1051200010B518210148FEF7E9FA10BD2C03002044
:1051300001220368934318888010704710B5002837
:1051400015D0C468002C13D02368043C4360A368C6
:105150008360E3682268C360530F032B03D00D48BC
:1051600006F0C6FF226880231B061343236010BD90
:10517000041F2268530F032B03D0064806F0B8FF24
:10518000226880231B0613432360002001F098FA55
:10519000EDE7C0464903000010B5041F2368DB0794
:1051A00015D40D4B1B68002B0DD01A000832944209
:1051B000F8D359688C4662449442F3D201232268A2
:1051C0001343236010BD054806F092FFF6E704483C
:1051D00006F08EFFE5E7C046180300204A030000F2
:1051E0004F03000010B50400830703D1002801D04D
:1051F000030F00D110BD2168104B1942FAD1CB78B2
:10520000F92BF7D10E4B1B68002B11D01A00083276
:105210009442F8D35868844662449442F3D20123FE
:105220000848194321608188220000F00BFEE1E765
:10523000054806F05DFF2168F1E7C0460300004025
:1052400018030020100300204A030000F0B5D646E2
:105250004F4646468246C0B500250F00060000298D
:1052600015D0244B9946244B98463468A3070AD19D
:10527000002C08D0230F06D02168204B194202D100
:10528000CB78F92B08D001350436AF42EDD11CBCE8
:1052900090469946A246F0BD4B461B68002B23D092
:1052A0001A0008329442F8D3586884466244944203
:1052B000F3D20123194343462160998822004046D6
:1052C00000F0C0FD43469B88642BDCD90C200BF01A
:1052D0007BFD0B4A0135136810600360AB0053443B
:1052E0007D1B43608560D2E7064806F001FF216818
:1052F000DFE7C04618030020100300200300004031
:105300001C0300204A03000070B504680500002C4F
:1053100006D02000FFF740FFA9882000FFF796FF86
:1053200070BDC046F0B5C646040000B5830703D182
:10533000002801D0030F02D104BC9046F0BD2168C3
:10534000214B1942F8D1CB78F92BF5D11F4B1B68B3
:10535000002B34D01A0008329442F8D3586884469F
:1053600062449442F3D201230B4323600323994305
:105370008B69002B01D02000984703239846144DD9
:10538000144CAB88002B0FD120680028D4D00368C0
:105390008768466823600BF041FD39003000FFF755
:1053A00055FFAB88002BEFD0280000F05FFD424690
:1053B000036893439B69002BE3D09847E1E70648D5
:1053C00006F096FE2168CEE7030000401803002097
:1053D000100300201C0300204A030000F0B5DE4645
:1053E00057464E464546E0B59E4B85B01B78039028
:1053F0009A0705D5D220800006F07AFE994B1B78DB
:1054000002221343974A1370974B039A1C689F8894
:1054100002231A40904600D011E100250126002FFA
:105420000AD02068304201D0B04300680135FFF750
:1054300079FF0434AF42F4D8039801F047F98B4C5C
:105440002368002B15D08A4B1B685D8D00F09CFEF5
:10545000AB00461B2568ED184346002B00D0F7E053
:10546000002E06D0002401CD0134FFF75BFFA642D9
:10547000F9D1804B00241D687F4B1E78002E05D08B
:1054800001CD0134FFF74EFFA642F9D800237B4A35
:1054900013607B4B7A4A1B68009301331360794B8E
:1054A0001B689A46002B00D1D8E0002301279946BB
:1054B0009B46009301935346019A5B6894469B0870
:1054C00055469C449E0063460835AE190193B5428B
:1054D00050D2534602932B683B4200D08CE01A0F07
:1054E000062A00D188E0AE4200D894E08022D2059E
:1054F0002C00904600E02368002B10DB3B4215D1C6
:105500001A0F062A12D04246134208D1DB78F92B33
:1055100002D05D4806F0ECFD200000F077FC200092
:10552000FFF7B2FD80002418A642E4D8631B9B104D
:1055300098469A0080231B0613439A46009BC34457
:10554000434501DA43460093FF21280006F06AF83C
:1055500053462B604346012B56DD00236B604B46C0
:10556000002B53D04B46A9465D602500AE42B2D811
:10557000029B9A4653461B689A46002B9BD1434890
:105580000368002B14D05B465C083C4B1A68002A69
:105590000ED01368190189098C4206D248E01368BD
:1055A0001B019B09C9188C4243D35268002AF6D1CB
:1055B0005B469900019B9A00009B9B003048C160AC
:1055C00003614069002814D0884212D80398C007AC
:1055D00002D52F480AF0B8FE0222224B1B789343D3
:1055E000204A137005B03CBC90469946A246AB4693
:1055F000F0BD23484161E9E7BB432B602800FFF77A
:1056000043FD80002D18B1E72500AFE71B4BA946ED
:105610001D602500AAE7009B002B03DB80231B06EF
:105620002B60A3E780231B062B60002300939DE7DC
:105630000B00E318591A890052180260B8E71548A0
:105640000AF082FE3A00210013480AF07DFEE4E6EB
:105650003200290011480AF077FE01E700230022FA
:105660000021ABE7180C0020240300204C0300208D
:105670005003002044030020190C002048030020A0
:105680002C03002018030020490300002003002001
:10569000408702002087020028870200348702002A
:1056A000F8B5404E3368002B08D01B68002B67D03C
:1056B0000220FFF793FE152006F01AFD0021CF20EF
:1056C000FEF7A0FD802104004901CE20FEF79AFDDF
:1056D000050000200BF00EFB0027451B002C37D1E6
:1056E00028000BF071FB0400280008386060A761F7
:1056F00083073FD12C4B31685A6801325A609A684F
:1057000012189A60294AC31C1A4080231B061343AF
:10571000274AA36013688008E36023000833181841
:105720001360244B1860002921D0A1421FD80A68B9
:10573000002A34D0944207D213000A002360146078
:10574000F8BDA342FAD81A001368002BF9D1F5E787
:10575000194BA4029C466044C30BDB031C1B002CAA
:10576000BEDD20000BF030FB2D1B0700B8E72160E9
:105770003460E5E7D220800006F0BAFC6068B9E743
:105780000021CD20FEF73EFD0C4BC318002B00DCA2
:105790008EE70B4B0B4C9C4660446060A8E70023EF
:1057A0000A00CBE7180300202C030020FCFFFF7F3A
:1057B0004803002020030020FF7F0000FC7BFFFF48
:1057C000F47BFFFF0084002010B5002819D00F4B98
:1057D0001B68002B16D01A0008329042F8D3596883
:1057E0008C4662449042F3D2041F2268530F032B6D
:1057F00003D0074806F07CFC226880231B06134375
:10580000236010BD0BF00AFBFBE7C0461803002025
:105810004903000070B5041F22680500530F032BD5
:1058200003D0054806F064FC226880231B0613435E
:105830002800236070BDC046490300000421024ACD
:1058400013780B4313707047180C0020F8B54E46C0
:10585000DE46574645468023E0B5C61CB608DB0148
:10586000984200DD8BE04B4B5B68DB0500D174E0B8
:10587000494B9A46494806F03BFC53461B780122A7
:1058800013435246137000F011FF002803D0436801
:10589000002B00D17AE0424B00279B46414B9946B2
:1058A0005B461D6800239846002D12D11CE03E483F
:1058B00006F01EFC2C68002C02DB3C4806F018FCAD
:1058C0002401A409A41B6B6817D5A846002B0BD094
:1058D0001D00002F03D14B461B68AB4238D3AB07EA
:1058E000E5D12B0FE3D0E5E7002F31D0012F42D0D7
:1058F000152006F0FDFB0137D2E7002C0AD08022EC
:10590000B600A1001206AE190A433260012C01D084
:10591000736033004246002A35D0536000222A606B
:10592000002B08D05B68002B05D09A071CD0D42030
:10593000800006F0DDFB534601221B7828009343CC
:10594000524613703CBC90469946A246AB46F8BD01
:105950000020FFF743FD0137A2E70F4B9A461B7863
:105960005A0700D086E78AE71B0FE4D1D4208000D5
:1059700006F0BEFBDFE7FFF793FE013790E7162046
:1059800006F0B6FB6FE75A461360C7E7084806F013
:10599000AFFB80E700ED00E0180C00209203000050
:1059A0004803002020030020510300004B030000A7
:1059B0004E030000032310B5C41C9C43201DFFF7B9
:1059C00045FF044B07341C408023DB051C4310C0FB
:1059D00010BDC046FCFFFFBF10B5002808D0FFF780
:1059E000E9FF8023021F11689B050B43136010BD64
:1059F0000020FCE7F8B51F4B06005B680D00DB05D7
:105A00001FD100F053FE1C4B1C4F1D60751BAD10C9
:105A1000041E3D7019D00C20FFF7CCFF8023021F1D
:105A200011689B050B43136063680360A3684360C0
:105A3000E3688360E0600023A6603B702000636041
:105A4000F8BD0F4806F054FBDBE71820FFF7B2FF64
:105A50008023021F11689B050B431360094B05004F
:105A60001B68C460036012230461436100F028FED8
:105A70002C00E0E700ED00E044030020190C0020BA
:105A8000920300004C0300200C4B10B55B68DB0553
:105A90000ED10B4B1B78002B0AD100280BD0FFF73F
:105AA00089FF8023021F11689B050B43136010BD03
:105AB0000BF08AF9FBE70020F9E7C04600ED00E0B3
:105AC000180C0020F8B504000D00194B1B68002BC2
:105AD00028D01A0008329442F8D359688C466244A0
:105AE0009442F3D22800FFF7CFFF0600002C17D016
:105AF000002E15D0271F3A68530F032B03D00D48F3
:105B000006F0F6FA3A68120192099200AA4200D908
:105B10002A002100300004F09DFB2000FFF754FE16
:105B20003000F8BD290020000BF0A6F90600F7E7C9
:105B3000180300204903000070B5002909D001298D
:105B400008DD4C1E051D0121FFF7F6FF2800013C72
:105B5000F8D270BD012202430248818800F072F938
:105B6000F7E7C0462403002010B5830703D10028BF
:105B700001D0030F00D110BD034B0200998818001B
:105B800000F060F9F7E7C0462403002010B5830752
:105B900003D1002801D0030F00D110BDFFF798FA00
:105BA000FBE7C04610B54068FFF71CFB10BDC046C0
:105BB00010B50430FFF7A8FB10BDC04610B58188B2
:105BC0000C30FFF743FB10BD10B54068FFF70AFB30
:105BD00010BDC04610B504000430FFF795FB20004F
:105BE0000C30FFF791FB10BD012208C810B593439C
:105BF000198804398908FFF729FB10BD0220704776
:105C000003207047808880000F3080087047C046AE
:105C100002207047052070470023044A13609380D8
:105C2000D380034A13609380D380704724030020FD
:105C30001003002010B500F0F7FC10BD10B50028CF
:105C400001DB00F0E9FC10BD0023438103814360C8
:105C50007047C0467047C0460023438103814360BC
:105C600043820382C360704710B5054A01008388F0
:105C700012688068821A03480AF066FB10BDC046AD
:105C8000500300204488020010B501004268024819
:105C90000AF05AFB10BDC0465C87020010B5010037
:105CA000028902480AF050FB10BDC046F48702008A
:105CB000F8B5C38804000D008B421AD20420002BD3
:105CC0002DD12E00854221DBB0000BF07DF80700BE
:105CD000E088002830D1321A800092000021381864
:105CE00005F0A0FC20680BF099F82760E680A580FD
:105CF000F8BD82889142FAD22368521A9C468800E5
:105D000092006044002105F08DFCF0E70600B00031
:105D10000BF05AF80700E0880028DCD00CE05800AF
:105D20003F2BCEDD0B4A93420DDD581C0A4BFF3052
:105D30009842C6D90948C4E782002168380004F0B7
:105D400089FAE088C7E79800C018032117F078FBAC
:105D5000B7E7C046FF010000FEFF0000FFFF0000A4
:105D60007047C0467047C046012370B50A680500F9
:105D70009A4313890E00042B07D0104801221049C2
:105D80000AF0E2FA0E4806F0B3F93000002D00D117
:105D900070BDE81C8000FFF759FD041E01D0094BBF
:105DA00003602000B3682A04A580A360920B0C3026
:105DB000002105F037FC2000EAE7C04634880200E5
:105DC00085030000A88702000E4B026970B505002C
:105DD0009A4209D0E2210C48032289000AF0B4FA61
:105DE000E220800006F084F92888FFF72FFD041ECA
:105DF00000D005602A88201D043A002105F012FC1D
:105E0000200070BD615D000034880200012310B5E0
:105E100002689A431369984710BDC046012310B524
:105E200002689A431369984710BDC046012310B514
:105E3000026801009A43128801480AF085FA10BDF1
:105E40008C870200084B70B505000C0016009942C3
:105E500005D88388994203D22B68A400E65070BD10
:105E60000131FFF725FFF7E7FEFF00008388002BD5
:105E700009D0013B02689BB283809B00D3180022AB
:105E800018681A6070470020FCE7C046F8B5C7885C
:105E900006000C00002F15D10D00032925DC102071
:105EA00004250424FFF786FD0700F088002828D188
:105EB0002A1A800092003818002105F0B3FB3760E1
:105EC000F480F8BD3F2F19DD134B9F420FDD781C86
:105ED000124BFF3098421BD9114803002500844221
:105EE00001DA1C001D00AF42EBDAA000DAE7B800CF
:105EF000C019032117F0A4FA83B2EFE7780083B248
:105F0000ECE782003168380004F0A4F9F088CFE7AC
:105F100083B20004000CE1E7FF010000FEFF000077
:105F2000FFFF0000C38870B505000C0016008B420F
:105F300007D8084B994200D970BD013189B2FFF7EB
:105F4000A5FF2A68A3009E50AB889C42F4D301347D
:105F5000AC80F1E7FEFF0000C38870B505008B42FE
:105F600002D28AB29A4202DA8CB2AC8070BD1100C1
:105F70001400FFF78BFFF8E78388002B09D0013B63
:105F800002689BB283809B00D318002218681A60B5
:105F900070470020FCE7C046F8B5828805008A42B9
:105FA0001AD903688E0098194F1C0468BA4207D8A2
:105FB0000021013A92B2AA809200D1502000F8BD8F
:105FC000521A06498C46311D62449200591821F03C
:105FD000F5FCAA882B68EBE70024EFE7FFFFFF3F03
:105FE000F8B51700828804000D008A4218D9511CA8
:105FF000C38889B299420FDA6B1C9B0020681E1F70
:10600000521B81199200C01821F0D8FC23689F51BF
:10601000A3880133A380F8BDFFF738FFA288EBE720
:106020003A00FFF77FFFF6E770B50500C388828866
:10603000016809480AF088F9EB88002B0BD000248E
:10604000064E2A68A300995830000AF07DF9EB88C3
:106050000134A342F5D870BD088802002C880200E4
:1060600010B504000289010003480AF06DF9201DF3
:10607000FFF7DAFF10BDC04670870200034B0360D4
:1060800000234360038143817047C046C0880200FB
:10609000024B0360002343607047C04690880200B3
:1060A000044B03600023436003814381C360038288
:1060B0004382704760880200F8B54746CE4680B5F7
:1060C00007890C004668002F34D033688B423CD0DF
:1060D000331D002004E004331A1F1268A24225D0A9
:1060E0000130B842F7D3236820005B6A98472368E1
:1060F00080461B6A200098470024814603E0013453
:106100000436BC421ED235682B6828005B6A98476B
:106110004045F4D12B6828001B6A9847424601008D
:10612000484621F03CFC0028E9D120000CBC9046F8
:106130009946F8BD0B6808005B6A98472368200001
:106140001B6A984701204042F0E70020EEE7C04676
:106150007047C04610B504000A00010003480AF069
:10616000F3F8200005F0C4FF10BDC04634880200DB
:10617000014B1B681869704750030020014B1B68D6
:106180009869704750030020014B1B68188C7047BA
:1061900050030020014B1B68D86B70475003002050
:1061A0001D4B026870B506009A4200D0FEE74168B8
:1061B0001A4D1B4B0A6829609A4224D0088C800033
:1061C000FFF70AFC2B68174C1A8C00219200206004
:1061D00005F028FA23681C602C68134B22689A4249
:1061E00000D0FEE7B36822699A42FAD100F004FBBE
:1061F00020002B6800221C6B002100234030A047A8
:1062000000F006FA06E0094810310AF09DF8084847
:1062100005F06EFF70BDC046104200005003002024
:10622000718E3B924C030020708E3B92D887020007
:106230009F03000010B50248FFF7B2FF10BDC04633
:10624000007B0200002801D0830701D000207047A6
:10625000012203689343DA78F92AF7D118890638BE
:1062600043425841C0B2F2E770B505000C20FFF779
:10627000EDFA041E05D0174B036000234360038131
:106280004381002D08D0AB0706D101232A689A4329
:106290001300D278F92A01D0200070BD0E4A934233
:1062A000FAD12E89002EF7D02000FFF75DFC63891C
:1062B0009E4204D903DB201D3100FFF7E7FD268154
:1062C000B2006968606803F0C5FF2000FFF75EFC5C
:1062D000E2E7C046C08802006088020070B5040092
:1062E0000D00002801D0830713D00F4805F000FFF0
:1062F00029002000FFF7E0FE051E08DB2900201D15
:10630000FFF74AFE200029000C30FFF745FE42202F
:1063100070BD012302689A431300D278F92AE4D1B0
:10632000024A9342E4D0E0E79B0300006088020049
:1063300070B50E00FEF7A2F8040030000D00FEF765
:106340009DF802000B00200029001BF0E3F9FDF787
:1063500083FC70BD10B5FEF791F81AF065FFFDF7EC
:106360007BFC10BD10B5FEF789F81AF015FFFDF79C
:1063700073FC10BD10B5FEF781F81AF0F3FBFDF7C2
:106380006BFC10BD10B5FEF779F81AF0B9F9FDF7FE
:1063900063FC10BD10B5FEF771F81BF05BF9FDF75B
:1063A0005BFC10BD10B5FEF769F81BF097F8FDF720
:1063B00053FC10BD10B5FEF761F81BF0AFFEFDF702
:1063C0004BFC10BDF0B5C64600B5030282B00D000F
:1063D0001B0E00D01D00FA230004040C1B01E6185C
:1063E000300001F0EDFA002803D002B004BC904662
:1063F000F0BDF0232B40102B1CD0202B1DD00022F1
:106400009046302B02D00E4805F072FE200001F0BD
:10641000BBFA0700182021F097FA434601930F2397
:1064200004001D40B2B200950E3B39000CF0DAFEBC
:106430002000DAE701239846E8E702239846E5E7DB
:106440002303000070B50D0001214942FDF7DAFE7B
:106450000400431C04D029002000FFF7B3FF70BDE7
:10646000014805F045FEF6E78B030000F8B505008E
:106470000F0016001C0001F0A3FA002800D0F8BDA0
:1064800021003800FFF79EFF210007003000FFF7D2
:1064900099FF0600102021F057FA0400ABB2B28831
:1064A000B9880FF097F8002138000CF0CDFE0021DC
:1064B00030000CF0C9FE200001210FF01FF8200071
:1064C000DDE7C046012170B5494204000420FDF714
:1064D00099FE0121050049420520FDF793FE202188
:1064E0000600CA20FDF78EFE002C0AD0012C12D027
:1064F000022C0BD10300320029000320FFF7B6FF66
:1065000070BD01002800FFF75DFFF9E7044805F0C2
:10651000EFFD0020F4E701003000FFF753FFEFE745
:106520008D03000010B52021007CFFF74BFF10BD4C
:1065300010B51023808800F0F1F910BD036810B584
:106540009B699847431E9841C0B210BD10B50AF030
:106550004FFD431E9841C0B210BDC04680887047B1
:1065600010B5044B00221B6800211C6B0023A047C0
:1065700010BDC04650030020F0B5CE464746060089
:1065800080B585B000900191029287B21022360C3E
:1065900069461248039303F05DFE31003800FCF7B2
:1065A0004DFF04003000FDF753FC8046002C10D056
:1065B0000B4B99464B461B6800221D6B414600233E
:1065C000E068A847206832003900FCF723FF041E6A
:1065D000F0D105B00CBC90469946F0BDD802002021
:1065E0005003002010B5FFF7D1FA0AF0A7FA10BD4A
:1065F00070B50600054D2B6800221C6B002100239E
:106600003000A04714200AF067FAF4E75003002096
:1066100010B50AF093FA10BD10B50AF05DFA10BD7E
:1066200010B509F099FB10BD10B5041E06D0FFF798
:106630009BFA034A210003480AF046F910BDC04600
:10664000C50B0100F165000010B5041E06D0FFF770
:106650008BFA034A210003480AF036F910BDC04600
:10666000E56500006165000010B589B280B20AF0EE
:1066700055FA10BD054B10B51C68FDF7B9FD044B6C
:106680009C4664442018400A400210BD500300207C
:10669000FF01000010B509F079FB10BD10B50CF03A
:1066A000B7FB10BD10B50CF0C3FB10BD034B1B684E
:1066B000002B01D0186A70470020FCE7C40A0020B4
:1066C000014B1B6818627047C40A0020F0B54E46A3
:1066D000DE4657464546E0B53E4B89B099461B68B5
:1066E0000490002B6DD0002009F058FE04000390A8
:1066F00080000AF069FB059009F050FE844203D047
:10670000CB20800005F0F4FC039B002B3FDD059BB4
:10671000019300239B460293019B1F683E6A002E53
:106720002CD07069FEF7FEFD0223049A0436134054
:106730009A464B461B6834689F4232D03868BD6821
:1067400009F03AFB4B461B682D1A641975689F4285
:1067500007D0BB683868984609F02EFB4346181AE4
:106760002D185346002B20D1A54204D901CCFEF7A9
:10677000D9FDA542FAD8B668002EDAD1019A029B5B
:1067800004320192039A013302939A42C4D10598CC
:106790000AF044FB09B03CBC90469946A246AB4681
:1067A000F0BD53467568002BDED001235B4498464C
:1067B0002B1B59469B102200074809F0C5FDC34614
:1067C000D2E701200AF000FB079007980AF026FBA9
:1067D000E0E7C046C40A0020F088020010B501F0CE
:1067E0007DFB0400302021F0AFF8012300222100BE
:1067F0000CF08AFB10BDC046F0B583B0FFF7EEFF8A
:1068000001F004FC2F4B1B681F8D002F2CD000259E
:106810002D4E05E0B44213D0B4424ED82560250079
:1068200004200AF0D1FA0190019B04005B07F1D526
:106830000AF0F4FA08200AF0C7FA0400B442EBD1D7
:1068400020000AF0EBFA38000AF0BEFAA04209D0A4
:106850001E4805F04DFC002D06D02C6828000AF0DB
:10686000DDFA2500002DF8D1194809F0F3FE194C86
:10687000194E651CFF3502E00434AC420AD0206892
:106880000028F9D003681B68B342F5D00434984758
:10689000AC42F4D101F098FC01210D204942FDF7F2
:1068A000B1FC01F071F8002803D0036800211B68D7
:1068B000984701F081FB03B0F0BD084805F018FCD3
:1068C000ACE7C04650030020001000202A0300005F
:1068D00054030020C0050020912200002B0300007B
:1068E00010B5084810F0F2FB074C20000EF000FC39
:1068F000064A0749200021F03CF8064A064B1A6078
:1069000010BDC046D802002054030020B40000206F
:1069100085510100D490020078030020F0B557465D
:106920004E464546DE46E0B58DB004000D0016002B
:106930001F00FCF783FD00280BD032002900200047
:10694000FCF790FD0DB03CBC90469946A246AB4684
:10695000F0BDBFB20F2C3FD0282020F0F5FF8246BB
:106960001F4BA1B2AAB200970AF0A2FA1D4B5146E2
:1069700018000EF0ADF9002805D050460AF0B2FA22
:10698000504620F0DDFF002DD7D1012120004942E3
:10699000FCF754FD071ED0D0A3B29B46104B99467E
:1069A000104B984610239A4653463A89594600930D
:1069B00002A84B460AF07CFA02A940460EF042F9C2
:1069C00002A80AF08FFA0122386852422100FCF72F
:1069D00021FD071EE8D1B0E7C02FBDD0D3E7C046E8
:1069E000796500005403002000B585B08AB2012308
:1069F00081B2684610F048FB05B000BD012110B51A
:106A000049420248FCF7E6FD10BDC046FC88020082
:106A100010B50EF02DFB10BD036810B51B6A98472A
:106A20000100024809F090FC10BDC0460489020034
:106A3000036810B51B6A0C00984722000100024849
:106A400009F082FC10BDC0460C8902000148C0005C
:106A5000C0087047008000200048704716FCFFFF08
:106A60000048704716FCFFFF0048704716FCFFFF08
:106A7000002070473123C05C303B58407047C0460F
:106A80000048704716FCFFFF3023C35C002B01D188
:106A9000014870470148FCE740890200188902005C
:106AA000004870472C89020070B50D000400402298
:106AB0000021280004F0B6FD09F040F9A369002B7D
:106AC00016D0E369002B1CD12023A269E35C3F2A86
:106AD00011D8A6693343DBB22B703200681C6169A0
:106AE00003F0B8FB63699B196361A3699E1BA661F0
:106AF00009F016F970BD402B0ED03F223F261343FC
:106B0000EAE7042321002B70681C1C31042203F0E7
:106B1000A1FB0023E361EBE73F263F23DCE7C04610
:106B2000302370B5C35C90B004000D00002B2DD154
:106B300013787F2B1BD85378092B27D19678002EFA
:106B400024D1D378022B21D1D37991791B020B4325
:106B5000402B1BDC01222923C254144B1B6898696B
:106B600012F0C6FB46230020EE5210B070BD5378E1
:106B7000012B0BD19378002B08D1D378012B05D1B1
:106B8000D37991791B020B43402B01D00848ECE7E5
:106B9000FFF784FD694660622000FFF785FF402211
:106BA0006946280012F03AFC0020DEE7EC0A0020DB
:106BB00016FCFFFF302310B5C35C90B00400002B1F
:106BC00007D1436A002B19D100236362A36110B07F
:106BD00010BD0F4B18680AF0ABFE0028F7D004E098
:106BE00040226946A06812F019FC69462000FFF7B0
:106BF0005BFF6B461B78002BF2D1E8E7FFF74EFDF9
:106C0000636AC01AFA239B009842DDD8DFE7C046CA
:106C1000EC0A0020F0B5C6461A4B00B598461A4D4E
:106C20001A4E1B4F2C78E4B2002C1DD1F06A0422BE
:106C300047604146083003F00DFBF36A40220433FD
:106C4000736120233000F254183BF461B361FFF705
:106C5000B1FF14342B78002BE4D13220013C09F031
:106C60003BFF002CF6D1DCE70A4C2068002803D05B
:106C70000AF0D4F80023236000232B7004BC904654
:106C8000F0BDC0467C0300201A0C00200404002044
:106C9000FDF9923684030020F8B54746CE4680B50C
:106CA0000400894690461F00089D202602E005202A
:106CB00009F012FF2000FFF77DFFA369002BF6D13A
:106CC000002D14DB09F03AF8A369002B13D14346D9
:106CD000E3614B466761A355A561012509F020F8E2
:106CE0002000FFF767FFA3696D42002BDFD10CBCCA
:106CF00090469946F8BD09F013F8DBE7030000B5AC
:106D0000054A83B010689A7840210C320092034AF9
:106D1000FFF7C2FF03B000BD800300202000800009
:106D200010B52824045D82B0002C08D0C024002BAC
:106D300008D000920B0000222100FFF7ADFF0020D9
:106D400002B010BD403CF4E7302370B5C35C90B096
:106D500005006C46002B2DD040226946C06812F019
:106D6000E3FA002824DD3023EB5C002B3BD0EB6AF8
:106D700024781988002925D13F262640181D6B4606
:106D800040183200591C03F065FA3F21EB6A8C432E
:106D90001A880020921992B21A80002C08D0402C38
:106DA00029D0802C29D002219970100000221A804D
:106DB00010B070BD164B40221B686946986912F0EE
:106DC000B3FACEE762B2002A1ADB3F2682222640BF
:106DD000701852009042D1DD1220FF300BF0A4F861
:106DE000EB6A1988CAE70A4B00221B6809495869EF
:106DF00012F014FBBBE79870D7E701219970D4E734
:106E00001020FF300BF090F8EB6A1988DDE7C046E0
:106E1000EC0A0020A48A0200802370B55B00040005
:106E200015009A420BDDC36A41615B684022C36171
:106E30002023C2548561FFF7BDFE002070BDC06AEB
:106E40000435083003F006FAE36A40220433636134
:106E50000023E3612033E2542000A561FFF7AAFE7E
:106E6000EBE7C046F0B5C646302300B5C35C84B03E
:106E70000400002B03D12933C35C002B09D0200070
:106E8000FFF762FF8046002803D0E56AAF78002F45
:106E900004D0002004B004BC9046F0BD2B896E687D
:106EA000AB80EF80FFF7FAFB012328226062A35436
:106EB000102E00D1EFE016D8032E00D1DFE000D86D
:106EC00085E0082E2FD0092E00D194E0042E1AD18F
:106ED000844B1F60BFF34F8F834A844BDA60BFF34C
:106EE0004F8FC046FDE7824A964200D1B2E05CD99E
:106EF000804A96423ED0804A964200D1B7E07F4A0F
:106F0000964200D1ACE00123EB80E36A40220433D7
:106F100063610023E3612033E2541C3BA361200042
:106F2000FFF748FEB5E74346102B03D0CD204000C5
:106F30000AF0FAFF2E69402E00D9CAE02900E8685D
:106F40000831731E002E05D00A00551A2D5820C294
:106F5000013BFAD2E36A4022043363610023B600A6
:106F6000E36104362033E2542000A661FFF722FEDD
:106F700000208FE7FFF708F9614B0290E06A1B6879
:106F8000082202A908300193039303F063F9E36A2E
:106F90004022043363612023E761E254143B200064
:106FA000A361FFF707FE002074E7202E79D0212E81
:106FB000A9D1544B1B68002B7CD028000C3098477B
:106FC000E36AE7610433636140222023A4E7012ED2
:106FD00029D0022E97D14C4BDD684C4B6A1EFF3AEC
:106FE0009A4273D8280020F049FD020029002000B1
:106FF000FFF712FF4EE72B699A001032904504D03C
:10700000CA2040000AF090FF2B69E8681435591E29
:107010002A00002B00D178E71668531B1E5004325B
:107020000139F9D271E70223AB600333FF336B619F
:10703000374BEF602F61AB61E36A40220433636139
:107040002023E761E254083B2000A361FFF7B2FD73
:1070500000201FE72F4A304B1A6008F089FE54E7E2
:10706000274AE968126811602C4A1370A8E72C4B74
:1070700020001A682B4B1968FFF7CEFE0AE72A4A50
:10708000184B1A60BFF34F8F174A184BDA60BFF3E3
:107090004F8FC046FDE72549200004C9FFF7BCFE1D
:1070A000F8E62B7B002B0ED0214B224A1C60224B92
:1070B0001A602AE70222EA80E26AE361043262612E
:1070C0002023402228E71C4A13601EE703221B4DA1
:1070D0008CE7CE2040000AF027FF2900E86808313D
:1070E000731E31E7FC7F00200400FA0500ED00E08C
:1070F00093BD2011E066FC53101590703159A527FF
:107100004C03002000040020F01F0000FF1E0000C0
:10711000882BED687FACEBF0047800201A0C00207F
:107120008803002084030020EF6926F0C0060020B9
:1071300080030020FD6C0000FC0300205489020045
:10714000094A00230832026028228360C360037169
:107150000361835401328354C16201210732815497
:10716000013283544362704774890200F0B5040011
:10717000C56983B029002A4809F0E6F8E369002BC5
:107180001BDB6068A91E6B882A8809880190A069AA
:107190000090244809F0D8F82B88234A934204D061
:1071A000D022D201934210D0FEE7E3690233E361BB
:1071B0006368032B29D003B0F0BD03225B005B089A
:1071C000E3611A4B1B681A60F5E72600E369184F64
:1071D000DA1CA261174A02331360174B2436174D8D
:1071E00038689B1B2B60002802D009F017FE2B6823
:1071F000180009F0E9FD2A683100386003F02AF828
:1072000001220F4B9343E361D5E70022074B1B6834
:107210001A608023A2691B061343A361CBE7C04613
:107220009089020098890200406800004C03002009
:10723000840300207C0300200080002088030020BD
:10724000156C000000B56846FFF790FF00BD704761
:10725000F8B505000E00002826D0002924D01C4FC8
:107260003C68002C03D10CE0246C002C09D023686E
:107270009D42F9D163689E42F6D1164809F064F840
:1072800010E0154809F060F8442020F05DFB040090
:107290000560466032000830290012F033FB3B687D
:1072A0003C6023642000F8BD0C4809F04DF8012132
:1072B00019204942FCF7A6FF00F066FB01210500FA
:1072C00049421820FCF79EFF00F05EFB0600C6E76F
:1072D0008C030020E8890200CC890200B0890200FA
:1072E00010B5FFF7B5FF083010BDC046F0B5C64673
:1072F00000B5060082B00C0000201100170098466F
:10730000FCF7FCF9434605000200300064000093DE
:1073100008323B00A1B2083012F0B2FA43425841A1
:1073200040420540280002B004BC9046F0BDC04673
:1073300010B51C0082B04900536889B2083200942D
:10734000083012F05BFA02B010BDC04670B5094DAE
:107350002868002800D070BD0D30FF3020F0F4FA0E
:10736000040010F091FD201D21000CF0B7FE2C60F0
:107370002000F0E790030020F0B5050083B00C007A
:10738000FFF7E4FF2B6806001B6A280098472B686C
:1073900007005B6A28009847390002B268460FF080
:1073A0005FFF694601A80FF077FF2200636808328B
:1073B00001A9301D0CF0D2FF01A80FF013FF6846A1
:1073C0000FF010FF03B0F0BD70B5040082B0FFF7FE
:1073D000BDFF236805001B6A20009847236806004C
:1073E0005B6A20009847310002B268460FF038FF10
:1073F000694601A80FF050FF281D01A90CF0D2FE2C
:10740000040001A80FF0EEFE002C0ED02000202179
:107410001030FCF773F905002000FEF7D5F9684637
:107420000FF0E0FE280002B070BD0025F7E7C0466F
:1074300070B5040082B0FFF789FF236805001B6A5E
:1074400020009847236806005B6A200098473100B7
:1074500002B268460FF004FF694601A80FF01CFF56
:1074600001A9281D0DF018F801A80FF0BBFE684611
:107470000FF0B8FE02B070BD10B5FFF767FF043023
:107480000DF010F810BDC04670B5D31872B615785F
:107490000132802441600326013EFDD12C4200D1FF
:1074A00001600626013EFDD10160641004D0E4B203
:1074B0000226013EFDD1EDE79A4200D2E7E762B62F
:1074C00070BDC04610B5041E0BD0012113204942E7
:1074D000FCF798FE00F058FA201A44426041C0B20E
:1074E00010BD0020FCE7C046C823F0B5DE46574675
:1074F0004E46454694469946E0B557006744B94420
:1075000087B0804648460491039220F039FA4A46F3
:1075100000210400002704F085F8802380226420E5
:1075200003998F421FDA26183178194331705910A8
:1075300041D0C9B28C4669469B10CB759A46CB7D2B
:107540000499C95D114203D0654631780D43357009
:107550005146002925D10130521038D00399D2B2BA
:1075600040238F42DFDB00220021404600F086FDF1
:10757000036805001B681A49984700222B6800928F
:10758000DE684A46002321002800B047200020F092
:10759000D7F907B03CBC90469946A246AB46F0BD31
:1075A0004023521017D05910D2B2CBB20029B7D114
:1075B00001308023B4E7049B0130DB5D1342EFD040
:1075C00040218A46403140238C462618BCE70137CB
:1075D00080324023A4E75910CBB201378022E5E77F
:1075E000009F2400F8B505000F001600182A18D8CF
:1075F0002B6800211B6828002C7C98471F23012141
:10760000234099400C4B60119C46C00160443300FC
:107610003A00FFF739FF2B6800211B6828009847C4
:10762000F8BDFFF74FFF0028E2D0320039002800F4
:10763000FFF75AFFF4E7C04614440041F0B5D646C0
:107640004F4646461D000368C0B50C001B6800216C
:10765000070020269847236801211B6820009847CF
:10766000236800211B682000013E9847002EF2D1BC
:10767000A846089B43449946089B002B1FD04346CD
:107680001B7808269A468025514629404B1E994171
:107690003B6838001B689847236801211B6820005D
:1076A0009847236800211B682000013E98476D0819
:1076B000002EE9D101239C46E044C145DFD13B685F
:1076C00001211B68380098472025236801211B6889
:1076D00020009847236800211B682000013D98473F
:1076E000002DF2D11CBC90469946A246F0BDC04682
:1076F000F0B5CE46474680B50A0083B000219846D3
:1077000000F0BCFC002405000368184E0094DF68FC
:10771000042200233100B8472B680094DF680A9ADE
:10772000002341462800B8472B680094DC680422F7
:10773000002331002800A0470A9BDF0810D00C4B23
:10774000002499460023984642462B680092DE6842
:1077500004220023494628002034B047BC42F3D31A
:1077600003B00CBC90469946F0BDC046940300207F
:10777000BC000020F0B5040083B00D0017001E000F
:10778000002810D000290ED0002B0CD0089B002B15
:1077900009D0182B09D8089B3A0000932900330020
:1077A0002000FFF74BFF03B0F0BDFFF78BFE002872
:1077B000F1D0089B3A000093290033002000FFF726
:1077C00097FFF0E710B582B000280BD0002B09D04E
:1077D0005C68002C06D00833042A05D0190022006A
:1077E000FFF700FF02B010BD0094FFF7C3FFF9E7F9
:1077F000F0B5CE464746012180B583B002AF49427D
:107800001420FCF7FFFC00F0BFF800210500C820A1
:10781000FCF7F8FC002D13D0002811DB6A46440069
:107820002418E31DDB08DB00D31AE8469D4602AEB0
:1078300022000021300003F0F5FE002C40D1C546A7
:10784000012108204942FCF7DDFC00F09DF80121F0
:10785000060049420720FCF7D5FC00F095F800210E
:107860008046C920FCF7CEFC002E23D04346002BD7
:1078700020D000281EDD6A468400E31DDB08DB0003
:10788000D31AE9469D4602AD22000021280003F0EC
:10789000C9FE0023E022002C03DDEA5404339C429D
:1078A000FBDC802200942B00520041463000FFF7A1
:1078B000C5FECD46BD4601B00CBC90469946F0BD14
:1078C000220031002800FFF78DFEC546B8E7C0460C
:1078D000F0B5C646040400B5240C3F2C2CDC194D31
:1078E0002B5D002B09D0184A126818498C46634456
:1078F0009B00985804BC9046F0BD134B144E98461C
:107900003178186801318900FEF7DCF843461860C9
:10791000202020F019F82100E2B26431032307008F
:1079200012F052FB434631781A684B1CDBB28900D7
:1079300033708F502B55D8E7E320800004F0D8FB3C
:10794000CDE7C04698030020D8030020FFFFFF3F8B
:107950001B0C0020012110B54942FCF753FCFFF736
:10796000B7FF10BD70B504000D003F2803D9E32018
:10797000800004F0BDFB2800FFF7AAFF014B5A5D11
:107980001A5570BD9803002010B5002806DBFF28AB
:1079900004D00004000CFFF79BFF10BD0020FCE7A3
:1079A000012110B54942FCF72DFC002806DBFF2819
:1079B00004D00004000CFFF78BFF10BD0020FCE793
:1079C000084B10B55C1CFF3402E00433A34207D01F
:1079D0001A68002AF9D091888142F6D1100010BDB2
:1079E0000022FBE7C005002010B5FFF7D9FF10BD4E
:1079F00010B501000020FBF781FE10BD014B986817
:107A00007047C046D802002010B503685B699847EC
:107A100010BDC04610B50368DB68984710BDC0466E
:107A20007047C0460048704716FCFFFF044B10B576
:107A3000036000230400C38008F056FB200010BD43
:107A4000088A0200064B10B5036000230400C380BF
:107A500008F04AFB20001FF073FF200010BDC04655
:107A6000088A0200044B10B5036000230400C380A1
:107A700008F03AFB200010BD088A0200064B10B542
:107A8000036000230400C38008F02EFB20001FF0D9
:107A900057FF200010BDC046088A0200F0B5CE4650
:107AA00047462C2380B5C35C85B00400002B04D16D
:107AB00005B00CBC90469946F0BD80680021036873
:107AC00008261B689847A0680121036800251B68E9
:107AD00098472069012103686D009B68984700283A
