:020000040002F8
:1060000000000420CDA30300F5A30300F7A30300C1
:10601000F9A30300FBA30300FDA30300000000009D
:10602000000000000000000000000000FFA30300CB
:1060300001A403000000000003A4030005A4030062
:1060400007A4030007A403006DA2030031A203000C
:1060500045A2030007A40300B196030007A40300B0
:10606000119F0300199F0300219F030007A4030051
:1060700007A4030007A4030007A4030007A4030068
:1060800007A4030007A4030007A4030007A4030058
:1060900007A4030007A4030007A4030007A4030048
:1060A00007A4030007A40300299F0300319F0300F6
:1060B00007A4030007A40300000000000000000084
:1060C00007A4030007A4030007A4030059A20300C8
:1060D00007A4030007A4030007A4030007A4030008
:1060E00095A2030007A4030007A40300000000001A
:1060F0000000000007A403000000000081A20300CC
:10610000000000000000000000000000000000008F
:10611000000000000000000000000000000000007F
:10612000000000000000000000000000000000006F
:10613000000000000000000000000000000000005F
:10614000000000000000000000000000000000004F
:10615000000000000000000000000000000000003F
:10616000000000000000000000000000000000002F
:10617000000000000000000000000000000000001F
:10618000000000000000000000000000000000000F
:1061900000000000000000000000000000000000FF
:1061A00000000000000000000000000000000000EF
:1061B00000000000000000000000000000000000DF
:1061C00000000000000000000000000000000000CF
:1061D00000000000000000000000000000000000BF
:1061E00000000000000000000000000000000000AF
:1061F000000000000000000000000000000000009F
:106200007CB0EE877CB0EE87FF00FF00FF00FF0050
:10621000FF00FF00FF00FF00FF00FF00FF00FF0086
:10622000FF00FF00FF00FF00FF00FF00FF00FF0076
:10623000FF00FF00FF00FF002DE9F04F85B0039144
:106240000778A7F10903042B044607F07F0200F149
:106250000100F5D9202AF3D02B2F04BF677804461C
:106260002D2F72D09FED427B8DED007B4FF000080B
:106270004FF000098FB34FF0000E4FF0000ADFF827
:1062800000B1754619E016F087FF80468946304612
:1062900016F01CFF42464B4616F0CCFD5246804697
:1062A00089465B46DDE9000135B317F09FF8CDE97B
:1062B0000001AE4614F8017F7FB1A7F13006092E28
:1062C00052465B4640464946DDD9C5B92E2F16D108
:1062D00014F8017F0125002FEFD142464B46DDE93E
:1062E000000116F059FF80468946039B4046494607
:1062F0001C6005B0BDE8F08F4FF0010EDAE7BEF18B
:10630000000F29D042464B46DDE9000116F044FF5C
:1063100007F0DF07452F80468946E6D10399601CC8
:106320000A2216F06BFD16490246002017F094FA77
:1063300002460B464046494616F02EFF80468946E7
:106340004046494605B0BDE8F08F9FED0B7B67786E
:106350008DED007B013489E7DFF828904FF00008CD
:106360004046494605B0BDE8F08F00BFAFF300805E
:10637000000000000000F03F000000000000F0BF3F
:10638000000024400000F87F2DE9F84F1646002356
:10639000002204460D4617F071F9002840F09D8058
:1063A000002200232046294617F05EF928B130224A
:1063B000002332707370BDE8F88F2046294615F02F
:1063C0005DF817F099F97BA3D3E9002381462946AC
:1063D000204617F053F9002800F08680B9F1000F2D
:1063E000C0F2BE804A4600206F4917F035FA0246D7
:1063F0000B462046294616F0F9FF04460D4666A1D5
:10640000D1E9000101274FF0000822462B4616F083
:10641000C3FE0022654B16F00DFD17F059FA002F50
:10642000CC464FF0FF3AC1464FF0000840F385805C
:10643000DFF888E15E4C0122AEF1700945F6F325E4
:106440004FF02E0BA94208BFA0424FF0300309D3F2
:10645000001B61EB0501A94208BFA04203F1010343
:10646000F6D2DBB2337050EA010306F1010409D120
:10647000BA4210DACE4502F101020CD026467EE87F
:106480000245DFE7BA4204BF86F801B0B41CCE452E
:1064900002F10102F2D1B8F1000F0DD022463021F5
:1064A00002F8011BC2F1010353442344002BF7DC23
:1064B0002AEAEA7301331C44BCF1010F4CD0652376
:1064C000BCF1000F2370C5BF2B236370611CA11C9E
:1064D0006046BDE8F84F0EF09BB805F100431D463D
:1064E0002D23337001365BE72DA3D3E9002320462B
:1064F000294617F0E1F800287FF470AFB9F10E0FCC
:1065000009F101073DDDA9F10E08424600202649A8
:1065100017F0A2F902460B462046294616F066FF00
:106520000022224B16F086FC17F0D2F9002FA9F1B9
:106530000F0A4FF0010C3FF77BAF334630222E2479
:1065400003F8022B74707FEA090618D01E4403F882
:10655000012BB342FBD16BE700232370BDE8F88F1A
:10656000C9F100020020104917F076F902460B46E7
:106570002046294616F010FE04460D463FE71E460B
:1065800056E7C9F10E0200200749C84617F064F922
:106590004FF0010939E700BF0000901EC4BCD6428D
:1065A00050EFE2D6E41A4B44000024400000E03FE4
:1065B00000407A108DEDB5A0F7C6B03EC8E30300E9
:1065C00070B54FF0FF3006F0D7F904466FF07F400A
:1065D00006F0D2F90646204616F068FD00220C4B64
:1065E00016F0DAFD044630460D4616F05FFD06A3B0
:1065F000D3E9002316F0FAFE02460B462046294650
:1066000016F018FC70BD00BF0000E0DFFFFF6F4315
:106610000000F03D0000000008B50FF0DFFADFEDEC
:106620000C7A07EE100A67EE277A17EE900A16F03A
:106630005FFD05A3D3E9002316F0D8FE17F05CF840
:1066400008BD00BFAFF30080EA2E4454FB2119407F
:106650000000B4430000000008B50FF0D3FADFEDEE
:106660000C7A07EE100A67EE277A17EE900A16F0FA
:106670003FFD05A3D3E9002316F0B8FE17F03CF860
:1066800008BD00BFAFF30080EA2E4454FB2119403F
:106690000000B44300000000494A21F00043934247
:1066A0002DE9704304460D464BDC464A93420E46A4
:1066B0000EDC3FA3D3E9002316F0BCFB0022424BC3
:1066C00016F0FAFF00284CD020462946BDE870831A
:1066D0003E4A93423BDCB3F1804F42DD14F0C8FAEE
:1066E0002246804689462B462046294616F054FD10
:1066F0000022354B16F09EFB15F0F8F902460B46CA
:106700004046494616F096FB02460B4600202E49AD
:1067100016F06CFE424604460D464B46404649463E
:1067200016F088FB02460B462046294616F082FBEF
:1067300002F06AF8002EC9DC01F100431946BDE8F9
:10674000708302460B4616F075FBBDE8708314F0AB
:106750008FFA02F059F818A3D3E9002316F06AFB68
:10676000E8E722462B462046294616F015FD8046CE
:1067700089462046294614F07BFA002204460D463D
:10678000114B4046494616F055FB15F0AFF9002273
:106790000D4B16F04FFB02460B464046494616F09D
:1067A00025FE22462B4616F045FB00F0C5FAC1E750
:1067B0009C7500883CE4377EEF39FAFE422EE63FB6
:1067C000FFFFEF7FFFFF2F3E0000F03F0000B041D2
:1067D0002DE9F84FC44B21F000469E4204460D4679
:1067E0008A460EDDC14B9E4200F3AC8000F0A780CC
:1067F000BAF1000F40F3EA809FA1D1E90001BDE8A2
:10680000F88FBB4B9E4200F3B580A3F1DE739E422E
:1068100040F3A0804FF0FF3B22462B4620462946FE
:1068200016F0BAFC02460B468046894616F0B4FCC8
:1068300093A3D3E9002306460F4616F0ADFC92A3BE
:10684000D3E9002316F0F6FA32463B4616F0A4FCD4
:106850008FA3D3E9002316F0EDFA32463B4616F03B
:106860009BFC8DA3D3E9002316F0E4FA32463B46A5
:1068700016F092FC8AA3D3E9002316F0DBFA324625
:106880003B4616F089FC88A3D3E9002316F0D2FA20
:1068900042464B4616F080FC85A3D3E90023804690
:1068A00089463046394616F077FC83A3D3E90023A6
:1068B00016F0BEFA32463B4616F06EFC80A3D3E9D2
:1068C000002316F0B5FA32463B4616F065FC7EA36F
:1068D000D3E9002316F0ACFA32463B4616F05CFCD6
:1068E0007BA3D3E9002316F0A3FA32463B4616F009
:1068F00053FCBBF1FF3F02460B466CD04046494675
:1069000016F098FA22462B4616F046FC794E7A4B42
:106910004FEACB0B5E449B44DBE9002316F088FA78
:1069200022462B4616F084FA02460B46D6E90001B1
:1069300016F07EFABAF1000F43DBBDE8F88F0028AD
:106940003FF456AF22462B462046294616F072FAEF
:10695000BDE8F88F60A3D3E9002316F06BFA00229C
:10696000664B16F0A9FE00283FF454AF2046294696
:10697000BDE8F88F14F07CF9614B9E4204460D4649
:1069800039DCA3F550239E425EDC02460B4616F02E
:1069900051FA0022594B16F04BFA002206460F46D8
:1069A0004FF080432046294616F044FA02460B4633
:1069B0003046394616F01AFD4FF0000B04460D46DE
:1069C0002AE701F100431946BDE8F88F44A1D1E957
:1069D0000001BDE8F88F4046494616F02BFA2246E2
:1069E0002B4616F0D9FB02460B462046294616F0E8
:1069F0001FFABDE8F88F434B9E421ADC0022424B3F
:106A000016F016FA002206460F463F4B204629464E
:106A100016F0C2FB0022394B16F00CFA02460B4668
:106A20003046394616F0E2FC4FF0020B04460D46A4
:106A3000F2E602460B460020344916F0D7FC4FF030
:106A4000030B04460D46E7E600222C4B16F0F0F946
:106A5000002206460F46294B2046294616F0EAF941
:106A600002460B463046394616F0C0FC4FF0010B8B
:106A700004460D46D0E600BF182D4454FB21F93FD3
:106A800011DA22E33AAD903FEB0D76244B7BA93F20
:106A9000513DD0A0660DB13F6E204CC5CD45B73FEE
:106AA000FF8300922449C23F0D5555555555D53F9A
:106AB0002F6C6A2C44B4A2BF9AFDDE522DDEAD3F8E
:106AC0006D9A74AFF2B0B33F711623FEC671BC3F2E
:106AD000C4EB98999999C93F9C7500883CE4377E2E
:106AE000182D4454FB21F9BFFFFF0F440000F07F35
:106AF000FFFFDB3FD8E30300F8E303000000F03FB3
:106B0000FFFFF23FFF7F03400000F83F0000F0BFAF
:106B10002DE9F843C1F30A59A9F2FF35132D0246B6
:106B20000B460C4606468846074622DC002D50DB05
:106B3000DFF8F09049FA05F901EA090E5EEA060667
:106B40001CD036A3D3E9002316F074F900220023E9
:106B500016F0B2FD48B1002C04DD4FF4801343FA67
:106B600005F5A84428EA0904002721463846BDE86F
:106B7000F883332D06DDB5F5806F3DD010461946FC
:106B8000BDE8F883A9F213494FF0FF3E2EFA09F948
:106B900010EA090FF2D021A3D3E9002316F04AF935
:106BA0000022002316F088FD0028DED0002C09DD2D
:106BB000142D2BD00127C5F1340507FA05F5AE19C0
:106BC00028BFB844444626EA090721463846BDE8AE
:106BD000F88312A3D3E9002316F02CF90022002336
:106BE00016F06AFD0028C0D0002C0BDB54EA060723
:106BF00006D00027084CB8E716F01CF9BDE8F8836A
:106C00003C46B2E700274FF00044AEE704F101082C
:106C1000D8E700BFAFF300800000F03F9C7500880C
:106C20003CE4377EFFFF0F002DE9F041C1F30A5726
:106C3000A7F2FF35132D02460B460C468846064642
:106C40001CDC002D3FDB3A4F2F41864601EA070C42
:106C50005CEA0E0E17D034A3D3E9002316F0EAF84D
:106C60000022002316F028FD20B1002C3FDB28EA8B
:106C70000704002621463046BDE8F081332D06DDAD
:106C8000B5F5806F2FD010461946BDE8F081A7F208
:106C900013474FF0FF3E2EFA07F73842F3D022A3F6
:106CA000D3E9002316F0C6F80022002316F004FDF5
:106CB0000028DFD0002C20DB444626EA07062146C8
:106CC0003046BDE8F08118A3D3E9002316F0B2F8EE
:106CD0000022002316F0F0FC0028CBD0002C17DB9C
:106CE00000263446C6E716F0A5F8BDE8F0814FF45B
:106CF000801343FA05F5A844B9E7142D10D00123F9
:106D0000C5F1340503FA05F5AE1928BF9844D3E759
:106D100024F00042074B324318BF1C460026A9E767
:106D200004F10108C8E700BF9C7500883CE4377E89
:106D3000FFFF0F000000F0BF2DE9F04FD84B994244
:106D400087B0804689460E4613DCD64B21F00044BE
:106D50009C4218DD0022D44B16F086FC002879D026
:106D6000002200230020D14916F040FB07B0BDE807
:106D7000F08FCF4B99422FDD42464B4616F05AF822
:106D800007B0BDE8F08FCB4B9C4270DDCA4B1E4470
:106D90009E427ED80022C94B4046494616F04AF82A
:106DA0004FEA215AAAF2FF3ABAF1000F04460D4603
:106DB0000E4640F3DE8142464B4616F039F8024655
:106DC0000B460020BD4916F033F822462B4616F03C
:106DD0000DFBCDE902010BE0B94B9E42DADD9FEDE0
:106DE0009A7B8DED027B4FEA265A4446AAF2FF3A7F
:106DF000B44BC6F313069E4246F07F5500F3E7807E
:106E000045F44015204629460022AC4B16F010F8F8
:106E1000002204460D46AC4B16F0BEF922462B4626
:106E200016F0BAF9A046CDE90401A946CDE9000162
:106E3000002E3AD1002200232046294616F014FCE9
:106E4000002800F0CE80BAF1000F40F074810020DD
:106E5000002195E742464B464046314615F0E8FF93
:106E600002460B4616F0C2FA07B0BDE8F08F0022CA
:106E7000964B15F0DFFF0022002316F01DFC0028C2
:106E800000F0CC80924B9C4200F3C88040464946BB
:106E900076E700228C4B16F07FF942464B4616F0FF
:106EA0007BF9CDE900014FF0000A00224FF080434A
:106EB0004046494615F0BEFF02460B46404649464D
:106EC00016F094FA02460B4606460F4616F064F991
:106ED0005FA3D3E9002304460D4616F05DF95EA3D7
:106EE000D3E9002315F0A6FF22462B4616F054F9ED
:106EF0005BA3D3E9002315F09DFF22462B4616F035
:106F00004BF959A3D3E9002315F094FF22462B46F1
:106F100016F042F956A3D3E9002315F08BFF224661
:106F20002B4616F039F954A3D3E9002315F082FF5C
:106F300022462B4616F030F951A3D3E9002315F071
:106F400079FF22462B4616F027F904460D46BAF182
:106F5000000F00F0BF80504616F0B8F84AA3D3E9FE
:106F6000002382468B4616F017F9DDE90023CDE9B0
:106F700004012046294615F05DFF32463B4616F0D7
:106F80000BF943A3D3E9002304460D465046594666
:106F900016F002F9DDE9022315F04CFF02460B461C
:106FA0002046294615F046FF02460B46DDE9000162
:106FB00015F03EFF42464B4615F03AFF02460B469F
:106FC000DDE9040115F034FF07B0BDE8F08F45F4AA
:106FD0000015C6F5801620462946B6100AF1010AAA
:106FE00012E72DA3D3E900232046294616F0D4F852
:106FF00002460B460020314915F01AFFDDE9042353
:1070000016F0CAF806460F46BAF1000F73D10246D1
:107010000B462046294615F00BFFB1E642464B468B
:107020004046494616F0B8F80022274B16F0B4F84F
:1070300002460B464046494615F0FAFE07B0BDE849
:10704000F08F00BFAFF300800000000000000000E0
:1070500044523EDF12F1C23F9FC678D0099AC33F27
:10706000DE03CB966446C73FAF788E1DC571CC3F1B
:10707000599322942449D23F04FA97999999D93F78
:10708000935555555555E53F0000E0FE422EE63F2D
:10709000763C7935EF39EA3D555555555555E53F1F
:1070A0007982DA3FFFFFEF3F0000F0BF000050C3DE
:1070B000FFFFEF7FFFFF1F3E3C412D400000F03FF0
:1070C000FFFF3F439DA006000000E03F000050434B
:1070D000FFFF8F3CDDE9004522462B4615F0AAFE56
:1070E00032463B4616F058F802460B4620462946E3
:1070F00015F09EFE9CE7504615F0E8FF23A3D3E968
:10710000002382468B4616F047F822A3D3E90023DA
:10711000804689465046594616F03EF8DDE902237E
:1071200015F088FE02460B463046394615F080FEC3
:1071300022462B46DCE7504615F0C8FF15A3D3E9DD
:10714000002306460F4616F027F8DDE9022315F066
:1071500071FE0EA3D3E9002304460D46304639469E
:1071600016F01AF802460B462046294615F062FE34
:1071700006E60022044B15F05BFE02460B46404635
:10718000494615F055FE20E60000F03F0000E0FE05
:10719000422EE63F763C7935EF39EA3D00000000AB
:1071A00008B514F0EBF804A3D3E9002316F01EF998
:1071B00008BD00BFAFF30080EF39FAFE422EE63F74
:1071C0002DE9F043DFF8B4808BB004460D4601F0A2
:1071D000F3F898F90030013306460F462BD02246CB
:1071E0002B462046294616F071FA814618BB2046E8
:1071F000294613F03DFD1FA3D3E9002316F05CFAE6
:10720000C8B1194A98F90030CDF820900321CDE992
:107210000445CDE902458DE806008BB9134B4FF0CC
:107220006042CDE90623684615F004FC70B1089B66
:107230009BB9DDE90667304639460BB0BDE8F083FF
:107240000B490020022BCDE90601ECD115F07EFDA3
:1072500022230360089B002BEBD015F077FD089BE1
:107260000360E6E7AFF30080FCF70300FFFFEF47A2
:107270000000F07F7DF8B98FCE338640FB8100207F
:107280002DE9F043DFF8E4808BB004460D4601F0B1
:1072900043F998F90030013306460F4633D02046B3
:1072A000294615F0C1FB70B32CA3D3E90023204677
:1072B000294616F001FA814650BB2AA3D3E90023E0
:1072C0002046294616F0DAF9E8B198F90030204A4C
:1072D000CDF82090002600270421022BCDE904459B
:1072E000CDE90245CDE906678DE8060029D068465C
:1072F00015F0A0FB28B3089B1BB115F027FD089BD8
:107300000360DDE90667304639460BB0BDE8F0831F
:107310000F4A98F90030019203210022CDE904457B
:10732000CDE90245009108922BB90A4B4FF060421B
:10733000CDE90623DBE708490020022BCDE9060151
:10734000D5D115F003FD22230360D4E7AFF300800D
:1073500004F80300FFFFEF470000F07FEF39FAFE6B
:10736000422E864051302DD5104987C0FB81002028
:107370002DE9F04FDFF80C938DB006460F4614460A
:107380001D4601F0C5FC99F90080B8F1FF3FCDE939
:10739000000136D022462B462046294616F096F9A3
:1073A000834670BB32463B463046394616F08EF96E
:1073B0008246002840F0A280304639460022002351
:1073C00016F052F910B3002200232046294616F089
:1073D0004BF9834600286AD09FEDA17B0122A44B84
:1073E000CDF828A00292CDE90467CDE906458DEDE0
:1073F000087B0393B8F1000F45D09FED9B7B8DED8B
:10740000007BDDE900010DB0BDE8F08FDDE9000192
:1074100015F00AFB8046002800F08D804FF0000A2E
:107420004FF0000BDDE9000152465B4616F01CF9F7
:107430000028E6D03046394615F0F6FA0028E0D0AC
:107440002046294615F0F0FA0028DAD099F90030E4
:10745000874A039204210022022BCDE90467CDE97B
:107460000645CDE908AB02910A9203D002A815F0B7
:10747000E1FA68B915F06AFC2223036008E09FED89
:10748000787B8DED087B02A815F0D4FA002830D067
:107490000A9B1BB115F05AFC0A9B03609DED087B0B
:1074A0008DED007BDDE900010DB0BDE8F08F2046D9
:1074B000294615F0B9FA0028A3D00022002320465F
:1074C000294616F0DBF800289BD099F90030684A6D
:1074D000CDF828B00121CDE90467CDE90645029138
:1074E0000392002BCBD063490020022BCDE9080189
:1074F000C9D115F02BFC21230360C9E7002200232A
:107500002046294616F0B0F800283FF47AAF5A4BCF
:107510005749CDF828B000220120B8F1020FCDE97B
:1075200004670290CDE90645CDE908230391AAD16D
:10753000CDE9002365E73046394615F075FA002895
:107540003FF46CAF2046294615F06EFA00283FF450
:1075500065AFDDE900231046194616F0B7F800289C
:107560005FD1032399F900800293414B0A90CDE942
:107570000467CDE906450393B8F1000F2BD1DFF87E
:1075800008B14FF0604A0022002330463946CDE969
:1075900008AB16F073F800283FF468AF0022374BB1
:1075A0002046294615F0F8FD04460D4615F04AFA26
:1075B00002460B462046294616F056F870BB304B63
:1075C00099F900804FF06042CDE90823B8F1020F2D
:1075D0007FF44CAF4EE7DFF8B4B04FF0000A002262
:1075E000002330463946CDE908AB16F047F80028AD
:1075F000ECD00022214B2046294615F0CDFD044653
:107600000D4615F01FFA02460B462046294616F095
:107610002BF818B9174B0022CDE9082399F90080FF
:10762000D4E799F90090124BCDF828800122CDE9DA
:107630000467CDE9064502920393B9F1000F3FF4C8
:107640001EAF002200231046194615F0CFFEB9F1F7
:10765000020FCDE908013FF44CAF14E7AFF300800F
:107660000000000000000000000000000000F03FEB
:107670001CF803000000F0FF0000F03F0000E03FB6
:10768000FFFFEFC7FB810020FFFFEF470000F07F07
:107690002DE9F84FC44E21F00043B34204460D4695
:1076A0000DDD03F1404303F58013034340F0B9803F
:1076B000002940F3408100200021BDE8F88FBB4E37
:1076C000B34240F3A6800029C0F2788102460B46FF
:1076D0000020B74915F0ACFB0022B64B15F05CFD5D
:1076E00004460D4614F002FA95A3D3E90023894617
:1076F00080462946204615F04FFD93A3D3E9002389
:1077000015F098FB22462B4615F046FD90A3D3E9D1
:10771000002315F08DFB22462B4615F03DFD8EA370
:10772000D3E9002315F086FB22462B4615F034FDE5
:107730008BA3D3E9002315F07BFB22462B4615F0E3
:107740002BFD89A3D3E9002315F074FB22462B46B9
:1077500015F022FD86A3D3E9002382468B462046FE
:10776000294615F019FD84A3D3E9002315F060FB29
:1077700022462B4615F010FD81A3D3E9002315F016
:1077800059FB22462B4615F007FD7FA3D3E90023C2
:1077900015F04EFB22462B4615F0FEFC0022844BD2
:1077A00015F048FB02460B465046594615F01EFEA2
:1077B00042464B4615F0F0FC002682468B46324688
:1077C0004B463046494615F0E7FC02460B4620463C
:1077D000294615F02DFB324604460D464B464046E1
:1077E000494615F027FB02460B462046294615F070
:1077F000FDFD02460B465046594615F01BFB32462E
:107800004B4615F017FB02460B4615F013FBBDE87F
:10781000F88F694A93420EDC5DA1D1E90001BDE811
:10782000F88F02460B4615F003FB02460B4615F097
:10783000DDFDBDE8F88F02460B4615F0ADFC40A318
:10784000D3E9002306460F4615F0A6FC3EA3D3E974
:10785000002315F0EFFA32463B4615F09DFC3CA3A1
:10786000D3E9002315F0E4FA32463B4615F094FCC8
:1078700039A3D3E9002315F0DDFA32463B4615F073
:107880008BFC37A3D3E9002315F0D2FA32463B46EE
:1078900015F082FC34A3D3E9002315F0CBFA32466D
:1078A0003B4615F079FC32A3D3E900238046894694
:1078B0003046394615F070FC2FA3D3E9002315F0AC
:1078C000B7FA32463B4615F067FC2DA3D3E90023F7
:1078D00015F0B0FA32463B4615F05EFC2AA3D3E918
:1078E000002315F0A5FA32463B4615F055FC002260
:1078F0002F4B15F09FFA02460B464046494615F0BD
:1079000075FD22462B4615F047FC02460B4622A188
:10791000D1E9000115F08CFA02460B4620462946B3
:1079200015F086FA02460B4619A1D1E9000115F0BF
:107930007FFABDE8F88F1AA1D1E90001BDE8F88F00
:1079400009F7FD0DE13D023F88B20175E0EF493FC7
:107950003B8F68B52882A43F5544880E55C1C93F66
:107960007D6FEB0312D6D43F555555555555C53F40
:1079700082922EB1C5B8B33F59018D1B6C06E63F0C
:10798000C88A599CE52A00404B2D8A1C273A03409F
:10799000182D4454FB21F93F075C143326A6913C73
:1079A000182D4454FB210940FFFFEF3FFFFFDF3F4D
:1079B0000000F03F0000E03F0000603C00225C4B14
:1079C00015F038FA00225B4B15F0E6FB40A3D3E933
:1079D000002304460D4615F0DFFB3FA3D3E9002347
:1079E00015F028FA22462B4615F0D6FB3CA3D3E926
:1079F000002315F01DFA22462B4615F0CDFB3AA3C5
:107A0000D3E9002315F016FA22462B4615F0C4FBE5
:107A100037A3D3E9002315F00BFA22462B4615F0C5
:107A2000BBFB35A3D3E9002315F004FA22462B460D
:107A300015F0B2FB804689462046294614F056F8D8
:107A40002FA3D3E9002306460F462046294615F00A
:107A5000A3FB2DA3D3E9002315F0EAF922462B4618
:107A600015F09AFB2AA3D3E9002315F0E3F9224687
:107A70002B4615F091FB28A3D3E9002315F0D8F984
:107A800022462B4615F088FB0022294B15F0D2F92F
:107A900002460B464046494615F0A8FC32463B4696
:107AA00015F07AFB1EA3D3E9002315F0C1F9324685
:107AB0003B4615F0BFF902460B4615F0BBF90246EE
:107AC0000B4619A1D1E9000115F0B2F9BDE8F88F14
:107AD00009F7FD0DE13D023F88B20175E0EF493F36
:107AE0003B8F68B52882A43F5544880E55C1C93FD5
:107AF0007D6FEB0312D6D43F555555555555C53FAF
:107B000082922EB1C5B8B33F59018D1B6C06E63F7A
:107B1000C88A599CE52A00404B2D8A1C273A03400D
:107B2000075C143326A6913C182D4454FB210940D0
:107B30000000F03F0000E03F434A91422DE9F84346
:107B400004460D4639DD414A914209DD02F1795280
:107B5000914240DD02460B4615F06CF9BDE8F88312
:107B600001F1404202F58012024330D0B1F1804F62
:107B70003ADC0022364B15F05BF902460B46044610
:107B80000D4615F057F9224606460F462B4620466D
:107B9000294615F001FB02460B463046394615F0E2
:107BA00049F913F0A3FF0B4602462946204615F07B
:107BB00041F9BDE8F843FFF7BFB802460B4615F0A0
:107BC00037F902460B4615F011FCBDE8F88300209A
:107BD0000021BDE8F88300F017FE19A3D3E90023C4
:107BE00015F028F9BDE8F88302460B4615F0D4FAE3
:107BF0000022174B15F01CF913F078FF224680463F
:107C000089462B462046294615F014F94246064679
:107C10000F464B462046294615F00CF902460B4606
:107C200000200B4915F0E2FB0B4602463946304670
:107C300015F0FEF8BDE8F84300F0E6BDAFF30080B4
:107C4000EF39FAFE422EE63FFFFFEF3FFFFFAF4165
:107C50000000F03F000000002DE9F047BE4B21F08E
:107C60000048984584B004460D4612DD08F14048AE
:107C700008F58018034658EA030321D002460B4654
:107C800015F0D6F802460B4615F0B0FB04B0BDE87F
:107C9000F087B24B98458A4629DCB8F1795F80F2CB
:107CA000658191A3D3E9002315F0C4F80022AC4B01
:107CB00015F002FDD8B12046294604B0BDE8F08792
:107CC0008BA3D3E9002315F067FA8BA3D3E9002334
:107CD00006460F462046294615F05EFA02460B4638
:107CE0003046394615F0A6F804B0BDE8F0872046C6
:107CF000294612F0BDFF02460B460020984915F0B8
:107D000097F80022974B15F047FA7DA3D3E900239B
:107D100004460D4615F040FA7BA3D3E9002315F085
:107D200089F822462B4615F037FA79A3D3E90023C8
:107D300015F07EF822462B4615F02EFA76A3D3E9ED
:107D4000002315F077F822462B4615F025FA74A388
:107D5000D3E9002315F06CF822462B4615F01CFAE7
:107D600071A3D3E9002315F065F822462B4615F0E0
:107D700013FA6FA3D3E90023CDE900012046294679
:107D800015F00AFA6CA3D3E9002315F051F8224646
:107D90002B4615F001FA6AA3D3E9002315F04AF83F
:107DA00022462B4615F0F8F967A3D3E9002315F016
:107DB0003FF822462B4615F0EFF9694B002215F0EB
:107DC00039F8CDE902012046294613F08FFE664BB3
:107DD000984506460F4666DCDDE90223DDE9000131
:107DE00015F004FB3246CDE900013B4630463946EA
:107DF00015F020F802460B46DDE9000115F0CCF93C
:107E00004FF00008CDE9000142463B464046394666
:107E100015F0C2F902460B462046294615F008F82F
:107E2000424604460D463B463046394615F002F8B8
:107E300002460B462046294615F0D8FA02460B4664
:107E400014F0F8FF02460B462BA1D1E9000114F013
:107E5000EFFF02460B46DDE9000114F0E9FF424660
:107E600004460D463B464046394614F0E3FF0246C1
:107E70000B4637A1D1E9000114F0DAFF02460B46A8
:107E80002046294614F0D4FF02460B4630A1D1E922
:107E9000000114F0CDFFBAF1000F3FF7F7AE01F18A
:107EA00000431946F2E6DDE90223DDE9000115F0A1
:107EB0009DFA32463B4615F06FF932463B4614F0C8
:107EC000B9FF02460B4614F0B5FF0BA3D3E900231C
:107ED00014F0AEFF02460B4605A1D1E9000114F0F3
:107EE000A7FFD8E7AFF300809C7500883CE4377E9D
:107EF000182D4454FB21F93F075C143326A6913C0E
:107F000009F7FD0DE13D023F88B20175E0EF493F01
:107F10003B8F68B52882A43F5544880E55C1C93FA0
:107F20007D6FEB0312D6D43F555555555555C53F7A
:107F300082922EB1C5B8B33F59018D1B6C06E63F46
:107F4000C88A599CE52A00404B2D8A1C273A0340D9
:107F5000182D4454FB21E93FFFFFEF3FFFFFDF3FB8
:107F60000000F03F0000E03F3233EF3F02460B4697
:107F700015F012F937A3D3E9002306460F4615F092
:107F80000BF936A3D3E9002314F054FF32463B46E5
:107F900015F002F933A3D3E9002314F049FF324668
:107FA0003B4615F0F9F831A3D3E9002314F042FF62
:107FB00032463B4615F0F0F82EA3D3E9002314F027
:107FC00037FF32463B4615F0E7F82CA3D3E90023F0
:107FD00014F030FF32463B4615F0DEF829A3D3E912
:107FE0000023804689463046394615F0D5F827A348
:107FF000D3E9002314F01CFF32463B4615F0CCF8C1
:1080000024A3D3E9002314F015FF32463B4615F0B4
:10801000C3F822A3D3E9002314F00AFF32463B46FB
:1080200015F0BAF800220A4B14F004FF02460B4682
:108030004046494615F0DAF922462B4615F0ACF8D1
:1080400022462B4614F0F6FE04B0BDE8F08700BFD0
:108050000000F03F09F7FD0DE13D023F88B20175D8
:10806000E0EF493F3B8F68B52882A43F5544880E16
:1080700055C1C93F7D6FEB0312D6D43F55555555B9
:108080005555C53F82922EB1C5B8B33F59018D1BDE
:108090006C06E63FC88A599CE52A00404B2D8A1C95
:1080A000273A0340000000002DE9F84F1D465342D7
:1080B000134325F0004ADFF8E0E14AEAD373734541
:1080C000144606460F4647D8C0F1000848EA0008A3
:1080D00021F0004343EAD878F0458B463CD805F1BF
:1080E000404808F5801858EA020850D04FEAA578B1
:1080F00008F0020848EAD17850EA030134D052EA85
:108100000A023CD0F24557D0734538D0A3EB0A039E
:108110001B153C2B42DC002D70DB22462B463046E3
:10812000394615F063F912F0A3FDFEF751FBB8F1E3
:10813000010F5FD0B8F1020F4ED0B8F1000F62D03E
:1081400043A3D3E9002314F073FE43A3D3E9002330
:1081500014F06EFEBDE8F88F32463B4620462946B5
:1081600014F068FEBDE8F88FB8F1020F1AD0B8F12C
:10817000030F10D13AA1D1E90001BDE8F88FBBF19E
:10818000000F14DB38A1D1E90001BDE8F88FBDE88C
:10819000F84FFEF71DBB3946BDE8F88F32A1D1E993
:1081A0000001C4E72CA1D1E90001BDE8F88F30A19E
:1081B000D1E90001BDE8F88F534526D0B8F1020F90
:1081C000F0D0B8F1030FD5D0B8F1010F4FF0000097
:1081D00029D00021BDE8F88F1DA3D3E9002314F0B6
:1081E00027FE02460B461CA1D1E9000114F020FE37
:1081F000BDE8F88F01F10041BDE8F88F3C338CDA1F
:108200000020002193E7BDE8F88FB8F1020F18D0E5
:10821000B8F1030F10D0B8F1010F08D016A1D1E9C1
:108220000001BDE8F88F4FF00041BDE8F88F14A1C0
:10823000D1E90001BDE8F88F13A1D1E90001BDE843
:10824000F88F13A1D1E90001BDE8F88FAFF30080EA
:10825000075C143326A6A13C182D4454FB21094089
:10826000182D4454FB2109C0182D4454FB21F93F1B
:10827000182D4454FB21F9BF182D4454FB21E93F2C
:10828000182D4454FB21E9BFD221337F7CD902C091
:10829000D221337F7CD902400000F07F0000000033
:1082A00043422DE9F047034321F000463E4A46EAA7
:1082B000D373934204460D4613D896423DD03B4BB0
:1082C0009E428A4617DC36A3D3E9002314F0B2FDA0
:1082D0000022002315F0F0F9A8B320462946BDE896
:1082E000F08702460B4614F0A3FD02460B4615F03C
:1082F0007DF8BDE8F0872E4B9E42354624DD33469F
:108300000246314614F096FD224606460F462B469D
:108310000020254914F08CFD02460B4630463946B4
:1083200015F064F8FEF708FD0022224B14F034FF2C
:10833000BAF1000F2FDBBDE8F0870022002315F013
:1083400055F8BDE8F087354622462B46204629469B
:1083500014F070FD22462B4606460F4614F01CFF13
:108360002246804689462B4600200F4914F060FDC6
:1083700002460B464046494615F038F832463B4621
:1083800014F058FDFEF7D8FC00220A4B14F004FF4D
:10839000BAF1000FCFDA01F100431946BDE8F087CA
:1083A0009C7500883CE4377E0000F03FFFFF2F3EC5
:1083B000FFFFDF3F0000E03F2DE9F8434E4B21F087
:1083C00000449C4206460F461BDC4C4B9C4222DD7F
:1083D0004B4B9C4263DD4B4B9C427BDD4A4B9C42AA
:1083E00046DD01339C4240D041A3D3E9002310462F
:1083F000194614F0D1FE06460F4630463946BDE810
:10840000F88302460B4614F0C7FE06460F46304678
:108410003946BDE8F88312F02BFC02F0B1FC0022D3
:108420003A4B8046894614F005FDB4F1725F06466A
:108430000F46ECDB42464B464046494614F0ACFE44
:1084400032463B4604460D463046394614F0F2FCAF
:1084500002460B462046294614F0C8FF00222B4B4B
:1084600014F0E8FC06460F46D1E7294B9842BBD8EA
:108470003046394612F0FCFB0022264B14F08CFEED
:1084800000F04AF8002204460D46224B14F084FE08
:1084900022462B4614F080FE06460F46B7E712F040
:1084A000E7FB00F039F800221A4B06460F4614F09D
:1084B00073FE32463B4604460D460020154914F033
:1084C00095FF02460B462046294614F0B3FC0646AB
:1084D0000F469CE712F0CCFB00F01EF800220D4B7B
:1084E00014F05AFE06460F4691E700BFAFF3008036
:1084F0009C7500883CE4377EFFFFEF7F422ED63F1D
:10850000FFFF3540412E8640CD3386400000F03FCE
:108510007DF8B98F0000E03F2DE9F04FB04E21F01B
:108520000042B24283B004460D464FEAD1770DD9DE
:10853000AC4EB24225D9C1F31303034340F0EC80A3
:108540000FB10020002103B0BDE8F08FA64B9A4286
:1085500000F2CB80A54B9A4200F2DC808AA3D3E9DB
:10856000002314F067FC0022A14B15F0A5F80028A9
:1085700000F006812046294600229D4B14F05AFC4B
:10858000E1E783A3D3E9002315F096F8002840F033
:10859000C88081A3D3E900232046294615F06EF850
:1085A0000028CED1934E7EA3D3E9002306EBC70665
:1085B0002046294614F0F0FDD6E9002314F03AFCD9
:1085C00015F09AF8064614F081FD77A3D3E900234D
:1085D0008046894614F0E0FD02460B4620462946B7
:1085E00014F026FC72A3D3E90023CDE90001404634
:1085F000494614F0D1FD82468B4652465B46DDE982
:10860000000114F015FC04460D4622462B46204678
:10861000294614F0C1FD68A3D3E9002380468946AA
:1086200014F0BAFD66A3D3E9002314F001FC42461E
:108630004B4614F0B1FD64A3D3E9002314F0FAFB18
:1086400042464B4614F0A8FD61A3D3E9002314F081
:10865000EFFB42464B4614F09FFD5FA3D3E9002396
:1086600014F0E8FB42464B4614F096FD02460B46DA
:108670002046294614F0DCFB80468946002E58D05F
:108680002046294642464B4614F086FD42460446A3
:108690000D464B4600204FF0804114F0C9FB0246C6
:1086A0000B462046294614F0A1FE02460B465046D2
:1086B000594614F0BDFBDDE9002314F0B9FB0B466D
:1086C00002464B49002014F0B3FB6FF47F739E42C7
:1086D00051DA06F57A7601EB065100224FF0B873B5
:1086E00014F05AFD03B0BDE8F08F434B9A423FF6B9
:1086F00059AF424BFC002344D3E9002314F098FB0C
:108700003F4BC7F101062344CDE90001D3E900AB9B
:10871000F61B72E7002678E702460B4614F08AFB48
:1087200011E719A3D3E900231046194614F034FDCC
:1087300009E702460B462046294614F02DFD00228B
:1087400006460F464FF080434046494614F070FB02
:1087500002460B463046394614F048FE22462B4668
:1087600014F066FB02460B460020214914F060FB22
:1087700003B0BDE8F08F01EB065103B0BDE8F08F08
:10878000064642E7AFF300809C7500883CE4377EE4
:10879000EF39FAFE422E864051302DD5104987C060
:1087A000FE822B654715F73F0000E0FE422EE63FB4
:1087B000763C7935EF39EA3DD0A4BE726937663E22
:1087C000F16BD2C541BDBB3E2CDE25AF6A56113FD1
:1087D00093BDBE166CC1663F3E5555555555C53FB8
:1087E000412E8640FFFFEF7F422ED63FFFFF2F3EF8
:1087F0000000F03F18E40300B1A2F03F28E40300BA
:1088000038E40300000000002DE9F04FB1F5801FAF
:1088100085B006460F460B465ADA024621F0004460
:10882000224300F0F8800029C0F27A810022D64B62
:1088300014F0B2FCD54A0B46934206460F466FF041
:10884000350C4ADCC3F3130505F5152E0EF6647ED0
:108850000EF4801E8EF07F5282F440121C1542EA04
:108860000507A4F2FF3464440022C94B3046394660
:1088700004EB1E5414F0DCFAAB1CC3F31303022BFD
:1088800082468B464FF0000230DC002314F0ECFEF1
:10889000002800F0C980002C00F04B81204614F025
:1088A00015FCA5A3D3E9002306460F4614F074FC7B
:1088B000A3A3D3E9002304460D463046394614F0FD
:1088C0006BFC02460B462046294614F0B3FA0AE038
:1088D000AE4A93424FF0000CB4DD32463B46304680
:1088E000394614F0A7FA05B0BDE8F08F4FF0804389
:1088F00014F0A0FA02460B465046594614F076FD95
:10890000064620460F4614F0E1FB3246CDE9000151
:108910003B4630463946CDE9026714F03DFC02463D
:108920000B468046894614F037FC87A3D3E9002321
:1089300006460F4614F030FC85A3D3E9002314F05B
:1089400079FA32463B4614F027FC83A3D3E900238F
:1089500014F070FA32463B4614F01EFC80A3D3E9B3
:10896000002314F067FA42464B4614F015FC7EA330
:10897000D3E90023804689463046394614F00CFC82
:108980007BA3D3E9002314F055FA32463B4614F09A
:1089900003FC79A3D3E9002314F04CFA32463B469A
:1089A00014F0FAFB0B4602464946404614F042FAE0
:1089B000A5F5C223C5F5D725A3F27A4351351D434A
:1089C000002D8046894656DD0022724B504659469E
:1089D00014F0E2FB52465B4614F0DEFB06460F46FF
:1089E000002C68D132463B464046494614F022FAF4
:1089F000DDE9022314F0D0FB02460B46304639462F
:108A000014F016FA02460B465046594614F010FA76
:108A100005B0BDE8F08F0022002300205E4914F06D
:108A2000E5FC05B0BDE8F08F55A3D3E9002350461F
:108A3000594614F0B1FB02460B460020554914F08C
:108A4000F7F9524606460F465B465046594614F023
:108A5000A3FB02460B463046394614F09DFB064602
:108A60000F46002C40F09A8002460B46504659466D
:108A700014F0DEF937E7002C00F0A4802EA3D3E930
:108A80000023DDE9000114F087FB42464B46044613
:108A90000D465046594614F0CBF9DDE9022314F097
:108AA0007BFB27A3D3E9002306460F46DDE900013F
:108AB00014F072FB21E020A3D3E90023DDE90001DB
:108AC00014F06AFB32463B4604460D464046494692
:108AD00014F0B0F9DDE9022314F05EFB18A3D3E92A
:108AE000002380468946DDE9000114F055FB02466B
:108AF0000B464046494614F09DF902460B46304667
:108B0000394614F095F952465B4614F091F9024645
:108B10000B462046294614F08BF905B0BDE8F08FCE
:108B200002460B4614F084F90022002314F05EFC88
:108B3000D9E600200021D6E60000E0FE422EE63F06
:108B4000763C7935EF39EA3D44523EDF12F1C23FBF
:108B5000DE03CB966446C73F599322942449D23F03
:108B6000935555555555E53F9FC678D0099AC33F53
:108B7000AF788E1DC571CC3F04FA97999999D93F6A
:108B8000555555555555D53F00005043FFFFEF7FD4
:108B90000000F03F0000E03F000050C3204614F00A
:108BA00095FA0FA3D3E900238046894614F0F4FA1E
:108BB0000DA3D3E9002304460D464046494614F070
:108BC000EBFA9AE702460B465046594614F030F944
:108BD000DDE9022314F0E0FA14E700BFAFF30080F0
:108BE0000000E0FE422EE63F763C7935EF39EA3D63
:108BF000B1F5801F2DE9F84304460D460B461ADAFD
:108C0000024621F00046324359D000295FDB0022A2
:108C10003B4B14F0C1FA3B4A0D462B4693420446A7
:108C20006FF035010CDD22462B462046294614F014
:108C300001F9BDE8F883334A93424FF00001F2DCBA
:108C40001815A0F2FF3008444FEAD0794844C3F326
:108C5000130814F03BFAC9F57F73033348EA035550
:108C600006460F4620462946FFF7CEFD1EA3D3E950
:108C70000023804689463046394614F08DFA1CA3FD
:108C8000D3E9002304460D464046494614F084FAD1
:108C900002460B462046294614F0CCF816A3D3E929
:108CA000002304460D463046394614F075FA024654
:108CB0000B462046294614F0BDF8BDE8F883002293
:108CC00000230020104914F091FBBDE8F883024610
:108CD0000B4614F0ADF80022002314F087FBBDE82A
:108CE000F88300BFAFF30080362BF111F3FE593D3E
:108CF0000EE526157BCBDB3F00609F501344D33F2E
:108D000000005043FFFFEF7F000050C30000000051
:108D10002DE9F04F23F0004757EA020493B037D013
:108D2000674C21F00046A64283460D4629DC9A4650
:108D3000964625D0A74224DC614CA74279D0002D6D
:108D400080468946CDE9002377DB0024BEF1000F81
:108D50002CD15B4B9F4200F08B805A4B9F4261D0DD
:108D6000BAF1804F00F0C383574B9A451ED1002DB6
:108D70001CDB4046494613B0BDE8F04F12F0B6BECA
:108D800058B106F1404606F5801656EA0B0306D1A7
:108D90004C49002013B0BDE8F08FB742CCDD4B4802
:108DA00013B0BDE8F04F13F047BE002440464946DB
:108DB00011F05EFFBBF1000F19D126B1414B25F038
:108DC00040429A4213D1BAF1000FC0F2CA83002D7B
:108DD000E0DA06F1404606F5801656EA040300F094
:108DE000A584012CD6D101F100431946D2E7ED0F3D
:108DF000013D54EA05034ED0354B9F426EDD03F131
:108E000004739F4240F3FE83324B9E424EDDBAF123
:108E1000000F4EDD28A3D3E900231046194614F0B5
:108E2000BBF9B7E7BAF1000FC0F252844046494699
:108E3000B0E7BEF1000F82D0A3E7274B9F4228DCAA
:108E4000A3F154739F4280DD3B15A3F2FF33142B33
:108E500040F35484C3F134032EFA03F202FA03F30D
:108E60009E457FF472AF02F00102C2F102046DE789
:108E700006F1404303F5801353EA0B0388D0154BEA
:108E80009E4240F33B83BAF1000F12DBDDE90001A3
:108E900080E702245AE742464B461046194613F033
:108EA000C7FF02460B4614F0A1FA73E7BAF1000FB0
:108EB000B0DB002000216DE79C7500883CE4377E24
:108EC0000000F07F0000F03F0000E03FC0EB030037
:108ED0000000E041FFFFEF3FFFFF3F43B6F5801F7B
:108EE0004FF0000205DAD84B14F056F96FF0340257
:108EF0000E463315D54FC6F31306A3F2FF331344C2
:108F000046F07F5ABE421A460D934AF4401A40F387
:108F10002F83CF4B9E4240F30D849FEDB57B8DEDAB
:108F2000087B8DED0E7B9FEDB47B13468DED067BAC
:108F300001330D93AAF5801A0027DDE90623514677
:108F4000CDE90A0113F074FFDDE906238046894666
:108F5000DDE90A0113F06EFF02460B460020BD4911
:108F600014F044FA0A460146CDE910121346494668
:108F70000246404614F010F94FEA6A0343F00053EA
:108F80008C46834603F50023CDE904BCDA468B46C4
:108F9000D9190023CDE902AB0293DDE902AB002031
:108FA00006460F4602460B465046594614F0F4F862
:108FB00002460B464046494613F03AFFDDE90623D8
:108FC000804689463046394613F032FF02460B464A
:108FD000DDE90A0113F02CFF52465B4614F0DCF881
:108FE00002460B464046494613F022FFDDE91023B6
:108FF00014F0D2F8DDE90467CDE9060132463B46BC
:109000003046394614F0C8F87DA3D3E9002306465C
:109010000F4614F0C1F87CA3D3E9002313F00AFF34
:1090200032463B4614F0B8F879A3D3E9002313F095
:1090300001FF32463B4614F0AFF877A3D3E9002393
:1090400013F0F8FE32463B4614F0A6F874A3D3E9B9
:10905000002313F0EFFE32463B4614F09DF872A356
:10906000D3E9002313F0E6FE3246804689463B46AC
:109070003046394614F090F802460B4640464946C1
:1090800014F08AF8524606460F465B46DDE90401B5
:1090900013F0D0FEDDE9062314F07EF832463B469D
:1090A00013F0C8FE5246804689465B4650465946F4
:1090B00014F072F80022684BCDE90A0113F0BAFEF1
:1090C00042464B4613F0B6FE02980F46064632461D
:1090D0003B465046594614F05FF8002282468B46C4
:1090E0005D4B3046394613F0A3FEDDE90A2313F049
:1090F0009FFE02460B464046494613F099FEDDE9C5
:10910000042314F049F83246804689463B46DDE99F
:10911000060114F041F802460B464046494613F05A
:1091200089FE8046894602460B4650465946CDE99F
:1091300004AB13F07FFEDDE902AB3DA3D3E90023CE
:1091400050460F4614F028F8DDE90423CDE902016A
:109150003946504613F06CFE02460B4640464946DF
:1091600013F066FE34A3D3E9002314F015F834A3FA
:10917000D3E90023804689465046394614F00CF85E
:1091800002460B464046494613F054FEDDE90E23E5
:1091900013F050FE80460D98894613F097FF424623
:1091A00006460F464B46DDE9020113F043FEDDE9BA
:1091B000082313F03FFE32463B4613F03BFE324697
:1091C0003B4650468B4613F033FEDDE9082313F08F
:1091D0002FFEDDE9022313F02BFE02460B4640462C
:1091E000494613F025FE8046894637E0AFF30080FC
:1091F0000000000000000000000000000000F03F40
:10920000EF4E454A287ECA3F65DBC9934A86CD3F6B
:1092100001411DA96074D13F4D268F515555D53F51
:10922000FFAB6FDBB66DDB3F033333333333E33FE9
:10923000000000E009C7EE3FFD033ADC09C7EE3F3E
:10924000F5015B14E02F3EBE000040438E98030002
:1092500079B60B000000F03F00000840013C54EAE2
:10926000050300F079819FEDC87B8DED047BDDE97E
:1092700000120B461446CDE9023400230293DDE9C7
:10928000024508462B461146224613F0D1FD5246B0
:109290005B4613F081FFDDE9002306460F4640469A
:1092A000494613F079FF02460B463046394613F023
:1092B000C1FD2246804689462B4650465946CDE997
:1092C000008913F069FF0B46024606460F464046EA
:1092D000494613F0AFFDC64B994204460D468A46F7
:1092E00040F3168101F13F4303F5E003034340F0EF
:1092F000F781A7A3D3E90023DDE9000113F09AFD6C
:109300003246804689463B462046294613F090FD6A
:1093100002460B464046494614F0CEF9002840F07C
:10932000DF81A8464FEA28534FF48012A3F2FE33A0
:1093300042FA03F35344C3F30A52AE4DA2F2FF3292
:109340001541C3F3130423EA05010020C2F1140BF5
:1093500044F48014BAF1000F02460B4644FA0BFBAA
:1093600030463946B8BFCBF1000B13F061FD024621
:109370000B4606460F46DDE9000113F05BFD4FEAA0
:109380000B5A0D46002484A3D3E900232046294626
:1093900013F002FF3246804689463B462046294666
:1093A00013F046FD02460B46DDE9000113F040FDD7
:1093B0007BA3D3E9002313F0EFFE7BA3D3E90023C3
:1093C00006460F462046294613F0E6FE02460B46A7
:1093D0003046394613F02EFD06460F4602460B4630
:1093E0004046494613F026FD42464B4604460D468C
:1093F00013F01EFD02460B463046394613F018FDA9
:109400002246804689462B462046294613F0C4FE54
:1094100067A3D3E9002306460F4613F0BDFE66A3FB
:10942000D3E9002313F004FD32463B4613F0B4FEAB
:1094300063A3D3E9002313F0FDFC32463B4613F04F
:10944000ABFE61A3D3E9002313F0F2FC32463B46A6
:1094500013F0A2FE5EA3D3E9002313F0EBFC324627
:109460003B4613F099FE02460B462046294613F070
:10947000DFFC06460F4602460B462046294613F0FF
:109480008BFE0022CDE900014FF080433046394683
:1094900013F0CEFC02460B46DDE9000113F0A6FFF7
:1094A000424606460F464B462046294613F074FEB8
:1094B00042464B4613F0BEFC02460B463046394648
:1094C00013F0B6FC22462B4613F0B2FC02460B46C4
:1094D0000020494913F0ACFC8A44BAF5801FC0F261
:1094E00039815146DDE9042313F056FE52E4424629
:1094F0004B464046494613F04FFE4BE4BAF1000F8D
:10950000BFF6D7ACDDE90034184604F1004141E470
:109510003A4B21F00048984540F3FF80384B0B440C
:1095200003430CD132463B4613F082FC02460B4605
:10953000DDE9000114F0ACF800283FF4F3AEDDE9FA
:10954000040125A3D3E9002313F026FE22A3D3E9C7
:10955000002313F021FE1DE49FED217B8DED047BA4
:1095600085E602460B460020234913F03FFF2EE418
:109570009FED1D7B8DED087B8DED0E7B9FED027BBE
:1095800000278DED067BD8E4000000000000F03FCE
:10959000FE822B654715973C00000000432EE63FF6
:1095A000EF39FAFE422EE63F396CA80C615C20BE12
:1095B000D0A4BE726937663EF16BD2C541BDBB3ED9
:1095C0002CDE25AF6A56113F93BDBE166CC1663FB7
:1095D0003E5555555555C53F59F3F8C21F6EA50167
:1095E000000000000000F0BF0000000000000000CC
:1095F000FFFF8F40FFFF0F000000F03FFFCB9040C8
:1096000000346F3F684B9E427FF750AC674B9E42E1
:109610003FF7FDAB0022654B13F00AFC52A3D3E9E0
:10962000002306460F4613F0B7FD51A3D3E90023EC
:10963000804689463046394613F0AEFD0022824608
:109640008B465B4B3046394613F0A6FD02460B466F
:1096500049A1D1E9000113F0EBFB32463B4613F080
:109660009BFD02460B460020524913F0E1FB3246B7
:10967000CDE902013B463046394613F08DFD0246E6
:109680000B46DDE9020113F087FD3DA3D3E900237A
:1096900013F082FD02460B465046594613F0C8FBB4
:1096A00002460B4606460F464046494613F0C2FBAB
:1096B00042464B46002082468B4613F0B9FB0246D9
:1096C0000B463046394613F0B3FB80468946C5E564
:1096D00042464B460020354913F088FEFFF75ABB3F
:1096E000DDE9040128A3D3E9002313F055FD26A3E7
:1096F000D3E9002313F050FDFFF74CBBBEF1000F80
:109700007FF453ABC3F1140347FA03F202FA03F3F5
:109710009F4223D07446FFF720BB264B98453FF766
:1097200001AEDDE90223924693462BE602460B4644
:10973000FFF7B3BB9FED167B8DED087B9FED167B8E
:109740008DED0E7B9FED167B4FF480278DED067B14
:10975000FFF7F3BB5A4601F04FFDC3E602F00102EA
:10976000C2F10204FFF7F9BA000000604715F73FA5
:1097700044DF5DF80BAE543E555555555555D53F14
:10978000FE822B654715F73F9C7500883CE4377EC9
:109790000000004003B8E23F06D0CF43EBFD4C3E53
:1097A000000000000000F83FFEFFEF3F0000F03F28
:1097B0000000D03F0000E03F2DE9F0479C4B21F036
:1097C00000479F4290B08046894640F38E80994B77
:1097D0009F420C46924626DC00298BA3D3E9002346
:1097E00040F3B08113F024FB934B9F4204460D4697
:1097F00000F0908086A3D3E9002313F019FB024602
:109800000B46CAE900232046294613F011FB80A32A
:10981000D3E9002313F00CFB0125CAE90201284615
:1098200010B0BDE8F087854B9F4240F39080844B99
:109830009F4265DC3D15A5F21645A7EB0553194679
:109840001F46064613F058FF13F040FC8046894639
:1098500042464B4630463946CDE90A8913F0E8FACC
:109860000022784B13F098FC8946804613F044FFA1
:1098700013F02CFC06460F4632463B46404649460E
:10988000CDE90C6713F0D4FA00226E4B13F084FC80
:1098900000220023CDE90E0113F0E6FE002800F0BF
:1098A0006F81002330463946002213F0DDFE002888
:1098B00014BF01230223644A019202212A46009127
:1098C0000AA8514600F08CFB002C054614DADAF8A1
:1098D0000420DAF80C3002F1004203F10043454263
:1098E000CAF80420CAF80C3006E000200021C2E9C2
:1098F0000089C2E902010025284610B0BDE8F087C2
:1099000002460B4613F094FA0025CAE90201CAE99F
:109910000001F1E740A3D3E9002313F089FA40A343
:10992000D3E900230D46044613F082FA02460B46A3
:10993000CAE900232946204613F07AFA38A3D3E96E
:10994000002313F075FA0125CAE90201D4E711F0EA
:109950008FF935A3D3E900238046894613F01CFC18
:1099600000223A4B13F066FA13F0C6FE054613F0D8
:10997000ADFB25A3D3E90023CDE9060113F00CFCD0
:1099800002460B464046494613F052FA20A3D3E95B
:109990000023CDE90201DDE9060113F0FDFB1F2DD7
:1099A00080468946CDE9048954DC294B6A1E53F868
:1099B00022309F424ED002460B46DDE9020113F0F1
:1099C00037FA80468946CAE9008942464B46DDE9B6
:1099D000020113F02DFADDE9042313F029FA002C1B
:1099E000CAE9020188DA09F1004401F100436D423D
:1099F000CAF80080CAF80440CAF80800CAF80C3057
:109A00007AE700BFAFF3008000004054FB21F93F2C
:109A10003163621A61B4D03D0000601A61B4D03D78
:109A20007370032E8A19A33B83C8C96D305FE43F6E
:109A3000FB21E93F7BD90240FB21F93FFB21394162
:109A4000FFFFEF7F00007041C0F803000000E03F1F
:109A500040F80300DDE90423DDE9020113F0E8F931
:109A60003F15C1F30A53FB1A80468946102BCAE9F9
:109A70000089AADD58A3D3E90023DDE9060113F02C
:109A80008BFB8046894602460B46DDE9020113F056
:109A9000CFF902460B46DDE90201CDE9082313F0B8
:109AA000C7F942464B4613F0C3F94DA3D3E900234F
:109AB00080468946DDE9060113F06EFB42464B46BF
:109AC00013F0B6F90B46CDE904010246DDE90801C1
:109AD00013F0AEF9C1F30A53FF1A80468946312FBD
:109AE000CAE900896CDD41A3D3E90023DDE9060161
:109AF00013F052FBDDE9088906460F4602460B4685
:109B00004046494613F094F902460B464046494602
:109B1000CDE9022313F08CF932463B4613F088F965
:109B200034A3D3E9002306460F46DDE9060113F00E
:109B300033FB32463B4613F07BF902460B46CDE938
:109B400004233AE713F076F9274B9F4204460D466B
:109B500018D01FA3D3E9002313F06CF902460B467B
:109B6000CAE900232946204613F062F918A3D3E975
:109B7000002313F05FF94FF0FF35CAE90201BBE69D
:109B8000032398E614A3D3E9002313F053F914A395
:109B9000D3E900230D46044613F04CF902460B4668
:109BA000CAE900232946204613F042F90CA3D3E961
:109BB000002313F03FF94FF0FF35CAE902019BE69D
:109BC0009DED087B8DED027BFFE600BFAFF30080CB
:109BD0003163621A61B4D03D0000601A61B4D03DB7
:109BE0007370032E8A19A33BFB21F93F0000002E5E
:109BF0008A19A33BC14920259A837B3900000000C4
:109C0000594A2DE9F84F21F00048904506460F4685
:109C10002BDC564B0029B4BF554D564D98454FF09F
:109C2000000410DC544B984570DC4DA3D3E90023AD
:109C300013F000F90022514B13F03EFDD8B130462D
:109C40003946BDE8F88F4E4B98457CDD4D4B984525
:109C500044DD013398453ED03046394640A3D3E930
:109C6000002313F099FABDE8F88F02460B4613F073
:109C7000E1F8BDE8F88F3046394610F0F9FF01F001
:109C80007FF806460F4632463B463046394613F0CB
:109C9000D1F8324682468B463B463046394613F071
:109CA0007BFA002280468946344B3046394613F011
:109CB000C1F802460B464046494613F097FB024660
:109CC0000B465046594613F0B3F822462B4613F084
:109CD00063FABDE8F88F2C4B9842BDD83046394620
:109CE00010F0C6FF0022234B13F056FAFEF714FCC7
:109CF00006460F4602460B462046294613F04CFA0C
:109D000032463B4613F048FABDE8F88F10F0B0FF3A
:109D100001F036F81D4B984506460F46B3DD00228C
:109D2000164B13F087F802460B463046394613F0BF
:109D30005DFB32463B4613F07DF822462B4613F07E
:109D40002BFABDE8F88F10F093FFFEF7E5FB024613
:109D50000B462046294613F01FFABDE8F88F00BFD6
:109D60003374AC3C1F7BAC7FFFFFEF7FFFFF3540C0
:109D70000000E0BF0000E03FFFFF2F3E0000F03F8B
:109D8000412E8640CD3386407DF8B98FFFFFEF3FEF
:109D90002DE9F04F21F00048B8F1795F85B0064613
:109DA0000F4692469B466BDA13F0A6FC002800F0A3
:109DB000EA8032463B463046394613F0EDF974A34B
:109DC000D3E9002304460D4613F0E6F972A3D3E964
:109DD000002313F02FF822462B4613F0DDF970A371
:109DE000D3E9002313F024F822462B4613F0D4F9CC
:109DF0006DA3D3E9002313F01DF822462B4613F080
:109E0000CBF96BA3D3E9002313F012F822462B46BB
:109E100013F0C2F968A3D3E9002313F00BF822462C
:109E20002B4613F0B9F9CDE900010022664B20461C
:109E3000294613F0B1F9DDE9002380468946204622
:109E4000294613F0A9F9524604460D465B463046B2
:109E5000394613F0A1F902460B462046294612F076
:109E6000E7FF02460B464046494612F0E1FF024634
:109E70000B460020554912F0DBFF05B0BDE8F08F1E
:109E800002460B4613F088F941A3D3E900230446A8
:109E90000D4613F081F940A3D3E9002312F0CAFF65
:109EA00022462B4613F078F93DA3D3E9002312F0A4
:109EB000BFFF22462B4613F06FF93BA3D3E90023E3
:109EC00012F0B8FF22462B4613F066F938A3D3E907
:109ED000002312F0ADFF22462B4613F05DF936A3A6
:109EE000D3E9002312F0A6FF2B46224613F054F9C3
:109EF000374B9845CDE9000197DD364B984539DC65
:109F0000A8F500130022002030499046994612F02F
:109F10008FFFCDE9020100222B4B2046294613F08A
:109F20003BF942464B4612F083FFDDE900238046B1
:109F300089462046294613F02FF9524604460D461D
:109F40005B463046394613F027F902460B46204659
:109F5000294612F06DFF02460B464046494612F074
:109F600067FF02460B46DDE9020112F061FF05B012
:109F7000BDE8F08F9FED127B4FF000088DED027B66
:109F8000DFF85490C7E71149002005B0BDE8F08F15
:109F9000D43888BEE9FAA8BDC4B1B4BD9EEE213E56
:109FA000AD529C804F7E923E9015CB19A001FA3E97
:109FB0007751C1166CC1563F4C5555555555A53F67
:109FC000000000000000E73F0000E03F0000F03F1D
:109FD0003233D33F0000E93F0000D23F00000000D1
:109FE0002DE9F04FADF51B7D9F4CA49E9F4D54F87D
:109FF000264007942646D41E85FB0475E417C4EB5F
:10A00000A50424EAE4741D460A93631CA3EB8303AE
:10A01000013D02EBC30306932B460B940395651B8E
:10A02000F418049008911AD42C4400260027013417
:10A030000DF18808DDF8949208E059F8250013F036
:10A0400045F80135A542E8E8020108D0002DF4DA10
:10A05000013530463946A542E8E80201F6D1079BB2
:10A06000002BC0F2DF83079B03F1010B0A9B22A99F
:10A07000DB001A4601EB03090093049B0DF5E47A1B
:10A0800019460AEBCB0B01EB0208039B002BC0F235
:10A09000F582049C4D460026002775E90223F4E86A
:10A0A000020113F079F802460B463046394612F0A9
:10A0B000C1FE444506460F46EFD1EAE80267DA459D
:10A0C00009F10809E1D107990098049C009101F178
:10A0D0008043013B9B0020441A1F83460EA8024484
:10A0E00003440C920D93009A9AA901EBC203002A33
:10A0F00053E9284529DD0DF5E47A0AEBC2080DF194
:10A10000340900225A4B2046294613F045F813F033
:10A11000F3FA12F0DBFF0022564B06460F4613F00F
:10A120003BF802460B462046294612F081FE13F00A
:10A13000E3FA78E9022349F8040F3946304612F071
:10A1400079FED04504460D46DBD1DDF81890204657
:10A1500029464A4601F050F800224FF07F5304464A
:10A160000D4613F019F8FCF75FFD0022424B13F087
:10A1700013F802460B462046294612F059FE0D46BA
:10A18000044613F0B9FA804612F0A0FF0B460246CF
:10A190002946204612F04CFE4B46002B06460F4641
:10A1A00040F3F980009A0EA9013AC9F1180351F859
:10A1B000225045FA03F101FA03F30EA8EB1A40F816
:10A1C0002230C9F11705884443FA05F5002D6DDDED
:10A1D000009B002B08F1010840F36F820E9C002CBD
:10A1E00040F01683009B012B40F38F820EAA0123BF
:10A1F00052F8044F002C00F08382581C0EAAC4F1C0
:10A20000807442F82340009A824219DD0EAA0EACF7
:10A2100052F820106FF07F42511A44F82010009934
:10A22000023399420CDD1046009A0EA901EB83031C
:10A2300001EB82011A68821A43F8042B8B42F9D190
:10A24000069B002B1ADD069B012B4FF0010440F00A
:10A250003C82009B5A1E0EAB0EA953F82230C3F36A
:10A26000160341F822303CE260FD0300ABAAAA2AA3
:10A270000000703E0000704100002040022D15D10A
:10A2800032463B460020924912F0D2FD06460F4668
:10A29000069A8F49002000F0AFFF02460B46304679
:10A2A000394612F0C5FD022506460F46002200235E
:10A2B0003046394613F0D8F9002800F03782009A6A
:10A2C000079B501E83420FDC02F18043013B0EAA24
:10A2D0000D9C02EB8303002253F80419A34242EAC7
:10A2E0000102F9D1002A67D1079B0EAA013B52F85F
:10A2F0002330002B40F018820C9A012352F80419E5
:10A3000001330029FAD0009AD31802F1010A9A45C4
:10A3100009933DDC009B0A990B9A0B4409990AEBBF
:10A320000208994622AB08F1804803EBC9098B1853
:10A33000A59A08F1FF3802EB880872AA02EBCA0A54
:10A34000A59A02EB8303009358F8040F12F0BEFEA7
:10A35000039B002BE9E802014FF000064FF00007D5
:10A3600011DB049C4D4675E90223F4E8020112F06A
:10A3700013FF02460B463046394612F05BFD5C4542
:10A3800006460F46EFD1009B9845EAE80267DBD10D
:10A39000099B0093A7E606D1009B0EAA013B52F849
:10A3A0002350ED1512E700224A4B13F07BF90028E9
:10A3B00040F06E81054679E70EA9039551F82030EB
:10A3C0000699CDF8248018390246009006916BB9A1
:10A3D00000F18043013B0EA800EB830353F804090E
:10A3E000013A18390028F9D000920691069A3849A6
:10A3F000002000F001FF009B002B04460D46C0F238
:10A40000F781DA0072A901EB020B06920EAA02EBA9
:10A410008306DFF8C4904FF000080BF108070436FC
:10A4200056F8040D12F052FE22462B4612F0B4FEEE
:10A430004B4667E9020142462046294612F0ACFE2F
:10A440000EAB9E4204460D46EAD14AACDDF81C90A4
:10A4500004944FF0000AB9F1000FC0F22B81DFF82D
:10A460007C805D4618A1D1E9000100260027002468
:10A4700003E0544510DCF8E80201F5E8022312F08D
:10A480008BFE02460B463046394612F0D3FC0134AF
:10A49000A14506460F46ECDA049B03EBCA03ABF179
:10A4A000080BC3E9006770AB9B450AF1010AD2D1E2
:10A4B000A49B049C032B00F28980DFE803F0C58E87
:10A4C0008E1100BFAFF3008000000040FB21F93F78
:10A4D0000000F03F0000E03F0000703E60E4030039
:10A4E000009B002B40F38181069A04EB020ADAE913
:10A4F000008902F1080525440DF5987B1AED027BD1
:10A5000042464B4651EC170B8DED047B12F092FC4A
:10A5100006460F4602460B46DDE9040112F088FCB0
:10A5200042464B4612F086FC65E902015D45B046A5
:10A53000B9466AE90267E1D1009B012B40F35581DE
:10A54000069BE518D5E9008903F1080B04EB0B0A1B
:10A5500015ED027B42464B4651EC170B8DED007B0F
:10A5600012F068FC06460F4602460B46DDE9000184
:10A5700012F05EFC4B46424612F05CFC6AE90201B6
:10A580004EAB5345B046B94665E90267E0D10020BD
:10A59000002104EB0B0575E9022312F04BFCAA45E0
:10A5A000F9D1039B002B00F00A816268E368089FE1
:10A5B0002568A4683D6002F1004203F1004301F107
:10A5C00000417A60FB60BC6038617961099B03F0EF
:10A5D00007000DF51B7DBDE8F08F069D083525446D
:10A5E0000020002175E9022312F024FCA542F9D1D4
:10A5F000039B002B00F0D280089E024601F100432D
:10A6000086E80C000B460246D4E9000112F010FC6B
:10A61000009B002B0BDD4CAD0124F5E8022312F06A
:10A6200009FC009B0134A342F7DA039B13B101F14B
:10A6300000431946089BC3E90201099B03F0070088
:10A640000DF51B7DBDE8F08F069D0835002000212B
:10A65000254475E9022312F0EDFBAC42F9D1039BCE
:10A6600013B101F100431946089BC3E90001099B9E
:10A6700003F007000DF51B7DBDE8F08F00260027D5
:10A68000EAE80267DA4509F108097FF4FEAC1AE549
:10A69000009B002B08F10108C8BF02253FF79EADC3
:10A6A00032463B460020614912F0C2FB02250646B5
:10A6B0000F46FBE500260027EEE6069B002B27DD74
:10A6C0000024069B012B3FF4C4AD022B09D1009B53
:10A6D0005A1E0EAB0EA953F82230C3F3150341F8EE
:10A6E0002230022D7FF4E2AD32463B4600204F4936
:10A6F00012F09EFB06460F46002C3FF4D7ADC7E58F
:10A700000099013399427FF473AD069B002BD8DC8E
:10A71000022D7FF4CBAD32463B460020434912F078
:10A7200087FB06460F46C1E50123ECE53946069F47
:10A7300003957A423046CDF8248000F05DFD00227A
:10A740003B4B04460D4612F0ADFF002843D00022DB
:10A75000384B2046294612F01FFD12F0CDFF064669
:10A7600012F0B4FC0022324B12F016FD02460B46EA
:10A770002046294612F05CFB12F0BEFF00990B4602
:10A7800001331A4600933B46183306930B460EA935
:10A7900041F82300134641F8236027E6089B024650
:10A7A000C3E900010B46D4E9000112F041FB009B14
:10A7B000002B3FF730AF089BC3E902013DE7D4E926
:10A7C0000067D4E90223089DC5E90401C5E90067D3
:10A7D000C5E90223FAE62946204612F08DFF009AC9
:10A7E0000EA941F8220001E64AAC00200021D8E67B
:10A7F000A49B032B3FF6EAAE01A252F823F000BF60
:10A800001FA8020017A8020017A80200E9A702006B
:10A8100001200023F2E4002000214AACE8E60020F9
:10A8200000211CE70A9BDB0000934CE40000F03F92
:10A83000000070410000703E2DE9F04F21F000460D
:10A84000B6F1795F85B004460D469046994604DA24
:10A8500012F052FF002800F0858022462B46204649
:10A86000294612F099FC06460F4602460B46204642
:10A87000294612F091FC41A3D3E9002382468B467E
:10A880003046394612F088FC3EA3D3E9002312F08B
:10A89000CFFA32463B4612F07FFC3CA3D3E90023BB
:10A8A00012F0C8FA32463B4612F076FC39A3D3E9DF
:10A8B000002312F0BDFA32463B4612F06DFC37A37E
:10A8C000D3E9002312F0B6FA0E9BCDE900019BB349
:10A8D0000022294B4046494612F05EFCDDE9002388
:10A8E000CDE902015046594612F056FC02460B468D
:10A8F000DDE9020112F09CFA32463B4612F04CFCB4
:10A9000042464B4612F094FA19A3D3E900230646B7
:10A910000F465046594612F03FFC02460B46304661
:10A92000394612F087FA02460B462046294612F0B5
:10A930007FFA05B0BDE8F08F02460B463046394637
:10A9400012F02AFC0AA3D3E9002312F071FA52464E
:10A950005B4612F021FC22462B4612F06BFA05B042
:10A96000BDE8F08F2046294605B0BDE8F08F00BF56
:10A97000495555555555C53F0000E03F7CD5CF5A48
:10A980003AD9E53DEB9C2B8AE6E55A3E7DFEB15770
:10A99000E31DC73ED561C119A0012A3FA6F81011D9
:10A9A0001111813F000000002DE9F04FBE4C21F055
:10A9B000004687B0A64282468B460F46CDE900236B
:10A9C0001BDC12F099FE002837D153461E43109B22
:10A9D0000133334300F0B381109B012B00F0C88199
:10A9E00052465B460020B14912F000FD04460D4678
:10A9F0002046294607B0BDE8F08FAD4B9E421CDDD6
:10AA00000029C0F2A98152465B4687A1D1E9000125
:10AA100012F00EFADDE9002304460D4684A1D1E9C7
:10AA2000000112F005FA9FED847B22462B468DED46
:10AA3000007B12F0FFF982468B4652465B46504639
:10AA4000594612F0A9FB02460B468046894612F091
:10AA5000A3FB424604460D464B465046594612F06B
:10AA60009BFB77A3D3E90023CDE9020120462946C9
:10AA700012F092FB74A3D3E9002312F0DBF9224613
:10AA80002B4612F089FB72A3D3E9002312F0D2F90E
:10AA900022462B4612F080FB6FA3D3E9002312F06D
:10AAA000C9F922462B4612F077FB6DA3D3E90023A8
:10AAB00012F0C0F922462B4612F06EFB6AA3D3E9CE
:10AAC000002312F0B7F942464B4612F065FB68A32B
:10AAD000D3E90023CDE904012046294612F05CFBAE
:10AAE00065A3D3E9002312F0A5F922462B4612F004
:10AAF00053FB63A3D3E9002312F09CF922462B46B3
:10AB000012F04AFB60A3D3E9002312F093F9224626
:10AB10002B4612F041FB5EA3D3E9002312F08AF921
:10AB200022462B4612F038FB5BA3D3E9002312F038
:10AB300081F902460B46DDE9040112F07BF9DDE9FB
:10AB4000022312F029FBDDE9004522462B4612F0D4
:10AB500071F942464B4612F01FFB02460B46204657
:10AB6000294612F067F94EA3D3E9002304460D46A7
:10AB7000DDE9020112F010FB22462B4612F05AF9D1
:10AB80000B460246804689465046594612F052F915
:10AB9000474B9E4204460D4600F38E80109B012BCE
:10ABA0003BD002460B460020404912F01FFC002417
:10ABB00006460F462046294652465B46CDE90067C9
:10ABC000CDE90201009412F033F9DDE900AB024651
:10ABD0000B464046494612F02BF952465B4612F0AE
:10ABE000DBFA524604460D465B46DDE9020112F0EF
:10ABF000D3FA00222F4B12F01DF902460B462046D5
:10AC0000294612F017F932463B4612F0C5FA524671
:10AC10005B4612F00FF904460D462046294607B060
:10AC2000BDE8F08FAFF30080182D4454FB21E93FBD
:10AC3000075C143326A6813C0000000000000000E1
:10AC4000D47ABF74702AFB3EE9A7F0320FB8123FE6
:10AC500068108D1AF726303F1583E0FEC8DB573F9A
:10AC600093846EE9E326823FFE41B31BBAA1AB3F5A
:10AC7000735360DBCB75F3BEA69237A0887E143F7A
:10AC80000165F2F2D844433F280356C9226D6D3F57
:10AC900037D60684F464963F7AFE10111111C13F35
:10ACA000635555555555D53FFFFF2F3E0000F0BF6A
:10ACB0002794E53F0000F03F109812F007FA224673
:10ACC000CDE900012B462046294612F065FADDE960
:10ACD0000023CDE902012046294612F0ABF80246D6
:10ACE0000B46DDE9020112F081FB42464B4612F0B1
:10ACF0009FF802460B465046594612F099F8024614
:10AD00000B4612F097F802460B46DDE9000112F0FF
:10AD10008FF80446B81700F00200C0F101000D469C
:10AD200012F0D4F902460B462046294612F034FAB6
:10AD300004460D462046294607B0BDE8F08F504630
:10AD400059460FF095FF02460B4600200A4912F0C3
:10AD50004DFB04460D4660E7DDE9004501F1004189
:10AD6000224605F1004382468B46CDE900234AE6A0
:10AD700054465D4651E700BF0000F03F0000000070
:10AD80002DE9F04FD24A21F00043934285B082462C
:10AD90008B460C462DD9CF4A93421AD8002C80F20C
:10ADA0001681B5A3D3E900235046594612F042F864
:10ADB0000022002312F062FCC0B9B1A3D3E9002342
:10ADC0005046594612F0E8F902460B460020C249A7
:10ADD00008E1C24A934240F2D0800346C1F3130215
:10ADE000134340F0F481002980F2C4800020BC4964
:10ADF000C0E0BC4A934200F22981BB4A934240F230
:10AE0000DE80002301930022B84B5046594612F0D1
:10AE1000C3F906460F4602460B465046594612F005
:10AE2000BBF999A3D3E9002304460D4612F0B4F907
:10AE300097A3D3E9002311F0FDFF22462B4612F021
:10AE4000ABF995A3D3E9002311F0F2FF22462B467C
:10AE500012F0A2F992A3D3E9002311F0EBFF2246EE
:10AE60002B4612F099F990A3D3E9002311F0E0FFEB
:10AE700022462B4612F090F900229D4B11F0DAFF8A
:10AE80008046894602460B463046394612F084F920
:10AE900002460B460020974911F0CAFF06460246BB
:10AEA0000B460F464046494611F0C2FF32468046E7
:10AEB00089463B465046594612F06EF902460B460B
:10AEC00000208D4911F0B4FF02460B46404649462A
:10AED00012F08CFA22462B4612F05EF9019E0246D1
:10AEE0000B46002E38D0DDE9026732463B4611F0B2
:10AEF0009FFF52465B4612F04FF932463B4611F037
:10AF000097FF2B46224611F093FF019B0133064623
:10AF10000F4600F00F81019B012B00F0F180019B97
:10AF20000133392B39D8019B132B40F31281019C3B
:10AF3000C4F57F75033500222B0511F07BFF024617
:10AF40000B465046594611F073FF0022684B11F032
:10AF500071FF01EB04510DE05046594612F01CF907
:10AF600022462B4611F064FF02460B4650465946D6
:10AF700011F05EFF05B0BDE8F08F4DA3D3E90023CB
:10AF800012F09AFB00283FF409AF4BA3D3E900234A
:10AF90001046194612F000F9ECE752465B4611F0F4
:10AFA00047FF02460B460020514911F041FF019A2C
:10AFB0004F4B01EB0251002211F03AFFDAE73EA3BA
:10AFC000D3E9002311F036FF02460B46CAE72CA353
:10AFD000D3E900235046594612F0DEF80B464349A8
:10AFE0000246002011F026FF12F086FB019012F0BD
:10AFF0006DF833A3D3E9002306460F4612F0CCF8D0
:10B0000002460B465046594611F012FF2EA3D3E9D3
:10B010000023804689463046394612F0BDF8064680
:10B020000F4632463B464046494611F001FF024674
:10B030000B4682468B464046494611F0F9FE3246A1
:10B040003B4611F0F5FECDE90201DCE62B4A9342C6
:10B0500000F2958000291AA3D3E90023C0F2AC8046
:10B0600011F0E6FE012380468946019316A7D7E931
:10B070000067D6E7AFF3008059F3F8C21F6EA50151
:10B08000FE822B654715F73F2DC3096EB7FD8ABEBB
:10B090003952E686CACFD03EB7DBAA9E19CE143FFE
:10B0A0008555FE19A0015A3FF41011111111A13F4D
:10B0B000EF39FAFE422E86409C7500883CE4377ECC
:10B0C0000000E0FE422EE63F763C7935EF39EA3D5E
:10B0D00079684340412E86400000E0BFFFFFEF7FCC
:10B0E0000000F0BF422ED63FFFFF8F3C0000E03F44
:10B0F0000000F03F0000084000001840B1A2F03FFF
:10B100000022394B5046594612F0B8FA002844D074
:10B11000504659460022354B11F08CFE02460B4634
:10B120003046394611F084FE00224FF0404312F0C1
:10B1300033F81FE702460B465046594611F078FE99
:10B1400000222A4B12F028F80022284B11F070FE42
:10B1500010E7019C4FF400132341C3F17F5752467F
:10B160005B4611F065FE002607F5401702460B46C8
:10B170003046394611F05CFE01EB0451FAE616A3A5
:10B18000D3E9002312F008F8002C02460B464FF0DA
:10B190000000FFF61CAE154924E732463B465046F8
:10B1A000594611F045FE02460B4611F043FE0022BF
:10B1B0000F4B11F03FFEDDE611F03CFE4FF0FF3388
:10B1C00080468946019306A7D7E9006729E702462A
:10B1D0000B4611F02FFECDE6FE822B654715F73F9B
:10B1E000763C7935EF39EABD0000D0BF0000E03F82
:10B1F0000000F03F00000000F8B5C1F30A56044615
:10B200000D460B4617460EBB21F00043034386460E
:10B2100025D00022344B11F0BFFF344A9742044638
:10B220000D460B462ADBC1F30A56363E3E4440F239
:10B23000FE72964228DC002E12DD23F0FF4323F439
:10B24000E00343EA065520462946F8BD40F2FF7266
:10B250009642EBD102460B4611F0ECFDF8BDF8BD6D
:10B2600016F1350F1DDA4CF250339F4222462B4621
:10B2700025DC19A1D1E9000111F04CFD16A3D3E999
:10B28000002311F089FFF8BD22462B4614A1D1E915
:10B29000000111F03FFD12A3D3E9002311F07CFF60
:10B2A000F8BD23F0FF4323F4E003363643EA0655A6
:10B2B0002046294600220E4B11F06EFFF8BD08A172
:10B2C000D1E9000111F026FD05A3D3E9002311F017
:10B2D00063FFF8BDAFF3008059F3F8C21F6EA501FC
:10B2E0009C7500883CE4377E00005043B03CFFFF73
:10B2F0000000903C10B5054C237833B9044B13B1D2
:10B300000448AFF300800123237010BD1085002096
:10B3100000000000B8FE03000C4B43B10C480D497F
:10B3200010B5AFF300800C48036823B910BD0A487C
:10B33000036833B97047094B002BF7D0BDE81040C4
:10B340001847064B002BF5D0184700BF000000003F
:10B35000B8FE0300148500201082002000000000C9
:10B36000154B002B08BF134B9D46A3F5803A0021D7
:10B370008B460F461348144A121A07F08FFE0F4BE4
:10B38000002B00D098470E4B002B00D09847002090
:10B39000002104000D000D48002802D00C48AFF336
:10B3A000008011F0EDFC2000290005F08DF811F06F
:10B3B000D3FC00BF000008000000042000000000D3
:10B3C0000000000000840020848C002000000000A9
:10B3D0000000000070B504460E4600F0C7FA88B1C0
:10B3E0000368DB6A05469847082C0CD0A4F10903D2
:10B3F000012B14D93246214610230D20BDE87040A0
:10B4000004F03CB970BD2B6828465B6A9847022857
:10B41000F0DC2B6828461B6A04219847EAE72B6872
:10B4200028465B6A98470528E4DC2B6828461B6A97
:10B4300008219847DEE700BF30B52DED028B83B0C1
:10B44000054600F093FA044640B10368DB6A98476A
:10B45000032D50D8DFE805F0373F470801900198E9
:10B4600003B0BDEC028B30BD20460AF02FFB07EE87
:10B47000900A2046F8EEE78A0AF038FB07EE900AB9
:10B480002046B8EEE78A0AF041FB68EE087A07EE3C
:10B49000100AE8EEA87AB8EEC77AE7EE077AF5EE7A
:10B4A000407AF1EE10FAB1EEE78A03D517EE900A72
:10B4B00010F0A4F9FDEEC87ACDED017A019803B041
:10B4C000BDEC028B30BD204603B0BDEC028BBDE865
:10B4D00030400AF0FBBA204603B0BDEC028BBDE859
:10B4E00030400AF003BB204603B0BDEC028BBDE840
:10B4F00030400AF00BBB00230193B0E738B5054696
:10B5000000F034FA58B10368DB6A0446984745B145
:10B51000012D04D12046BDE83840FBF79DB800203E
:10B5200038BD2046BDE83840FBF776B810B5044674
:10B5300000F01CFA28B1036821461B6ABDE81040E0
:10B54000184710BD0048704716FCFFFF704700BF4A
:10B5500010B5034B036004460AF098F8204610BD6E
:10B56000F8F3030010B5054B036004460AF08EF8AB
:10B57000204612F053FB204610BD00BFF8F3030035
:10B580002DE9F043AC4F3C6885B01CB1204605B0B6
:10B59000BDE8F0834FF0FF31012001F031FDC0B272
:10B5A00004F044FB002800F06D810C2012F038FB01
:10B5B00003210546512001F023FDDFF89CE29F4B5B
:10B5C000064606F00F08C6F3031916F4807618BF76
:10B5D00073469B4841464A4609F01CFA321C18BF84
:10B5E00001224B46414628460DF02CF89548AC60A8
:10B5F00009F010FA4FF0FF31032001F001FDC0B255
:10B6000004F014FB4FF0FF310446022001F0F8FC77
:10B61000C0B204F00BFB002C00F0F880002800F012
:10B62000F5800146204604F00BF90646002800F09C
:10B6300025814FF0FF31462001F0E2FCA0F13003FC
:10B640008046382B00F2B480DFE803F097B297B25F
:10B65000B2B2B2B27CB263B246B2B2B2B2B2B2B2BB
:10B66000B2B2B2B2B2B2B2B2B2B2B2B2B2B2B2B2BA
:10B67000B2B2B2B2B2B2B2B2B2B2B2B2B2B2B2B2AA
:10B68000B2B2B2B21D004FF0FF31012001F0B8FCA0
:10B69000C0B204F0CBFA80464C2012F0C1FA4FF051
:10B6A000050E682304468DE80840424631462B4685
:10B6B0000BF0F2FC2046A86003689B6A9847A868D4
:10B6C0000368DB6A9847604809F0A4F92C462046D5
:10B6D0003D6005B0BDE8F0834FF0FF31012001F07F
:10B6E0008FFCC0B204F0A2FA04462C2012F098FAA3
:10B6F000224631463C2380460BF02CF83C2012F0C9
:10B700008FFA4146044605232A460BF019F92046D4
:10B71000D1E74FF0FF31012001F072FCC0B204F01C
:10B7200085FA8046442012F07BFA4FF0050E3A234A
:10B7300004468DE80840424631462B460BF004FC97
:10B740002046B8E74FF0FF31012001F059FCC0B2AC
:10B7500004F06CFA8046442012F062FA4FF0050EB5
:10B76000382304468DE8084042462B4631460BF00C
:10B77000EBFB364B236020469DE74FF0FF31012065
:10B7800001F03EFCC0B204F051FA81464C2012F0A8
:10B7900047FA1FFA88F34FF0050E044600934A4615
:10B7A0003146CDF804E02B460BF058FA204682E7EC
:10B7B00032680124002301940094D2F82080AB6009
:10B7C0000F220DF10F0332213046C047002845D12A
:10B7D0004FF0320841461E4809F01CF94FF0FF3186
:10B7E000012001F00DFCC0B204F020FA81464C208B
:10B7F00012F016FA0523044601934A46CDF800805C
:10B8000031462B460BF02AFA204654E7114809F03E
:10B8100001F94FF0FF31192001F0F2FBC0B204F042
:10B8200005FA4FF0FF310446182001F0E9FBC0B2E1
:10B8300004F0FCF9F5E600BF2C850020ECE40300E1
:10B84000F4E4030014E50300ACE50300B0E40300F6
:10B85000D0E5030024E50300E4E403003368019429
:10B860000094D3F820800F220DF10F0330213046D1
:10B87000C04748B94FF030084146ACE7364809F0B8
:10B88000C9F823E73C6881E6336801940094D3F853
:10B8900020800D220DF10F0338213046C04738B902
:10B8A00038212E4809F0B6F820464FF0FF314CE71A
:10B8B000336801940094D3F820800D220DF10F031A
:10B8C0003C213046C04738B93C21244809F0A2F851
:10B8D00020464FF0FF3102E7336801940094D3F81B
:10B8E00020800D220DF10F033A213046C04738B9B0
:10B8F0003A211A4809F08EF820464FF0FF310BE745
:10B90000326801940094D2F820800DF10F03752263
:10B9100068213046C04738B96821104809F07AF8E4
:10B9200020464FF0FF31B1E60D4809F073F8A868E2
:10B9300000287FF4C1AE4FF0FF31032001F060FB1F
:10B94000C0B204F073F918B1064809F063F8BDE617
:10B95000054809F05FF8B9E638E50300D0E50300D3
:10B96000BCE5030050E503008CE5030008B5FFF7D4
:10B9700007FE00B1806808BD08B501F069FCFBF75F
:10B980000FFCBDE8084001F0CFB900BF08B501F0D9
:10B990005FFCFBF775FCBDE8084001F0C5B900BFCE
:10B9A00008B501F055FC0FF0D9F9BDE8084001F0E9
:10B9B000BBB900BF08B501F04BFC0FF0E1FDBDE8DD
:10B9C000084001F0B1B900BF08B501F041FCFBF738
:10B9D000F7FBBDE8084001F0A7B900BF08B501F0CA
:10B9E00037FC0FF0F9FBBDE8084001F09DB900BF3E
:10B9F00008B501F02DFCFAF74FFEBDE8084001F054
:10BA000093B900BF08B501F023FC0FF039FBBDE886
:10BA1000084001F089B900BF70B5049E96420C46FB
:10BA200028DB15466BB1002A00EB020107DD20463A
:10BA3000A21811F8013D00F8013B9042F9D1002015
:10BA400070BD042A0FD0022A02D110F0010306D0E3
:10BA500001462A46204606F03FF9002070BD0288C4
:10BA60000A80184670BD10F00303F1D102680A6025
:10BA7000184670BD0846002107F010FB4FF0FF305C
:10BA800070BD00BF0830704740B1002905DB436836
:10BA9000994202DA0844007A70470020704700BFDC
:10BAA00030B1002904DB43689942BCBF40180272E0
:10BAB000704700BF40B1002905DB4368994202DAB4
:10BAC0000844007A70470020704700BF830705D103
:10BAD00020B1030F0CBF01200020704701207047E8
