:020000040801F1
:100000000080012049D30108A5F20108D993010815
:100010007D5E02087D5E02087D5E02080000000031
:10002000000000000000000000000000A9F201082C
:10003000ADF2010800000000B1F20108B5F20108BC
:100040007D5E02087D5E02087D5E02087D5E02081C
:100050007D5E02087D5E02082DE9010831E9010894
:1000600035E9010839E901083DE9010805F0010811
:1000700015F0010825F0010835F0010845F00108E8
:1000800055F0010865F001087D5E02087D5E0208FA
:100090007D5E02087D5E02087D5E020841E901087E
:1000A0007D5E02087D5E02087D5E02087D5E0208BC
:1000B00015D801081DD8010825D801087D5E020861
:1000C0007D5E02087D5E02087D5E020821EE010869
:1000D0002DEE01087D5E02087D5E02087D5E02084D
:1000E00045E901087D5E02087D5E02087D5E02082A
:1000F0007D5E02087D5E02087D5E020875F00108E3
:100100007D5E02087D5E02082DD8010839EE0108E7
:100110007D5E02087D5E02087D5E02087D5E02084B
:1001200085F0010895F00108A5F00108B5F0010877
:10013000C5F001087D5E02087D5E02087D5E020852
:100140007D5E02087D5E02087D5E020859DA0108C4
:10015000D5F00108E5F00108F5F001087D5E020820
:100160007D5E02087D5E02087D5E02087D5E0208FB
:100170007D5E02087D5E02087D5E020800000000D0
:100180007D5E02087D5E02087D5E02087D5E0208DB
:1001900045EE01087D5E02087D5E02087D5E020874
:1001A0007D5E02087D5E02087D5E02087D5E0208BB
:1001B0007D5E0208000000002DE9F04F85B003913C
:1001C0000778A7F10903042B044607F07F0200F12A
:1001D0000100F5D9202AF3D02B2F04BF67780446FD
:1001E0002D2F72D09FED427B8DED007B4FF00008EC
:1001F0004FF000098FB34FF0000E4FF0000ADFF808
:1002000000B1754619E013F0FDFE80468946304680
:1002100013F092FE42464B4613F042FD5246804692
:1002200089465B46DDE9000135B314F015F8CDE9E8
:100230000001AE4614F8017F7FB1A7F13006092E08
:1002400052465B4640464946DDD9C5B92E2F16D1E8
:1002500014F8017F0125002FEFD142464B46DDE91E
:10026000000113F0CFFE80468946039B4046494675
:100270001C6005B0BDE8F08F4FF0010EDAE7BEF16B
:10028000000F29D042464B46DDE9000113F0BAFECB
:1002900007F0DF07452F80468946E6D10399601CA9
:1002A0000A2215F02BFD16490246002014F00AFA26
:1002B00002460B464046494613F0A4FE8046894656
:1002C0004046494605B0BDE8F08F9FED0B7B67784F
:1002D0008DED007B013489E7DFF828904FF00008AE
:1002E0004046494605B0BDE8F08F00BFAFF300803F
:1002F000000000000000F03F000000000000F0BF20
:10030000000024400000F87F2DE9F84F1646002336
:10031000002204460D4614F0E7F8002840F09D80C6
:10032000002200232046294614F0D4F828B13022B8
:10033000002332707370BDE8F88F2046294614F010
:1003400057FF14F00FF97BA3D3E900238146294618
:10035000204614F0C9F8002800F08680B9F1000F9B
:10036000C0F2BE804A4600206F4914F0ABF9024645
:100370000B462046294613F06FFF04460D4666A142
:10038000D1E9000101274FF0000822462B4613F067
:1003900039FE0022654B13F083FC14F0CFF9002FD7
:1003A000CC464FF0FF3AC1464FF0000840F385803D
:1003B000DFF888E15E4C0122AEF1700945F6F325C5
:1003C0004FF02E0BA94208BFA0424FF0300309D3D3
:1003D000001B61EB0501A94208BFA04203F1010324
:1003E000F6D2DBB2337050EA010306F1010409D101
:1003F000BA4210DACE4502F101020CD026467EE860
:100400000245DFE7BA4204BF86F801B0B41CCE450E
:1004100002F10102F2D1B8F1000F0DD022463021D5
:1004200002F8011BC2F1010353442344002BF7DC03
:100430002AEAEA7301331C44BCF1010F4CD0652356
:10044000BCF1000F2370C5BF2B236370611CA11C7E
:100450006046BDE8F84F0AF00BB905F100431D46B0
:100460002D23337001365BE72DA3D3E9002320460B
:10047000294614F057F800287FF470AFB9F10E0F39
:1004800009F101073DDDA9F10E0842460020264989
:1004900014F018F902460B462046294613F0DCFEFC
:1004A0000022224B13F0FCFB14F048F9002FA9F1B5
:1004B0000F0A4FF0010C3FF77BAF334630222E245A
:1004C00003F8022B74707FEA090618D01E4403F863
:1004D000012BB342FBD16BE700232370BDE8F88FFB
:1004E000C9F100020020104914F0ECF802460B4656
:1004F0002046294613F086FD04460D463FE71E467A
:1005000056E7C9F10E0200200749C84614F0DAF890
:100510004FF0010939E700BF0000901EC4BCD6426D
:1005200050EFE2D6E41A4B44000024400000E03FC4
:1005300000407A108DEDB5A0F7C6B03E9065020878
:1005400070B54FF0FF3005F01BFD04466FF07F40A3
:1005500005F016FD0646204613F0DEFC00220C4B8B
:1005600013F050FD044630460D4613F0D5FC06A3AB
:10057000D3E9002313F070FE02460B4620462946BD
:1005800013F08EFB70BD00BF0000E0DFFFFF6F4384
:100590000000F03D000000004F4A21F0004393426C
:1005A0002DE970430D4604464FDC4C4A93420E46FB
:1005B0000FDC45A3D3E9002313F072FB0022484B64
:1005C00013F0B0FF002856D02B4620461946BDE850
:1005D0007083444A934242DCB3F1804F4BDD14F008
:1005E0008BFA2246804689462B462046294613F040
:1005F00009FD00223A4B13F053FB15F0D1F90246E6
:100600000B464046494613F04BFB02460B46002082
:10061000334913F021FE424604460D464B46404600
:10062000494613F03DFB0B4602462946204613F08F
:1006300037FB01F0FDFE04460B46002E0BDC03F1F8
:10064000004320461946BDE870830B46024613F06E
:1006500027FB04460B4620461946BDE8708314F07C
:100660004BFA01F0E5FE1AA3D3E9002313F018FBBF
:1006700004460B46E1E722462B462046294613F066
:10068000C1FC804689462046294614F035FA0022EE
:100690000446134B0D464046494613F001FB15F046
:1006A0007FF900220E4B13F0FBFA02460B46404640
:1006B000494613F0D1FD22462B4613F0F1FA00F023
:1006C000D3FA04460B46B8E79C7500883CE4377EB5
:1006D000EF39FAFE422EE63FFFFFEF7FFFFF2F3E8E
:1006E0000000F03F0000B0412DE9F84FC24B21F06F
:1006F00000469E420D468A46044610DDBF4B9E4290
:1007000000F3B58000F0B080BD4BBE49BE4CBAF1DD
:10071000000FD8BF0B4620461946BDE8F88FBB4BEB
:100720009E4200F3C180A3F1DE739E4240F3AB8092
:100730004FF0FF3B22462B462046294613F062FC31
:1007400002460B468046894613F05CFC92A3D3E92F
:10075000002306460F4613F055FC91A3D3E900236E
:1007600013F09EFA32463B4613F04CFC8EA3D3E9BD
:10077000002313F095FA32463B4613F043FC8CA35A
:10078000D3E9002313F08CFA32463B4613F03AFCCF
:1007900089A3D3E9002313F083FA32463B4613F0D2
:1007A00031FC87A3D3E9002313F07AFA42464B4683
:1007B00013F028FC84A3D3E9002380468946304601
:1007C000394613F01FFC82A3D3E9002313F066FA25
:1007D00032463B4613F016FC7FA3D3E9002313F007
:1007E0005DFA32463B4613F00DFC7DA3D3E90023AE
:1007F00013F054FA32463B4613F004FC7AA3D3E9D3
:10080000002313F04BFA32463B4613F0FBFBBBF1DF
:10081000FF3F02460B466ED04046494613F040FA71
:1008200022462B4613F0EEFB794E7A4B4FEACB0B68
:100830005E449B44DBE9002313F030FA22462B464A
:1008400013F02CFA0B460246D6E9000113F026FA03
:10085000BAF1000F04460B46BFF65DAF01F100434D
:1008600020461946BDE8F88F00283FF44DAF2246D8
:100870002B462046294613F013FA04460B46204621
:100880001946BDE8F88F5AA3D3E9002313F008FAFC
:100890000022614B13F046FE00283FF449AF2B467F
:1008A00020461946BDE8F88F14F026F95B4B9E42AE
:1008B00004460D4630DCA3F550239E4255DC02462B
:1008C0000B4613F0EDF90022534B13F0E7F9002229
:1008D00006460F464FF080432046294613F0E0F9C4
:1008E00002460B463046394613F0B6FC4FF0000B7B
:1008F00004460D461EE74046494613F0D1F922460C
:100900002B4613F07FFB0B4602462946204613F088
:10091000C5F904460B46FEE6414B9E421ADC002216
:10092000404B13F0BBF9002206460F463D4B2046D4
:10093000294613F067FB0022374B13F0B1F902464A
:100940000B463046394613F087FC4FF0020B044645
:100950000D46EFE602460B460020334913F07CFCBF
:100960004FF0030B04460D46E4E600222A4B13F039
:1009700095F9002206460F46274B2046294613F0DC
:100980008FF902460B463046394613F065FC4FF0AE
:10099000010B04460D46CDE611DA22E33AAD903F55
:1009A000EB0D76244B7BA93F513DD0A0660DB13FA6
:1009B0006E204CC5CD45B73FFF8300922449C23F0E
:1009C0000D5555555555D53F2F6C6A2C44B4A2BFD3
:1009D0009AFDDE522DDEAD3F6D9A74AFF2B0B33F9B
:1009E000711623FEC671BC3FC4EB98999999C93F13
:1009F0009C7500883CE4377EFFFF0F440000F07FC9
:100A0000FB21F93FFB21F9BF182D4454FFFFDB3FC9
:100A1000A0650208C06502080000F03FFFFFF23F3A
:100A2000FF7F03400000F83F0000F0BF000000001F
:100A30002DE9F047C1F30A59A9F2FF36132E0B46F0
:100A40000D46044607468846824622DC002E4FDBD0
:100A50003D4A42FA06F901EA090202431ED038A3D0
:100A6000D3E9002313F01CF90022002313F05AFDF0
:100A700050B1002D04DD4FF4801343FA06F6B04464
:100A800028EA09054FF0000A544629462046BDE8E9
:100A9000F087332E06DDB6F5806F3DD0194620462F
:100AA000BDE8F087A9F213494FF0FF3222FA09F9A5
:100AB00010EA090FF2D022A3D3E9002313F0F0F8D3
:100AC0000022002313F02EFD0028DDD0002D09DDCB
:100AD000142E2FD00123C6F1340603FA06F6371977
:100AE00028BF9844454627EA090A54462946CDE7D7
:100AF00013A3D3E9002313F0D3F80022002313F04B
:100B000011FD0028C0D0002D0FDB55EA040709D0E5
:100B10004FF0000A0D4DB7E702460B4613F0C0F840
:100B20000446BCE7BA463D46AEE74FF0000A4FF038
:100B30000045A9E705F10108D4E700BFAFF3008045
:100B40009C7500883CE4377EFFFF0F000000F03FFB
:100B5000C1F30A522DE9F843A2F2FF36132E0B46D9
:100B60000D460446884607461DDC002E40DB3C4A05
:100B700042FA06F901EA09020243864618D036A372
:100B8000D3E9002313F08CF80022002313F0CAFCF1
:100B900020B1002D42DB28EA090500273C46294602
:100BA0002046BDE8F883332E06DDB6F5806F2FD0E2
:100BB00019462046BDE8F883A2F213424FF0FF39F0
:100BC00029FA02F910EA090FF2D023A3D3E900238E
:100BD00013F066F80022002313F0A4FC0028DDD0F7
:100BE000002D21DB454627EA09073C462946D7E781
:100BF00019A3D3E9002313F053F80022002313F0C4
:100C000091FC0028CAD0002D19DB00273D46C5E71E
:100C100002460B4613F044F80446CAE74FF480132B
:100C200043FA06F6B044B6E7142E10D00123C6F1FD
:100C3000340603FA06F6371928BF9844D2E725F0A0
:100C40000042084B224318BF1D460027A6E705F1C6
:100C50000108C7E7AFF300809C7500883CE4377E4D
:100C6000FFFF0F000000F0BF2DE9F04FD64B994277
:100C700089B00E460F46824613DCD44B21F0004467
:100C80009C4218DD0022D24B13F024FC002879D0BE
:100C9000002200230020CF4913F0DEFA09B0BDE89E
:100CA000F08FCD4B99422FDD5246334612F0F8FFBC
:100CB00009B0BDE8F08FC94B9C4270DDC84B1F44A2
:100CC0009F427ED8504631460022C64B12F0E8FFC4
:100CD0004FEA215BABF2FF3BBBF1000F04460D4630
:100CE0000F4640F3E0815246334612F0D7FF0246EA
:100CF0000B460020BB4912F0D1FF22462B4613F0D1
:100D0000ABFACDE900010BE0B74B9F42DADD0022E0
:100D10000023CDE900234FEA275B5446ABF2FF3BAB
:100D2000B24BC7F313079F4247F07F5500F3E780AC
:100D300045F44015204629460022AA4B12F0AEFF8A
:100D4000002204460D46AA4B13F05CF922462B46BE
:100D500013F058F9A246CDE902012E468046894695
:100D6000002F3AD1002200232046294613F0B2FB7F
:100D7000002800F0CE80BBF1000F40F0768100200B
:100D8000014695E7524633465046314612F086FFFB
:100D900002460B4613F060FA09B0BDE8F08F00225E
:100DA000944B12F07DFF0022002313F0BBFB0028C0
:100DB00000F0CC80904B9C4200F3C88050463146F6
:100DC00076E700228A4B13F01DF95246334613F0A2
:100DD00019F94FF0000B8046894600224FF08043FE
:100DE0005046314612F05CFF02460B4650463146F3
:100DF00013F032FA02460B46CDE9022313F002F952
:100E00005DA3D3E9002304460D4613F0FBF85CA371
:100E1000D3E9002312F044FF22462B4613F0F2F8E8
:100E200059A3D3E9002312F03BFF22462B4613F0CF
:100E3000E9F857A3D3E9002312F032FF22462B46EC
:100E400013F0E0F854A3D3E9002312F029FF22465F
:100E50002B4613F0D7F852A3D3E9002312F020FF5A
:100E600022462B4613F0CEF84FA3D3E9002312F00D
:100E700017FF22462B4613F0C5F804460D46BBF17A
:100E8000000F00F0BB80584613F056F848A3D3E992
:100E90000023CDE9040113F0B5F84246CDE906017F
:100EA0004B462046294612F0FBFEDDE9022313F0F3
:100EB000A9F841A3D3E9002304460D46DDE9040166
:100EC00013F0A0F8DDE9002312F0EAFE02460B461B
:100ED0002046294612F0E4FE02460B4640464946AB
:100EE00012F0DCFE5246334612F0D8FE02460B46A4
:100EF000DDE9060112F0D2FE09B0BDE8F08F45F43D
:100F00000015C7F5801720462946BF100BF1010BCD
:100F100012E72BA3D3E900232046294613F072F8E9
:100F200002460B4600202F4912F0B8FEDDE90223ED
:100F300013F068F806460F46BBF1000F6DD102466C
:100F40000B462046294612F0A9FEB1E6524633462A
:100F50005046314613F056F80022254B13F052F854
:100F600002460B465046314612F098FE09B0BDE8E5
:100F7000F08F00BFAFF3008044523EDF12F1C23F5A
:100F80009FC678D0099AC33FDE03CB966446C73F1D
:100F9000AF788E1DC571CC3F599322942449D23F1E
:100FA00004FA97999999D93F935555555555E53F69
:100FB0000000E0FE422EE63F763C7935EF39EA3D0F
:100FC000555555555555E53F7982DA3FFFFFEF3FBF
:100FD0000000F0BF000050C3FFFFEF7FFFFF1F3E88
:100FE0003C412D400000F03FFFFF3F439DA0060025
:100FF0000000E03F00005043FFFF8F3C42464B465D
:1010000012F04EFEDDE9022312F0FCFF02460B4611
:101010004046494612F042FEA2E7584612F08CFFC5
:1010200027A3D3E9002382468B4612F0EBFF26A3C9
:10103000D3E90023804689465046594612F0E2FF24
:10104000DDE9002312F02CFE02460B4630463946FD
:1010500012F024FE22462B4612F020FE02460B46DA
:101060004046494612F01AFE22E6584612F064FF46
:1010700015A3D3E9002306460F4612F0C3FFDDE9AE
:10108000002312F00DFE0EA3D3E9002304460D4603
:101090003046394612F0B6FF02460B462046294636
:1010A00012F0FEFD04E60022094B12F0F7FD0246A5
:1010B0000B465046314612F0F1FD1EE6AFF30080BC
:1010C0000000E0FE422EE63F763C7935EF39EA3DFE
:1010D0000000F03F0000000008B514F00DF804A374
:1010E000D3E9002313F0B8F808BD00BFAFF30080C8
:1010F000EF39FAFE422EE63F2DE9F043DFF8B480E7
:101100008BB004460D4600F06BFF98F900300133B8
:1011100006460F462BD022462B462046294613F082
:101120000BFA814618BB2046294613F0E5FC1CA3A8
:10113000D3E9002313F0F6F9C8B11B4A98F900303F
:10114000CDF820900321CDE90445CDE902458DE895
:1011500006008BB9154B4FF06042CDE90623684677
:1011600014F0E0FC70B1089B9BB9DDE906673046DE
:1011700039460BB0BDE8F0830D490020022BCDE9C4
:101180000601ECD114F076FD22230360089B002BAE
:10119000EBD014F06FFD089B0360E6E7AFF300802F
:1011A0007DF8B98FCE338640DC780208FFFFEF4729
:1011B0000000F07F920300202DE9F043DFF8E48087
:1011C0008BB004460D4600F0BBFF98F900300133A8
:1011D00006460F4633D02046294614F09DFC70B3D6
:1011E00029A3D3E900232046294613F09BF9814621
:1011F00050BB27A3D3E900232046294613F074F9F6
:10120000E8B198F90030244ACDF820900426002057
:101210000021022BCDE90445CDE90245009601925B
:10122000CDE9060129D0684614F07CFC28B3089B60
:101230001BB114F01FFD089B0360DDE90667304613
:1012400039460BB0BDE8F083134A98F9003001929B
:1012500003210022CDE90445CDE902450091089221
:101260002BB90E4B4FF06042CDE90623DBE70C496A
:101270000020022BCDE90601D5D114F0FBFC22237E
:101280000360D4E7AFF30080EF39FAFE422E8640C8
:1012900051302DD5104987C0E4780208FFFFEF4791
:1012A0000000F07F920300202DE9F84FC44E21F09A
:1012B0000043B3420C4605460DDD03F1404303F500
:1012C0008013034340F0B980002940F3408100209F
:1012D0000021BDE8F88FBB4EB34240F3A680002941
:1012E000C0F2788102460B460020B74912F0D6FCC6
:1012F0000022B64B12F086FE04460D4614F050FB59
:1013000095A3D3E90023894680462946204612F05A
:1013100079FE93A3D3E9002312F0C2FC22462B46A8
:1013200012F070FE90A3D3E9002312F0B7FC22461E
:101330002B4612F067FE8EA3D3E9002312F0B0FC17
:1013400022462B4612F05EFE8BA3D3E9002312F057
:10135000A5FC22462B4612F055FE89A3D3E90023B3
:1013600012F09EFC22462B4612F04CFE86A3D3E9D7
:10137000002382468B462046294612F043FE84A372
:10138000D3E9002312F08AFC22462B4612F03AFEE3
:1013900081A3D3E9002312F083FC22462B4612F0EE
:1013A00031FE7FA3D3E9002312F078FC22462B46BE
:1013B00012F028FE0022844B12F072FC02460B460B
:1013C0005046594612F048FF42464B4612F01AFE6C
:1013D000002682468B4632464B463046494612F03E
:1013E00011FE02460B462046294612F057FC3246B3
:1013F00004460D464B464046494612F051FC024613
:101400000B462046294612F027FF02460B4650465F
:10141000594612F045FC32464B4612F041FC02465A
:101420000B4612F03DFCBDE8F88F694A93420EDC92
:101430005DA1D1E90001BDE8F88F02460B4612F02C
:101440002DFC02460B4612F007FFBDE8F88F02465E
:101450000B4612F0D7FD40A3D3E9002306460F4602
:1014600012F0D0FD3EA3D3E9002312F019FC32465E
:101470003B4612F0C7FD3CA3D3E9002312F00EFC5B
:1014800032463B4612F0BEFD39A3D3E9002312F0E9
:1014900007FC32463B4612F0B5FD37A3D3E90023E3
:1014A00012F0FCFB32463B4612F0ACFD34A3D3E90C
:1014B000002312F0F5FB32463B4612F0A3FD32A3A7
:1014C000D3E90023804689463046394612F09AFD1A
:1014D0002FA3D3E9002312F0E1FB32463B4612F082
:1014E00091FD2DA3D3E9002312F0DAFB32463B46EF
:1014F00012F088FD2AA3D3E9002312F0CFFB324675
:101500003B4612F07FFD00222F4B12F0C9FB024632
:101510000B464046494612F09FFE2A46234612F0EB
:1015200071FD02460B4622A1D1E9000112F0B6FB83
:1015300002460B462846214612F0B0FB02460B46F7
:1015400019A1D1E9000112F0A9FBBDE8F88F1AA199
:10155000D1E90001BDE8F88F09F7FD0DE13D023F3B
:1015600088B20175E0EF493F3B8F68B52882A43F00
:101570005544880E55C1C93F7D6FEB0312D6D43F49
:10158000555555555555C53F82922EB1C5B8B33FF7
:1015900059018D1B6C06E63FC88A599CE52A00401C
:1015A0004B2D8A1C273A0340182D4454FB21F93F48
:1015B000075C143326A6913C182D4454FB210940A6
:1015C000FFFFEF3FFFFFDF3F0000F03F0000E03F85
:1015D0000000603C00225C4B12F062FB00225B4B7F
:1015E00012F010FD40A3D3E9002304460D4612F08B
:1015F00009FD3FA3D3E9002312F052FB22462B46FC
:1016000012F000FD3CA3D3E9002312F047FB224671
:101610002B4612F0F7FC3AA3D3E9002312F040FB6B
:1016200022462B4612F0EEFC37A3D3E9002312F03A
:1016300035FB22462B4612F0E5FC35A3D3E9002307
:1016400012F02EFB22462B4612F0DCFC8046894627
:101650002046294614F0A4F92FA3D3E90023064617
:101660000F462046294612F0CDFC2DA3D3E90023D6
:1016700012F014FB22462B4612F0C4FC2AA3D3E935
:10168000002312F00DFB22462B4612F0BBFC28A3D0
:10169000D3E9002312F002FB22462B4612F0B2FCE3
:1016A0000022294B12F0FCFA02460B4640464946FE
:1016B00012F0D2FD32463B4612F0A4FC1EA3D3E941
:1016C000002312F0EBFA32463B4612F0E9FA0246EA
:1016D0000B4612F0E5FA02460B4619A1D1E90001CA
:1016E00012F0DCFABDE8F88F09F7FD0DE13D023F8D
:1016F00088B20175E0EF493F3B8F68B52882A43F6F
:101700005544880E55C1C93F7D6FEB0312D6D43FB7
:10171000555555555555C53F82922EB1C5B8B33F65
:1017200059018D1B6C06E63FC88A599CE52A00408A
:101730004B2D8A1C273A0340075C143326A6913CA4
:10174000182D4454FB2109400000F03F0000E03F09
:10175000434A91422DE9F8430C46054639DD414A9A
:10176000914209DD02F17952914240DD02460B4679
:1017700012F096FABDE8F88301F1404202F58012BA
:10178000024330D0B1F1804F3ADC0022364B12F0E8
:1017900085FA02460B4604460D4612F081FA2246AF
:1017A00006460F462B462046294612F02BFC0246E1
:1017B0000B463046394612F073FA14F0F1F80B4636
:1017C00002462946204612F06BFABDE8F843FFF7BF
:1017D0004BBA02460B4612F061FA02460B4612F073
:1017E0003BFDBDE8F88300200021BDE8F88300F050
:1017F0001FFE19A3D3E9002312F052FABDE8F883C3
:1018000002460B4612F0FEFB0022174B12F046FA7E
:1018100014F0C6F82A4680468946234628462146C3
:1018200012F03EFA424606460F464B4628462146EF
:1018300012F036FA02460B4600200B4912F00CFD5E
:101840000B4602463946304612F028FABDE8F84306
:1018500000F0EEBDAFF30080EF39FAFE422EE63F16
:10186000FFFFEF3FFFFFAF410000F03F000000002F
:101870002DE9F047C44B21F00048984584B00D464F
:10188000044616DD08F1404808F58018034658EA7A
:10189000030326D002460B4612F000FA0B4602461E
:1018A00012F0DAFC04460B462046194604B0BDE8A7
:1018B000F087B64B98458A462EDCB8F1795F80F206
:1018C0006D8195A3D3E9002312F0EAF90022B04B11
:1018D00012F028FE00B32B462046194604B0BDE89E
:1018E000F0878FA3D3E9002312F08CFB8EA3D3E9FA
:1018F000002306460F462046294612F083FB024687
:101900000B463046394612F0CBF904460B462046CA
:10191000194604B0BDE8F0872046294613F0ECF8DC
:1019200002460B4600209A4912F0B8F90022994B62
:1019300012F068FB7EA3D3E9002304460D4612F0A3
:1019400061FB7DA3D3E9002312F0AAF922462B46BE
:1019500012F058FB7AA3D3E9002312F09FF9224634
:101960002B4612F04FFB78A3D3E9002312F098F92D
:1019700022462B4612F046FB75A3D3E9002312F052
:101980008DF922462B4612F03DFB73A3D3E90023C9
:1019900012F086F922462B4612F034FB70A3D3E9ED
:1019A0000023CDE900012046294612F02BFB6EA34F
:1019B000D3E9002312F072F922462B4612F022FBE3
:1019C0006BA3D3E9002312F06BF922462B4612F0E9
:1019D00019FB69A3D3E9002312F060F922462B46D4
:1019E00012F010FB6A4B002212F05AF9CDE9020105
:1019F0002046294613F0D4FF674B984506460F460C
:101A000067DCDDE90223DDE9000112F025FC324646
:101A1000CDE900013B463046394612F041F9024615
:101A20000B46DDE9000112F0EDFA4FF00008CDE9B8
:101A3000000142463B464046394612F0E3FA024670
:101A40000B462046294612F029F9424604460D4627
:101A50003B463046394612F023F902460B462046F3
:101A6000294612F0F9FB02460B4612F019F902461C
:101A70000B462DA1D1E9000112F010F902460B46E8
:101A8000DDE9000112F00AF9424604460D463B46E4
:101A90004046394612F004F902460B4638A1D1E916
:101AA000000112F0FBF802460B462046294612F0D0
:101AB000F5F80B46024632A1D1E9000112F0EEF82A
:101AC00004460B46BAF1000F3FF7EEAE03F10043B8
:101AD000EAE6DDE90223DDE9000112F0BDFB324652
:101AE0003B4612F08FFA32463B4612F0D9F80246D6
:101AF0000B4612F0D5F80CA3D3E9002312F0CEF870
:101B00000B46024606A1D1E9000112F0C7F80446CF
:101B10000B46D7E7AFF300809C7500883CE4377E26
:101B2000182D4454FB21F93F075C143326A6913C41
:101B300009F7FD0DE13D023F88B20175E0EF493F35
:101B40003B8F68B52882A43F5544880E55C1C93FD4
:101B50007D6FEB0312D6D43F555555555555C53FAE
:101B600082922EB1C5B8B33F59018D1B6C06E63F7A
:101B7000C88A599CE52A00404B2D8A1C273A03400D
:101B8000182D4454FB21E93FFFFFEF3FFFFFDF3FEC
:101B90000000F03F0000E03F3233EF3F02460B46CB
:101BA00012F030FA38A3D3E9002306460F4612F0AC
:101BB00029FA37A3D3E9002312F072F832463B46E4
:101BC00012F020FA34A3D3E9002312F067F832466A
:101BD0003B4612F017FA32A3D3E9002312F060F863
:101BE00032463B4612F00EFA2FA3D3E9002312F03F
:101BF00055F832463B4612F005FA2DA3D3E90023EF
:101C000012F04EF832463B4612F0FCF92AA3D3E913
:101C10000023804689463046394612F0F3F928A35E
:101C2000D3E9002312F03AF832463B4612F0EAF9C3
:101C300025A3D3E9002312F033F832463B4612F0D5
:101C4000E1F923A3D3E9002312F028F832463B46FA
:101C500012F0D8F90022204B12F022F802460B466F
:101C60004046494612F0F8FA22462B4612F0CAF9CD
:101C700022462B4612F014F804460B46204619461D
:101C800004B0BDE8F08700BF09F7FD0DE13D023F5C
:101C900088B20175E0EF493F3B8F68B52882A43FC9
:101CA0005544880E55C1C93F7D6FEB0312D6D43F12
:101CB000555555555555C53F82922EB1C5B8B33FC0
:101CC00059018D1B6C06E63FC88A599CE52A0040E5
:101CD0004B2D8A1C273A03400000F03F0000000013
:101CE0002DE9F84F5442144323F00049704E49EA5D
:101CF000D474B44286460F4640D84442044321F08F
:101D0000004B4BEAD474B4428A4637D803F14044BE
:101D100004F5801414434AD09C1704F0020444EAEA
:101D2000D17450EA0B0131D052EA090137D0B145E4
:101D300052D0B34533D0ABEB09094FEA2959B9F179
:101D40003C0F3BDC002B66DB7046394612F084FA10
:101D500012F0D2FEFEF7C8FC012C58D0022C48D05D
:101D6000002C5ED040A3D3E9002311F097FF40A3DD
:101D7000D3E9002311F092FFBDE8F88F1046194611
:101D800072463B4611F08CFFBDE8F88F022C19D04B
:101D9000032C10D138A1D1E90001BDE8F88FBAF1C8
:101DA000000F14DB36A1D1E90001BDE8F88FBDE8D2
:101DB000F84FFEF799BC3946BDE8F88F30A1D1E95C
:101DC0000001C9E72AA1D1E90001BDE8F88F2EA1E1
:101DD000D1E90001BDE8F88FCB4524D0022CF1D029
:101DE000032CD7D0012C4FF0000027D00021BDE8F4
:101DF000F88F1DA3D3E9002311F050FF02460B46D4
:101E00001BA1D1E9000111F049FFBDE8F88F01F1F4
:101E10000041BDE8F88F19F13C0F95DA0020002150
:101E20009AE7BDE8F88F022C16D0032C0FD0012CB6
:101E300008D017A1D1E90001BDE8F88F4FF00041AB
:101E4000BDE8F88F14A1D1E90001BDE8F88F14A115
:101E5000D1E90001BDE8F88F13A1D1E90001BDE887
:101E6000F88F00BFAFF30080075C143326A6A13CB7
:101E7000182D4454FB210940182D4454FB2109C05E
:101E8000182D4454FB21F93F182D4454FB21F9BF70
:101E9000182D4454FB21E93F182D4454FB21E9BF80
:101EA000D221337F7CD902C0D221337F7CD902403A
:101EB0000000F07F0000000043422DE9F04703439B
:101EC00021F00048424A48EAD373934206460F463F
:101ED00016D890454BD03F4B98458A461EDC3AA316
:101EE000D3E90023044611F0DBFE0022002312F0A8
:101EF00019FB002845D03B4620461946BDE8F0872F
:101F000002460B4611F0CAFE0B46024612F0A4F937
:101F100004460B4620461946BDE8F0872E4B9845EF
:101F2000044645462FDD02464346414611F0B8FEC1
:101F3000224606460F4643460020254911F0AEFED4
:101F400002460B463046394612F086F9FEF78CFE03
:101F5000224B002212F056F8BAF1000F04460B464D
:101F6000D8DA01F1004320461946BDE8F087002287
:101F7000002312F071F904460B4620461946BDE8CD
:101F8000F0873446454622462B462046294611F026
:101F900087FE22462B4606460F4612F033F82246AD
:101FA000804689462B460020094911F077FE0246FB
:101FB0000B464046494612F04FF932463B4611F077
:101FC0006FFEC3E7AFF300809C7500883CE4377E6A
:101FD0000000F03FFFFF2F3EFFFFDF3F0000E03F2C
:101FE0004F4A2DE9F84321F0004494420B46054640
:101FF0001BDC4C4A944222DD4B4A944263DD4B4A3F
:1020000094427BDD4A4A944246DD0132944240D0FC
:1020100041A3D3E900231046194611F0F3FF064609
:102020000F4630463946BDE8F88302460B4611F0AC
:10203000E9FF06460F4630463946BDE8F88312F000
:102040005BFD02F0A9FC00223A4B8046894611F064
:1020500027FEB4F1725F06460F46ECDB42464B4664
:102060004046494611F0CEFF32463B4604460D46F7
:102070003046394611F014FE02460B4620462946EA
:1020800012F0EAF800222B4B11F00AFE06460F462A
:10209000D1E7294A9042BBD82846194612F02CFDB8
:1020A0000022264B11F0AEFF00F04AF80022044651
:1020B0000D46224B11F0A6FF22462B4611F0A2FF3F
:1020C00006460F46B7E712F017FD00F039F8002278
:1020D0001A4B06460F4611F095FF32463B46044622
:1020E0000D460020154912F0B7F802460B4620466F
:1020F000294611F0D5FD06460F469CE712F0FCFC80
:1021000000F01EF800220D4B11F07CFF06460F4632
:1021100091E700BFAFF300809C7500883CE4377EF8
:10212000FFFFEF7F422ED63FFFFF3540412E864016
:10213000CD3386400000F03F7DF8B98F0000E03FCE
:102140002DE9F04FB04F21F00042BA4283B00C4667
:102150004FEAD17605460DD9AC4FBA4225D9C1F325
:102160001303034340F0EF800EB10020014603B09B
:10217000BDE8F08FA64B9A4200F2CC80A54B9A4264
:1021800000F2DE808AA3D3E9002311F089FD00224A
:10219000A14B12F0C7F9002800F00581284621461E
:1021A00000229D4B11F07CFDE1E783A3D3E90023DE
:1021B00012F0B8F9002840F0CB802846214680A3D1
:1021C000D3E9002312F090F90028CED1934B284692
:1021D00003EBC60621467CA3D3E9002311F012FFCE
:1021E000D6E9002311F05CFD12F0BCF9804611F035
:1021F000A3FE77A3D3E9002306460F4611F002FFA2
:1022000002460B462846214611F048FD72A3D3E949
:102210000023CDE900013046394611F0F3FE824635
:102220008B4652465B46DDE9000111F037FD05465D
:102230000C462A4623462846214611F0E3FE68A3B1
:10224000D3E9002306460F4611F0DCFE66A3D3E96E
:10225000002311F023FD32463B4611F0D3FE64A368
:10226000D3E9002311F01CFD32463B4611F0CAFEB3
:1022700061A3D3E9002311F011FD32463B4611F072
:10228000C1FE5FA3D3E9002311F00AFD32463B46AD
:1022900011F0B8FE02460B462846214611F0FEFC1E
:1022A00006460F462846214632463B46B8F1000F07
:1022B00056D011F0A7FE324604460D463B4600209C
:1022C0004FF0804111F0EAFC02460B4620462946B9
:1022D00011F0C2FF02460B465046594611F0DEFC93
:1022E000DDE9002311F0DAFC0B4602464A490020E2
:1022F00011F0D4FC6FF47F7398454FDA08F57A78C3
:1023000001EB085100224FF0B87311F07BFE03B0CF
:10231000BDE8F08F424B9A423FF658AF414BF40074
:102320002344D3E9002311F0B9FC3F4BC6F1010867
:102330002344CDE90001D3E900ABA8EB060870E720
:102340004FF0000875E702460B4611F0A9FC0EE7B6
:1023500017A3D3E900231046194611F053FE06E7F0
:1023600011F050FE0022804689464FF080433046EF
:10237000394611F093FC02460B464046494611F09F
:102380006BFF2A46234611F089FC02460B460020CB
:10239000214911F083FC03B0BDE8F08F01EB085137
:1023A00003B0BDE8F08F804643E700BFAFF3008085
:1023B0009C7500883CE4377EEF39FAFE422E864059
:1023C00051302DD5104987C0FE822B654715F73F48
:1023D0000000E0FE422EE63F763C7935EF39EA3DDB
:1023E000D0A4BE726937663EF16BD2C541BDBB3E1B
:1023F0002CDE25AF6A56113F93BDBE166CC1663FF9
:102400003E5555555555C53F412E8640FFFFEF7F40
:10241000422ED63FFFFF2F3E0000F03FE06502084E
:10242000B1A2F03FF065020800660208000000005B
:102430002DE9F04FB1F5801F85B006460F460B46DB
:102440005ADA024621F00044224300F0F8800029C5
:10245000C0F27A810022D64B11F0D4FDD54A0B464A
:10246000934206460F466FF0350C4ADCC3F3130562
:1024700005F5152E0EF6647E0EF4801E8EF07F524A
:1024800082F440121C1542EA0507A4F2FF346444AA
:102490000022C94B3046394604EB1E5411F0FEFBB6
:1024A000AB1CC3F31303022B82468B464FF0000292
:1024B00030DC002312F00EF8002800F0C980002C58
:1024C00000F04B81204611F037FDA5A3D3E900238E
:1024D00006460F4611F096FDA3A3D3E90023044658
:1024E0000D463046394611F08DFD02460B4620461A
:1024F000294611F0D5FB0AE0AE4A93424FF0000C9A
:10250000B4DD32463B463046394611F0C9FB05B0D2
:10251000BDE8F08F4FF0804311F0C2FB02460B463E
:102520005046594611F098FE064620460F4611F0D7
:1025300003FD3246CDE900013B4630463946CDE940
:10254000026711F05FFD02460B468046894611F096
:1025500059FD87A3D3E9002306460F4611F052FD2B
:1025600085A3D3E9002311F09BFB32463B4611F0D3
:1025700049FD83A3D3E9002311F092FB32463B4689
:1025800011F040FD80A3D3E9002311F089FB4246FE
:102590004B4611F037FD7EA3D3E9002380468946E0
:1025A0003046394611F02EFD7BA3D3E9002311F00C
:1025B00077FB32463B4611F025FD79A3D3E9002392
:1025C00011F06EFB32463B4611F01CFD0B460246F5
:1025D0004946404611F064FBA5F5C223C5F5D72551
:1025E000A3F27A4351351D43002D8046894656DDBE
:1025F0000022724B5046594611F004FD52465B468C
:1026000011F000FD06460F46002C68D132463B46CD
:102610004046494611F044FBDDE9022311F0F2FC8B
:1026200002460B463046394611F038FB02460B464F
:102630005046594611F032FB05B0BDE8F08F00223C
:10264000002300205E4911F007FE05B0BDE8F08FC1
:1026500055A3D3E900235046594611F0D3FC024656
:102660000B460020554911F019FB524606460F460D
:102670005B465046594611F0C5FC02460B463046B3
:10268000394611F0BFFC06460F46002C40F09A80F8
:1026900002460B465046594611F000FB37E7002C26
:1026A00000F0A4802EA3D3E90023DDE9000111F09E
:1026B000A9FC42464B4604460D465046594611F089
:1026C000EDFADDE9022311F09DFC27A3D3E90023F5
:1026D00006460F46DDE9000111F094FC21E020A33D
:1026E000D3E90023DDE9000111F08CFC32463B46C2
:1026F00004460D464046494611F0D2FADDE9022370
:1027000011F080FC18A3D3E9002380468946DDE957
:10271000000111F077FC02460B464046494611F095
:10272000BFFA02460B463046394611F0B7FA524618
:102730005B4611F0B3FA02460B462046294611F0DB
:10274000ADFA05B0BDE8F08F02460B4611F0A6FACF
:102750000022002311F080FDD9E600200021D6E6FA
:102760000000E0FE422EE63F763C7935EF39EA3D47
:1027700044523EDF12F1C23FDE03CB966446C73FB0
:10278000599322942449D23F935555555555E53FC9
:102790009FC678D0099AC33FAF788E1DC571CC3FD4
:1027A00004FA97999999D93F555555555555D53F9F
:1027B00000005043FFFFEF7F0000F03F0000E03FCC
:1027C000000050C3204611F0B7FB0FA3D3E900234C
:1027D0008046894611F016FC0DA3D3E90023044678
:1027E0000D464046494611F00DFC9AE702460B465D
:1027F0005046594611F052FADDE9022311F002FC6D
:1028000014E700BFAFF300800000E0FE422EE63F79
:10281000763C7935EF39EA3DB1F5801F2DE9F84373
:1028200004460D460B461ADA024621F000463243B2
:1028300059D000295FDB00223B4B11F0E3FB3B4A00
:102840000B4693420D4604466FF035010CDD2246DF
:102850002B462046294611F023FABDE8F883334A77
:1028600093424FF00001F2DC1815A0F2FF3008444B
:102870004FEAD0794844C3F3130811F05DFBC9F562
:102880007F73033348EA035506460F462046294620
:10289000FFF7CEFD1EA3D3E90023804689463046CC
:1028A000394611F0AFFB1CA3D3E9002304460D46C3
:1028B0004046494611F0A6FB02460B4620462946F3
:1028C00011F0EEF916A3D3E9002304460D46304675
:1028D000394611F097FB02460B462046294611F077
:1028E000DFF9BDE8F883002200230020104911F031
:1028F000B3FCBDE8F88302460B4611F0CFF9002285
:10290000002311F0A9FCBDE8F88300BFAFF30080FD
:10291000362BF111F3FE593D0EE526157BCBDB3F3F
:1029200000609F501344D33F00005043FFFFEF7FF0
:10293000000050C3000000002DE9F04F23F00047D5
:1029400057EA020493B037D0674C21F00046A64204
:1029500083460D4629DC9A46964625D0A74224DCBC
:10296000614CA74279D0002D89468046CDE90023ED
:1029700077DB0024BEF1000F2CD15B4B9F4200F0AF
:102980008B805A4B9F4261D0BAF1804F00F0BA83DE
:10299000574B9A451ED1002D1CDB4046494613B0CB
:1029A000BDE8F04F12F0FCBF58B106F1404606F505
:1029B000801656EA0B0306D14C49002013B0BDE83F
:1029C000F08FB742CCDD4B4813B0BDE8F04F13F0A9
:1029D000ABB800244046494612F08EF8BBF1000F18
:1029E00019D126B1414B25F040429A4213D1BAF198
:1029F000000FC0F2BC83002DE0DA06F1404606F578
:102A0000801656EA040300F08F84012CD6D101F120
:102A100000431946D2E7ED0F013D54EA05034ED0BD
:102A2000354B9F426EDD03F104739F4240F3E88310
:102A3000324B9E424EDDBAF1000F4EDD28A3D3E9A2
:102A400000231046194611F0DDFAB7E7BAF1000F7E
:102A5000C0F23C8440464946B0E7BEF1000F82D048
:102A6000A3E7274B9F4228DCA3F154739F4280DDEC
:102A70003B15A3F2FF33142B40F33E84C3F1340320
:102A80002EFA03F202FA03F39E457FF472AF02F0CE
:102A90000102C2F102046DE706F1404303F5801321
:102AA00053EA0B0388D0154B9E4240F33283BAF1B0
:102AB000000F12DBDDE9000180E702245AE74246FD
:102AC0004B464046494611F0E9F802460B4611F0E4
:102AD000C3FB73E7BAF1000FB0DB002000216DE704
:102AE0009C7500883CE4377E0000F07F0000F03FDA
:102AF0000000E03F1C6D02080000E041FFFFEF3FD7
:102B0000FFFF3F43B6F5801F4FF0000205DAD44BBC
:102B100011F078FA6FF034020E463315D14FC6F338
:102B20001306A3F2FF33134446F07F5ABE421A46FF
:102B30000D934AF4401A40F32183CB4B9E4240F35D
:102B4000FD83134601330D93C84B0022CDE90623C4
:102B500000270026CDE90867CDE90E67AAF5801A9F
:102B60000027024653465146CDE90A23DDE90623F4
:102B700011F094F8DDE9062380468946DDE90A0173
:102B800011F08EF802460B460020B84911F064FBA4
:102B90000A460146CDE91012134649460246404610
:102BA00011F030FA4FEA6A0343F000538C46834633
:102BB00003F50023CDE904BCDA468B46D91900237E
:102BC000CDE902AB0293DDE902AB002006460F46D9
:102BD00002460B465046594611F014FA02460B467F
:102BE0004046494611F05AF8DDE9062380468946F9
:102BF0003046394611F052F802460B46DDE90A012B
:102C000011F04CF852465B4611F0FCF902460B46B7
:102C10004046494611F042F8DDE9102311F0F2F97F
:102C2000DDE90467CDE9060132463B4630463946C8
:102C300011F0E8F978A3D3E9002306460F4611F016
:102C4000E1F977A3D3E9002311F02AF832463B4695
:102C500011F0D8F974A3D3E9002311F021F832461A
:102C60003B4611F0CFF972A3D3E9002311F018F815
:102C700032463B4611F0C6F96FA3D3E9002311F0A9
:102C80000FF832463B4611F0BDF96DA3D3E900239E
:102C900011F006F83246804689463B4630463946B2
:102CA00011F0B0F902460B464046494611F0AAF928
:102CB000524606460F465B46DDE9040110F0F0FF80
:102CC000DDE9062311F09EF932463B4610F0E8FF9D
:102CD0005246804689465B465046594611F092F965
:102CE0000022634BCDE90A0110F0DAFF42464B4661
:102CF00010F0D6FF02980F46064632463B46504635
:102D0000594611F07FF9002282468B46584B3046D7
:102D1000394610F0C3FFDDE90A2310F0BFFF024679
:102D20000B464046494610F0B9FFDDE9042311F097
:102D300069F93246804689463B46DDE9060111F0D5
:102D400061F902460B464046494610F0A9FF80460D
:102D5000894602460B4650465946CDE904AB10F071
:102D60009FFFDDE902AB38A3D3E9002350460F46AD
:102D700011F048F9DDE90423CDE902013946504656
:102D800010F08CFF02460B464046494610F086FF85
:102D90002FA3D3E9002311F035F92FA3D3E90023A2
:102DA000804689465046394611F02CF902460B46BA
:102DB0004046494610F074FFDDE90E2310F070FF25
:102DC00080460D98894611F0B7F8424606460F46F0
:102DD0004B46DDE9020110F063FFDDE9082310F046
:102DE0005FFF32463B4610F05BFF32463B465046A3
:102DF0008B4610F053FFDDE9082310F04FFFDDE9AB
:102E0000022310F04BFF02460B464046494610F0A5
:102E100045FF80462EE000BFEF4E454A287ECA3F60
:102E200065DBC9934A86CD3F01411DA96074D13F3E
:102E30004D268F515555D53FFFAB6FDBB66DDB3F50
:102E4000033333333333E33F000000E009C7EE3F81
:102E5000FD033ADC09C7EE3FF5015B14E02F3EBEEF
:102E6000000040438E98030079B60B000000F03F4D
:102E7000000008408946013C54EA0503DDE90001F1
:102E800014BFD94CD94C0023CDE9043403460C4679
:102E9000CDE9023400230293DDE9024522462B46A8
:102EA00010F0FCFE52465B4611F0ACF8DDE9002361
:102EB00006460F464046494611F0A4F802460B4626
:102EC0003046394610F0ECFE2246804689462B46B5
:102ED00050465946CDE9008911F094F80B46024658
:102EE00006460F464046494610F0DAFEC04B99426E
:102EF00004460D468A4640F3168101F13F4303F52F
:102F0000E003034340F0EA81A3A3D3E90023DDE912
:102F1000000110F0C5FE3246804689463B462046F9
:102F2000294610F0BBFE02460B464046494611F0CA
:102F3000F9FA002840F0D281A8464FEA28534FF40E
:102F40008012A3F2FE3342FA03F35344C3F30A524E
:102F5000A84DA2F2FF321541C3F3130423EA050181
:102F60000020C2F1140B44F48014BAF1000F0246A1
:102F70000B4644FA0BFB30463946B8BFCBF1000B89
:102F800010F08CFE02460B4606460F46DDE90001B6
:102F900010F086FE4FEA0B5A0D46002480A3D3E9B9
:102FA00000232046294611F02DF8324680468946F6
:102FB0003B462046294610F071FE02460B46DDE9ED
:102FC000000110F06BFE78A3D3E9002311F01AF88A
:102FD00077A3D3E9002306460F462046294611F081
:102FE00011F802460B463046394610F059FE0646A7
:102FF0000F4602460B464046494610F051FE4246F7
:103000004B4604460D4610F049FE02460B4630463C
:10301000394610F043FE2246804689462B4620461C
:10302000294610F0EFFF64A3D3E9002306460F46BC
:1030300010F0E8FF62A3D3E9002310F02FFE324620
:103040003B4610F0DFFF60A3D3E9002310F028FE19
:1030500032463B4610F0D6FF5DA3D3E9002310F0C3
:103060001DFE32463B4610F0CDFF5BA3D3E90023A3
:1030700010F016FE32463B4610F0C4FF02460B46E7
:103080002046294610F00AFE06460F4602460B4629
:103090002046294610F0B6FF0022CDE900014FF08E
:1030A00080433046394610F0F9FD02460B46DDE913
:1030B000000111F0D1F8424606460F464B46204625
:1030C000294610F09FFF42464B4610F0E9FD0246AC
:1030D0000B463046394610F0E1FD22462B4610F0F3
:1030E000DDFD02460B4600203F4910F0D7FD8A4423
:1030F000BAF5801FC0F233815146DDE9042310F098
:1031000081FF5BE4424640464B46494610F07AFF59
:1031100054E4BAF1000FBFF6E0ACDDE90034184624
:1031200004F100414AE4344B21F00048984540F353
:10313000F280324B0B4403430CD132463B4610F035
:10314000ADFD02460B46DDE9000111F0D7F900287C
:103150003FF4F3AEDDE9040121A3D3E9002310F02D
:1031600051FF1FA3D3E9002310F04CFF26E40246D1
:103170000B4600201C4911F06FF83CE400220023AC
:10318000CDE90823CDE90E23174B00220027CDE916
:103190000623E6E4AFF30080FE822B654715973CDB
:1031A00000000000432EE63FEF39FAFE422EE63FD4
:1031B000396CA80C615C20BED0A4BE726937663E33
:1031C000F16BD2C541BDBB3E2CDE25AF6A56113F27
:1031D00093BDBE166CC1663F3E5555555555C53F0E
:1031E00059F3F8C21F6EA5010000F03F0000F0BFC8
:1031F000FFFF8F40FFFF0F00FFCB904000346F3F79
:103200006B4B9E427FF766AC6A4B9E423FF713AC16
:103210000022684B10F042FD57A3D3E90023064675
:103220000F4610F0EFFE56A3D3E9002380468946EF
:103230003046394610F0E6FE002282468B465E4B51
:103240003046394610F0DEFE02460B464EA1D1E96B
:10325000000110F023FD32463B4610F0D3FE02463B
:103260000B460020554910F019FD3246CDE9020108
:103270003B463046394610F0C5FE02460B46DDE9B6
:10328000020110F0BFFE42A3D3E9002310F0BAFE02
:1032900002460B465046594610F000FD02460B46CA
:1032A00006460F464046494610F0FAFC42464B4659
:1032B000002082468B4610F0F1FC02460B46304659
:1032C000394610F0EBFC80468946D4E542464B4631
:1032D0000020384910F0C0FFFFF770BBDDE90401A2
:1032E0002DA3D3E9002310F08DFE2BA3D3E90023F7
:1032F00010F088FEFFF762BBBEF1000F7FF469ABF0
:10330000C3F1140347FA03F202FA03F39F422AD0EF
:103310007446FFF736BB294B98453FF70EAEDDE903
:1033200002239246934638E602460B4610F0B6FC5E
:1033300002460B4610F090FFFFF740BB18A3D3E9FD
:103340000023CDE9082318A3D3E90023CDE90E23F8
:103350001B4B00224FF48027CDE9062301E45A4697
:1033600001F05AFDC9E602F00102C2F10204FFF7C2
:1033700008BB00BFAFF30080000000604715F73FB7
:1033800044DF5DF80BAE543E555555555555D53F68
:10339000FE822B654715F73F9C7500883CE4377E1D
:1033A0000000004003B8E23F06D0CF43EBFD4C3EA7
:1033B000FEFFEF3F0000F03F0000D03F0000E03F85
:1033C0000000F83F000000002DE9F04F9A4E21F078
:1033D0000047B74291B040F38E809246974A974299
:1033E0000C4626DC00298AA3D3E9002340F3B481EC
:1033F00010F054FC924B9F4204460D4600F0908022
:1034000085A3D3E9002310F049FC02460B46CAE924
:1034100000232046294610F041FC7FA3D3E9002376
:1034200010F03CFC0125CAE90201284611B0BDE8B4
:10343000F08F844A974240F39080834A974265DC3C
:103440003D15A5F21645A7EB055319461F4606463E
:1034500011F088F810F070FD8046894602460B4650
:1034600030463946CDE90A8910F018FC0022774B26
:1034700010F0C8FD8946804611F074F810F05CFD2C
:1034800002460B4606460F4640464946CDE90C67C4
:1034900010F004FC00226D4B10F0B4FD002200235C
:1034A000CDE90E0111F016F8002800F07381002319
:1034B00030463946002211F00DF8002814BF0123D0
:1034C0000223634A019202212A4600910AA851462A
:1034D00000F086FB002C054614DADAF80420DAF84E
:1034E0000C3002F1004203F100434542CAF80420C7
:1034F000CAF80C3006E0C2E9000100250024C2E948
:1035000002450025284611B0BDE8F08F02460B4663
:1035100010F0C4FB0025CAE90201CAE90001F1E785
:103520003FA3D3E9002310F0B9FB3FA3D3E9002365
:103530000D46044610F0B2FB02460B46CAE90023D2
:103540002946204610F0AAFB37A3D3E9002310F048
:10355000A5FB0125CAE90201D4E711F0CDFA34A395
:10356000D3E900238046894610F04CFD0022394BF8
:1035700010F096FB10F0F6FF054610F0DDFC24A3DA
:10358000D3E90023CDE9040110F03CFD02460B46CF
:103590004046494610F082FB1FA3D3E90023804632
:1035A0008946DDE9040110F02DFD1F2DCDE9020152
:1035B00054DC294B6A1E53F822309F424ED00246FB
:1035C0000B464046494610F069FB02460B46CAE9E5
:1035D000002383460E465A4633464046494610F07D
:1035E0005DFBDDE9022310F059FB002C02460B467F
:1035F000CAE9022386DA5B4606F1004601F1004182
:103600008AE84800CAF80C10CAF808006D4279E749
:1036100000004054FB21F93F3163621A61B4D03D90
:103620000000601A61B4D03D7370032E8A19A33B69
:1036300083C8C96D305FE43FFB21E93F7BD902407D
:10364000FB21F93FFB213941FFFFEF7F0000704173
:10365000907902080000E03F10790208DDE90223BA
:103660004046494610F01AFB3A15C1F30A53D31AE3
:10367000102B83460E460992CAE90001ABDD58A320
:10368000D3E90023DDE9040110F0BCFC06460F4637
:1036900002460B464046494610F000FBCDE90601C4
:1036A00002460B464046494610F0F8FA32463B4681
:1036B00010F0F4FA4CA3D3E9002306460F46DDE9E7
:1036C000040110F09FFC32463B4610F0E7FADDE9BA
:1036D0000689CDE9020102460B464046494610F0F4
:1036E000DDFA0B46C1F30A570E460999CF1B024675
:1036F000312F8346CAE900236CDD3DA3D3E90023C3
:10370000DDE9040110F07EFC06460F4602460B463A
:1037100040464946CDE9068910F0C0FA02460B46FC
:1037200080468946DDE9060110F0B8FA32463B468C
:1037300010F0B4FA30A3D3E9002306460F46DDE9C2
:10374000040110F05FFC32463B4610F0A7FA024637
:103750000B46CDE9022334E710F0A2FA2A4B9F4230
:1037600004460D4618D026A3D3E9002310F098FA9A
:1037700002460B46CAE900232946204610F08EFA7D
:103780001FA3D3E9002310F08BFA4FF0FF35CAE9ED
:103790000201B7E6032394E611A3D3E9002310F056
:1037A0007FFA11A3D3E900230D46044610F078FAFE
:1037B00002460B46CAE900232946204610F06EFA5D
:1037C00009A3D3E9002310F06BFA4FF0FF35CAE9E3
:1037D000020197E6DDE90689FDE600BFAFF3008050
:1037E0000000601A61B4D03D7370032E8A19A33BA8
:1037F0000000002E8A19A33BC14920259A837B39FA
:103800003163621A61B4D03DFB21F93F0000000032
:10381000574A2DE9F84F21F0004890450E460746DB
:103820002BDC544B0029B4BF534D544D98454FF0F9
:10383000000410DC524B98456EDC4BA3D3E9002307
:1038400010F02EFA00224F4B10F06CFED8B1384623
:103850003146BDE8F88F4C4B984579DD4B4B984588
:1038600043DD013398453DD0384631463EA3D3E988
:10387000002310F0C7FBBDE8F88F02460B4610F09E
:103880000FFABDE8F88F3846314611F035F901F0EE
:1038900083F806460F4632463B463046394610F01E
:1038A000FFF9324682468B463B463046394610F099
:1038B000A9FB002280468946324B3046394610F03B
:1038C000EFF902460B464046494610F0C5FC024659
:1038D0000B465046594610F0E1F922462B4610F0AF
:1038E00091FBCEE72A4B9842BED83846314611F0BC
:1038F00003F90022214B10F085FBFEF721FC064660
:103900000F4602460B462046294610F07BFB324606
:103910003B4610F077FBB4E711F0EEF801F03CF80D
:103920001C4B984506460F46B5DD0022154B10F09E
:10393000B7F902460B463046394610F08DFC324648
:103940003B4610F0ADF922462B4610F05BFB98E7A2
:1039500011F0D2F8FEF7F4FB02460B46204629464A
:1039600010F050FB8DE700BF3374AC3C1F7BAC7F85
:10397000FFFFEF7FFFFF35400000E0BF0000E03FAA
:10398000FFFF2F3E0000F03F412E8640CD338640A2
:103990007DF8B98FFFFFEF3F2DE9F04F21F0004692
:1039A000B6F1795F85B00C4692469B4605466BDAC8
:1039B00010F0D8FD002800F0E8802A46234628466B
:1039C000214610F01FFB74A3D3E9002380468946EB
:1039D00010F018FB72A3D3E9002310F061F94246FE
:1039E0004B4610F00FFB70A3D3E9002310F056F9FB
:1039F00042464B4610F006FB6DA3D3E9002310F0BE
:103A00004FF942464B4610F0FDFA6BA3D3E9002371
:103A100010F044F942464B4610F0F4FA68A3D3E99B
:103A2000002310F03DF942464B4610F0EBFACDE989
:103A300000010022644B4046494610F0E3FADDE9FC
:103A4000002306460F464046494610F0DBFA524630
:103A5000804689465B462846214610F0D3FA024646
:103A60000B464046494610F019F902460B463046CF
:103A7000394610F013F902460B460020534910F066
:103A80000DF905B0BDE8F08F02460B4610F0BAFA0A
:103A900041A3D3E900238046894610F0B3FA40A33E
:103AA000D3E9002310F0FCF842464B4610F0AAFA86
:103AB0003DA3D3E9002310F0F1F842464B4610F045
:103AC000A1FA3BA3D3E9002310F0EAF842464B46A3
:103AD00010F098FA38A3D3E9002310F0DFF842463B
:103AE0004B4610F08FFA36A3D3E9002310F0D8F834
:103AF0004B46424610F086FA354B9E42CDE9000116
:103B000097DD344B9E424FF0000238DCA6F50013DF
:103B100000202E4916461F4610F0C0F8CDE90201DC
:103B20000022294B4046494610F06CFA32463B468B
:103B300010F0B4F8DDE9002306460F46404649463A
:103B400010F060FA5246804689465B462846214678
:103B500010F058FA02460B464046494610F09EF8CF
:103B600002460B463046394610F098F802460B469E
:103B7000DDE9020110F092F805B0BDE8F08F164BB8
:103B8000164FCDE902230026CAE71049002005B0F0
:103B9000BDE8F08FAFF30080D43888BEE9FAA8BD45
:103BA000C4B1B4BD9EEE213EAD529C804F7E923E8C
:103BB0009015CB19A001FA3E7751C1166CC1563F42
:103BC0004C5555555555A53F0000E03F0000F03FCE
:103BD0003233D33F0000E93F0000E73F0000D23F0F
:103BE0002DE9F04FADF5197D9C4CA29E9C4D54F8EB
:103BF000264005942646D41E85FB0475E417C4EBC5
:103C0000A50424EAE4741D460893631CA3EB830314
:103C1000013D02EBC30304932B4609940295651BF7
:103C2000F418039006911AD42C4401340DF178084D
:103C300000260027DDF88C9208E059F8250010F0E6
:103C40007BF90135A542E8E9020108D0002DF4DA3C
:103C5000013530463946A542E8E90201F6D1059B17
:103C6000002B2EDB089B4FEAC309039BA9F1080830
:103C7000984420AB9944059B70AA02EBC30B0DF549
:103C8000DC7A029B002BC0F20F83039B4D46A3F10D
:103C900008040026002775E90223F4E9020110F068
:103CA000B1F902460B46304639460FF0F9FF44455C
:103CB00006460F46EFD1EAE90267DA4509F108093D
:103CC000DFD10598089A009000F18043013B9B00EA
:103CD0000CAC191F234402F100520B93039B013AD1
:103CE00021440A9103EBC20B009A98A901EBC2038D
:103CF000002A53E9284513462BDD01EBC308A8F140
:103D0000A8080DF12C090DF5DC7A0022554B204650
:103D1000294610F077F910F025FC10F00DF900227B
:103D2000514B06460F4610F06DF902460B462046F1
:103D300029460FF0B3FF10F015FC78E8022349F88C
:103D4000040F394630460FF0ABFFD04504460D4610
:103D5000DBD1DDF81090204629464A4601F05CF898
:103D600000224FF07F5304460D4610F04BF9FCF74C
:103D7000EFFE00223D4B10F045F902460B4620466F
:103D800029460FF08BFF0D46044610F0EBFB8046F2
:103D900010F0D2F80B460246294620460FF07EFF6F
:103DA0004B46002B06460F4640F3F780009A0CA9BD
:103DB000013AC9F1180351F8225045FA03F101FA0A
:103DC00003F30CA8EB1A40F82230C9F11705884418
:103DD00043FA05F5002D63DD009B002B08F1010877
:103DE00040F381820C9C002C00F0188301200023FA
:103DF0000CAAC4F1807442F82340009A824219DD73
:103E00000CAA0CAC52F820106FF07F42511A44F803
:103E100020100099023399420CDD1046009A0CA93B
:103E200001EB830301EB82011A68821A43F8042B29
:103E30008B42F9D1049B002B1ADD049B012B4FF020
:103E4000010440F05882009B5A1E0CAB0CA953F899
:103E50002230C3F3160341F8223058E2987A020860
:103E6000ABAAAA2A0000703E00007041000020406A
:103E7000022D15D132463B46002097490FF00EFF28
:103E800006460F46049A9449002000F0C5FF0246FA
:103E90000B46304639460FF001FF022506460F4615
:103EA000002200233046394610F014FB002800F0B1
:103EB0005282009A059B501E83420FDC02F1804320
:103EC000013B0CAA0B9C02EB8303002253F804195C
:103ED000A34242EA0102F9D1002A6FD1059B0CAA44
:103EE000013B52F82330002B40F033820A9A012321
:103EF00052F8041901330029FAD0009AD31802F1BC
:103F0000010A9A4507933DDC009B0899099A0B44E6
:103F100007990AEB0208994620AB08F1804803EBA9
:103F2000C9098B18A39A08F1FF3802EB880870AA18
:103F300002EBCA0AA39A02EB8303009358F8040F1A
:103F40000FF0FAFF029B002BE9E802011DDB039B47
:103F50004D46A3F108040026002775E90223F4E981
:103F6000020110F04FF802460B46304639460FF07A
:103F700097FE5C4506460F46EFD1009B9845EAE860
:103F80000267DBD1079B0093AEE6009B002600276B
:103F90009845EAE80267D1D1F4E706D1009B0CAA64
:103FA000013B52F82350ED1514E700224B4B10F063
:103FB000AFFA002840F08281054671E70CA902950E
:103FC00051F820300499CDF81C8018390246009031
:103FD00004916BB900F18043013B0CA800EB830313
:103FE00053F80409013A18390028F9D000920491D5
:103FF000049A3949002000F00FFF009B002B044673
:104000000D46C0F20382DA0070A901EB020B0492A4
:104010000CAA02EB8306DFF8C8900BF10807043600
:104020004FF0000856F8040D0FF086FF22462B468D
:104030000FF0E8FF4B4667E9020142462046294659
:104040000FF0E0FF0CAB9E4204460D46EAD10DF5A1
:10405000907ACDF80CA0DDF814A04FF00009BAF169
:10406000000FC0F23D81DFF87C805D4618A1D1E9E8
:10407000000100260027002403E04C4510DCF8E88E
:104080000201F5E802230FF0BDFF02460B46304661
:1040900039460FF005FE0134A24506460F46ECDA1C
:1040A000039B03EBC903ABF1080BC3E900676EABDD
:1040B0005B4509F10109D2D1A29BDDF80CA0032BCD
:1040C00000F28B80DFE813F0D10090009000100028
:1040D00000000040FB21F93F0000F03F0000E03FFE
:1040E0000000703E28660208009B002B40F3A4816C
:1040F000049B0AEB0308D8E90067D34658E9029A03
:1041000032463B46484651460FF0CAFD04460D462E
:1041100002460B46484651460FF0C0FD32463B462C
:104120000FF0BEFDC8E9000168E90245C345264617
:104130002F46E3D1009B012BDA4640F37D81049B9F
:104140005B44D3E90067984699460DF5947B59E99D
:1041500002343246184621463B46CDE900010FF0B5
:104160009FFD04460D4602460B46DDE900010FF0B7
:1041700095FD32463B460FF093FDC9E9000169E920
:104180000245CB4526462F46E1D1002308F1080819
:104190001D464CAC1846294678E902230FF080FDF5
:1041A000444503460D46F5D1029A002A00F02081CD
:1041B000DAF80440DAF80C20069FDAF80010DAF892
:1041C00008003B6105F1004504F1004402F10042A2
:1041D0007D617C60FA603960B860079B03F007007E
:1041E0000DF5197DBDE8F08F049C00260834544479
:1041F00033463046194674E902230FF051FD544509
:1042000006460B46F5D1029A30461946002A00F0C0
:10421000DA80069803F10044324644600660DAE929
:1042200000010FF03BFD0B460099002902460EDD10
:10423000012410461946FAE902230FF031FD0B461E
:1042400000990134A1420246F3DA029909B103F15F
:1042500000431946069B1046C3E90201079B03F081
:1042600007000DF5197DBDE8F08F049C002208348D
:10427000544413461046194674E902230FF010FD0A
:10428000A24502460B46F5D1029909B103F100435C
:104290001946069B1046C3E90001079B03F007007F
:1042A0000DF5197DBDE8F08F00260027EAE90267C9
:1042B000DA4509F108097FF4E4AC02E5009B002B24
:1042C00008F10108C8BF02253FF78CAD32463B46D6
:1042D000002063490FF0E2FC022506460F46DFE5A9
:1042E00000260027DCE6049B002B26DD0024049B2F
:1042F000012B3FF4A8AD022B09D1009B5A1E0CAB39
:104300000CA953F82230C3F3150341F82230022DD3
:104310007FF4C6AD32463B46002051490FF0BEFC4B
:1043200006460F46002C3FF4BBADABE500990133C8
:10433000994278D1049B002BD9DC022D7FF4B0ADDB
:1043400032463B46002046490FF0A8FC06460F4681
:10435000A6E50123D1E53946049F02957A4230460D
:10436000CDF81C8000F058FD00223E4B04460D465F
:1043700010F0CEF8002862D000223B4B20462946A0
:104380000FF040FE10F0EEF806460FF0D5FD0022CB
:10439000344B0FF037FE02460B46204629460FF0FD
:1043A0007DFC10F0DFF800990B4601331A460093AC
:1043B0003B46183304930B460CA941F823001346DF
:1043C00041F8236014E6069B3246C3E900010B4620
:1043D000DAE900010FF062FC0B4600990029024661
:1043E0003FF726AF1946069B1046C3E9020135E7A1
:1043F00018462946DAE90023DAE90245069FC7E9AB
:104400000401C7E90023C7E90245E6E6A29B032BA6
:104410003FF6E3AEDFE803F0211C1C0E009B012BEE
:1044200088DD0CAA012352F8044F002C3FF47EAF24
:10443000581CDDE40DF5907A00231D46B4E62946AC
:10444000204610F08FF8009A0CA941F82200CFE521
:10445000002633460DF5907AD5E60022134613E781
:104460000000F03F000070410000703E00000000BE
:104470002DE9F04F21F00046B6F1795F85B00C468A
:1044800090469946054604DA10F06CF8002800F0D2
:1044900085802A462346284621460FF0B3FD06466E
:1044A0000F4602460B46284621460FF0ABFD3EA3C1
:1044B000D3E9002382468B46304639460FF0A2FDF1
:1044C0003BA3D3E900230FF0E9FB32463B460FF054
:1044D00099FD39A3D3E900230FF0E2FB32463B46B6
:1044E0000FF090FD36A3D3E900230FF0D7FB32463F
:1044F0003B460FF087FD34A3D3E900230FF0D0FB38
:104500000E9BCDE900019BB30022334B4046494648
:104510000FF078FDDDE90023CDE902015046594650
:104520000FF070FD02460B46DDE902010FF0B6FB0D
:1045300032463B460FF066FD42464B460FF0AEFB5F
:1045400023A3D3E9002306460F46504659460FF0F1
:1045500059FD02460B46304639460FF0A1FB024694
:104560000B46284621460FF099FB05B0BDE8F08FB9
:1045700002460B46304639460FF044FD14A3D3E9FA
:1045800000230FF08BFB52465B460FF03BFD2A46A3
:1045900023460FF085FB05B0BDE8F08F2846214685
:1045A00005B0BDE8F08F00BF7CD5CF5A3AD9E53DC4
:1045B000EB9C2B8AE6E55A3E7DFEB157E31DC73ED4
:1045C000D561C119A0012A3FA6F810111111813F30
:1045D000495555555555C53F0000E03F00000000C6
:1045E0002DE9F04FDA4C21F00046A64287B08A460A
:1045F00089461746984683461ADC0FF0B3FFA8BBDE
:104600005B461E43109B0133334300F0A981109B8E
:10461000012B00F0B9815A4653460020CD490FF0D6
:104620001BFE04460D462046294607B0BDE8F08F24
:10463000C94B9E421ADD0029C0F29F815A4653465B
:10464000A5A1D1E900010FF029FB3A4643460446F3
:104650000D46A3A1D1E900010FF020FB22462B4615
:104660000FF01EFB002783468A46B8465A4653463B
:10467000584651460FF0C6FC03460C46CDE90034BF
:1046800002460B460FF0BEFCDDE9002304460D4652
:10469000584651460FF0B6FC93A3D3E90023CDE969
:1046A0000201204629460FF0ADFC91A3D3E9002377
:1046B0000FF0F6FA22462B460FF0A4FC8EA3D3E9A6
:1046C00000230FF0EDFA22462B460FF09BFC8CA343
:1046D000D3E900230FF0E4FA22462B460FF092FCB8
:1046E00089A3D3E900230FF0DBFA22462B460FF013
:1046F00089FC87A3D3E900230FF0D2FADDE9002378
:104700000FF080FC84A3D3E90023CDE90401204607
:1047100029460FF077FC82A3D3E900230FF0C0FAFB
:1047200022462B460FF06EFC7FA3D3E900230FF047
:10473000B7FA22462B460FF065FC7DA3D3E9002390
:104740000FF0AEFA22462B460FF05CFC7AA3D3E9B9
:1047500000230FF0A5FA22462B460FF053FC78A356
:10476000D3E900230FF09CFA02460B46DDE9040171
:104770000FF096FADDE902230FF044FC3A46434677
:104780000FF08EFADDE900230FF03CFC02460B46E9
:10479000384641460FF084FA6BA3D3E90023044660
:1047A0000D46DDE902010FF02DFC22462B460FF0ED
:1047B00077FA0B46024651465846CDE900230FF0E2
:1047C0006FFA654B9E4204460D463EDC109B012B62
:1047D00036D002460B4600205E490FF03DFD002416
:1047E0000F4606465A465346204629460FF056FACB
:1047F000A04602460B46DDE900010FF04FFA4246A3
:104800003B460FF0FFFBA94604460D4642463B4699
:10481000404649460FF0F6FB0022504B0FF040FA9D
:1048200002460B46204629460FF03AFA32463B46EE
:104830000FF0E8FB42463B460FF032FA04460D46C5
:104840002046294607B0BDE8F08F10980FF074FBA2
:10485000224606460F462B46204629460FF0D2FB3D
:104860003246CDE902013B46204629460FF018FAB0
:1048700002460B46DDE902010FF0EEFCDDE9002304
:104880000FF00CFA02460B46584651460FF006FA56
:1048900002460B460FF004FA02460B4630463946F4
:1048A0000FF0FCF904464FEAA97000F00200C0F1D5
:1048B00001000D460FF040FB02460B4620462946FC
:1048C0000FF0A0FB04460D462046294607B0BDE880
:1048D000F08F00BFAFF30080182D4454FB21E93F57
:1048E000075C143326A6813CD47ABF74702AFB3E41
:1048F000E9A7F0320FB8123F68108D1AF726303F43
:104900001583E0FEC8DB573F93846EE9E326823FC0
:10491000FE41B31BBAA1AB3F735360DBCB75F3BE53
:10492000A69237A0887E143F0165F2F2D844433F37
:10493000280356C9226D6D3F37D60684F464963F2E
:104940007AFE10111111C13F635555555555D53F8C
:10495000FFFF2F3E0000F0BF2794E53F0000F03F2F
:104960005846514610F0C8F802460B460020084948
:104970000FF072FC04460D4662E701F1004308F1B6
:10498000004883469A4659E65C46554658E700BFBC
:104990000000F03F000000002DE9F04FD24A21F066
:1049A0000043934285B00C460E4605462DD9CF4AAA
:1049B00093421AD8002E80F21681B5A3D3E90023C2
:1049C000284621460FF06CF9002200230FF08CFDE1
:1049D000C0B9B1A3D3E90023284621460FF012FB4A
:1049E00002460B460020C24908E1C24A934240F207
:1049F000D0800346C1F31302134340F0F68100292F
:104A000080F2C4800020BC49C0E0BC4A934200F25E
:104A10002981BB4A934240F2DE80002301930022A9
:104A2000B84B284621460FF0EDFA06460F460246DF
:104A30000B46284621460FF0E5FA99A3D3E9002357
:104A400082468B460FF0DEFA97A3D3E900230FF0DE
:104A500027F952465B460FF0D5FA95A3D3E9002318
:104A60000FF01CF952465B460FF0CCFA92A3D3E943
:104A700000230FF015F952465B460FF0C3FA90A3DE
:104A8000D3E900230FF00AF952465B460FF0BAFA59
:104A900000229D4B0FF004F98046894602460B46E2
:104AA000304639460FF0AEFA02460B4600209749D1
:104AB0000FF0F4F8064602460B460F4640464946BC
:104AC0000FF0ECF83246804689463B4628462146A0
:104AD0000FF098FA02460B4600208D490FF0DEF8E1
:104AE00002460B46404649460FF0B6FB52465B462F
:104AF0000FF088FA019E02460B46002E38D0DDE901
:104B0000026732463B460FF0C9F82A4623460FF0AB
:104B100079FA32463B460FF0C1F85B4652460FF039
:104B2000BDF8019B013306460F4600F00F81019B43
:104B3000012B00F0F180019B0133392B39D8019B07
:104B4000132B40F31281019FC7F57F7603360022B5
:104B500033050FF0A5F802460B46284621460FF014
:104B60009DF80022684B0FF09BF801EB07510DE018
:104B7000284621460FF046FA52465B460FF08EF863
:104B800002460B46284621460FF088F805B0BDE8DE
:104B9000F08F4DA3D3E900230FF0C4FC00283FF4AD
:104BA00009AF4BA3D3E90023104619460FF02AFAA8
:104BB000ECE72A4623460FF071F802460B46002028
:104BC00051490FF06BF8019A4F4B01EB0251002253
:104BD0000FF064F8DAE73EA3D3E900230FF060F8A2
:104BE00002460B46CAE72CA3D3E9002328462146F8
:104BF0000FF008FA0B464349024600200FF050F828
:104C00000FF0B0FC01900FF097F933A3D3E9002324
:104C100006460F460FF0F6F902460B462846214697
:104C20000FF03CF82EA3D3E9002380468946304696
:104C300039460FF0E7F906460F4632463B464046F6
:104C400049460FF02BF802460B4605460C464046F7
:104C500049460FF023F832463B460FF01FF8CDE9E6
:104C60000201DCE62B4A934200F2978000291AA346
:104C7000D3E90023C0F2AE800FF010F80123804684
:104C80008946019316A7D7E90067D6E7AFF30080FE
:104C900059F3F8C21F6EA501FE822B654715F73F39
:104CA0002DC3096EB7FD8ABE3952E686CACFD03E03
:104CB000B7DBAA9E19CE143F8555FE19A0015A3FB5
:104CC000F41011111111A13FEF39FAFE422E864066
:104CD0009C7500883CE4377E0000E0FE422EE63FF3
:104CE000763C7935EF39EA3D79684340412E86407C
:104CF0000000E0BFFFFFEF7F0000F0BF422ED63F75
:104D0000FFFF8F3C0000E03F0000F03F0000084044
:104D100000001840B1A2F03F2846214600223A4B3D
:104D20000FF0E2FB002846D0284621460022374BF0
:104D30000EF0B6FF02460B46304639460EF0AEFF87
:104D400000224FF040430FF05DF91FE732463B462B
:104D5000284621460EF0A2FF00222C4B0FF052F9FC
:104D600000222A4B0EF09AFF10E7019E4FF4001E1E
:104D70004EFA06FE2A462346CEF17F570EF08EFFEE
:104D8000002607F5401702460B46304639460EF01E
:104D900085FF019E01EB0651F8E617A3D3E9002336
:104DA0000FF030F9002C02460B464FF00000FFF6E2
:104DB0001AAE164922E732463B46284621460EF0F7
:104DC0006DFF02460B460EF06BFF0022104B0EF0FB
:104DD00067FFDBE60EF064FF4FF0FF338046894645
:104DE000019307A7D7E9006727E702460B460EF0B5
:104DF00057FFCBE6AFF30080FE822B654715F73FE8
:104E0000763C7935EF39EABD0000D0BF0000E03FC5
:104E10000000F03F00000000F8B5C1F30A56044658
:104E20000D460B4617460EBB21F000430343864652
:104E300025D00022344B0FF0E5F8344A974204465F
:104E40000D460B462ADBC1F30A56363E3E4440F27D
:104E5000FE72964228DC002E12DD23F0FF4323F47D
:104E6000E00343EA065520462946F8BD40F2FF72AA
:104E70009642EBD102460B460EF012FFF8BDF8BD8C
:104E800016F1350F1DDA4CF250339F4222462B4665
:104E900025DC19A1D1E9000110F0D6FE16A3D3E953
:104EA00000230FF0AFF8F8BD22462B4614A1D1E93C
:104EB000000110F0C9FE12A3D3E900230FF0A2F8FD
:104EC000F8BD23F0FF4323F4E003363643EA0655EA
:104ED0002046294600220E4B0FF094F8F8BD08A199
:104EE000D1E9000110F0B0FE05A3D3E900230FF0D3
:104EF00089F8F8BDAFF3008059F3F8C21F6EA50121
:104F00009C7500883CE4377E00005043B03CFFFFB6
:104F10000000903C10B5054C237833B9044B13B115
:104F20000448AFF300800123237010BDC0030020AC
:104F300000000000E07F02080C4B43B10C480D4913
:104F400010B5AFF300800C48036823B910BD0A48C0
:104F5000036833B97047094B002BF7D0BDE8104008
:104F60001847064B002BF5D0184700BF0000000083
:104F7000E07F0208C4030020A80300200000000016
:104F800008B501F067FCFCF7A7F8BDE8084001F0A0
:104F9000CFB900BF08B501F05DFCFCF70DF9BDE825
:104FA000084001F0C5B900BF08B501F053FC0FF08F
:104FB00019FEBDE8084001F0BBB900BF08B501F01B
:104FC00049FC10F011FBBDE8084001F0B1B900BF89
:104FD00008B501F03FFCFCF78FF8BDE8084001F090
:104FE000A7B900BF08B501F035FC0FF0B3FFBDE86D
:104FF000084001F09DB900BF08B501F02BFCFBF79C
:10500000CBFABDE8084001F093B900BF08B501F044
:1050100021FC0FF0F3FEBDE8084001F089B900BFA4
:1050200070B5049E96420C4628DB15466BB1002AEB
:1050300000EB020107DD2046A21811F8013D00F83F
:10504000013B9042F9D1002070BD042A0FD0022A02
:1050500002D110F0010306D001462A46204610F086
:105060004AFF002070BD02880A80184670BD10F00B
:105070000303F1D102680A60184670BD084600219A
:1050800010F05EFF4FF0FF3070BD00BF083070477A
:1050900040B1002905DB4368994202DA0844007AEE
:1050A00070470020704700BF30B1002904DB43681F
:1050B0009942BCBF40180272704700BF40B100293E
:1050C00005DB4368994202DA0844007A7047002001
:1050D000704700BF830705D120B1030F0CBF01202B
:1050E000002070470120704730B1002904DB43687D
:1050F0009942BCBF40180272704700BF002B23DBEF
:10510000002921DB70B54668B1421ADC5568761A71
:105110001446EA1AB242A8BF3246002A11DB844282
:105120000D4607D0083408300844E11810F0E3FEBB
:10513000002070BD0834E118601910F0E7FE00206F
:1051400070BD4FF0FF3070BD4FF0FF30704700BFB3
:105150004068704710B4141E10DB426894420DDCA6
:1051600033EA230328BF1346121B08309A42204417
:10517000A8BF1A465DF8044B10F0E2BE5DF8044B80
:10518000704700BF43688B4210B400F10804184612
:10519000A8BF084632EA220128BF19461B1A9942C5
:1051A0002044A8BF19465DF8044B00F0B7BE00BF0D
:1051B000002BBCBF43689B1A002A70B50E4620DB4B
:1051C00044689918A1421CDC8A421ADCCBB136F043
:1051D000004116D059428E4214DDB34212DD083030
:1051E000002E00EB020515DB9C1B2246A919284660
:1051F00010F08CFE324628190021BDE8704010F0F6
:105200009FBE70BD002211464FF0FF33BDE87040D5
:10521000FFF7A0BF74429A192946281910F076FEAC
:10522000224628460021BDE8704010F089BE00BF2C
:1052300003460830596800F0F1BD00BF70B5044660
:1052400000206168490000F065FD6668002E11DDF0
:10525000094D04F1080100EB4606034611F8012B45
:10526000141102F00F022C5DAA5C9C71DA710233FA
:105270009E42F3D170BD00BF70660208002BBCBF18
:1052800043689B1A002A2FDB70B445689C18AC4217
:1052900029DCA24227DC33B331F0004423D00029BB
:1052A000B8BF01EB032191FBF3F603FB1616002EAA
:1052B00000F10800B8BFF61802441644B242134485
:1052C00011D0304604E0B24208460ED090420AD0D7
:1052D0000146147811F8015B02F8015B8B420470FF
:1052E000F1D13046F2E770BC70470E46EEE700BFE2
:1052F00000B583B04FF0FF3300930023FFF7FEFEAD
:1053000003B05DF804FB00BF10B50C1E0EDD416854
:10531000083002F0A7F81F2C09DC0123A34020FA73
:1053200004F4013B444004EA030010BD002010BD1A
:105330000146002000F0F2BD38B50021054600F01E
:105340009BFD0146002000F0E9FD044600F1080144
:10535000284600F091FD204638BD00BF30B5013A27
:1053600083B004460D460F2A16D8DFE802F017175F
:10537000838D94172E08081F424D5C3674621846C0
:1053800001F0FCFA012DADF8000005DD9DF80020CC
:105390009DF801302370627003B030BD184601F0F3
:1053A000EDFA002DF8DD207003B030BD184601F095
:1053B000E5FA032D0090EFDD6A46231D12F8011B6C
:1053C00003F8011D9C42F9D1E6E7184601F0D6FA30
:1053D000002DC0B2E0DD2070E6E7184601F03AFA91
:1053E000072DCDE90001D7DD6B4603CB206061605E
:1053F000D2E7184601F056FA032DCDDDA3070CBF06
:105400002060206003B030BD184601F04BFA032D38
:105410000090C1DD6A46231D12F8011B03F8011D2F
:105420009C42F9D1B8E7184601F040FB032DE5DCBA
:10543000B2E7184601F00EFA072DCDE90001ABDD09
:105440000DF1FF3204F1080312F8011F03F8011DEA
:10545000A342F9D1A0E7184601F028FB032D0090E4
:105460009ADD6A46231D12F8011B03F8011DA342B1
:10547000F9D191E7184601F081FA012D8CDDE207A0
:1054800054BF2080208087E7184601F077FA012D6D
:1054900082DD80B2F3E7184601F070FA032DADDC2F
:1054A0007AE700BF30B4141E07DB456808300A46AF
:1054B0002044291B30BCFFF751BF30BC704700BFF0
:1054C00000B5013A85B00F2A00F28880DFE802F0CB
:1054D0001623303D4A56595C5F62657174808308BB
:1054E0000091012308220DEB0201FFF799FDDDE990
:1054F000020100F01DFF05B05DF804FB00910023E0
:10550000012202A9FFF78CFD9DF9080001F016F8B1
:1055100005B05DF804FB00910023012202A9FFF70A
:105520007FFD9DF8080001F009F805B05DF804FB67
:1055300000910023022202A9FFF772FDBDF90800C5
:1055400000F0FCFF05B05DF804FB0091002302228F
:1055500002A9FFF765FDBDF8080000F0EFFF05B0F8
:105560005DF804FB00910023042202A9FFF758FD17
:10557000029800F0E3FF05B05DF804FB0123009101
:10558000BEE701230091C8E700910123D2E7009113
:105590000123DCE700910123E6E7009100230422C8
:1055A00002A9FFF73DFD029800F0D2FF05B05DF8BB
:1055B00004FB00910123F2E700910023042202A9D9
:1055C000FFF72EFD029800F0B1FF05B05DF804FB77
:1055D0000091002386E700910123EFE700208AE78E
:1055E000131E09DB10B4446808300A461844E11A57
:1055F0005DF8044BFFF764BF002000F09FBF00BFC1
:1056000003F032B908B503F033F920F0404008BD8B
:1056100003F054BA09F0A8BCC11703F0E9B800BF01
:1056200003F0FAB803F00AB900B583B003F01AF931
:1056300002AB63E902010821184601F013FF20F0D4
:10564000404003B05DF804FB00B583B003F00AF9F5
:1056500002AB63E902010821184600F05FFC03B0C9
:105660005DF804FB81B138B50B680C4608461B6A2F
:105670009847236805465B6A2046984701462846B6
:10568000BDE8384004F07EBF704700BF01F00CBE9B
:10569000012002F0ADB800BF08B5022002F0A8F862
:1056A00040F29330BDE8084006F016B8014B186090
:1056B000704700BFDC030020704700BF0020704728
:1056C000002A2DE9F04340F3BB8000242546ED2756
:1056D000DFF8CCE109E07F2B04F1010415D8013596
:1056E00008B103700130A24221DD0B5D1E06F2D528
:1056F00003F0E006C02E1DD003F0F006E02E33D0FC
:1057000003F0F806F02E51D0013402350028EAD01B
:105710004FEA931C06466CF03F0C06F802CB03F0F0
:105720003F0363F07F03A24243703046DDDC28462E
:10573000BDE8F083661CB242DEDD01EB040C9CF890
:1057400001C00CF0C008B8F1800FD5D14FEA831822
:105750000CF03F0C08F4F86848EA0C0CBCF17F0F21
:1057600070DD63460234D0E7A61CB242C8DD0E19D4
:1057700096F801C00CF0C008B8F1800FC0D196F8BF
:10578000028008F0C006802EBAD11E0308F03F0840
:105790004FEA8C1CB6B20CF47C6C46EA080646EA6A
:1057A0000C06B6F5006FAFDB033430E0E61CB24206
:1057B000AADD0E1996F801C00CF0C008B8F1800FF0
:1057C000A2D196F8028008F0C009B9F1800F9BD1F0
:1057D00096F8039009F0C006802E95D19E0409F03A
:1057E0003F094FEA0C3C06F4E0160CF47C3C4FEA0F
:1057F000881846EA090646EA0C0608F47C6846EA78
:105800000806A6F5803CF4453FF67EAF0434B6F5B5
:10581000803F1DD2033500283FF465AF4FEA163CA8
:10582000C6F3851306F03F066CF01F0C63F07F0390
:1058300066F07F0680F800C043708670033052E740
:10584000002574E70235344600287FF461AF4CE749
:10585000A6F58036B30A063503F5584300283FF411
:1058600042AFC6F3090606F55C46C6F38518C3F3D6
:10587000851C06F03F0603F03F0368F07F0866F0E2
:105880007F066CF07F0C63F07F030770C77080F8B1
:105890000480467180F801C08370063023E700BFA2
:1058A000FFFF0F000378024618461B0600D470471E
:1058B00000F0E003C02B10D000F0F003E02B00D08C
:1058C00070475378927800039B0103F47C6380B2A5
:1058D000184302F03F03184370475378800103F0E8
:1058E0003F0300F4F8601843704700BF704700BFE3
:1058F00080880A308008704706307047808870477B
:1059000083888B4226BF063040180020704700BFB6
:1059100080880A3080087047704700BF06307047A3
:10592000808870478188E1B130B4841D002003462F
:1059300002E00133994210DDE25C150600F101003E
:10594000F7D502F0E005C02D02F0F00207D0E02A02
:1059500008BF023301339942EEDC30BC704701339B
:10596000E7E70846704700BF70B400228688851DAF
:10597000134602E001339E4213DB0132914205EBF4
:105980000300EC5C0EDB2006F4D504F0E000C02838
:1059900004F0F00408D0E02C08BF023301339E422B
:1059A000EBDA002070BC70470133E3E7C3888068FE
:1059B0001B0900EB4300704780887047C088704720
:1059C0000320704740680B30800870472DE9F8438A
:1059D000C3888668B0F804801B09074606EB4306B7
:1059E00019B14246304610F086FA002506F80850F4
:1059F000FB881B0937D0B0444FEA43093046B8EB67
:105A000000041DD402781021002307E001339C42DA
:105A100000EB030E14DB0139C25C1AD012F0800FC8
:105A2000F4D002F0E00EBEF1C00F02F0F0020ED092
:105A3000E02A08BF023301339C4200EB030EEADA8E
:105A40004FF45C7005F048FE0023184603E0013374
:105A5000DCE770467346BA689B1B53530235A94571
:105A6000CDD1BDE8F883BDE8F88300BF806808B1F8
:105A700001F098BD704700BF10B50446406801F0C2
:105A8000BDFDA068BDE8104001F0B8BD994270B4FA
:105A90001FD3146809091A0904EB41051FD100211D
:105AA0000A4602E00132904213DB01318B4205EBE2
:105AB0000206AC5C0EDB2606F4D504F0E006C02E30
:105AC00004F0F00409D0E02C08BF02320132904209
:105AD000EBDA0026304670BC70470132E2E702F193
