:10400000000003202938010025380100253801006F
:104010002538010025380100253801000000000086
:104020000000000000000000000000002538010032
:104030002538010000000000253801002538010066
:1040400025380100253801002538010025380100F8
:1040500025380100253801002538010025380100E8
:1040600025380100253801002538010025380100D8
:10407000E9C20100F1C20100F9C2010001C301005F
:1040800009C3010011C3010019C3010021C30100CC
:1040900029C3010031C3010039C3010041C301003C
:1040A00049C3010051C3010059C3010061C30100AC
:1040B00025380100253801002538010095BD010093
:1040C00099BD01009DBD0100A1BD0100A5BD01007C
:1040D0002538010025380100253801002538010068
:1040E0002538010025380100253801002538010058
:1040F0000000000025380100D9B80100D5B8010042
:10410000D1B80100C5B80100F1B80100EDB8010057
:10411000E9B80100DDB8010009B9010005B90100E5
:1041200001B90100F5B8010021B901001DB9010074
:1041300019B901000DB9010039B9010035B9010003
:1041400031B9010025B9010051B901004DB9010093
:1041500049B901003DB90100000000000000000065
:10416000000000000000000000000000000000004F
:10417000000000000000000000000000000000003F
:1041800025380100253801002538010025380100B7
:104190000000000025380100253801002538010005
:1041A0002538010025380100253801002538010097
:1041B0002538010025380100253801002538010087
:1041C0002538010025380100253801002538010077
:1041D0002538010025380100253801002538010067
:1041E0002538010025380100253801009DAF010068
:1041F000A5AF0100ADAF0100B5AF0100BDAF01003B
:10420000C5AF0100000000000000000025380100DB
:104210002538010025380100253801002538010026
:104220002538010025380100253801002538010016
:104230002538010025380100253801002538010006
:1042400025380100253801002538010025380100F6
:1042500025380100253801002538010025380100E6
:10426000000000007CB0EE877CB0EE87FF00FF000E
:10427000FF00FF00FF00FF00FF00FF00FF00FF0046
:10428000FF00FF00FF00FF00FF00FF00FF00FF0036
:10429000FF00FF00FF00FF00FF00FF000000000024
:1042A0002DE9F04F85B003910778A7F10903042B9E
:1042B000044607F07F0200F10100F5D9202AF3D06F
:1042C0002B2F04BF677804462D2F72D09FED427BC1
:1042D0008DED007B4FF000084FF000098FB34FF0D9
:1042E000000E4FF0000ADFF800B1754619E018F033
:1042F0006BFC80468946304618F000FC42464B462F
:1043000018F0B0FA5246804689465B46DDE9000166
:1043100035B318F083FDCDE90001AE4614F8017FF6
:104320007FB1A7F13006092E52465B46404649460A
:10433000DDD9C5B92E2F16D114F8017F0125002F24
:10434000EFD142464B46DDE9000118F03DFC8046C6
:104350008946039B404649461C6005B0BDE8F08F86
:104360004FF0010EDAE7BEF1000F29D042464B466E
:10437000DDE9000118F028FC07F0DF07452F804633
:104380008946E6D10399601C0A221BF00DFD1649EF
:104390000246002018F078FF02460B464046494688
:1043A00018F012FC804689464046494605B0BDE8F3
:1043B000F08F9FED0B7B67788DED007B013489E7F3
:1043C000DFF828904FF000084046494605B0BDE8A8
:1043D000F08F00BFAFF30080000000000000F03F4E
:1043E000000000000000F0BF000024400000F87F43
:1043F0002DE9F84F16460023002204460D4618F01A
:1044000055FE002840F09D800022002320462946CA
:1044100018F042FE28B13022002332707370BDE8DC
:10442000F88F2046294619F03FFD18F07DFE7BA34A
:10443000D3E9002381462946204618F037FE00289C
:1044400000F08680B9F1000FC0F2BE804A4600201D
:104450006F4918F019FF02460B462046294618F00E
:10446000DDFC04460D4666A1D1E9000101274FF0AD
:10447000000822462B4618F0A7FB0022654B18F0D7
:10448000F1F918F03DFF002FCC464FF0FF3AC1463E
:104490004FF0000840F38580DFF888E15E4C012290
:1044A000AEF1700945F6F3254FF02E0BA94208BF77
:1044B000A0424FF0300309D3001B61EB0501A94274
:1044C00008BFA04203F10103F6D2DBB2337050EA19
:1044D000010306F1010409D1BA4210DACE4502F116
:1044E00001020CD026467EE80245DFE7BA4204BF4F
:1044F00086F801B0B41CCE4502F10102F2D1B8F148
:10450000000F0DD02246302102F8011BC2F1010339
:1045100053442344002BF7DC2AEAEA7301331C449A
:10452000BCF1010F4CD06523BCF1000F2370C5BF57
:104530002B236370611CA11C6046BDE8F84F0FF08F
:10454000E1B905F100431D462D23337001365BE7C9
:104550002DA3D3E900232046294618F0C5FD0028E5
:104560007FF470AFB9F10E0F09F101073DDDA9F13C
:104570000E0842460020264918F086FE02460B46E9
:104580002046294618F04AFC0022224B18F06AF90E
:1045900018F0B6FE002FA9F10F0A4FF0010C3FF7FB
:1045A0007BAF334630222E2403F8022B74707FEA4F
:1045B000090618D01E4403F8012BB342FBD16BE768
:1045C00000232370BDE8F88FC9F1000200201049D4
:1045D00018F05AFE02460B462046294618F0F4FA17
:1045E00004460D463FE71E4656E7C9F10E0200207D
:1045F0000749C84618F048FE4FF0010939E700BFE7
:104600000000901EC4BCD64250EFE2D6E41A4B44E0
:10461000000024400000E03F00407A108DEDB5A07E
:10462000F7C6B03ED00D020070B54FF0FF3006F077
:10463000EDF804466FF07F4006F0E8F806462046A5
:1046400018F04CFA00220C4B18F0BEFA0446304623
:104650000D4618F043FA06A3D3E9002318F0DEFB59
:1046600002460B462046294618F0FCF870BD00BFF4
:104670000000E0DFFFFF6F430000F03D000000009E
:1046800008B510F01FFCDFED0C7A07EE100A67EE9C
:10469000277A17EE900A18F043FA05A3D3E900230E
:1046A00018F0BCFB18F040FD08BD00BFAFF3008060
:1046B000EA2E4454FB2119400000B44300000000DE
:1046C00008B510F013FCDFED0C7A07EE100A67EE68
:1046D000277A17EE900A18F023FA05A3D3E90023EE
:1046E00018F09CFB18F020FD08BD00BFAFF3008060
:1046F000EA2E4454FB2119400000B443000000009E
:104700002DE9F04F046985B0E3699B07FCD123686C
:10471000C3F3400BBBF1000F40F0AF80B0F80CA02A
:1047200015468046BAF1000F23D0BAF1010F62D0CE
:10473000BAF1020F40F0A4805500E1685448C5F575
:104740003B438033B3FBF5F31A0421F47F0102F4F9
:104750007F020A43E260E2685B00A0FB03135B0890
:1047600022F07F4242EA03635846E36005B0BDE8A9
:10477000F08FE2684BF6803B05EB850022F0FF03EB
:10478000ABEB4000019318F0A9F90646B8F80E000B
:104790000F4618F0B3F93CA3D3E9002318F014FA3C
:1047A00080460BFB05F0894618F098F902460B4647
:1047B0004046494618F008FA02460B46304639464C
:1047C00018F04EF8064668000F4618F087F90246C2
:1047D0000B463046394618F021FB18F0CDFC019B02
:1047E000C0B21843E060E368504623F47F43E360BF
:1047F00005B0BDE8F08FE2684BF6803A05EB850026
:1048000022F0FF03AAEB4000019318F067F9CDE90D
:104810000201B8F80E0018F071F91BA3D3E90023C8
:1048200018F0D2F906460AFB05F00F4618F056F9C3
:1048300002460B463046394618F0C6F902460B468A
:10484000DDE9020118F00CF8064668000F4618F082
:1048500045F902460B463046394618F0DFFA18F0A3
:104860008BFC019AC3B21343E360E368584623F418
:104870007F43E36005B0BDE8F08F6FF0100075E78F
:104880006FF00C0072E700BF95D626E80B2E113EA4
:10489000ABAAAAAA000000004F4A21F000439342AD
:1048A0002DE970430D4604464FDC4C4A93420E46B8
:1048B0000FDC45A3D3E9002317F0D4FF0022484BB7
:1048C00018F012FC002856D02B4620461946BDE8A9
:1048D0007083444A934242DCB3F1804F4BDD18F0C1
:1048E000EDFE2246804689462B462046294618F092
:1048F0006BF900223A4B17F0B5FF19F0E7FF0246BB
:104900000B464046494617F0ADFF02460B460020D5
:10491000334918F083FA424604460D464B4640465A
:10492000494617F09FFF0B4602462946204617F0DE
:1049300099FF01F0FDFE04460B46002E0BDC03F14F
:10494000004320461946BDE870830B46024617F027
:1049500089FF04460B4620461946BDE8708318F0CF
:10496000ADFE01F0E5FE1AA3D3E9002317F07AFFAC
:1049700004460B46E1E722462B462046294618F01E
:1049800023F9804689462046294618F097FE0022E2
:104990000446134B0D464046494617F063FF19F095
:1049A00095FF00220E4B17F05DFF02460B46404676
:1049B000494618F033FA22462B4617F053FF00F011
:1049C000D3FA04460B46B8E79C7500883CE4377E72
:1049D000EF39FAFE422EE63FFFFFEF7FFFFF2F3E4B
:1049E0000000F03F0000B0412DE9F84FC24B21F02C
:1049F00000469E420D468A46044610DDBF4B9E424D
:104A000000F3B58000F0B080BD4BBE49BE4CBAF19A
:104A1000000FD8BF0B4620461946BDE8F88FBB4BA8
:104A20009E4200F3C180A3F1DE739E4240F3AB804F
:104A30004FF0FF3B22462B462046294618F0C4F88B
:104A400002460B468046894618F0BEF892A3D3E989
:104A5000002306460F4618F0B7F891A3D3E90023C8
:104A600017F000FF32463B4618F0AEF88EA3D3E9AC
:104A7000002317F0F7FE32463B4618F0A5F88CA34A
:104A8000D3E9002317F0EEFE32463B4618F09CF8BF
:104A900089A3D3E9002317F0E5FE32463B4618F020
:104AA00093F887A3D3E9002317F0DCFE42464B4678
:104AB00018F08AF884A3D3E900238046894630465B
:104AC000394618F081F882A3D3E9002317F0C8FE15
:104AD00032463B4618F078F87FA3D3E9002317F05D
:104AE000BFFE32463B4618F06FF87DA3D3E90023A2
:104AF00017F0B6FE32463B4618F066F87AA3D3E9C3
:104B0000002317F0ADFE32463B4618F05DF8BBF1CE
:104B1000FF3F02460B466ED04046494617F0A2FEC4
:104B200022462B4618F050F8794E7A4B4FEACB0BC1
:104B30005E449B44DBE9002317F092FE22462B469D
:104B400017F08EFE0B460246D6E9000117F088FEEC
:104B5000BAF1000F04460B46BFF65DAF01F100430A
:104B600020461946BDE8F88F00283FF44DAF224695
:104B70002B462046294617F075FE04460B46204674
:104B80001946BDE8F88F5AA3D3E9002317F06AFE4F
:104B90000022614B18F0A8FA00283FF449AF2B46D9
:104BA00020461946BDE8F88F18F088FD5B4B9E4201
:104BB00004460D4630DCA3F550239E4255DC0246E8
:104BC0000B4617F04FFE0022534B17F049FE002210
:104BD00006460F464FF080432046294617F042FE16
:104BE00002460B463046394618F018F94FF0000BD4
:104BF00004460D461EE74046494617F033FE22465E
:104C00002B4617F0E1FF0B4602462946204617F0D7
:104C100027FE04460B46FEE6414B9E421ADC00226C
:104C2000404B17F01DFE002206460F463D4B204626
:104C3000294617F0C9FF0022374B17F013FE024632
:104C40000B463046394618F0E9F84FF0020B04469F
:104C50000D46EFE602460B460020334918F0DEF819
:104C60004FF0030B04460D46E4E600222A4B17F0F2
:104C7000F7FD002206460F46274B2046294617F02F
:104C8000F1FD02460B463046394618F0C7F84FF0A2
:104C9000010B04460D46CDE611DA22E33AAD903F12
:104CA000EB0D76244B7BA93F513DD0A0660DB13F63
:104CB0006E204CC5CD45B73FFF8300922449C23FCB
:104CC0000D5555555555D53F2F6C6A2C44B4A2BF90
:104CD0009AFDDE522DDEAD3F6D9A74AFF2B0B33F58
:104CE000711623FEC671BC3FC4EB98999999C93FD0
:104CF0009C7500883CE4377EFFFF0F440000F07F86
:104D0000FB21F93FFB21F9BF182D4454FFFFDB3F86
:104D1000E00D0200000E02000000F03FFFFFF23F36
:104D2000FF7F03400000F83F0000F0BF00000000DC
:104D30002DE9F047C1F30A59A9F2FF36132E0B46AD
:104D40000D46044607468846824622DC002E4FDB8D
:104D50003D4A42FA06F901EA090202431ED038A38D
:104D6000D3E9002317F07EFD0022002318F0BCF9E0
:104D700050B1002D04DD4FF4801343FA06F6B04421
:104D800028EA09054FF0000A544629462046BDE8A6
:104D9000F087332E06DDB6F5806F3DD019462046EC
:104DA000BDE8F087A9F213494FF0FF3222FA09F962
:104DB00010EA090FF2D022A3D3E9002317F052FD25
:104DC0000022002318F090F90028DDD0002D09DD25
:104DD000142E2FD00123C6F1340603FA06F6371934
:104DE00028BF9844454627EA090A54462946CDE794
:104DF00013A3D3E9002317F035FD0022002318F098
:104E000073F90028C0D0002D0FDB55EA040709D044
:104E10004FF0000A0D4DB7E702460B4617F022FD92
:104E20000446BCE7BA463D46AEE74FF0000A4FF0F5
:104E30000045A9E705F10108D4E700BFAFF3008002
:104E40009C7500883CE4377EFFFF0F000000F03FB8
:104E5000C1F30A522DE9F843A2F2FF36132E0B4696
:104E60000D460446884607461DDC002E40DB3C4AC2
:104E700042FA06F901EA09020243864618D036A32F
:104E8000D3E9002317F0EEFC0022002318F02CF9E0
:104E900020B1002D42DB28EA090500273C462946BF
:104EA0002046BDE8F883332E06DDB6F5806F2FD09F
:104EB00019462046BDE8F883A2F213424FF0FF39AD
:104EC00029FA02F910EA090FF2D023A3D3E900234B
:104ED00017F0C8FC0022002318F006F90028DDD0E6
:104EE000002D21DB454627EA09073C462946D7E73E
:104EF00019A3D3E9002317F0B5FC0022002318F012
:104F0000F3F80028CAD0002D19DB00273D46C5E77D
:104F100002460B4617F0A6FC0446CAE74FF480137E
:104F200043FA06F6B044B6E7142E10D00123C6F1BA
:104F3000340603FA06F6371928BF9844D2E725F05D
:104F40000042084B224318BF1D460027A6E705F183
:104F50000108C7E7AFF300809C7500883CE4377E0A
:104F6000FFFF0F000000F0BF2DE9F04FD64B994234
:104F700089B00E460F46824613DCD44B21F0004424
:104F80009C4218DD0022D24B18F086F8002879D018
:104F9000002200230020CF4917F040FF09B0BDE8F0
:104FA000F08FCD4B99422FDD5246334617F05AFC15
:104FB00009B0BDE8F08FC94B9C4270DDC84B1F445F
:104FC0009F427ED8504631460022C64B17F04AFC1D
:104FD0004FEA215BABF2FF3BBBF1000F04460D46ED
:104FE0000F4640F3E0815246334617F039FC024643
:104FF0000B460020BB4917F033FC22462B4617F026
:105000000DFFCDE900010BE0B74B9F42DADD002236
:105010000023CDE900234FEA275B5446ABF2FF3B68
:10502000B24BC7F313079F4247F07F5500F3E78069
:1050300045F44015204629460022AA4B17F010FCE3
:10504000002204460D46AA4B17F0BEFD22462B4611
:1050500017F0BAFDA246CDE902012E4680468946E8
:10506000002F3AD1002200232046294618F014F8D8
:10507000002800F0CE80BBF1000F40F076810020C8
:10508000014695E7524633465046314617F0E8FB55
:1050900002460B4617F0C2FE09B0BDE8F08F0022B1
:1050A000944B17F0DFFB0022002318F01DF80028B6
:1050B00000F0CC80904B9C4200F3C88050463146B3
:1050C00076E700228A4B17F07FFD5246334617F0F1
:1050D0007BFD4FF0000B8046894600224FF0804355
:1050E0005046314617F0BEFB02460B46504631464D
:1050F00017F094FE02460B46CDE9022317F064FD3B
:105100005DA3D3E9002304460D4617F05DFD5CA3C3
:10511000D3E9002317F0A6FB22462B4617F054FDD7
:1051200059A3D3E9002317F09DFB22462B4617F025
:105130004BFD57A3D3E9002317F094FB22462B46DF
:1051400017F042FD54A3D3E9002317F08BFB22464E
:105150002B4617F039FD52A3D3E9002317F082FB49
:1051600022462B4617F030FD4FA3D3E9002317F05A
:1051700079FB22462B4617F027FD04460D46BBF16E
:10518000000F00F0BB80584617F0B8FC48A3D3E9E5
:105190000023CDE9040117F017FD4246CDE90601D1
:1051A0004B462046294617F05DFBDDE9022317F048
:1051B0000BFD41A3D3E9002304460D46DDE90401BC
:1051C00017F002FDDDE9002317F04CFB02460B4609
:1051D0002046294617F046FB02460B464046494604
:1051E00017F03EFB5246334617F03AFB02460B4699
:1051F000DDE9060117F034FB09B0BDE8F08F45F496
:105200000015C7F5801720462946BF100BF1010B8A
:1052100012E72BA3D3E900232046294617F0D4FC3C
:1052200002460B4600202F4917F01AFBDDE9022346
:1052300017F0CAFC06460F46BBF1000F6DD10246BF
:105240000B462046294617F00BFBB1E65246334683
:105250005046314617F0B8FC0022254B17F0B4FC3D
:1052600002460B465046314617F0FAFA09B0BDE83F
:10527000F08F00BFAFF3008044523EDF12F1C23F17
:105280009FC678D0099AC33FDE03CB966446C73FDA
:10529000AF788E1DC571CC3F599322942449D23FDB
:1052A00004FA97999999D93F935555555555E53F26
:1052B0000000E0FE422EE63F763C7935EF39EA3DCC
:1052C000555555555555E53F7982DA3FFFFFEF3F7C
:1052D0000000F0BF000050C3FFFFEF7FFFFF1F3E45
:1052E0003C412D400000F03FFFFF3F439DA00600E2
:1052F0000000E03F00005043FFFF8F3C42464B461A
:1053000017F0B0FADDE9022317F05EFC02460B4607
:105310004046494617F0A4FAA2E7584617F0EEFBBC
:1053200027A3D3E9002382468B4617F04DFC26A322
:10533000D3E90023804689465046594617F044FC7D
:10534000DDE9002317F08EFA02460B463046394657
:1053500017F086FA22462B4617F082FA02460B46D1
:105360004046494617F07CFA22E6584617F0C6FB3D
:1053700015A3D3E9002306460F4617F025FCDDE907
:10538000002317F06FFA0EA3D3E9002304460D465D
:105390003046394617F018FC02460B46204629468F
:1053A00017F060FA04E60022094B17F059FA02469A
:1053B0000B465046314617F053FA1EE6AFF3008015
:1053C0000000E0FE422EE63F763C7935EF39EA3DBB
:1053D0000000F03F0000000008B518F0E9FC04A34D
:1053E000D3E9002317F01AFD08BD00BFAFF300801A
:1053F000EF39FAFE422EE63F2DE9F043DFF8B480A4
:105400008BB004460D4600F06BFF98F90030013375
:1054100006460F462BD022462B462046294617F03B
:105420006DFE814618BB2046294618F047F91CA39B
:10543000D3E9002317F058FEC8B11B4A98F9003091
:10544000CDF820900321CDE90445CDE902458DE852
:1054500006008BB9154B4FF06042CDE90623684634
:105460001AF00EFB70B1089B9BB9DDE90667304668
:1054700039460BB0BDE8F0830D490020022BCDE981
:105480000601ECD11AF04CFC22230360089B002B90
:10549000EBD01AF045FC089B0360E6E7AFF3008011
:1054A0007DF8B98FCE338640C4260200FFFFEF4758
:1054B0000000F07F0E0200202DE9F043DFF8E480C9
:1054C0008BB004460D4600F0BBFF98F90030013365
:1054D00006460F4633D0204629461AF0CBFA70B361
:1054E00029A3D3E900232046294617F0FDFD814674
:1054F00050BB27A3D3E900232046294617F0D6FD49
:10550000E8B198F90030244ACDF820900426002014
:105510000021022BCDE90445CDE902450096019218
:10552000CDE9060129D068461AF0AAFA28B3089BEB
:105530001BB11AF0F5FB089B0360DDE906673046F6
:1055400039460BB0BDE8F083134A98F90030019258
:1055500003210022CDE90445CDE9024500910892DE
:105560002BB90E4B4FF06042CDE90623DBE70C4927
:105570000020022BCDE90601D5D11AF0D1FB222360
:105580000360D4E7AFF30080EF39FAFE422E864085
:1055900051302DD5104987C0CC260200FFFFEF47C0
:1055A0000000F07F0E0200202DE9F84FC44E21F0DC
:1055B0000043B3420C4605460DDD03F1404303F5BD
:1055C0008013034340F0B980002940F3408100205C
:1055D0000021BDE8F88FBB4EB34240F3A6800029FE
:1055E000C0F2788102460B460020B74917F038F91F
:1055F0000022B64B17F0E8FA04460D4619F066F99A
:1056000095A3D3E90023894680462946204617F012
:10561000DBFA93A3D3E9002317F024F922462B46A3
:1056200017F0D2FA90A3D3E9002317F019F9224614
:105630002B4617F0C9FA8EA3D3E9002317F012F90D
:1056400022462B4617F0C0FA8BA3D3E9002317F0AC
:1056500007F922462B4617F0B7FA89A3D3E90023AE
:1056600017F000F922462B4617F0AEFA86A3D3E9CD
:10567000002382468B462046294617F0A5FA84A3CC
:10568000D3E9002317F0ECF822462B4617F09CFADA
:1056900081A3D3E9002317F0E5F822462B4617F043
:1056A00093FA7FA3D3E9002317F0DAF822462B46BA
:1056B00017F08AFA0022844B17F0D4F802460B4602
:1056C0005046594617F0AAFB42464B4617F07CFA63
:1056D000002682468B4632464B463046494617F0F6
:1056E00073FA02460B462046294617F0B9F83246AF
:1056F00004460D464B464046494617F0B3F802466D
:105700000B462046294617F089FB02460B465046B9
:10571000594617F0A7F832464B4617F0A3F8024651
:105720000B4617F09FF8BDE8F88F694A93420EDCEC
:105730005DA1D1E90001BDE8F88F02460B4617F0E4
:105740008FF802460B4617F069FBBDE8F88F02465A
:105750000B4617F039FA40A3D3E9002306460F465B
:1057600017F032FA3EA3D3E9002317F07BF8324654
:105770003B4617F029FA3CA3D3E9002317F070F851
:1057800032463B4617F020FA39A3D3E9002317F03D
:1057900069F832463B4617F017FA37A3D3E90023DE
:1057A00017F05EF832463B4617F00EFA34A3D3E901
:1057B000002317F057F832463B4617F005FA32A39C
:1057C000D3E90023804689463046394617F0FCF974
:1057D0002FA3D3E9002317F043F832463B4617F0D6
:1057E000F3F92DA3D3E9002317F03CF832463B46EA
:1057F00017F0EAF92AA3D3E9002317F031F832466B
:105800003B4617F0E1F900222F4B17F02BF8024628
:105810000B464046494617F001FB2A46234617F03F
:10582000D3F902460B4622A1D1E9000117F018F87E
:1058300002460B462846214617F012F802460B4650
:1058400019A1D1E9000117F00BF8BDE8F88F1AA1F2
:10585000D1E90001BDE8F88F09F7FD0DE13D023FF8
:1058600088B20175E0EF493F3B8F68B52882A43FBD
:105870005544880E55C1C93F7D6FEB0312D6D43F06
:10588000555555555555C53F82922EB1C5B8B33FB4
:1058900059018D1B6C06E63FC88A599CE52A0040D9
:1058A0004B2D8A1C273A0340182D4454FB21F93F05
:1058B000075C143326A6913C182D4454FB21094063
:1058C000FFFFEF3FFFFFDF3F0000F03F0000E03F42
:1058D0000000603C00225C4B16F0C4FF00225B4BD2
:1058E00017F072F940A3D3E9002304460D4617F0E0
:1058F0006BF93FA3D3E9002316F0B4FF22462B46F1
:1059000017F062F93CA3D3E9002316F0A9FF224661
:105910002B4617F059F93AA3D3E9002316F0A2FF5A
:1059200022462B4617F050F937A3D3E9002316F08F
:1059300097FF22462B4617F047F935A3D3E90023FA
:1059400016F090FF22462B4617F03EF98046894616
:105950002046294618F0BAFF2FA3D3E900230646B4
:105960000F462046294617F02FF92DA3D3E900232F
:1059700016F076FF22462B4617F026F92AA3D3E924
:10598000002316F06FFF22462B4617F01DF928A3BF
:10599000D3E9002316F064FF22462B4617F014F9D2
:1059A0000022294B16F05EFF02460B464046494650
:1059B00017F034FA32463B4617F006F91EA3D3E936
:1059C000002316F04DFF32463B4616F04BFF0246D1
:1059D0000B4616F047FF02460B4619A1D1E900011C
:1059E00016F03EFFBDE8F88F09F7FD0DE13D023FDF
:1059F00088B20175E0EF493F3B8F68B52882A43F2C
:105A00005544880E55C1C93F7D6FEB0312D6D43F74
:105A1000555555555555C53F82922EB1C5B8B33F22
:105A200059018D1B6C06E63FC88A599CE52A004047
:105A30004B2D8A1C273A0340075C143326A6913C61
:105A4000182D4454FB2109400000F03F0000E03FC6
:105A5000434A91422DE9F8430C46054639DD414A57
:105A6000914209DD02F17952914240DD02460B4636
:105A700016F0F8FEBDE8F88301F1404202F580120D
:105A8000024330D0B1F1804F3ADC0022364B16F0A1
:105A9000E7FE02460B4604460D4616F0E3FE22469C
:105AA00006460F462B462046294617F08DF802463B
:105AB0000B463046394616F0D5FE18F007FF0B4668
:105AC00002462946204616F0CDFEBDE8F843FFF712
:105AD0004BBA02460B4616F0C3FE02460B4617F0C1
:105AE0009DF9BDE8F88300200021BDE8F88300F0AF
:105AF0001FFE19A3D3E9002316F0B4FEBDE8F88316
:105B000002460B4617F060F80022174B16F0A8FE6D
:105B100018F0DCFE2A468046894623462846214660
:105B200016F0A0FE424606460F464B462846214642
:105B300016F098FE02460B4600200B4917F06EF94E
:105B40000B4602463946304616F08AFEBDE8F84359
:105B500000F0EEBDAFF30080EF39FAFE422EE63FD3
:105B6000FFFFEF3FFFFFAF410000F03F00000000EC
:105B70002DE9F047C44B21F00048984584B00D460C
:105B8000044616DD08F1404808F58018034658EA37
:105B9000030326D002460B4616F062FE0B46024671
:105BA00017F03CF904460B462046194604B0BDE800
:105BB000F087B64B98458A462EDCB8F1795F80F2C3
:105BC0006D8195A3D3E9002316F04CFE0022B04B63
:105BD00017F08AFA00B32B462046194604B0BDE8F8
:105BE000F0878FA3D3E9002316F0EEFF8EA3D3E94D
:105BF000002306460F462046294616F0E5FF0246DA
:105C00000B463046394616F02DFE04460B4620461C
:105C1000194604B0BDE8F0872046294617F04EFD2E
:105C200002460B4600209A4916F01AFE0022994BB4
:105C300016F0CAFF7EA3D3E9002304460D4616F0F2
:105C4000C3FF7DA3D3E9002316F00CFE22462B46AA
:105C500016F0BAFF7AA3D3E9002316F001FE22461C
:105C60002B4616F0B1FF78A3D3E9002316F0FAFD16
:105C700022462B4616F0A8FF75A3D3E9002316F0A1
:105C8000EFFD22462B4616F09FFF73A3D3E90023B6
:105C900016F0E8FD22462B4616F096FF70A3D3E9D6
:105CA0000023CDE900012046294616F08DFF6EA3A2
:105CB000D3E9002316F0D4FD22462B4616F084FFCC
:105CC0006BA3D3E9002316F0CDFD22462B4616F038
:105CD0007BFF69A3D3E9002316F0C2FD22462B46C1
:105CE00016F072FF6A4B002216F0BCFDCDE90201EE
:105CF0002046294618F0EAFD674B984506460F46B0
:105D000067DCDDE90223DDE9000117F087F83246A0
:105D1000CDE900013B463046394616F0A3FD024668
:105D20000B46DDE9000116F04FFF4FF00008CDE90A
:105D3000000142463B464046394616F045FF0246C2
:105D40000B462046294616F08BFD424604460D467A
:105D50003B463046394616F085FD02460B46204646
:105D6000294617F05BF802460B4616F07BFD02460B
:105D70000B462DA1D1E9000116F072FD02460B463B
:105D8000DDE9000116F06CFD424604460D463B4637
:105D90004046394616F066FD02460B4638A1D1E969
:105DA000000116F05DFD02460B462046294616F01E
:105DB00057FD0B46024632A1D1E9000116F050FD15
:105DC00004460B46BAF1000F3FF7EEAE03F1004375
:105DD000EAE6DDE90223DDE9000117F01FF83246AB
:105DE0003B4616F0F1FE32463B4616F03BFD0246BE
:105DF0000B4616F037FD0CA3D3E9002316F030FD57
:105E00000B46024606A1D1E9000116F029FD044621
:105E10000B46D7E7AFF300809C7500883CE4377EE3
:105E2000182D4454FB21F93F075C143326A6913CFE
:105E300009F7FD0DE13D023F88B20175E0EF493FF2
:105E40003B8F68B52882A43F5544880E55C1C93F91
:105E50007D6FEB0312D6D43F555555555555C53F6B
:105E600082922EB1C5B8B33F59018D1B6C06E63F37
:105E7000C88A599CE52A00404B2D8A1C273A0340CA
:105E8000182D4454FB21E93FFFFFEF3FFFFFDF3FA9
:105E90000000F03F0000E03F3233EF3F02460B4688
:105EA00016F092FE38A3D3E9002306460F4616F0FB
:105EB0008BFE37A3D3E9002316F0D4FC32463B46D1
:105EC00016F082FE34A3D3E9002316F0C9FC324653
:105ED0003B4616F079FE32A3D3E9002316F0C2FC4C
:105EE00032463B4616F070FE2FA3D3E9002316F08E
:105EF000B7FC32463B4616F067FE2DA3D3E90023DC
:105F000016F0B0FC32463B4616F05EFE2AA3D3E9FB
:105F10000023804689463046394616F055FE28A3B0
:105F2000D3E9002316F09CFC32463B4616F04CFEAB
:105F300025A3D3E9002316F095FC32463B4616F024
:105F400043FE23A3D3E9002316F08AFC32463B46E6
:105F500016F03AFE0022204B16F084FC02460B4657
:105F60004046494616F05AFF22462B4616F02CFEB4
:105F700022462B4616F076FC04460B462046194670
:105F800004B0BDE8F08700BF09F7FD0DE13D023F19
:105F900088B20175E0EF493F3B8F68B52882A43F86
:105FA0005544880E55C1C93F7D6FEB0312D6D43FCF
:105FB000555555555555C53F82922EB1C5B8B33F7D
:105FC00059018D1B6C06E63FC88A599CE52A0040A2
:105FD0004B2D8A1C273A03400000F03F00000000D0
:105FE0002DE9F84F5442144323F00049704E49EA1A
:105FF000D474B44286460F4640D84442044321F04C
:10600000004B4BEAD474B4428A4637D803F140447B
:1060100004F5801414434AD09C1704F0020444EAA7
:10602000D17450EA0B0131D052EA090137D0B145A1
:1060300052D0B34533D0ABEB09094FEA2959B9F136
:106040003C0F3BDC002B66DB7046394616F0E6FE63
:1060500017F034FBFEF7C8FC012C58D0022C48D0B6
:10606000002C5ED040A3D3E9002316F0F9FB40A337
:10607000D3E9002316F0F4FBBDE8F88F104619466B
:1060800072463B4616F0EEFBBDE8F88F022C19D0A5
:10609000032C10D138A1D1E90001BDE8F88FBAF185
:1060A000000F14DB36A1D1E90001BDE8F88FBDE88F
:1060B000F84FFEF799BC3946BDE8F88F30A1D1E919
:1060C0000001C9E72AA1D1E90001BDE8F88F2EA19E
:1060D000D1E90001BDE8F88FCB4524D0022CF1D0E6
:1060E000032CD7D0012C4FF0000027D00021BDE8B1
:1060F000F88F1DA3D3E9002316F0B2FB02460B462E
:106100001BA1D1E9000116F0ABFBBDE8F88F01F14E
:106110000041BDE8F88F19F13C0F95DA002000210D
:106120009AE7BDE8F88F022C16D0032C0FD0012C73
:1061300008D017A1D1E90001BDE8F88F4FF0004168
:10614000BDE8F88F14A1D1E90001BDE8F88F14A1D2
:10615000D1E90001BDE8F88F13A1D1E90001BDE844
:10616000F88F00BFAFF30080075C143326A6A13C74
:10617000182D4454FB210940182D4454FB2109C01B
:10618000182D4454FB21F93F182D4454FB21F9BF2D
:10619000182D4454FB21E93F182D4454FB21E9BF3D
:1061A000D221337F7CD902C0D221337F7CD90240F7
:1061B0000000F07F0000000043422DE9F047034358
:1061C00021F00048424A48EAD373934206460F46FC
:1061D00016D890454BD03F4B98458A461EDC3AA3D3
:1061E000D3E90023044616F03DFB0022002316F0FD
:1061F0007BFF002845D03B4620461946BDE8F08786
:1062000002460B4616F02CFB0B46024616F006FE25
:1062100004460B4620461946BDE8F0872E4B9845AC
:10622000044645462FDD02464346414616F01AFB1A
:10623000224606460F4643460020254916F010FB2D
:1062400002460B463046394616F0E8FDFEF78CFE56
:10625000224B002216F0B8FCBAF1000F04460B46A0
:10626000D8DA01F1004320461946BDE8F087002244
:10627000002316F0D3FD04460B4620461946BDE820
:10628000F0873446454622462B462046294616F0DE
:10629000E9FA22462B4606460F4616F095FC2246A2
:1062A000804689462B460020094916F0D9FA024655
:1062B0000B464046494616F0B1FD32463B4616F0C5
:1062C000D1FAC3E7AFF300809C7500883CE4377EC9
:1062D0000000F03FFFFF2F3EFFFFDF3F0000E03FE9
:1062E0004F4A2DE9F84321F0004494420B460546FD
:1062F0001BDC4C4A944222DD4B4A944263DD4B4AFC
:1063000094427BDD4A4A944246DD0132944240D0B9
:1063100041A3D3E900231046194616F055FC064662
:106320000F4630463946BDE8F88302460B4616F064
:106330004BFC06460F4630463946BDE8F88317F059
:10634000BDF902F0A9FC00223A4B8046894616F0BE
:1063500089FAB4F1725F06460F46ECDB42464B46C3
:106360004046494616F030FC32463B4604460D4650
:106370003046394616F076FA02460B462046294644
:1063800016F04CFD00222B4B16F06CFA06460F4619
:10639000D1E7294A9042BBD82846194617F08EF912
:1063A0000022264B16F010FC00F04AF800220446AA
:1063B0000D46224B16F008FC22462B4616F004FC34
:1063C00006460F46B7E717F079F900F039F80022D2
:1063D0001A4B06460F4616F0F7FB32463B4604467C
:1063E0000D460020154916F019FD02460B462046C1
:1063F000294616F037FA06460F469CE717F05EF975
:1064000000F01EF800220D4B16F0DEFB06460F468C
:1064100091E700BFAFF300809C7500883CE4377EB5
:10642000FFFFEF7F422ED63FFFFF3540412E8640D3
:10643000CD3386400000F03F7DF8B98F0000E03F8B
:106440002DE9F04FB04F21F00042BA4283B00C4624
:106450004FEAD17605460DD9AC4FBA4225D9C1F3E2
:106460001303034340F0EF800EB10020014603B058
:10647000BDE8F08FA64B9A4200F2CC80A54B9A4221
:1064800000F2DE808AA3D3E9002316F0EBF90022A4
:10649000A14B16F029FE002800F005812846214670
:1064A00000229D4B16F0DEF9E1E783A3D3E9002338
:1064B00016F01AFE002840F0CB802846214680A323
:1064C000D3E9002316F0F2FD0028CED1934B2846E5
:1064D00003EBC60621467CA3D3E9002316F074FB28
:1064E000D6E9002316F0BEF916F01EFE804616F01F
:1064F00005FB77A3D3E9002306460F4616F064FB9D
:1065000002460B462846214616F0AAF972A3D3E9A3
:106510000023CDE900013046394616F055FB82468E
:106520008B4652465B46DDE9000116F099F90546B7
:106530000C462A4623462846214616F045FB68A30A
:10654000D3E9002306460F4616F03EFB66A3D3E9C7
:10655000002316F085F932463B4616F035FB64A35E
:10656000D3E9002316F07EF932463B4616F02CFBA9
:1065700061A3D3E9002316F073F932463B4616F0C7
:1065800023FB5FA3D3E9002316F06CF932463B46A8
:1065900016F01AFB02460B462846214616F060F913
:1065A00006460F462846214632463B46B8F1000FC4
:1065B00056D016F009FB324604460D463B460020F5
:1065C0004FF0804116F04CF902460B462046294612
:1065D00016F024FC02460B465046594616F040F988
:1065E000DDE9002316F03CF90B4602464A4900203B
:1065F00016F036F96FF47F7398454FDA08F57A781C
:1066000001EB085100224FF0B87316F0DDFA03B029
:10661000BDE8F08F424B9A423FF658AF414BF40031
:106620002344D3E9002316F01BF93F4BC6F10108C0
:106630002344CDE90001D3E900ABA8EB060870E7DD
:106640004FF0000875E702460B4616F00BF90EE70F
:1066500017A3D3E900231046194616F0B5FA06E74A
:1066600016F0B2FA0022804689464FF08043304649
:10667000394616F0F5F802460B464046494616F0F4
:10668000CDFB2A46234616F0EBF802460B460020C7
:10669000214916F0E5F803B0BDE8F08F01EB085191
:1066A00003B0BDE8F08F804643E700BFAFF3008042
:1066B0009C7500883CE4377EEF39FAFE422E864016
:1066C00051302DD5104987C0FE822B654715F73F05
:1066D0000000E0FE422EE63F763C7935EF39EA3D98
:1066E000D0A4BE726937663EF16BD2C541BDBB3ED8
:1066F0002CDE25AF6A56113F93BDBE166CC1663FB6
:106700003E5555555555C53F412E8640FFFFEF7FFD
:10671000422ED63FFFFF2F3E0000F03F200E02002A
:10672000B1A2F03F300E0200400E02000000000057
:106730002DE9F04FB1F5801F85B006460F460B4698
:106740005ADA024621F00044224300F0F880002982
:10675000C0F27A810022D64B16F036FAD54A0B46A3
:10676000934206460F466FF0350C4ADCC3F313051F
:1067700005F5152E0EF6647E0EF4801E8EF07F5207
:1067800082F440121C1542EA0507A4F2FF34644467
:106790000022C94B3046394604EB1E5416F060F80F
:1067A000AB1CC3F31303022B82468B464FF000024F
:1067B00030DC002316F070FC002800F0C980002CAB
:1067C00000F04B81204616F099F9A5A3D3E90023E8
:1067D00006460F4616F0F8F9A3A3D3E900230446B2
:1067E0000D463046394616F0EFF902460B46204674
:1067F000294616F037F80AE0AE4A93424FF0000CF3
:10680000B4DD32463B463046394616F02BF805B02B
:10681000BDE8F08F4FF0804316F024F802460B4697
:106820005046594616F0FAFA064620460F4616F02C
:1068300065F93246CDE900013B4630463946CDE99F
:10684000026716F0C1F902460B468046894616F0EB
:10685000BBF987A3D3E9002306460F4616F0B4F927
:1068600085A3D3E9002315F0FDFF32463B4616F021
:10687000ABF983A3D3E9002315F0F4FF32463B467E
:1068800016F0A2F980A3D3E9002315F0EBFF4246EE
:106890004B4616F099F97EA3D3E90023804689463A
:1068A0003046394616F090F97BA3D3E9002315F062
:1068B000D9FF32463B4616F087F979A3D3E9002386
:1068C00015F0D0FF32463B4616F07EF90B460246E5
:1068D0004946404615F0C6FFA5F5C223C5F5D725A4
:1068E000A3F27A4351351D43002D8046894656DD7B
:1068F0000022724B5046594616F066F952465B46E6
:1069000016F062F906460F46002C68D132463B4627
:106910004046494615F0A6FFDDE9022316F054F97A
:1069200002460B463046394615F09AFF02460B46A2
:106930005046594615F094FF05B0BDE8F08F00228F
:10694000002300205E4916F069FA05B0BDE8F08F1B
:1069500055A3D3E900235046594616F035F90246AF
:106960000B460020554915F07BFF524606460F4660
:106970005B465046594616F027F902460B4630460C
:10698000394616F021F906460F46002C40F09A8051
:1069900002460B465046594615F062FF37E7002C79
:1069A00000F0A4802EA3D3E90023DDE9000116F056
:1069B0000BF942464B4604460D465046594615F0E3
:1069C0004FFFDDE9022316F0FFF827A3D3E90023E8
:1069D00006460F46DDE9000116F0F6F821E020A397
:1069E000D3E90023DDE9000116F0EEF832463B461C
:1069F00004460D464046494615F034FFDDE90223C2
:106A000016F0E2F818A3D3E9002380468946DDE9B1
:106A1000000116F0D9F802460B464046494615F0EB
:106A200021FF02460B463046394615F019FF524603
:106A30005B4615F015FF02460B462046294615F029
:106A40000FFF05B0BDE8F08F02460B4615F008FFBA
:106A50000022002316F0E2F9D9E600200021D6E654
:106A60000000E0FE422EE63F763C7935EF39EA3D04
:106A700044523EDF12F1C23FDE03CB966446C73F6D
:106A8000599322942449D23F935555555555E53F86
:106A90009FC678D0099AC33FAF788E1DC571CC3F91
:106AA00004FA97999999D93F555555555555D53F5C
:106AB00000005043FFFFEF7F0000F03F0000E03F89
:106AC000000050C3204616F019F80FA3D3E90023A5
:106AD0008046894616F078F80DA3D3E900230446D2
:106AE0000D464046494616F06FF89AE702460B46B7
:106AF0005046594615F0B4FEDDE9022316F064F85D
:106B000014E700BFAFF300800000E0FE422EE63F36
:106B1000763C7935EF39EA3DB1F5801F2DE9F84330
:106B200004460D460B461ADA024621F0004632436F
:106B300059D000295FDB00223B4B16F045F83B4A59
:106B40000B4693420D4604466FF035010CDD22469C
:106B50002B462046294615F085FEBDE8F883334ACA
:106B600093424FF00001F2DC1815A0F2FF30084408
:106B70004FEAD0794844C3F3130815F0BFFFC9F5B5
:106B80007F73033348EA035506460F4620462946DD
:106B9000FFF7CEFD1EA3D3E9002380468946304689
:106BA000394616F011F81CA3D3E9002304460D461C
:106BB0004046494616F008F802460B46204629464C
:106BC00015F050FE16A3D3E9002304460D463046C7
:106BD000394615F0F9FF02460B462046294615F0C6
:106BE00041FEBDE8F883002200230020104916F082
:106BF00015F9BDE8F88302460B4615F031FE002278
:106C0000002316F00BF9BDE8F88300BFAFF3008056
:106C1000362BF111F3FE593D0EE526157BCBDB3FFC
:106C200000609F501344D33F00005043FFFFEF7FAD
:106C3000000050C3000000002DE9F04F23F0004792
:106C400057EA020493B037D0674C21F00046A642C1
:106C500083460D4629DC9A46964625D0A74224DC79
:106C6000614CA74279D0002D89468046CDE90023AA
:106C700077DB0024BEF1000F2CD15B4B9F4200F06C
:106C80008B805A4B9F4261D0BAF1804F00F0BA839B
:106C9000574B9A451ED1002D1CDB4046494613B088
:106CA000BDE8F04F17F012BE58B106F1404606F5A8
:106CB000801656EA0B0306D14C49002013B0BDE8FC
:106CC000F08FB742CCDD4B4813B0BDE8F04F18F061
:106CD000D9BE00244046494616F0F0FCBBF1000F37
:106CE00019D126B1414B25F040429A4213D1BAF155
:106CF000000FC0F2BC83002DE0DA06F1404606F535
:106D0000801656EA040300F08F84012CD6D101F1DD
:106D100000431946D2E7ED0F013D54EA05034ED07A
:106D2000354B9F426EDD03F104739F4240F3E883CD
:106D3000324B9E424EDDBAF1000F4EDD28A3D3E95F
:106D400000231046194615F03FFFB7E7BAF1000FD0
:106D5000C0F23C8440464946B0E7BEF1000F82D005
:106D6000A3E7274B9F4228DCA3F154739F4280DDA9
:106D70003B15A3F2FF33142B40F33E84C3F13403DD
:106D80002EFA03F202FA03F39E457FF472AF02F08B
:106D90000102C2F102046DE706F1404303F58013DE
:106DA00053EA0B0388D0154B9E4240F33283BAF16D
:106DB000000F12DBDDE9000180E702245AE74246BA
:106DC0004B464046494615F04BFD02460B4616F031
:106DD00025F873E7BAF1000FB0DB002000216DE762
:106DE0009C7500883CE4377E0000F07F0000F03F97
:106DF0000000E03FD81502000000E041FFFFEF3F38
:106E0000FFFF3F43B6F5801F4FF0000205DAD44B79
:106E100015F0DAFE6FF034020E463315D14FC6F38B
:106E20001306A3F2FF33134446F07F5ABE421A46BC
:106E30000D934AF4401A40F32183CB4B9E4240F31A
:106E4000FD83134601330D93C84B0022CDE9062381
:106E500000270026CDE90867CDE90E67AAF5801A5C
:106E60000027024653465146CDE90A23DDE90623B1
:106E700015F0F6FCDDE9062380468946DDE90A01C6
:106E800015F0F0FC02460B460020B84915F0C6FF8D
:106E90000A460146CDE910121346494602464046CD
:106EA00015F092FE4FEA6A0343F000538C46834686
:106EB00003F50023CDE904BCDA468B46D91900233B
:106EC000CDE902AB0293DDE902AB002006460F4696
:106ED00002460B465046594615F076FE02460B46D2
:106EE0004046494615F0BCFCDDE90623804689464C
:106EF0003046394615F0B4FC02460B46DDE90A017E
:106F000015F0AEFC52465B4615F05EFE02460B469F
:106F10004046494615F0A4FCDDE9102315F054FE67
:106F2000DDE90467CDE9060132463B463046394685
:106F300015F04AFE78A3D3E9002306460F4615F064
:106F400043FE77A3D3E9002315F08CFC32463B4681
:106F500015F03AFE74A3D3E9002315F083FC324602
:106F60003B4615F031FE72A3D3E9002315F07AFCFD
:106F700032463B4615F028FE6FA3D3E9002315F0F7
:106F800071FC32463B4615F01FFE6DA3D3E900238A
:106F900015F068FC3246804689463B463046394605
:106FA00015F012FE02460B464046494615F00CFE0F
:106FB000524606460F465B46DDE9040115F052FCD9
:106FC000DDE9062315F000FE32463B4615F04AFC8B
:106FD0005246804689465B465046594615F0F4FDB8
:106FE0000022634BCDE90A0115F03CFC42464B46BA
:106FF00015F038FC02980F46064632463B4650468E
:10700000594615F0E1FD002282468B46584B30462A
:10701000394615F025FCDDE90A2315F021FC02466E
:107020000B464046494615F01BFCDDE9042315F0EC
:10703000CBFD3246804689463B46DDE9060115F028
:10704000C3FD02460B464046494615F00BFC804600
:10705000894602460B4650465946CDE904AB15F029
:1070600001FCDDE902AB38A3D3E9002350460F460B
:1070700015F0AAFDDDE90423CDE9020139465046A9
:1070800015F0EEFB02460B464046494615F0E8FB7C
:107090002FA3D3E9002315F097FD2FA3D3E90023F5
:1070A000804689465046394615F08EFD02460B460D
:1070B0004046494615F0D6FBDDE90E2315F0D2FB1C
:1070C00080460D98894615F019FD424606460F4642
:1070D0004B46DDE9020115F0C5FBDDE9082315F09B
:1070E000C1FB32463B4615F0BDFB32463B4650469F
:1070F0008B4615F0B5FBDDE9082315F0B1FBDDE9A2
:10710000022315F0ADFB02460B464046494615F0FA
:10711000A7FB80462EE000BFEF4E454A287ECA3FBF
:1071200065DBC9934A86CD3F01411DA96074D13FFB
:107130004D268F515555D53FFFAB6FDBB66DDB3F0D
:10714000033333333333E33F000000E009C7EE3F3E
:10715000FD033ADC09C7EE3FF5015B14E02F3EBEAC
:10716000000040438E98030079B60B000000F03F0A
:10717000000008408946013C54EA0503DDE90001AE
:1071800014BFD94CD94C0023CDE9043403460C4636
:10719000CDE9023400230293DDE9024522462B4665
:1071A00015F05EFB52465B4615F00EFDDDE900234F
:1071B00006460F464046494615F006FD02460B4678
:1071C0003046394615F04EFB2246804689462B460E
:1071D00050465946CDE9008915F0F6FC0B460246AB
:1071E00006460F464046494615F03CFBC04B9942C7
:1071F00004460D468A4640F3168101F13F4303F5EC
:10720000E003034340F0EA81A3A3D3E90023DDE9CF
:10721000000115F027FB3246804689463B46204652
:10722000294615F01DFB02460B464046494615F01F
:107230005BFF002840F0D281A8464FEA28534FF464
:107240008012A3F2FE3342FA03F35344C3F30A520B
:10725000A84DA2F2FF321541C3F3130423EA05013E
:107260000020C2F1140B44F48014BAF1000F02465E
:107270000B4644FA0BFB30463946B8BFCBF1000B46
:1072800015F0EEFA02460B4606460F46DDE9000110
:1072900015F0E8FA4FEA0B5A0D46002480A3D3E913
:1072A00000232046294615F08FFC32468046894649
:1072B0003B462046294615F0D3FA02460B46DDE947
:1072C000000115F0CDFA78A3D3E9002315F07CFC7A
:1072D00077A3D3E9002306460F462046294615F03A
:1072E00073FC02460B463046394615F0BBFA06469B
:1072F0000F4602460B464046494615F0B3FA424651
:107300004B4604460D4615F0ABFA02460B46304696
:10731000394615F0A5FA2246804689462B46204676
:10732000294615F051FC64A3D3E9002306460F4615
:1073300015F04AFC62A3D3E9002315F091FA324616
:107340003B4615F041FC60A3D3E9002315F08AFA0F
:1073500032463B4615F038FC5DA3D3E9002315F017
:107360007FFA32463B4615F02FFC5BA3D3E900239E
:1073700015F078FA32463B4615F026FC02460B46DD
:107380002046294615F06CFA06460F4602460B4683
:107390002046294615F018FC0022CDE900014FF0E7
:1073A00080433046394615F05BFA02460B46DDE96C
:1073B000000115F033FD424606460F464B46204677
:1073C000294615F001FC42464B4615F04BFA0246A1
:1073D0000B463046394615F043FA22462B4615F047
:1073E0003FFA02460B4600203F4915F039FA8A441D
:1073F000BAF5801FC0F233815146DDE9042315F050
:10740000E3FB5BE4424640464B46494615F0DCFB55
:1074100054E4BAF1000FBFF6E0ACDDE900341846E1
:1074200004F100414AE4344B21F00048984540F310
:10743000F280324B0B4403430CD132463B4615F0ED
:107440000FFA02460B46DDE9000115F039FE00286F
:107450003FF4F3AEDDE9040121A3D3E9002315F0E5
:10746000B3FB1FA3D3E9002315F0AEFB26E40246CD
:107470000B4600201C4915F0D1FC3CE400220023FF
:10748000CDE90823CDE90E23174B00220027CDE9D3
:107490000623E6E4AFF30080FE822B654715973C98
:1074A00000000000432EE63FEF39FAFE422EE63F91
:1074B000396CA80C615C20BED0A4BE726937663EF0
:1074C000F16BD2C541BDBB3E2CDE25AF6A56113FE4
:1074D00093BDBE166CC1663F3E5555555555C53FCB
:1074E00059F3F8C21F6EA5010000F03F0000F0BF85
:1074F000FFFF8F40FFFF0F00FFCB904000346F3F36
:107500006B4B9E427FF766AC6A4B9E423FF713ACD3
:107510000022684B15F0A4F957A3D3E900230646CF
:107520000F4615F051FB56A3D3E900238046894648
:107530003046394615F048FB002282468B465E4BAA
:107540003046394615F040FB02460B464EA1D1E9C4
:10755000000115F085F932463B4615F035FB024631
:107560000B460020554915F07BF93246CDE9020162
:107570003B463046394615F027FB02460B46DDE90F
:10758000020115F021FB42A3D3E9002315F01CFBF7
:1075900002460B465046594615F062F902460B4624
:1075A00006460F464046494615F05CF942464B46B2
:1075B000002082468B4615F053F902460B463046B2
:1075C000394615F04DF980468946D4E542464B468A
:1075D0000020384915F022FCFFF770BBDDE90401FB
:1075E0002DA3D3E9002315F0EFFA2BA3D3E9002351
:1075F00015F0EAFAFFF762BBBEF1000F7FF469AB4A
:10760000C3F1140347FA03F202FA03F39F422AD0AC
:107610007446FFF736BB294B98453FF70EAEDDE9C0
:1076200002239246934638E602460B4615F018F9B7
:1076300002460B4615F0F2FBFFF740BB18A3D3E957
:107640000023CDE9082318A3D3E90023CDE90E23B5
:107650001B4B00224FF48027CDE9062301E45A4654
:1076600001F05AFDC9E602F00102C2F10204FFF77F
:1076700008BB00BFAFF30080000000604715F73F74
:1076800044DF5DF80BAE543E555555555555D53F25
:10769000FE822B654715F73F9C7500883CE4377EDA
:1076A0000000004003B8E23F06D0CF43EBFD4C3E64
:1076B000FEFFEF3F0000F03F0000D03F0000E03F42
:1076C0000000F83F000000002DE9F04F9A4E21F035
:1076D0000047B74291B040F38E809246974A974256
:1076E0000C4626DC00298AA3D3E9002340F3B481A9
:1076F00015F0B6F8924B9F4204460D4600F090807C
:1077000085A3D3E9002315F0ABF802460B46CAE97E
:1077100000232046294615F0A3F87FA3D3E90023D0
:1077200015F09EF80125CAE90201284611B0BDE80E
:10773000F08F844A974240F39080834A974265DCF9
:107740003D15A5F21645A7EB055319461F460646FB
:1077500015F0EAFC15F0D2F98046894602460B4640
:1077600030463946CDE90A8915F07AF80022774B80
:1077700015F02AFA8946804615F0D6FC15F0BEF9B8
:1077800002460B4606460F4640464946CDE90C6781
:1077900015F066F800226D4B15F016FA0022002352
:1077A000CDE90E0115F078FC002800F0738100236C
:1077B00030463946002215F06FFC002814BF012323
:1077C0000223634A019202212A4600910AA85146E7
:1077D00000F086FB002C054614DADAF80420DAF80B
:1077E0000C3002F1004203F100434542CAF8042084
:1077F000CAF80C3006E0C2E9000100250024C2E905
:1078000002450025284611B0BDE8F08F02460B4620
:1078100015F026F80025CAE90201CAE90001F1E7DE
:107820003FA3D3E9002315F01BF83FA3D3E90023BE
:107830000D46044615F014F802460B46CAE900232B
:107840002946204615F00CF837A3D3E9002315F09C
:1078500007F80125CAE90201D4E715F02FFF34A388
:10786000D3E900238046894615F0AEF90022394B52
:1078700014F0F8FF15F058FC054615F03FF924A365
:10788000D3E90023CDE9040115F09EF902460B4629
:107890004046494614F0E4FF1FA3D3E90023804685
:1078A0008946DDE9040115F08FF91F2DCDE90201AC
:1078B00054DC294B6A1E53F822309F424ED00246B8
:1078C0000B464046494614F0CBFF02460B46CAE938
:1078D000002383460E465A4633464046494614F036
:1078E000BFFFDDE9022314F0BBFF002C02460B466C
:1078F000CAE9022386DA5B4606F1004601F100413F
:107900008AE84800CAF80C10CAF808006D4279E706
:1079100000004054FB21F93F3163621A61B4D03D4D
:107920000000601A61B4D03D7370032E8A19A33B26
:1079300083C8C96D305FE43FFB21E93F7BD902403A
:10794000FB21F93FFB213941FFFFEF7F0000704130
:10795000902702000000E03F10270200DDE902232B
:107960004046494614F07CFF3A15C1F30A53D31A36
:10797000102B83460E460992CAE90001ABDD58A3DD
:10798000D3E90023DDE9040115F01EF906460F4690
:1079900002460B464046494614F062FFCDE9060117
:1079A00002460B464046494614F05AFF32463B46D3
:1079B00014F056FF4CA3D3E9002306460F46DDE939
:1079C000040115F001F932463B4614F049FFDDE9A8
:1079D0000689CDE9020102460B464046494614F0AD
:1079E0003FFF0B46C1F30A570E460999CF1B0246CB
:1079F000312F8346CAE900236CDD3DA3D3E9002380
:107A0000DDE9040115F0E0F806460F4602460B4694
:107A100040464946CDE9068914F022FF02460B464E
:107A200080468946DDE9060114F01AFF32463B46DE
:107A300014F016FF30A3D3E9002306460F46DDE914
:107A4000040115F0C1F832463B4614F009FF024626
:107A50000B46CDE9022334E714F004FF2A4B9F4282
:107A600004460D4618D026A3D3E9002314F0FAFEED
:107A700002460B46CAE900232946204614F0F0FED0
:107A80001FA3D3E9002314F0EDFE4FF0FF35CAE940
:107A90000201B7E6032394E611A3D3E9002314F00F
:107AA000E1FE11A3D3E900230D46044614F0DAFEEB
:107AB00002460B46CAE900232946204614F0D0FEB0
:107AC00009A3D3E9002314F0CDFE4FF0FF35CAE936
:107AD000020197E6DDE90689FDE600BFAFF300800D
:107AE0000000601A61B4D03D7370032E8A19A33B65
:107AF0000000002E8A19A33BC14920259A837B39B7
:107B00003163621A61B4D03DFB21F93F00000000EF
:107B1000574A2DE9F84F21F0004890450E46074698
:107B20002BDC544B0029B4BF534D544D98454FF0B6
:107B3000000410DC524B98456EDC4BA3D3E90023C4
:107B400014F090FE00224F4B15F0CEFAD8B1384613
:107B50003146BDE8F88F4C4B984579DD4B4B984545
:107B600043DD013398453DD0384631463EA3D3E945
:107B7000002315F029F8BDE8F88F02460B4614F0F3
:107B800071FEBDE8F88F3846314615F097FD01F0DB
:107B900083F806460F4632463B463046394614F0D7
:107BA00061FE324682468B463B463046394615F0EA
:107BB0000BF8002280468946324B3046394614F095
:107BC00051FE02460B464046494615F027F902464B
:107BD0000B465046594614F043FE22462B4614F0FD
:107BE000F3FFCEE72A4B9842BED83846314615F00F
:107BF00065FD0022214B14F0E7FFFEF721FC06464D
:107C00000F4602460B462046294614F0DDFF324659
:107C10003B4614F0D9FFB4E715F050FD01F03CF8F5
:107C20001C4B984506460F46B5DD0022154B14F057
:107C300019FE02460B463046394615F0EFF832463B
:107C40003B4614F00FFE22462B4614F0BDFF98E78A
:107C500015F034FDFEF7F4FB02460B46204629469C
:107C600014F0B2FF8DE700BF3374AC3C1F7BAC7FD8
:107C7000FFFFEF7FFFFF35400000E0BF0000E03F67
:107C8000FFFF2F3E0000F03F412E8640CD3386405F
:107C90007DF8B98FFFFFEF3F2DE9F04F21F000464F
:107CA000B6F1795F85B00C4692469B4605466BDA85
:107CB00015F03AFA002800F0E8802A4623462846C4
:107CC000214614F081FF74A3D3E90023804689463E
:107CD00014F07AFF72A3D3E9002314F0C3FD4246E7
:107CE0004B4614F071FF70A3D3E9002314F0B8FDE4
:107CF00042464B4614F068FF6DA3D3E9002314F00D
:107D0000B1FD42464B4614F05FFF6BA3D3E900235D
:107D100014F0A6FD42464B4614F056FF68A3D3E983
:107D2000002314F09FFD42464B4614F04DFFCDE971
:107D300000010022644B4046494614F045FFDDE94E
:107D4000002306460F464046494614F03DFF524682
:107D5000804689465B462846214614F035FF024698
:107D60000B464046494614F07BFD02460B46304622
:107D7000394614F075FD02460B460020534914F0B5
:107D80006FFD05B0BDE8F08F02460B4614F01CFFF6
:107D900041A3D3E900238046894614F015FF40A390
:107DA000D3E9002314F05EFD42464B4614F00CFF6D
:107DB0003DA3D3E9002314F053FD42464B4614F093
:107DC00003FF3BA3D3E9002314F04CFD42464B468E
:107DD00014F0FAFE38A3D3E9002314F041FD424623
:107DE0004B4614F0F1FE36A3D3E9002314F03AFD1C
:107DF0004B46424614F0E8FE354B9E42CDE9000169
:107E000097DD344B9E424FF0000238DCA6F500139C
:107E100000202E4916461F4614F022FDCDE902012E
:107E20000022294B4046494614F0CEFE32463B46DE
:107E300014F016FDDDE9002306460F46404649468C
:107E400014F0C2FE5246804689465B4628462146CB
:107E500014F0BAFE02460B464046494614F000FDB7
:107E600002460B463046394614F0FAFC02460B46F1
:107E7000DDE9020114F0F4FC05B0BDE8F08F164B0B
:107E8000164FCDE902230026CAE71049002005B0AD
:107E9000BDE8F08FAFF30080D43888BEE9FAA8BD02
:107EA000C4B1B4BD9EEE213EAD529C804F7E923E49
:107EB0009015CB19A001FA3E7751C1166CC1563FFF
:107EC0004C5555555555A53F0000E03F0000F03F8B
:107ED0003233D33F0000E93F0000E73F0000D23FCC
:107EE0002DE9F04FADF5197D9C4CA29E9C4D54F8A8
:107EF000264005942646D41E85FB0475E417C4EB82
:107F0000A50424EAE4741D460893631CA3EB8303D1
:107F1000013D02EBC30304932B4609940295651BB4
:107F2000F418039006911AD42C4401340DF178080A
:107F300000260027DDF88C9208E059F8250014F09F
:107F4000DDFD0135A542E8E9020108D0002DF4DA93
:107F5000013530463946A542E8E90201F6D1059BD4
:107F6000002B2EDB089B4FEAC309039BA9F10808ED
:107F7000984420AB9944059B70AA02EBC30B0DF506
:107F8000DC7A029B002BC0F20F83039B4D46A3F1CA
:107F900008040026002775E90223F4E9020114F021
:107FA00013FE02460B463046394614F05BFC44454E
:107FB00006460F46EFD1EAE90267DA4509F10809FA
:107FC000DFD10598089A009000F18043013B9B00A7
:107FD0000CAC191F234402F100520B93039B013A8E
:107FE00021440A9103EBC20B009A98A901EBC2034A
:107FF000002A53E9284513462BDD01EBC308A8F1FD
:10800000A8080DF12C090DF5DC7A0022554B20460D
:10801000294614F0D9FD15F087F814F06FFD002201
:10802000514B06460F4614F0CFFD02460B46204644
:10803000294614F015FC15F077F878E8022349F882
:10804000040F3946304614F00DFCD04504460D4669
:10805000DBD1DDF81090204629464A4601F05CF855
:1080600000224FF07F5304460D4614F0ADFDFCF79F
:10807000EFFE00223D4B14F0A7FD02460B462046C2
:10808000294614F0EDFB0D46044615F04DF88046E8
:1080900014F034FD0B4602462946204614F0E0FB5E
:1080A0004B46002B06460F4640F3F780009A0CA97A
:1080B000013AC9F1180351F8225045FA03F101FAC7
:1080C00003F30CA8EB1A40F82230C9F117058844D5
:1080D00043FA05F5002D63DD009B002B08F1010834
:1080E00040F381820C9C002C00F0188301200023B7
:1080F0000CAAC4F1807442F82340009A824219DD30
:108100000CAA0CAC52F820106FF07F42511A44F8C0
:1081100020100099023399420CDD1046009A0CA9F8
:1081200001EB830301EB82011A68821A43F8042BE6
:108130008B42F9D1049B002B1ADD049B012B4FF0DD
:10814000010440F05882009B5A1E0CAB0CA953F856
:108150002230C3F3160341F8223058E2302C0200DB
:10816000ABAAAA2A0000703E000070410000204027
:10817000022D15D132463B460020974914F070FB82
:1081800006460F46049A9449002000F0C5FF0246B7
:108190000B463046394614F063FB022506460F466F
:1081A000002200233046394614F076FF002800F004
:1081B0005282009A059B501E83420FDC02F18043DD
:1081C000013B0CAA0B9C02EB8303002253F8041919
:1081D000A34242EA0102F9D1002A6FD1059B0CAA01
:1081E000013B52F82330002B40F033820A9A0123DE
:1081F00052F8041901330029FAD0009AD31802F179
:10820000010A9A4507933DDC009B0899099A0B44A3
:1082100007990AEB0208994620AB08F1804803EB66
:10822000C9098B18A39A08F1FF3802EB880870AAD5
:1082300002EBCA0AA39A02EB8303009358F8040FD7
:1082400014F05CFC029B002BE9E802011DDB039BA0
:108250004D46A3F108040026002775E90223F4E93E
:10826000020114F0B1FC02460B463046394614F0C8
:10827000F9FA5C4506460F46EFD1009B9845EAE8BF
:108280000267DBD1079B0093AEE6009B0026002728
:108290009845EAE80267D1D1F4E706D1009B0CAA21
:1082A000013B52F82350ED1514E700224B4B14F01C
:1082B00011FF002840F08281054671E70CA9029564
:1082C00051F820300499CDF81C80183902460090EE
:1082D00004916BB900F18043013B0CA800EB8303D0
:1082E00053F80409013A18390028F9D00092049192
:1082F000049A3949002000F00FFF009B002B044630
:108300000D46C0F20382DA0070A901EB020B049261
:108310000CAA02EB8306DFF8C8900BF108070436BD
:108320004FF0000856F8040D14F0E8FB22462B46E7
:1083300014F04AFC4B4667E90201424620462946B2
:1083400014F042FC0CAB9E4204460D46EAD10DF5FA
:10835000907ACDF80CA0DDF814A04FF00009BAF126
:10836000000FC0F23D81DFF87C805D4618A1D1E9A5
:10837000000100260027002403E04C4510DCF8E84B
:108380000201F5E8022314F01FFC02460B463046BA
:10839000394614F067FA0134A24506460F46ECDA76
:1083A000039B03EBC903ABF1080BC3E900676EAB9A
:1083B0005B4509F10109D2D1A29BDDF80CA0032B8A
:1083C00000F28B80DFE813F0D100900090001000E5
:1083D00000000040FB21F93F0000F03F0000E03FBB
:1083E0000000703E680E0200009B002B40F3A48149
:1083F000049B0AEB0308D8E90067D34658E9029AC0
:1084000032463B464846514614F02CFA04460D4687
:1084100002460B464846514614F022FA32463B4685
:1084200014F020FAC8E9000168E90245C345264670
:108430002F46E3D1009B012BDA4640F37D81049B5C
:108440005B44D3E90067984699460DF5947B59E95A
:1084500002343246184621463B46CDE9000114F06D
:1084600001FA04460D4602460B46DDE9000114F010
:10847000F7F932463B4614F0F5F9C9E9000169E91C
:108480000245CB4526462F46E1D1002308F10808D6
:108490001D464CAC1846294678E9022314F0E2F94F
:1084A000444503460D46F5D1029A002A00F020818A
:1084B000DAF80440DAF80C20069FDAF80010DAF84F
:1084C00008003B6105F1004504F1004402F100425F
:1084D0007D617C60FA603960B860079B03F007003B
:1084E0000DF5197DBDE8F08F049C00260834544436
:1084F00033463046194674E9022314F0B3F9544563
:1085000006460B46F5D1029A30461946002A00F07D
:10851000DA80069803F10044324644600660DAE9E6
:10852000000114F09DF90B460099002902460EDD6A
:10853000012410461946FAE9022314F093F90B4678
:1085400000990134A1420246F3DA029909B103F11C
:1085500000431946069B1046C3E90201079B03F03E
:1085600007000DF5197DBDE8F08F049C002208344A
:10857000544413461046194674E9022314F072F964
:10858000A24502460B46F5D1029909B103F1004319
:108590001946069B1046C3E90001079B03F007003C
:1085A0000DF5197DBDE8F08F00260027EAE9026786
:1085B000DA4509F108097FF4E4AC02E5009B002BE1
:1085C00008F10108C8BF02253FF78CAD32463B4693
:1085D0000020634914F044F9022506460F46DFE502
:1085E00000260027DCE6049B002B26DD0024049BEC
:1085F000012B3FF4A8AD022B09D1009B5A1E0CABF6
:108600000CA953F82230C3F3150341F82230022D90
:108610007FF4C6AD32463B460020514914F020F9A4
:1086200006460F46002C3FF4BBADABE50099013385
:10863000994278D1049B002BD9DC022D7FF4B0AD98
:1086400032463B460020464914F00AF906460F46DA
:10865000A6E50123D1E53946049F02957A423046CA
:10866000CDF81C8000F058FD00223E4B04460D461C
:1086700014F030FD002862D000223B4B20462946F2
:1086800014F0A2FA14F050FD064614F037FA002256
:10869000344B14F099FA02460B462046294614F052
:1086A000DFF814F041FD00990B4601331A460093A0
:1086B0003B46183304930B460CA941F8230013469C
:1086C00041F8236014E6069B3246C3E900010B46DD
:1086D000DAE9000114F0C4F80B46009900290246BB
:1086E0003FF726AF1946069B1046C3E9020135E75E
:1086F00018462946DAE90023DAE90245069FC7E968
:108700000401C7E90023C7E90245E6E6A29B032B63
:108710003FF6E3AEDFE803F0211C1C0E009B012BAB
:1087200088DD0CAA012352F8044F002C3FF47EAFE1
:10873000581CDDE40DF5907A00231D46B4E6294669
:10874000204614F0F1FC009A0CA941F82200CFE574
:10875000002633460DF5907AD5E60022134613E73E
:108760000000F03F000070410000703E000000007B
:108770002DE9F04F21F00046B6F1795F85B00C4647
:1087800090469946054604DA14F0CEFC002800F025
:1087900085802A4623462846214614F015FA0646C7
:1087A0000F4602460B462846214614F00DFA3EA31A
:1087B000D3E9002382468B463046394614F004FA4A
:1087C0003BA3D3E9002314F04BF832463B4614F0A8
:1087D000FBF939A3D3E9002314F044F832463B46B1
:1087E00014F0F2F936A3D3E9002314F039F8324635
:1087F0003B4614F0E9F934A3D3E9002314F032F82E
:108800000E9BCDE900019BB30022334B4046494605
:1088100014F0DAF9DDE90023CDE9020150465946AA
:1088200014F0D2F902460B46DDE9020114F018F803
:1088300032463B4614F0C8F942464B4614F010F855
:1088400023A3D3E9002306460F465046594614F0A9
:10885000BBF902460B463046394614F003F802468F
:108860000B462846214613F0FBFF05B0BDE8F08F0C
:1088700002460B463046394614F0A6F914A3D3E954
:10888000002313F0EDFF52465B4614F09DF92A4693
:10889000234613F0E7FF05B0BDE8F08F28462146D8
:1088A00005B0BDE8F08F00BF7CD5CF5A3AD9E53D81
:1088B000EB9C2B8AE6E55A3E7DFEB157E31DC73E91
:1088C000D561C119A0012A3FA6F810111111813FED
:1088D000495555555555C53F0000E03F0000000083
:1088E0002DE9F04FDA4C21F00046A64287B08A46C7
:1088F00089461746984683461ADC14F015FCA8BB37
:108900005B461E43109B0133334300F0A981109B4B
:10891000012B00F0B9815A4653460020CD4914F08E
:108920007DFA04460D462046294607B0BDE8F08F83
:10893000C94B9E421ADD0029C0F29F815A46534618
:10894000A5A1D1E9000113F08BFF3A464346044646
:108950000D46A3A1D1E9000113F082FF22462B4668
:1089600013F080FF002783468A46B8465A4653468E
:108970005846514614F028F903460C46CDE9003418
:1089800002460B4614F020F9DDE9002304460D46AB
:108990005846514614F018F993A3D3E90023CDE9C2
:1089A00002012046294614F00FF991A3D3E90023D0
:1089B00013F058FF22462B4614F006F98EA3D3E994
:1089C000002313F04FFF22462B4614F0FDF88CA332
:1089D000D3E9002313F046FF22462B4614F0F4F8A7
:1089E00089A3D3E9002313F03DFF22462B4614F060
:1089F000EBF887A3D3E9002313F034FFDDE900236C
:108A000014F0E2F884A3D3E90023CDE90401204661
:108A1000294614F0D9F882A3D3E9002313F022FFEA
:108A200022462B4614F0D0F87FA3D3E9002313F09D
:108A300019FF22462B4614F0C7F87DA3D3E9002383
:108A400013F010FF22462B4614F0BEF87AA3D3E9A8
:108A5000002313F007FF22462B4614F0B5F878A345
:108A6000D3E9002313F0FEFE02460B46DDE90401C4
:108A700013F0F8FEDDE9022314F0A6F83A46434667
:108A800013F0F0FEDDE9002314F09EF802460B46D9
:108A90003846414613F0E6FE6BA3D3E900230446B3
:108AA0000D46DDE9020114F08FF822462B4613F043
:108AB000D9FE0B46024651465846CDE9002313F035
:108AC000D1FE654B9E4204460D463EDC109B012BB9
:108AD00036D002460B4600205E4914F09FF9002470
:108AE0000F4606465A4653462046294613F0B8FE1E
:108AF000A04602460B46DDE9000113F0B1FE4246F6
:108B00003B4614F061F8A94604460D4642463B46F2
:108B10004046494614F058F80022504B13F0A2FE8C
:108B200002460B462046294613F09CFE32463B4641
:108B300014F04AF842463B4613F094FE04460D46B4
:108B40002046294607B0BDE8F08F109813F0D6FFF5
:108B5000224606460F462B462046294614F034F896
:108B60003246CDE902013B462046294613F07AFE03
:108B700002460B46DDE9020114F050F9DDE900235D
:108B800013F06EFE02460B465846514613F068FE3F
:108B900002460B4613F066FE02460B463046394647
:108BA00013F05EFE04464FEAA97000F00200C0F127
:108BB00001000D4613F0A2FF02460B46204629464F
:108BC00014F002F804460D462046294607B0BDE8D9
:108BD000F08F00BFAFF30080182D4454FB21E93F14
:108BE000075C143326A6813CD47ABF74702AFB3EFE
:108BF000E9A7F0320FB8123F68108D1AF726303F00
:108C00001583E0FEC8DB573F93846EE9E326823F7D
:108C1000FE41B31BBAA1AB3F735360DBCB75F3BE10
:108C2000A69237A0887E143F0165F2F2D844433FF4
:108C3000280356C9226D6D3F37D60684F464963FEB
:108C40007AFE10111111C13F635555555555D53F49
:108C5000FFFF2F3E0000F0BF2794E53F0000F03FEC
:108C60005846514614F02AFD02460B46002008499A
:108C700014F0D4F804460D4662E701F1004308F110
:108C8000004883469A4659E65C46554658E700BF79
:108C90000000F03F000000002DE9F04FD24A21F023
:108CA0000043934285B00C460E4605462DD9CF4A67
:108CB00093421AD8002E80F21681B5A3D3E900237F
:108CC0002846214613F0CEFD0022002314F0EEF9D1
:108CD000C0B9B1A3D3E900232846214613F074FF9D
:108CE00002460B460020C24908E1C24A934240F2C4
:108CF000D0800346C1F31302134340F0F6810029EC
:108D000080F2C4800020BC49C0E0BC4A934200F21B
:108D10002981BB4A934240F2DE8000230193002266
:108D2000B84B2846214613F04FFF06460F46024631
:108D30000B462846214613F047FF99A3D3E90023A9
:108D400082468B4613F040FF97A3D3E9002313F02C
:108D500089FD52465B4613F037FF95A3D3E9002304
:108D600013F07EFD52465B4613F02EFF92A3D3E92B
:108D7000002313F077FD52465B4613F025FF90A3C6
:108D8000D3E9002313F06CFD52465B4613F01CFF41
:108D900000229D4B13F066FD8046894602460B4635
:108DA0003046394613F010FF02460B460020974923
:108DB00013F056FD064602460B460F46404649460E
:108DC00013F04EFD3246804689463B4628462146F2
:108DD00013F0FAFE02460B4600208D4913F040FDC9
:108DE00002460B464046494614F018F852465B4688
:108DF00013F0EAFE019E02460B46002E38D0DDE954
:108E0000026732463B4613F02BFD2A46234613F0F9
:108E1000DBFE32463B4613F023FD5B46524613F021
:108E20001FFD019B013306460F4600F00F81019B99
:108E3000012B00F0F180019B0133392B39D8019BC4
:108E4000132B40F31281019FC7F57F760336002272
:108E5000330513F007FD02460B462846214613F062
:108E6000FFFC0022684B13F0FDFC01EB07510DE005
:108E70002846214613F0A8FE52465B4613F0F0FC4C
:108E800002460B462846214613F0EAFC05B0BDE831
:108E9000F08F4DA3D3E9002314F026F900283FF406
:108EA00009AF4BA3D3E900231046194613F08CFEFB
:108EB000ECE72A46234613F0D3FC02460B4600207B
:108EC000514913F0CDFC019A4F4B01EB02510022A6
:108ED00013F0C6FCDAE73EA3D3E9002313F0C2FC8B
:108EE00002460B46CAE72CA3D3E9002328462146B5
:108EF00013F06AFE0B4643490246002013F0B2FC11
:108F000014F012F9019013F0F9FD33A3D3E9002313
:108F100006460F4613F058FE02460B4628462146E9
:108F200013F09EFC2EA3D3E90023804689463046E9
:108F3000394613F049FE06460F4632463B46404648
:108F4000494613F08DFC02460B4605460C4640464A
:108F5000494613F085FC32463B4613F081FCCDE9CF
:108F60000201DCE62B4A934200F2978000291AA303
:108F7000D3E90023C0F2AE8013F072FC01238046D7
:108F80008946019316A7D7E90067D6E7AFF30080BB
:108F900059F3F8C21F6EA501FE822B654715F73FF6
:108FA0002DC3096EB7FD8ABE3952E686CACFD03EC0
:108FB000B7DBAA9E19CE143F8555FE19A0015A3F72
:108FC000F41011111111A13FEF39FAFE422E864023
:108FD0009C7500883CE4377E0000E0FE422EE63FB0
:108FE000763C7935EF39EA3D79684340412E864039
:108FF0000000E0BFFFFFEF7F0000F0BF422ED63F32
:10900000FFFF8F3C0000E03F0000F03F0000084001
:1090100000001840B1A2F03F2846214600223A4BFA
:1090200014F044F8002846D0284621460022374B49
:1090300013F018FC02460B463046394613F010FC7C
:1090400000224FF0404313F0BFFD1FE732463B467E
:109050002846214613F004FC00222C4B13F0B4FDEB
:1090600000222A4B13F0FCFB10E7019E4FF4001E78
:109070004EFA06FE2A462346CEF17F5713F0F0FB48
:10908000002607F5401702460B463046394613F0D6
:10909000E7FB019E01EB0651F8E617A3D3E9002395
:1090A00013F092FD002C02460B464FF00000FFF635
:1090B0001AAE164922E732463B462846214613F0AF
:1090C000CFFB02460B4613F0CDFB0022104B13F0F2
:1090D000C9FBDBE613F0C6FB4FF0FF338046894641
:1090E000019307A7D7E9006727E702460B4613F06D
:1090F000B9FBCBE6AFF30080FE822B654715F73F47
:10910000763C7935EF39EABD0000D0BF0000E03F82
:109110000000F03F00000000F8B5C1F30A56044615
:109120000D460B4617460EBB21F00043034386460F
:1091300025D00022344B13F047FD344A97420446B1
:109140000D460B462ADBC1F30A56363E3E4440F23A
:10915000FE72964228DC002E12DD23F0FF4323F43A
:10916000E00343EA065520462946F8BD40F2FF7267
:109170009642EBD102460B4613F074FBF8BDF8BDE6
:1091800016F1350F1DDA4CF250339F4222462B4622
:1091900025DC19A1D1E9000116F0A6FD16A3D3E93B
:1091A000002313F011FDF8BD22462B4614A1D1E98E
:1091B000000116F099FD12A3D3E9002313F004FD7A
:1091C000F8BD23F0FF4323F4E003363643EA0655A7
:1091D0002046294600220E4B13F0F6FCF8BD08A1EC
:1091E000D1E9000116F080FD05A3D3E9002313F0B7
:1091F000EBFCF8BDAFF3008059F3F8C21F6EA50178
:109200009C7500883CE4377E00005043B03CFFFF73
:109210000000903C10B5054C237833B9044B13B1D2
:109220000448AFF300800123237010BD200200200A
:1092300000000000B42D02000C4B43B10C480D4956
:1092400010B5AFF300800C48036823B910BD0A487D
:10925000036833B97047094B002BF7D0BDE81040C5
:109260001847064B002BF5D0184700BF0000000040
:10927000B42D020024020020B42D020000000000E2
:1092800070B504460E4600F0BBFA88B10368DB6A8D
:1092900005469847082C0CD0A4F10903012B14D9DA
:1092A0003246214610230D20BDE8704004F02EB94F
:1092B00070BD2B6828465B6A98470228F0DC2B6853
:1092C00028461B6A04219847EAE72B6828465B6A10
:1092D00098470528E4DC2B6828461B6A0821984734
:1092E000DEE700BF30B52DED028B83B0054600F000
:1092F00087FA044640B10368DB6A9847032D50D8CB
:10930000DFE805F0373F47080190019803B0BDEC56
:10931000028B30BD20460BF04DFD07EE900A204633
:10932000F8EEE78A0BF056FD07EE900A2046B8EEFD
:10933000E78A0BF05FFD68EE087A07EE100AE8EEA8
:10934000A87AB8EEC77AE7EE077AF5EE407AF1EE42
:1093500010FAB1EEE78A03D517EE900A15F04EF930
:10936000FDEEC87ACDED017A019803B0BDEC028B19
:1093700030BD204603B0BDEC028BBDE830400BF0A1
:1093800019BD204603B0BDEC028BBDE830400BF0A8
:1093900021BD204603B0BDEC028BBDE830400BF090
:1093A00029BD00230193B0E738B5054600F028FA3F
:1093B00058B10368DB6A0446984745B1012D04D1D2
:1093C0002046BDE83840FBF77BB9002038BD204679
:1093D000BDE83840FBF754B910B5044600F010FA68
:1093E00028B1036821461B6ABDE81040184710BD2C
:1093F0000048704716FCFFFF704700BF10B5034BD5
:10940000036004460BF0B6FA204610BD201F020090
:1094100010B5054B036004460BF0ACFA204617F07C
:10942000FFF8204610BD00BF201F02002DE9F043C9
:10943000B14F3C6885B01CB1204605B0BDE8F08353
:109440004FF0FF31012001F025FD04F025FB00283D
:1094500000F04F810C2017F0E5F80321054651205C
:1094600001F018FDDFF8B4E2A44B064606F00F0841
:10947000C6F3031916F4807618BF7346A048414618
:109480004A460AF041FC321C18BF01224B464146B5
:1094900028460EF0A9FB9B48AC600AF035FC4FF063
:1094A000FF31032001F0F6FC04F0F6FA4FF0FF3133
:1094B0000446022001F0EEFC04F0EEFA002C00F06D
:1094C000F180002800F0EE800146204604F0FEF80E
:1094D0000646002800F009814FF0FF31462001F0D8
:1094E000D9FCA0F130038046382B00F2AF80DFE8D2
:1094F00003F093AD93ADADADADAD79AD61AD45AD1F
:10950000ADADADADADADADADADADADADADADADAD8B
:10951000ADADADADADADADADADADADADADADADAD7B
:10952000ADADADADADADADADADAD1D004FF0FF31ED
:10953000012001F0AFFC04F0AFFA80464C2017F098
:1095400071F84FF0050E682304468DE80840424646
:1095500031462B460CF00EFF2046A86003689B6A3C
:109560009847A8680368DB6A984767480AF0CCFB0D
:109570002C4620463D6005B0BDE8F0834FF0FF313A
:10958000012001F087FC04F087FA04462C2017F034
:1095900049F8224631463C2380460CF049FA3C20EB
:1095A00017F040F84146044605232A460CF036FBE6
:1095B0002046D2E74FF0FF31012001F06BFC04F0B0
:1095C0006BFA8046442017F02DF84FF0050E3A2331
:1095D00004468DE80840424631462B460CF022FEF8
:1095E0002046BAE74FF0FF31012001F053FC04F0B0
:1095F00053FA8046442017F015F84FF0050E382333
:1096000004468DE8084042462B4631460CF00AFEDF
:109610003E4B23602046A0E74FF0FF31012001F0D0
:1096200039FC04F039FA81464C2016F0FBFF1FFA92
:1096300088F34FF0050E044600934A463146CDF8B4
:1096400004E02B460CF078FC204686E732680124C3
:10965000002301940094D2F82080AB600F220DF11A
:109660000F0332213046C04778BB4FF032084146E5
:1096700027480AF049FB4FF0FF31012001F00AFCB6
:1096800004F00AFA81464C2016F0CCFF052304466C
:1096900001934A46CDF8008031462B460CF04CFC35
:1096A00020465AE71B480AF02FFB4FF0FF311920E4
:1096B00001F0F0FB04F0F0F94FF0FF310446182000
:1096C00001F0E8FB04F0E8F9FEE633680194009449
:1096D000D3F820800F220DF10F0330213046C04710
:1096E000F0B94FF030084146C2E70B480AF00CFBD6
:1096F0003EE73C68A0E600BF3C020020F40E0200FA
:10970000FC0E02001C0F0200B40F0200B80E020093
:10971000D80F02002C0F0200400F0200EC0E0200D6
:10972000336801940094D3F820800D220DF10F03CB
:1097300038213046C04738B938212D480AF0E4FABC
:1097400020464FF0FF3150E7336801940094D3F87E
:1097500020800D220DF10F033C213046C04738B95F
:109760003C2123480AF0D0FA20464FF0FF3108E7A9
:10977000336801940094D3F820800D220DF10F037B
:109780003A213046C04738B93A2119480AF0BCFAA4
:1097900020464FF0FF3110E7326801940094D2F870
:1097A00020800DF10F03752268213046C04738B97B
:1097B00068210F480AF0A8FA20464FF0FF31B8E6BA
:1097C0000C480AF0A1FAA86800287FF4C7AE4FF051
:1097D000FF31032001F05EFB04F05EF918B106488A
:1097E0000AF092FAC4E605480AF08EFAC0E600BF15
:1097F000D80F0200C40F0200580F0200940F02009D
:1098000008B5FFF713FE00B1806808BD08B501F088
:1098100069FCFBF7E1FDBDE8084001F0CFB900BFEE
:1098200008B501F05FFCFBF747FEBDE8084001F01A
:10983000C5B900BF08B501F055FC13F0B5FFBDE890
:10984000084001F0BBB900BF08B501F04BFC14F0B3
:1098500027FDBDE8084001F0B1B900BF08B501F02F
:1098600041FCFBF7C9FDBDE8084001F0A7B900BF06
:1098700008B501F037FC14F0C9F9BDE8084001F063
:109880009DB900BF08B501F02DFCFBF705F8BDE858
:10989000084001F093B900BF08B501F023FC14F0B3
:1098A00009F9BDE8084001F089B900BF70B5049E10
:1098B00096420C4628DB15466BB1002A00EB0201EC
:1098C00007DD2046A21811F8013D00F8013B904247
:1098D000F9D1002070BD042A0FD0022A02D110F065
:1098E000010306D001462A46204606F0BFFB0020B1
:1098F00070BD02880A80184670BD10F00303F1D1D4
:1099000002680A60184670BD0846002107F090FD05
:109910004FF0FF3070BD00BF0830704740B10029E4
:1099200005DB4368994202DA0844007A7047002058
:10993000704700BF30B1002904DB43689942BCBFC7
:1099400040180272704700BF40B1002905DB436830
:10995000994202DA0844007A70470020704700BF3D
:10996000830705D120B1030F0CBF012000207047F1
:109970000120704730B1002904DB43689942BCBF25
:1099800040180272704700BF002B23DB002921DB47
:1099900070B54668B1421ADC5568761A1446EA1A60
:1099A000B242A8BF3246002A11DB84420D4607D0DE
:1099B000083408300844E11806F058FB002070BD58
:1099C0000834E118601916F067FE002070BD4FF0F2
:1099D000FF3070BD4FF0FF30704700BF40687047E8
:1099E00010B4141E10DB426894420DDC33EA2303EA
:1099F00028BF1346121B08309A422044A8BF1A46BB
:109A00005DF8044B07F014BD5DF8044B704700BFD0
:109A100043688B4210B400F108041846A8BF0846FA
:109A200032EA220128BF19461B1A99422044A8BFD6
:109A300019465DF8044B00F0B7BE00BF002BBCBF59
:109A400043689B1A002A70B50E4622DB44689918B9
:109A5000A1421EDC8A421CDCDBB136F0004118D08A
:109A600059428E4213DDB34211DD0830002E00EB67
:109A7000020516DB9C1B2246A919284616F00CFE8F
:109A8000324628190021BDE8704007F0D1BC002CF7
:109A900000DA70BD224608300021BDE8704007F0B2
:109AA000C7BC74429A192946281916F0F5FD2246BA
:109AB00028460021BDE8704007F0BABC03460830D4
:109AC000596800F0F1BD00BF70B504460020616820
:109AD000490000F065FD6668002E11DD094D04F1B6
