:104000000000032055620100516201001DDE000026
:104010005162010051620100516201000000000084
:1040200000000000000000000000000051620100DC
:104030005162010000000000516201005162010064
:1040400051620100516201005162010051620100A0
:104050005162010051620100516201005162010090
:104060005162010051620100516201005162010080
:104070001920020021200200292002003120020024
:104080003920020041200200492002005120020094
:104090005920020061200200692002007120020004
:1040A0007920020081200200892002009120020074
:1040B000516201005162010051620100C51A020003
:1040C000C91A0200CD1A0200D11A0200D51A020044
:1040D0005162010051620100516201005162010010
:1040E0005162010051620100516201005162010000
:1040F00000000000516201000916020005160200CE
:1041000001160200F5150200211602001D1602001C
:10411000191602000D1602003916020035160200AB
:104120003116020025160200511602004D1602003B
:10413000491602003D1602006916020065160200CB
:104140006116020055160200811602007D1602005B
:10415000791602006D160200000000000000000049
:10416000000000000000000000000000000000004F
:10417000000000000000000000000000000000003F
:10418000A1E90100A5E901009DE9010099E901000B
:104190000000000051620100516201005162010003
:1041A000516201005162010051620100516201003F
:1041B000516201005162010051620100516201002F
:1041C000516201005162010051620100516201001F
:1041D000516201005162010051620100516201000F
:1041E0005162010051620100516201001D0A02008A
:1041F000250A02002D0A0200350A02003D0A0200CB
:10420000450A0200000000000000000051620100A9
:1042100051620100516201005162010051620100CE
:1042200051620100516201005162010051620100BE
:1042300051620100516201005162010051620100AE
:10424000516201005162010051620100516201009E
:10425000516201005162010051620100516201008E
:10426000000000007CB0EE877CB0EE87FF00FF000E
:10427000FF00FF00FF00FF00FF00FF00FF00FF0046
:10428000FF00FF00FF00FF00FF00FF00FF00FF0036
:10429000FF00FF00FF00FF00FF00FF000000000024
:1042A0002DE9F04F85B003910778A7F10903042B9E
:1042B000044607F07F0200F10100F5D9202AF3D06F
:1042C0002B2F04BF677804462D2F72D09FED427BC1
:1042D0008DED007B4FF000084FF000098FB34FF0D9
:1042E000000E4FF0000ADFF800B1754619E01EF02D
:1042F00003FB8046894630461EF098FA42464B46FC
:104300001EF048F95246804689465B46DDE90001C9
:1043100035B31EF01BFCCDE90001AE4614F8017F59
:104320007FB1A7F13006092E52465B46404649460A
:10433000DDD9C5B92E2F16D114F8017F0125002F24
:10434000EFD142464B46DDE900011EF0D5FA80462A
:104350008946039B404649461C6005B0BDE8F08F86
:104360004FF0010EDAE7BEF1000F29D042464B466E
:10437000DDE900011EF0C0FA07F0DF07452F804697
:104380008946E6D10399601C0A2221F0A5FB164953
:10439000024600201EF010FE02460B4640464946EB
:1043A0001EF0AAFA804689464046494605B0BDE857
:1043B000F08F9FED0B7B67788DED007B013489E7F3
:1043C000DFF828904FF000084046494605B0BDE8A8
:1043D000F08F00BFAFF30080000000000000F03F4E
:1043E000000000000000F0BF000024400000F87F43
:1043F0002DE9F84F16460023002204460D461EF014
:10440000EDFC002840F09D80002200232046294634
:104410001EF0DAFC28B13022002332707370BDE840
:10442000F88F204629461FF0D7FB1EF015FD7BA311
:10443000D3E900238146294620461EF0CFFC002800
:1044400000F08680B9F1000FC0F2BE804A4600201D
:104450006F491EF0B1FD02460B46204629461EF06C
:1044600075FB04460D4666A1D1E9000101274FF016
:10447000000822462B461EF03FFA0022654B1EF034
:1044800089F81EF0D5FD002FCC464FF0FF3AC1460B
:104490004FF0000840F38580DFF888E15E4C012290
:1044A000AEF1700945F6F3254FF02E0BA94208BF77
:1044B000A0424FF0300309D3001B61EB0501A94274
:1044C00008BFA04203F10103F6D2DBB2337050EA19
:1044D000010306F1010409D1BA4210DACE4502F116
:1044E00001020CD026467EE80245DFE7BA4204BF4F
:1044F00086F801B0B41CCE4502F10102F2D1B8F148
:10450000000F0DD02246302102F8011BC2F1010339
:1045100053442344002BF7DC2AEAEA7301331C449A
:10452000BCF1010F4CD06523BCF1000F2370C5BF57
:104530002B236370611CA11C6046BDE8F84F11F08D
:10454000F7BE05F100431D462D23337001365BE7AE
:104550002DA3D3E90023204629461EF05DFC002848
:104560007FF470AFB9F10E0F09F101073DDDA9F13C
:104570000E084246002026491EF01EFD02460B464C
:10458000204629461EF0E2FA0022224B1EF002F8D5
:104590001EF04EFD002FA9F10F0A4FF0010C3FF75E
:1045A0007BAF334630222E2403F8022B74707FEA4F
:1045B000090618D01E4403F8012BB342FBD16BE768
:1045C00000232370BDE8F88FC9F1000200201049D4
:1045D0001EF0F2FC02460B46204629461EF08CF9DE
:1045E00004460D463FE71E4656E7C9F10E0200207D
:1045F0000749C8461EF0E0FC4FF0010939E700BF4B
:104600000000901EC4BCD64250EFE2D6E41A4B44E0
:10461000000024400000E03F00407A108DEDB5A07E
:10462000F7C6B03EB86B020070B54FF0FF3006F031
:10463000EDF804466FF07F4006F0E8F806462046A5
:104640001EF0E4F800220C4B1EF056F904463046EA
:104650000D461EF0DBF806A3D3E900231EF076FA20
:1046600002460B46204629461DF094FF70BD00BF50
:104670000000E0DFFFFF6F430000F03D000000009E
:1046800008B513F043F9DFED0C7A07EE100A67EE78
:10469000277A17EE900A1EF0DBF805A3D3E9002372
:1046A0001EF054FA1EF0D8FB08BD00BFAFF3008027
:1046B000EA2E4454FB2119400000B44300000000DE
:1046C00008B513F037F9DFED0C7A07EE100A67EE44
:1046D000277A17EE900A1EF0BBF805A3D3E9002352
:1046E0001EF034FA1EF0B8FB08BD00BFAFF3008027
:1046F000EA2E4454FB2119400000B443000000009E
:104700002DE9F04F046985B0E3699B07FCD123686C
:10471000C3F3400BBBF1000F40F0AF80B0F80CA02A
:1047200015468046BAF1000F23D0BAF1010F62D0CE
:10473000BAF1020F40F0A4805500E1685448C5F575
:104740003B438033B3FBF5F31A0421F47F0102F4F9
:104750007F020A43E260E2685B00A0FB03135B0890
:1047600022F07F4242EA03635846E36005B0BDE8A9
:10477000F08FE2684BF6803B05EB850022F0FF03EB
:10478000ABEB400001931EF041F80646B8F80E006E
:104790000F461EF04BF83CA3D3E900231EF0ACF803
:1047A00080460BFB05F089461EF030F802460B46AA
:1047B000404649461EF0A0F802460B4630463946B0
:1047C0001DF0E6FE064668000F461EF01FF8024682
:1047D0000B46304639461EF0B9F91EF065FB019BC9
:1047E000C0B21843E060E368504623F47F43E360BF
:1047F00005B0BDE8F08FE2684BF6803A05EB850026
:1048000022F0FF03AAEB400001931DF0FFFFCDE96A
:104810000201B8F80E001EF009F81BA3D3E900232B
:104820001EF06AF806460AFB05F00F461DF0EEFF83
:1048300002460B46304639461EF05EF802460B46ED
:10484000DDE902011DF0A4FE064668000F461DF0DA
:10485000DDFF02460B46304639461EF077F91EF062
:1048600023FB019AC3B21343E360E368584623F481
:104870007F43E36005B0BDE8F08F6FF0100075E78F
:104880006FF00C0072E700BF95D626E80B2E113EA4
:10489000ABAAAAAA000000004F4A21F000439342AD
:1048A0002DE970430D4604464FDC4C4A93420E46B8
:1048B0000FDC45A3D3E900231DF06CFE0022484B1A
:1048C0001EF0AAFA002856D02B4620461946BDE80D
:1048D0007083444A934242DCB3F1804F4BDD1EF0BB
:1048E00085FD2246804689462B46204629461EF0F5
:1048F00003F800223A4B1DF04DFE1FF07FFE0246EA
:104900000B46404649461DF045FE02460B46002038
:1049100033491EF01BF9424604460D464B464046BD
:1049200049461DF037FE0B460246294620461DF03B
:1049300031FE01F0FDFE04460B46002E0BDC03F1B8
:10494000004320461946BDE870830B4602461DF021
:1049500021FE04460B4620461946BDE870831EF032
:1049600045FD01F0E5FE1AA3D3E900231DF012FE78
:1049700004460B46E1E722462B46204629461DF019
:10498000BBFF80468946204629461EF02FFD0022A7
:104990000446134B0D46404649461DF0FBFD1FF0F3
:1049A0002DFE00220E4B1DF0F5FD02460B46404643
:1049B00049461EF0CBF822462B461DF0EBFD00F0D9
:1049C000D3FA04460B46B8E79C7500883CE4377E72
:1049D000EF39FAFE422EE63FFFFFEF7FFFFF2F3E4B
:1049E0000000F03F0000B0412DE9F84FC24B21F02C
:1049F00000469E420D468A46044610DDBF4B9E424D
:104A000000F3B58000F0B080BD4BBE49BE4CBAF19A
:104A1000000FD8BF0B4620461946BDE8F88FBB4BA8
:104A20009E4200F3C180A3F1DE739E4240F3AB804F
:104A30004FF0FF3B22462B46204629461DF05CFFE7
:104A400002460B46804689461DF056FF92A3D3E9E5
:104A5000002306460F461DF04FFF91A3D3E9002324
:104A60001DF098FD32463B461DF046FF8EA3D3E96C
:104A700000231DF08FFD32463B461DF03DFF8CA309
:104A8000D3E900231DF086FD32463B461DF034FF7E
:104A900089A3D3E900231DF07DFD32463B461DF07E
:104AA0002BFF87A3D3E900231DF074FD42464B463C
:104AB0001DF022FF84A3D3E90023804689463046B7
:104AC00039461DF019FF82A3D3E900231DF060FDD4
:104AD00032463B461DF010FF7FA3D3E900231DF0B3
:104AE00057FD32463B461DF007FF7DA3D3E9002367
:104AF0001DF04EFD32463B461DF0FEFE7AA3D3E983
:104B000000231DF045FD32463B461DF0F5FEBBF18E
:104B1000FF3F02460B466ED0404649461DF03AFD27
:104B200022462B461DF0E8FE794E7A4B4FEACB0B1E
:104B30005E449B44DBE900231DF02AFD22462B4600
:104B40001DF026FD0B460246D6E900011DF020FDB2
:104B5000BAF1000F04460B46BFF65DAF01F100430A
:104B600020461946BDE8F88F00283FF44DAF224695
:104B70002B46204629461DF00DFD04460B462046D7
:104B80001946BDE8F88F5AA3D3E900231DF002FDB2
:104B90000022614B1EF040F900283FF449AF2B463C
:104BA00020461946BDE8F88F1EF020FC5B4B9E4264
:104BB00004460D4630DCA3F550239E4255DC0246E8
:104BC0000B461DF0E7FC0022534B1DF0E1FC0022D8
:104BD00006460F464FF08043204629461DF0DAFC7A
:104BE00002460B46304639461DF0B0FF4FF0000B31
:104BF00004460D461EE7404649461DF0CBFC2246C2
:104C00002B461DF079FE0B460246294620461DF034
:104C1000BFFC04460B46FEE6414B9E421ADC0022D6
:104C2000404B1DF0B5FC002206460F463D4B20468A
:104C300029461DF061FE0022374B1DF0ABFC0246F9
:104C40000B46304639461DF081FF4FF0020B0446FB
:104C50000D46EFE602460B46002033491DF076FF75
:104C60004FF0030B04460D46E4E600222A4B1DF0EC
:104C70008FFC002206460F46274B204629461DF092
:104C800089FC02460B46304639461DF05FFF4FF067
:104C9000010B04460D46CDE611DA22E33AAD903F12
:104CA000EB0D76244B7BA93F513DD0A0660DB13F63
:104CB0006E204CC5CD45B73FFF8300922449C23FCB
:104CC0000D5555555555D53F2F6C6A2C44B4A2BF90
:104CD0009AFDDE522DDEAD3F6D9A74AFF2B0B33F58
:104CE000711623FEC671BC3FC4EB98999999C93FD0
:104CF0009C7500883CE4377EFFFF0F440000F07F86
:104D0000FB21F93FFB21F9BF182D4454FFFFDB3F86
:104D1000C86B0200E86B02000000F03FFFFFF23FAB
:104D2000FF7F03400000F83F0000F0BF00000000DC
:104D30002DE9F047C1F30A59A9F2FF36132E0B46AD
:104D40000D46044607468846824622DC002E4FDB8D
:104D50003D4A42FA06F901EA090202431ED038A38D
:104D6000D3E900231DF016FC002200231EF054F8A6
:104D700050B1002D04DD4FF4801343FA06F6B04421
:104D800028EA09054FF0000A544629462046BDE8A6
:104D9000F087332E06DDB6F5806F3DD019462046EC
:104DA000BDE8F087A9F213494FF0FF3222FA09F962
:104DB00010EA090FF2D022A3D3E900231DF0EAFB89
:104DC000002200231EF028F80028DDD0002D09DD88
:104DD000142E2FD00123C6F1340603FA06F6371934
:104DE00028BF9844454627EA090A54462946CDE794
:104DF00013A3D3E900231DF0CDFB002200231EF0F6
:104E00000BF80028C0D0002D0FDB55EA040709D0AD
:104E10004FF0000A0D4DB7E702460B461DF0BAFBF6
:104E20000446BCE7BA463D46AEE74FF0000A4FF0F5
:104E30000045A9E705F10108D4E700BFAFF3008002
:104E40009C7500883CE4377EFFFF0F000000F03FB8
:104E5000C1F30A522DE9F843A2F2FF36132E0B4696
:104E60000D460446884607461DDC002E40DB3C4AC2
:104E700042FA06F901EA09020243864618D036A32F
:104E8000D3E900231DF086FB002200231DF0C4FFA0
:104E900020B1002D42DB28EA090500273C462946BF
:104EA0002046BDE8F883332E06DDB6F5806F2FD09F
:104EB00019462046BDE8F883A2F213424FF0FF39AD
:104EC00029FA02F910EA090FF2D023A3D3E900234B
:104ED0001DF060FB002200231DF09EFF0028DDD0A6
:104EE000002D21DB454627EA09073C462946D7E73E
:104EF00019A3D3E900231DF04DFB002200231DF070
:104F00008BFF0028CAD0002D19DB00273D46C5E7DE
:104F100002460B461DF03EFB0446CAE74FF48013E1
:104F200043FA06F6B044B6E7142E10D00123C6F1BA
:104F3000340603FA06F6371928BF9844D2E725F05D
:104F40000042084B224318BF1D460027A6E705F183
:104F50000108C7E7AFF300809C7500883CE4377E0A
:104F6000FFFF0F000000F0BF2DE9F04FD64B994234
:104F700089B00E460F46824613DCD44B21F0004424
:104F80009C4218DD0022D24B1DF01EFF002879D074
:104F9000002200230020CF491DF0D8FD09B0BDE854
:104FA000F08FCD4B99422FDD524633461DF0F2FA79
:104FB00009B0BDE8F08FC94B9C4270DDC84B1F445F
:104FC0009F427ED8504631460022C64B1DF0E2FA81
:104FD0004FEA215BABF2FF3BBBF1000F04460D46ED
:104FE0000F4640F3E081524633461DF0D1FA0246A7
:104FF0000B460020BB491DF0CBFA22462B461DF084
:10500000A5FDCDE900010BE0B74B9F42DADD0022A0
:105010000023CDE900234FEA275B5446ABF2FF3B68
:10502000B24BC7F313079F4247F07F5500F3E78069
:1050300045F44015204629460022AA4B1DF0A8FA47
:10504000002204460D46AA4B1DF056FC22462B4674
:105050001DF052FCA246CDE902012E46804689464B
:10506000002F3AD100220023204629461DF0ACFE35
:10507000002800F0CE80BBF1000F40F076810020C8
:10508000014695E752463346504631461DF080FAB8
:1050900002460B461DF05AFD09B0BDE8F08F002214
:1050A000944B1DF077FA002200231DF0B5FE002876
:1050B00000F0CC80904B9C4200F3C88050463146B3
:1050C00076E700228A4B1DF017FC524633461DF04E
:1050D00013FC4FF0000B8046894600224FF08043BE
:1050E000504631461DF056FA02460B4650463146B0
:1050F0001DF02CFD02460B46CDE902231DF0FCFB02
:105100005DA3D3E9002304460D461DF0F5FB5CA327
:10511000D3E900231DF03EFA22462B461DF0ECFB9E
:1051200059A3D3E900231DF035FA22462B461DF082
:10513000E3FB57A3D3E900231DF02CFA22462B46AC
:105140001DF0DAFB54A3D3E900231DF023FA224615
:105150002B461DF0D1FB52A3D3E900231DF01AFA10
:1051600022462B461DF0C8FB4FA3D3E900231DF0B8
:1051700011FA22462B461DF0BFFB04460D46BBF13B
:10518000000F00F0BB8058461DF050FB48A3D3E948
:105190000023CDE904011DF0AFFB4246CDE9060135
:1051A0004B46204629461DF0F5F9DDE902231DF0A6
:1051B000A3FB41A3D3E9002304460D46DDE9040126
:1051C0001DF09AFBDDE900231DF0E4F902460B46D1
:1051D000204629461DF0DEF902460B464046494668
:1051E0001DF0D6F9524633461DF0D2F902460B4661
:1051F000DDE906011DF0CCF909B0BDE8F08F45F4FA
:105200000015C7F5801720462946BF100BF1010B8A
:1052100012E72BA3D3E90023204629461DF06CFB9F
:1052200002460B4600202F491DF0B2F9DDE90223AA
:105230001DF062FB06460F46BBF1000F6DD1024622
:105240000B46204629461DF0A3F9B1E652463346E7
:10525000504631461DF050FB0022254B1DF04CFB03
:1052600002460B46504631461DF092F909B0BDE8A2
:10527000F08F00BFAFF3008044523EDF12F1C23F17
:105280009FC678D0099AC33FDE03CB966446C73FDA
:10529000AF788E1DC571CC3F599322942449D23FDB
:1052A00004FA97999999D93F935555555555E53F26
:1052B0000000E0FE422EE63F763C7935EF39EA3DCC
:1052C000555555555555E53F7982DA3FFFFFEF3F7C
:1052D0000000F0BF000050C3FFFFEF7FFFFF1F3E45
:1052E0003C412D400000F03FFFFF3F439DA00600E2
:1052F0000000E03F00005043FFFF8F3C42464B461A
:105300001DF048F9DDE902231DF0F6FA02460B46CE
:10531000404649461DF03CF9A2E758461DF086FA82
:1053200027A3D3E9002382468B461DF0E5FA26A386
:10533000D3E9002380468946504659461DF0DCFAE1
:10534000DDE900231DF026F902460B4630463946BA
:105350001DF01EF922462B461DF01AF902460B4697
:10536000404649461DF014F922E658461DF05EFA03
:1053700015A3D3E9002306460F461DF0BDFADDE96B
:1053800000231DF007F90EA3D3E9002304460D46C0
:10539000304639461DF0B0FA02460B4620462946F3
:1053A0001DF0F8F804E60022094B1DF0F1F8024662
:1053B0000B46504631461DF0EBF81EE6AFF3008079
:1053C0000000E0FE422EE63F763C7935EF39EA3DBB
:1053D0000000F03F0000000008B51EF081FB04A3B0
:1053E000D3E900231DF0B2FB08BD00BFAFF300807E
:1053F000EF39FAFE422EE63F2DE9F043DFF8B480A4
:105400008BB004460D4600F06BFF98F90030013375
:1054100006460F462BD022462B46204629461DF035
:1054200005FD814618BB204629461DF0DFFF1CA361
:10543000D3E900231DF0F0FCC8B11B4A98F90030F5
:10544000CDF820900321CDE90445CDE902458DE852
:1054500006008BB9154B4FF06042CDE90623684634
:1054600020F0A6F970B1089B9BB9DDE906673046CC
:1054700039460BB0BDE8F0830D490020022BCDE981
:105480000601ECD120F0E4FA22230360089B002BF4
:10549000EBD020F0DDFA089B0360E6E7AFF3008075
:1054A0007DF8B98FCE338640048B0200FFFFEF47B3
:1054B0000000F07F1A0200202DE9F043DFF8E480BD
:1054C0008BB004460D4600F0BBFF98F90030013365
:1054D00006460F4633D02046294620F063F970B3C4
:1054E00029A3D3E90023204629461DF095FC8146D7
:1054F00050BB27A3D3E90023204629461DF06EFCAC
:10550000E8B198F90030244ACDF820900426002014
:105510000021022BCDE90445CDE902450096019218
:10552000CDE9060129D0684620F042F928B3089B4E
:105530001BB120F08DFA089B0360DDE90667304659
:1055400039460BB0BDE8F083134A98F90030019258
:1055500003210022CDE90445CDE9024500910892DE
:105560002BB90E4B4FF06042CDE90623DBE70C4927
:105570000020022BCDE90601D5D120F069FA2223C3
:105580000360D4E7AFF30080EF39FAFE422E864085
:1055900051302DD5104987C00C8B0200FFFFEF471B
:1055A0000000F07F1A0200202DE9F84FC44E21F0D0
:1055B0000043B3420C4605460DDD03F1404303F5BD
:1055C0008013034340F0B980002940F3408100205C
:1055D0000021BDE8F88FBB4EB34240F3A6800029FE
:1055E000C0F2788102460B460020B7491CF0D0FF7C
:1055F0000022B64B1DF080F904460D461EF0FEFF5A
:1056000095A3D3E9002389468046294620461DF00C
:1056100073F993A3D3E900231CF0BCFF22462B4669
:105620001DF06AF990A3D3E900231CF0B1FF2246D4
:105630002B461DF061F98EA3D3E900231CF0AAFFCD
:1056400022462B461DF058F98BA3D3E900231CF00A
:105650009FFF22462B461DF04FF989A3D3E9002373
:105660001CF098FF22462B461DF046F986A3D3E98D
:10567000002382468B46204629461DF03DF984A32F
:10568000D3E900231CF084FF22462B461DF034F999
:1056900081A3D3E900231CF07DFF22462B461DF099
:1056A0002BF97FA3D3E900231CF072FF22462B467F
:1056B0001DF022F90022844B1CF06CFF02460B46C1
:1056C000504659461DF042FA42464B461DF014F929
:1056D000002682468B4632464B46304649461DF0F0
:1056E0000BF902460B46204629461CF051FF324674
:1056F00004460D464B46404649461CF04BFF0246C9
:105700000B46204629461DF021FA02460B4650461C
:1057100059461CF03FFF32464B461CF03BFF024609
:105720000B461CF037FFBDE8F88F694A93420EDC48
:105730005DA1D1E90001BDE8F88F02460B461CF0DF
:1057400027FF02460B461DF001FABDE8F88F02461E
:105750000B461DF0D1F840A3D3E9002306460F46BF
:105760001DF0CAF83EA3D3E900231CF013FF324614
:105770003B461DF0C1F83CA3D3E900231CF008FF11
:1057800032463B461DF0B8F839A3D3E900231CF09C
:1057900001FF32463B461DF0AFF837A3D3E90023A3
:1057A0001CF0F6FE32463B461DF0A6F834A3D3E9C2
:1057B00000231CF0EFFE32463B461DF09DF832A35D
:1057C000D3E9002380468946304639461DF094F8D7
:1057D0002FA3D3E900231CF0DBFE32463B461DF02D
:1057E0008BF82DA3D3E900231CF0D4FE32463B46B0
:1057F0001DF082F82AA3D3E900231CF0C9FE32462B
:105800003B461DF079F800222F4B1CF0C3FE0246E8
:105810000B46404649461DF099F92A4623461DF09D
:105820006BF802460B4622A1D1E900011CF0B0FE44
:1058300002460B46284621461CF0AAFE02460B46AD
:1058400019A1D1E900011CF0A3FEBDE8F88F1AA14F
:10585000D1E90001BDE8F88F09F7FD0DE13D023FF8
:1058600088B20175E0EF493F3B8F68B52882A43FBD
:105870005544880E55C1C93F7D6FEB0312D6D43F06
:10588000555555555555C53F82922EB1C5B8B33FB4
:1058900059018D1B6C06E63FC88A599CE52A0040D9
:1058A0004B2D8A1C273A0340182D4454FB21F93F05
:1058B000075C143326A6913C182D4454FB21094063
:1058C000FFFFEF3FFFFFDF3F0000F03F0000E03F42
:1058D0000000603C00225C4B1CF05CFE00225B4B35
:1058E0001DF00AF840A3D3E9002304460D461DF03D
:1058F00003F83FA3D3E900231CF04CFE22462B46BD
:105900001CF0FAFF3CA3D3E900231CF041FE224621
:105910002B461CF0F1FF3AA3D3E900231CF03AFE1A
:1059200022462B461CF0E8FF37A3D3E900231CF0E6
:105930002FFE22462B461CF0DFFF35A3D3E90023C0
:105940001CF028FE22462B461CF0D6FF80468946D6
:10595000204629461EF052FE2FA3D3E90023064617
:105960000F46204629461CF0C7FF2DA3D3E900238C
:105970001CF00EFE22462B461CF0BEFF2AA3D3E9E4
:1059800000231CF007FE22462B461CF0B5FF28A37F
:10599000D3E900231CF0FCFD22462B461CF0ACFF93
:1059A0000022294B1CF0F6FD02460B4640464946B4
:1059B0001DF0CCF832463B461CF09EFF1EA3D3E9F7
:1059C00000231CF0E5FD32463B461CF0E3FD024699
:1059D0000B461CF0DFFD02460B4619A1D1E9000180
:1059E0001CF0D6FDBDE8F88F09F7FD0DE13D023F43
:1059F00088B20175E0EF493F3B8F68B52882A43F2C
:105A00005544880E55C1C93F7D6FEB0312D6D43F74
:105A1000555555555555C53F82922EB1C5B8B33F22
:105A200059018D1B6C06E63FC88A599CE52A004047
:105A30004B2D8A1C273A0340075C143326A6913C61
:105A4000182D4454FB2109400000F03F0000E03FC6
:105A5000434A91422DE9F8430C46054639DD414A57
:105A6000914209DD02F17952914240DD02460B4636
:105A70001CF090FDBDE8F88301F1404202F5801270
:105A8000024330D0B1F1804F3ADC0022364B1CF09B
:105A90007FFD02460B4604460D461CF07BFD224668
:105AA00006460F462B46204629461CF025FF024697
:105AB0000B46304639461CF06DFD1EF09FFD0B462F
:105AC0000246294620461CF065FDBDE8F843FFF775
:105AD0004BBA02460B461CF05BFD02460B461DF01E
:105AE00035F8BDE8F88300200021BDE8F88300F018
:105AF0001FFE19A3D3E900231CF04CFDBDE8F88379
:105B000002460B461CF0F8FE0022174B1CF040FD2D
:105B10001EF074FD2A4680468946234628462146C3
:105B20001CF038FD424606460F464B4628462146A5
:105B30001CF030FD02460B4600200B491DF006F814
:105B40000B460246394630461CF022FDBDE8F843BC
:105B500000F0EEBDAFF30080EF39FAFE422EE63FD3
:105B6000FFFFEF3FFFFFAF410000F03F00000000EC
:105B70002DE9F047C44B21F00048984584B00D460C
:105B8000044616DD08F1404808F58018034658EA37
:105B9000030326D002460B461CF0FAFC0B460246D5
:105BA0001CF0D4FF04460B462046194604B0BDE85D
:105BB000F087B64B98458A462EDCB8F1795F80F2C3
:105BC0006D8195A3D3E900231CF0E4FC0022B04BC7
:105BD0001DF022F900B32B462046194604B0BDE85B
:105BE000F0878FA3D3E900231CF086FE8EA3D3E9B0
:105BF000002306460F46204629461CF07DFE02463D
:105C00000B46304639461CF0C5FC04460B46204680
:105C1000194604B0BDE8F087204629461DF0E6FB92
:105C200002460B4600209A491CF0B2FC0022994B18
:105C30001CF062FE7EA3D3E9002304460D461CF04F
:105C40005BFE7DA3D3E900231CF0A4FC22462B4677
:105C50001CF052FE7AA3D3E900231CF099FC2246E3
:105C60002B461CF049FE78A3D3E900231CF092FCDC
:105C700022462B461CF040FE75A3D3E900231CF0FE
:105C800087FC22462B461CF037FE73A3D3E9002382
:105C90001CF080FC22462B461CF02EFE70A3D3E99C
:105CA0000023CDE90001204629461CF025FE6EA305
:105CB000D3E900231CF06CFC22462B461CF01CFE92
:105CC0006BA3D3E900231CF065FC22462B461CF095
:105CD00013FE69A3D3E900231CF05AFC22462B468D
:105CE0001CF00AFE6A4B00221CF054FCCDE90201B4
:105CF000204629461EF082FC674B984506460F4613
:105D000067DCDDE90223DDE900011CF01FFF3246FC
:105D1000CDE900013B46304639461CF03BFC0246CB
:105D20000B46DDE900011CF0E7FD4FF00008CDE96E
:105D3000000142463B46404639461CF0DDFD024626
:105D40000B46204629461CF023FC424604460D46DD
:105D50003B46304639461CF01DFC02460B462046A9
:105D600029461CF0F3FE02460B461CF013FC0246CB
:105D70000B462DA1D1E900011CF00AFC02460B469E
:105D8000DDE900011CF004FC424604460D463B469A
:105D9000404639461CF0FEFB02460B4638A1D1E9CD
:105DA00000011CF0F5FB02460B46204629461CF07C
:105DB000EFFB0B46024632A1D1E900011CF0E8FBE3
:105DC00004460B46BAF1000F3FF7EEAE03F1004375
:105DD000EAE6DDE90223DDE900011CF0B7FE324608
:105DE0003B461CF089FD32463B461CF0D3FB024685
:105DF0000B461CF0CFFB0CA3D3E900231CF0C8FB1F
:105E00000B46024606A1D1E900011CF0C1FB044685
:105E10000B46D7E7AFF300809C7500883CE4377EE3
:105E2000182D4454FB21F93F075C143326A6913CFE
:105E300009F7FD0DE13D023F88B20175E0EF493FF2
:105E40003B8F68B52882A43F5544880E55C1C93F91
:105E50007D6FEB0312D6D43F555555555555C53F6B
:105E600082922EB1C5B8B33F59018D1B6C06E63F37
:105E7000C88A599CE52A00404B2D8A1C273A0340CA
:105E8000182D4454FB21E93FFFFFEF3FFFFFDF3FA9
:105E90000000F03F0000E03F3233EF3F02460B4688
:105EA0001CF02AFD38A3D3E9002306460F461CF058
:105EB00023FD37A3D3E900231CF06CFB32463B469D
:105EC0001CF01AFD34A3D3E900231CF061FB324619
:105ED0003B461CF011FD32A3D3E900231CF05AFB12
:105EE00032463B461CF008FD2FA3D3E900231CF0EB
:105EF0004FFB32463B461CF0FFFC2DA3D3E90023A9
:105F00001CF048FB32463B461CF0F6FC2AA3D3E9C2
:105F1000002380468946304639461CF0EDFC28A314
:105F2000D3E900231CF034FB32463B461CF0E4FC72
:105F300025A3D3E900231CF02DFB32463B461CF081
:105F4000DBFC23A3D3E900231CF022FB32463B46B3
:105F50001CF0D2FC0022204B1CF01CFB02460B461E
:105F6000404649461CF0F2FD22462B461CF0C4FC7C
:105F700022462B461CF00EFB04460B4620461946D3
:105F800004B0BDE8F08700BF09F7FD0DE13D023F19
:105F900088B20175E0EF493F3B8F68B52882A43F86
:105FA0005544880E55C1C93F7D6FEB0312D6D43FCF
:105FB000555555555555C53F82922EB1C5B8B33F7D
:105FC00059018D1B6C06E63FC88A599CE52A0040A2
:105FD0004B2D8A1C273A03400000F03F00000000D0
:105FE0002DE9F84F5442144323F00049704E49EA1A
:105FF000D474B44286460F4640D84442044321F04C
:10600000004B4BEAD474B4428A4637D803F140447B
:1060100004F5801414434AD09C1704F0020444EAA7
:10602000D17450EA0B0131D052EA090137D0B145A1
:1060300052D0B34533D0ABEB09094FEA2959B9F136
:106040003C0F3BDC002B66DB704639461CF07EFDC6
:106050001DF0CCF9FEF7C8FC012C58D0022C48D01A
:10606000002C5ED040A3D3E900231CF091FA40A39A
:10607000D3E900231CF08CFABDE8F88F10461946CE
:1060800072463B461CF086FABDE8F88F022C19D008
:10609000032C10D138A1D1E90001BDE8F88FBAF185
:1060A000000F14DB36A1D1E90001BDE8F88FBDE88F
:1060B000F84FFEF799BC3946BDE8F88F30A1D1E919
:1060C0000001C9E72AA1D1E90001BDE8F88F2EA19E
:1060D000D1E90001BDE8F88FCB4524D0022CF1D0E6
:1060E000032CD7D0012C4FF0000027D00021BDE8B1
:1060F000F88F1DA3D3E900231CF04AFA02460B4691
:106100001BA1D1E900011CF043FABDE8F88F01F1B1
:106110000041BDE8F88F19F13C0F95DA002000210D
:106120009AE7BDE8F88F022C16D0032C0FD0012C73
:1061300008D017A1D1E90001BDE8F88F4FF0004168
:10614000BDE8F88F14A1D1E90001BDE8F88F14A1D2
:10615000D1E90001BDE8F88F13A1D1E90001BDE844
:10616000F88F00BFAFF30080075C143326A6A13C74
:10617000182D4454FB210940182D4454FB2109C01B
:10618000182D4454FB21F93F182D4454FB21F9BF2D
:10619000182D4454FB21E93F182D4454FB21E9BF3D
:1061A000D221337F7CD902C0D221337F7CD90240F7
:1061B0000000F07F0000000043422DE9F047034358
:1061C00021F00048424A48EAD373934206460F46FC
:1061D00016D890454BD03F4B98458A461EDC3AA3D3
:1061E000D3E9002304461CF0D5F9002200231CF05B
:1061F00013FE002845D03B4620461946BDE8F087EF
:1062000002460B461CF0C4F90B4602461CF09EFCED
:1062100004460B4620461946BDE8F0872E4B9845AC
:10622000044645462FDD0246434641461CF0B2F97E
:10623000224606460F464346002025491CF0A8F991
:1062400002460B46304639461CF080FCFEF78CFEB9
:10625000224B00221CF050FBBAF1000F04460B4603
:10626000D8DA01F1004320461946BDE8F087002244
:1062700000231CF06BFC04460B4620461946BDE883
:10628000F0873446454622462B46204629461CF0D8
:1062900081F922462B4606460F461CF02DFB22466E
:1062A000804689462B46002009491CF071F90246B8
:1062B0000B46404649461CF049FC32463B461CF022
:1062C00069F9C3E7AFF300809C7500883CE4377E32
:1062D0000000F03FFFFF2F3EFFFFDF3F0000E03FE9
:1062E0004F4A2DE9F84321F0004494420B460546FD
:1062F0001BDC4C4A944222DD4B4A944263DD4B4AFC
:1063000094427BDD4A4A944246DD0132944240D0B9
:1063100041A3D3E90023104619461CF0EDFA0646C6
:106320000F4630463946BDE8F88302460B461CF05E
:10633000E3FA06460F4630463946BDE8F8831DF0BD
:1063400055F802F0A9FC00223A4B804689461CF021
:1063500021F9B4F1725F06460F46ECDB42464B462C
:10636000404649461CF0C8FA32463B4604460D46B4
:10637000304639461CF00EF902460B4620462946A7
:106380001CF0E4FB00222B4B1CF004F906460F46E0
:10639000D1E7294A9042BBD8284619461DF026F875
:1063A0000022264B1CF0A8FA00F04AF8002204460E
:1063B0000D46224B1CF0A0FA22462B461CF09CFAFC
:1063C00006460F46B7E71DF011F800F039F8002235
:1063D0001A4B06460F461CF08FFA32463B460446DF
:1063E0000D46002015491CF0B1FB02460B46204625
:1063F00029461CF0CFF806460F469CE71CF0F6FF36
:1064000000F01EF800220D4B1CF076FA06460F46EF
:1064100091E700BFAFF300809C7500883CE4377EB5
:10642000FFFFEF7F422ED63FFFFF3540412E8640D3
:10643000CD3386400000F03F7DF8B98F0000E03F8B
:106440002DE9F04FB04F21F00042BA4283B00C4624
:106450004FEAD17605460DD9AC4FBA4225D9C1F3E2
:106460001303034340F0EF800EB10020014603B058
:10647000BDE8F08FA64B9A4200F2CC80A54B9A4221
:1064800000F2DE808AA3D3E900231CF083F8002207
:10649000A14B1CF0C1FC002800F0058128462146D4
:1064A00000229D4B1CF076F8E1E783A3D3E900239B
:1064B0001CF0B2FC002840F0CB802846214680A387
:1064C000D3E900231CF08AFC0028CED1934B284648
:1064D00003EBC60621467CA3D3E900231CF00CFA8B
:1064E000D6E900231CF056F81CF0B6FC80461CF0E0
:1064F0009DF977A3D3E9002306460F461CF0FCF96B
:1065000002460B46284621461CF042F872A3D3E906
:106510000023CDE90001304639461CF0EDF98246F2
:106520008B4652465B46DDE900011CF031F805461A
:106530000C462A462346284621461CF0DDF968A36E
:10654000D3E9002306460F461CF0D6F966A3D3E92B
:1065500000231CF01DF832463B461CF0CDF964A325
:10656000D3E900231CF016F832463B461CF0C4F970
:1065700061A3D3E900231CF00BF832463B461CF024
:10658000BBF95FA3D3E900231CF004F832463B4675
:106590001CF0B2F902460B46284621461BF0F8FFD4
:1065A00006460F462846214632463B46B8F1000FC4
:1065B00056D01CF0A1F9324604460D463B46002059
:1065C0004FF080411BF0E4FF02460B46204629466F
:1065D0001CF0BCFA02460B46504659461BF0D8FF49
:1065E000DDE900231BF0D4FF0B4602464A49002098
:1065F0001BF0CEFF6FF47F7398454FDA08F57A7879
:1066000001EB085100224FF0B8731CF075F903B08C
:10661000BDE8F08F424B9A423FF658AF414BF40031
:106620002344D3E900231BF0B3FF3F4BC6F101081D
:106630002344CDE90001D3E900ABA8EB060870E7DD
:106640004FF0000875E702460B461BF0A3FF0EE76C
:1066500017A3D3E90023104619461CF04DF906E7AD
:106660001CF04AF90022804689464FF080433046AC
:1066700039461BF08DFF02460B46404649461CF04A
:1066800065FA2A4623461BF083FF02460B4600208C
:1066900021491BF07DFF03B0BDE8F08F01EB0851ED
:1066A00003B0BDE8F08F804643E700BFAFF3008042
:1066B0009C7500883CE4377EEF39FAFE422E864016
:1066C00051302DD5104987C0FE822B654715F73F05
:1066D0000000E0FE422EE63F763C7935EF39EA3D98
:1066E000D0A4BE726937663EF16BD2C541BDBB3ED8
:1066F0002CDE25AF6A56113F93BDBE166CC1663FB6
:106700003E5555555555C53F412E8640FFFFEF7FFD
:10671000422ED63FFFFF2F3E0000F03F086C0200E4
:10672000B1A2F03F186C0200286C020000000000CB
:106730002DE9F04FB1F5801F85B006460F460B4698
:106740005ADA024621F00044224300F0F880002982
:10675000C0F27A810022D64B1CF0CEF8D54A0B4607
:10676000934206460F466FF0350C4ADCC3F313051F
:1067700005F5152E0EF6647E0EF4801E8EF07F5207
:1067800082F440121C1542EA0507A4F2FF34644467
:106790000022C94B3046394604EB1E541BF0F8FE6C
:1067A000AB1CC3F31303022B82468B464FF000024F
:1067B00030DC00231CF008FB002800F0C980002C0E
:1067C00000F04B8120461CF031F8A5A3D3E900234B
:1067D00006460F461CF090F8A3A3D3E90023044615
:1067E0000D46304639461CF087F802460B462046D7
:1067F00029461BF0CFFE0AE0AE4A93424FF0000C50
:10680000B4DD32463B46304639461BF0C3FE05B088
:10681000BDE8F08F4FF080431BF0BCFE02460B46F4
:10682000504659461CF092F9064620460F461BF08A
:10683000FDFF3246CDE900013B4630463946CDE901
:1068400002671CF059F802460B46804689461CF048
:1068500053F887A3D3E9002306460F461CF04CF8F3
:1068600085A3D3E900231BF095FE32463B461CF07E
:1068700043F883A3D3E900231BF08CFE32463B464A
:106880001CF03AF880A3D3E900231BF083FE4246B4
:106890004B461CF031F87EA3D3E90023804689469D
:1068A000304639461CF028F87BA3D3E900231BF0BF
:1068B00071FE32463B461CF01FF879A3D3E9002352
:1068C0001BF068FE32463B461CF016F80B460246AB
:1068D000494640461BF05EFEA5F5C223C5F5D72507
:1068E000A3F27A4351351D43002D8046894656DD7B
:1068F0000022724B504659461BF0FEFF52465B4643
:106900001BF0FAFF06460F46002C68D132463B4684
:10691000404649461BF03EFEDDE902231BF0ECFF3A
:1069200002460B46304639461BF032FE02460B4605
:10693000504659461BF02CFE05B0BDE8F08F0022F2
:10694000002300205E491CF001F905B0BDE8F08F7E
:1069500055A3D3E90023504659461BF0CDFF02460C
:106960000B46002055491BF013FE524606460F46C3
:106970005B46504659461BF0BFFF02460B46304669
:1069800039461BF0B9FF06460F46002C40F09A80AE
:1069900002460B46504659461BF0FAFD37E7002CDD
:1069A00000F0A4802EA3D3E90023DDE900011BF051
:1069B000A3FF42464B4604460D46504659461BF03F
:1069C000E7FDDDE902231BF097FF27A3D3E90023AE
:1069D00006460F46DDE900011BF08EFF21E020A3F3
:1069E000D3E90023DDE900011BF086FF32463B4678
:1069F00004460D46404649461BF0CCFDDDE9022326
:106A00001BF07AFF18A3D3E9002380468946DDE90D
:106A100000011BF071FF02460B46404649461BF041
:106A2000B9FD02460B46304639461BF0B1FD5246D1
:106A30005B461BF0ADFD02460B46204629461BF087
:106A4000A7FD05B0BDE8F08F02460B461BF0A0FD88
:106A5000002200231CF07AF8D9E600200021D6E6B7
:106A60000000E0FE422EE63F763C7935EF39EA3D04
:106A700044523EDF12F1C23FDE03CB966446C73F6D
:106A8000599322942449D23F935555555555E53F86
:106A90009FC678D0099AC33FAF788E1DC571CC3F91
:106AA00004FA97999999D93F555555555555D53F5C
:106AB00000005043FFFFEF7F0000F03F0000E03F89
:106AC000000050C320461BF0B1FE0FA3D3E9002302
:106AD000804689461BF010FF0DA3D3E9002304462E
:106AE0000D46404649461BF007FF9AE702460B4613
:106AF000504659461BF04CFDDDE902231BF0FCFE1D
:106B000014E700BFAFF300800000E0FE422EE63F36
:106B1000763C7935EF39EA3DB1F5801F2DE9F84330
:106B200004460D460B461ADA024621F0004632436F
:106B300059D000295FDB00223B4B1BF0DDFE3B4AB6
:106B40000B4693420D4604466FF035010CDD22469C
:106B50002B46204629461BF01DFDBDE8F883334A2D
:106B600093424FF00001F2DC1815A0F2FF30084408
:106B70004FEAD0794844C3F313081BF057FEC9F518
:106B80007F73033348EA035506460F4620462946DD
:106B9000FFF7CEFD1EA3D3E9002380468946304689
:106BA00039461BF0A9FE1CA3D3E9002304460D4679
:106BB000404649461BF0A0FE02460B4620462946A9
:106BC0001BF0E8FC16A3D3E9002304460D4630462B
:106BD00039461BF091FE02460B46204629461BF023
:106BE000D9FCBDE8F88300220023002010491BF0E7
:106BF000ADFFBDE8F88302460B461BF0C9FC00223E
:106C000000231BF0A3FFBDE8F88300BFAFF30080B3
:106C1000362BF111F3FE593D0EE526157BCBDB3FFC
:106C200000609F501344D33F00005043FFFFEF7FAD
:106C3000000050C3000000002DE9F04F23F0004792
:106C400057EA020493B037D0674C21F00046A642C1
:106C500083460D4629DC9A46964625D0A74224DC79
:106C6000614CA74279D0002D89468046CDE90023AA
:106C700077DB0024BEF1000F2CD15B4B9F4200F06C
:106C80008B805A4B9F4261D0BAF1804F00F0BA839B
:106C9000574B9A451ED1002D1CDB4046494613B088
:106CA000BDE8F04F1DF0AABC58B106F1404606F50C
:106CB000801656EA0B0306D14C49002013B0BDE8FC
:106CC000F08FB742CCDD4B4813B0BDE8F04F1EF05B
:106CD00071BD0024404649461CF088FBBBF1000F03
:106CE00019D126B1414B25F040429A4213D1BAF155
:106CF000000FC0F2BC83002DE0DA06F1404606F535
:106D0000801656EA040300F08F84012CD6D101F1DD
:106D100000431946D2E7ED0F013D54EA05034ED07A
:106D2000354B9F426EDD03F104739F4240F3E883CD
:106D3000324B9E424EDDBAF1000F4EDD28A3D3E95F
:106D40000023104619461BF0D7FDB7E7BAF1000F34
:106D5000C0F23C8440464946B0E7BEF1000F82D005
:106D6000A3E7274B9F4228DCA3F154739F4280DDA9
:106D70003B15A3F2FF33142B40F33E84C3F13403DD
:106D80002EFA03F202FA03F39E457FF472AF02F08B
:106D90000102C2F102046DE706F1404303F58013DE
:106DA00053EA0B0388D0154B9E4240F33283BAF16D
:106DB000000F12DBDDE9000180E702245AE74246BA
:106DC0004B46404649461BF0E3FB02460B461BF090
:106DD000BDFE73E7BAF1000FB0DB002000216DE7C4
:106DE0009C7500883CE4377E0000F07F0000F03F97
:106DF0000000E03F6C7402000000E041FFFFEF3F45
:106E0000FFFF3F43B6F5801F4FF0000205DAD44B79
:106E10001BF072FD6FF034020E463315D14FC6F3EE
:106E20001306A3F2FF33134446F07F5ABE421A46BC
:106E30000D934AF4401A40F32183CB4B9E4240F31A
:106E4000FD83134601330D93C84B0022CDE9062381
:106E500000270026CDE90867CDE90E67AAF5801A5C
:106E60000027024653465146CDE90A23DDE90623B1
:106E70001BF08EFBDDE9062380468946DDE90A0129
:106E80001BF088FB02460B460020B8491BF05EFE53
:106E90000A460146CDE910121346494602464046CD
:106EA0001BF02AFD4FEA6A0343F000538C468346E9
:106EB00003F50023CDE904BCDA468B46D91900233B
:106EC000CDE902AB0293DDE902AB002006460F4696
:106ED00002460B46504659461BF00EFD02460B4635
:106EE000404649461BF054FBDDE9062380468946AF
:106EF000304639461BF04CFB02460B46DDE90A01E1
:106F00001BF046FB52465B461BF0F6FC02460B4666
:106F1000404649461BF03CFBDDE910231BF0ECFC2E
:106F2000DDE90467CDE9060132463B463046394685
:106F30001BF0E2FC78A3D3E9002306460F461BF0C2
:106F4000DBFC77A3D3E900231BF024FB32463B464E
:106F50001BF0D2FC74A3D3E900231BF01BFB3246C9
:106F60003B461BF0C9FC72A3D3E900231BF012FBC4
:106F700032463B461BF0C0FC6FA3D3E900231BF055
:106F800009FB32463B461BF0B7FC6DA3D3E9002357
:106F90001BF000FB3246804689463B463046394668
:106FA0001BF0AAFC02460B46404649461BF0A4FCD7
:106FB000524606460F465B46DDE904011BF0EAFA3D
:106FC000DDE906231BF098FC32463B461BF0E2FA53
:106FD0005246804689465B46504659461BF08CFC1B
:106FE0000022634BCDE90A011BF0D4FA42464B461E
:106FF0001BF0D0FA02980F46064632463B465046F2
:1070000059461BF079FC002282468B46584B30468D
:1070100039461BF0BDFADDE90A231BF0B9FA024636
:107020000B46404649461BF0B3FADDE904231BF04A
:1070300063FC3246804689463B46DDE906011BF08B
:107040005BFC02460B46404649461BF0A3FA8046CD
:10705000894602460B4650465946CDE904AB1BF023
:1070600099FADDE902AB38A3D3E9002350460F4675
:107070001BF042FCDDE90423CDE90201394650460C
:107080001BF086FA02460B46404649461BF080FA42
:107090002FA3D3E900231BF02FFC2FA3D3E9002358
:1070A00080468946504639461BF026FC02460B4670
:1070B000404649461BF06EFADDE90E231BF06AFAE2
:1070C00080460D9889461BF0B1FB424606460F46A6
:1070D0004B46DDE902011BF05DFADDE908231BF0F8
:1070E00059FA32463B461BF055FA32463B4650466B
:1070F0008B461BF04DFADDE908231BF049FADDE968
:1071000002231BF045FA02460B46404649461BF057
:107110003FFA80462EE000BFEF4E454A287ECA3F28
:1071200065DBC9934A86CD3F01411DA96074D13FFB
:107130004D268F515555D53FFFAB6FDBB66DDB3F0D
:10714000033333333333E33F000000E009C7EE3F3E
:10715000FD033ADC09C7EE3FF5015B14E02F3EBEAC
:10716000000040438E98030079B60B000000F03F0A
:10717000000008408946013C54EA0503DDE90001AE
:1071800014BFD94CD94C0023CDE9043403460C4636
:10719000CDE9023400230293DDE9024522462B4665
:1071A0001BF0F6F952465B461BF0A6FBDDE9002317
:1071B00006460F46404649461BF09EFB02460B46DC
:1071C000304639461BF0E6F92246804689462B4672
:1071D00050465946CDE900891BF08EFB0B4602460E
:1071E00006460F46404649461BF0D4F9C04B99422B
:1071F00004460D468A4640F3168101F13F4303F5EC
:10720000E003034340F0EA81A3A3D3E90023DDE9CF
:1072100000011BF0BFF93246804689463B462046B6
:1072200029461BF0B5F902460B46404649461BF07D
:10723000F3FD002840F0D281A8464FEA28534FF4CE
:107240008012A3F2FE3342FA03F35344C3F30A520B
:10725000A84DA2F2FF321541C3F3130423EA05013E
:107260000020C2F1140B44F48014BAF1000F02465E
:107270000B4644FA0BFB30463946B8BFCBF1000B46
:107280001BF086F902460B4606460F46DDE9000173
:107290001BF080F94FEA0B5A0D46002480A3D3E976
:1072A0000023204629461BF027FB324680468946AC
:1072B0003B46204629461BF06BF902460B46DDE9AA
:1072C00000011BF065F978A3D3E900231BF014FB40
:1072D00077A3D3E9002306460F46204629461BF034
:1072E0000BFB02460B46304639461BF053F9064667
:1072F0000F4602460B46404649461BF04BF94246B4
:107300004B4604460D461BF043F902460B463046F9
:1073100039461BF03DF92246804689462B462046D9
:1073200029461BF0E9FA64A3D3E9002306460F4679
:107330001BF0E2FA62A3D3E900231BF029F93246DD
:107340003B461BF0D9FA60A3D3E900231BF022F9D6
:1073500032463B461BF0D0FA5DA3D3E900231BF075
:1073600017F932463B461BF0C7FA5BA3D3E900236B
:107370001BF010F932463B461BF0BEFA02460B46A4
:10738000204629461BF004F906460F4602460B46E6
:10739000204629461BF0B0FA0022CDE900014FF04B
:1073A0008043304639461BF0F3F802460B46DDE9D0
:1073B00000011BF0CBFB424606460F464B462046DB
:1073C00029461BF099FA42464B461BF0E3F8024669
:1073D0000B46304639461BF0DBF822462B461BF0A5
:1073E000D7F802460B4600203F491BF0D1F88A44EB
:1073F000BAF5801FC0F233815146DDE904231BF04A
:107400007BFA5BE4424640464B4649461BF074FA21
:1074100054E4BAF1000FBFF6E0ACDDE900341846E1
:1074200004F100414AE4344B21F00048984540F310
:10743000F280324B0B4403430CD132463B461BF0E7
:10744000A7F802460B46DDE900011BF0D1FC00283D
:107450003FF4F3AEDDE9040121A3D3E900231BF0DF
:107460004BFA1FA3D3E900231BF046FA26E4024699
:107470000B4600201C491BF069FB3CE40022002362
:10748000CDE90823CDE90E23174B00220027CDE9D3
:107490000623E6E4AFF30080FE822B654715973C98
:1074A00000000000432EE63FEF39FAFE422EE63F91
:1074B000396CA80C615C20BED0A4BE726937663EF0
:1074C000F16BD2C541BDBB3E2CDE25AF6A56113FE4
:1074D00093BDBE166CC1663F3E5555555555C53FCB
:1074E00059F3F8C21F6EA5010000F03F0000F0BF85
:1074F000FFFF8F40FFFF0F00FFCB904000346F3F36
:107500006B4B9E427FF766AC6A4B9E423FF713ACD3
:107510000022684B1BF03CF857A3D3E90023064632
:107520000F461BF0E9F956A3D3E9002380468946AC
:10753000304639461BF0E0F9002282468B465E4B0E
:10754000304639461BF0D8F902460B464EA1D1E928
:1075500000011BF01DF832463B461BF0CDF90246F8
:107560000B46002055491BF013F83246CDE90201C5
:107570003B46304639461BF0BFF902460B46DDE973
:1075800002011BF0B9F942A3D3E900231BF0B4F9BF
:1075900002460B46504659461AF0FAFF02460B4681
:1075A00006460F46404649461AF0F4FF42464B460F
:1075B000002082468B461AF0EBFF02460B4630460F
:1075C00039461AF0E5FF80468946D4E542464B46E7
:1075D000002038491BF0BAFAFFF770BBDDE904015F
:1075E0002DA3D3E900231BF087F92BA3D3E90023B4
:1075F0001BF082F9FFF762BBBEF1000F7FF469ABAD
:10760000C3F1140347FA03F202FA03F39F422AD0AC
:107610007446FFF736BB294B98453FF70EAEDDE9C0
:1076200002239246934638E602460B461AF0B0FF14
:1076300002460B461BF08AFAFFF740BB18A3D3E9BA
:107640000023CDE9082318A3D3E90023CDE90E23B5
:107650001B4B00224FF48027CDE9062301E45A4654
:1076600001F05AFDC9E602F00102C2F10204FFF77F
:1076700008BB00BFAFF30080000000604715F73F74
:1076800044DF5DF80BAE543E555555555555D53F25
:10769000FE822B654715F73F9C7500883CE4377EDA
:1076A0000000004003B8E23F06D0CF43EBFD4C3E64
:1076B000FEFFEF3F0000F03F0000D03F0000E03F42
:1076C0000000F83F000000002DE9F04F9A4E21F035
:1076D0000047B74291B040F38E809246974A974256
:1076E0000C4626DC00298AA3D3E9002340F3B481A9
:1076F0001AF04EFF924B9F4204460D4600F09080D8
:1077000085A3D3E900231AF043FF02460B46CAE9DA
:107710000023204629461AF03BFF7FA3D3E900232C
:107720001AF036FF0125CAE90201284611B0BDE86A
:10773000F08F844A974240F39080834A974265DCF9
:107740003D15A5F21645A7EB055319461F460646FB
:107750001BF082FB1BF06AF88046894602460B4606
:1077600030463946CDE90A891AF012FF0022774BDC
:107770001BF0C2F8894680461BF06EFB1BF056F8E2
:1077800002460B4606460F4640464946CDE90C6781
:107790001AF0FEFE00226D4B1BF0AEF80022002313
:1077A000CDE90E011BF010FB002800F073810023CF
:1077B0003046394600221BF007FB002814BF012386
:1077C0000223634A019202212A4600910AA85146E7
:1077D00000F086FB002C054614DADAF80420DAF80B
:1077E0000C3002F1004203F100434542CAF8042084
:1077F000CAF80C3006E0C2E9000100250024C2E905
:1078000002450025284611B0BDE8F08F02460B4620
:107810001AF0BEFE0025CAE90201CAE90001F1E73B
:107820003FA3D3E900231AF0B3FE3FA3D3E900231B
:107830000D4604461AF0ACFE02460B46CAE9002388
:10784000294620461AF0A4FE37A3D3E900231AF0F4
:107850009FFE0125CAE90201D4E71BF0C7FD34A34E
:10786000D3E90023804689461BF046F80022394BB5
:107870001AF090FE1BF0F0FA05461AF0D7FF24A389
:10788000D3E90023CDE904011BF036F802460B468C
:10789000404649461AF07CFE1FA3D3E900238046E8
:1078A0008946DDE904011BF027F81F2DCDE902010F
:1078B00054DC294B6A1E53F822309F424ED00246B8
:1078C0000B46404649461AF063FE02460B46CAE99B
:1078D000002383460E465A463346404649461AF030
:1078E00057FEDDE902231AF053FE002C02460B4638
:1078F000CAE9022386DA5B4606F1004601F100413F
:107900008AE84800CAF80C10CAF808006D4279E706
:1079100000004054FB21F93F3163621A61B4D03D4D
:107920000000601A61B4D03D7370032E8A19A33B26
:1079300083C8C96D305FE43FFB21E93F7BD902403A
:10794000FB21F93FFB213941FFFFEF7F0000704130
:10795000D08B02000000E03F508B0200DDE90223E3
:10796000404649461AF014FE3A15C1F30A53D31A99
:10797000102B83460E460992CAE90001ABDD58A3DD
:10798000D3E90023DDE904011AF0B6FF06460F46ED
:1079900002460B46404649461AF0FAFDCDE906017B
:1079A00002460B46404649461AF0F2FD32463B4637
:1079B0001AF0EEFD4CA3D3E9002306460F46DDE99D
:1079C00004011AF099FF32463B461AF0E1FDDDE969
:1079D0000689CDE9020102460B46404649461AF0A7
:1079E000D7FD0B46C1F30A570E460999CF1B024635
:1079F000312F8346CAE900236CDD3DA3D3E9002380
:107A0000DDE904011AF078FF06460F4602460B46F0
:107A100040464946CDE906891AF0BAFD02460B46B2
:107A200080468946DDE906011AF0B2FD32463B4642
:107A30001AF0AEFD30A3D3E9002306460F46DDE978
:107A400004011AF059FF32463B461AF0A1FD0246E6
:107A50000B46CDE9022334E71AF09CFD2A4B9F42E6
:107A600004460D4618D026A3D3E900231AF092FD50
:107A700002460B46CAE90023294620461AF088FD33
:107A80001FA3D3E900231AF085FD4FF0FF35CAE9A3
:107A90000201B7E6032394E611A3D3E900231AF009
:107AA00079FD11A3D3E900230D4604461AF072FDB7
:107AB00002460B46CAE90023294620461AF068FD13
:107AC00009A3D3E900231AF065FD4FF0FF35CAE999
:107AD000020197E6DDE90689FDE600BFAFF300800D
:107AE0000000601A61B4D03D7370032E8A19A33B65
:107AF0000000002E8A19A33BC14920259A837B39B7
:107B00003163621A61B4D03DFB21F93F00000000EF
:107B1000574A2DE9F84F21F0004890450E46074698
:107B20002BDC544B0029B4BF534D544D98454FF0B6
:107B3000000410DC524B98456EDC4BA3D3E90023C4
:107B40001AF028FD00224F4B1BF066F9D8B13846D9
:107B50003146BDE8F88F4C4B984579DD4B4B984545
:107B600043DD013398453DD0384631463EA3D3E945
:107B700000231AF0C1FEBDE8F88F02460B461AF04A
:107B800009FDBDE8F88F384631461BF02FFC01F0A7
:107B900083F806460F4632463B46304639461AF0D1
:107BA000F9FC324682468B463B46304639461AF04F
:107BB000A3FE002280468946324B304639461AF0F1
:107BC000E9FC02460B46404649461AF0BFFF024612
:107BD0000B46504659461AF0DBFC22462B461AF05B
:107BE0008BFECEE72A4B9842BED8384631461BF072
:107BF000FDFB0022214B1AF07FFEFEF721FC06461A
:107C00000F4602460B46204629461AF075FE3246BC
:107C10003B461AF071FEB4E71BF0E8FB01F03CF8BC
:107C20001C4B984506460F46B5DD0022154B1AF051
:107C3000B1FC02460B46304639461AF087FF324601
:107C40003B461AF0A7FC22462B461AF055FE98E751
:107C50001BF0CCFBFEF7F4FB02460B462046294600
:107C60001AF04AFE8DE700BF3374AC3C1F7BAC7F3B
:107C7000FFFFEF7FFFFF35400000E0BF0000E03F67
:107C8000FFFF2F3E0000F03F412E8640CD3386405F
:107C90007DF8B98FFFFFEF3F2DE9F04F21F000464F
:107CA000B6F1795F85B00C4692469B4605466BDA85
:107CB0001BF0D2F8002800F0E8802A462346284628
:107CC00021461AF019FE74A3D3E9002380468946A1
:107CD0001AF012FE72A3D3E900231AF05BFC4246AD
:107CE0004B461AF009FE70A3D3E900231AF050FCAA
:107CF00042464B461AF000FE6DA3D3E900231AF06A
:107D000049FC42464B461AF0F7FD6BA3D3E900232A
:107D10001AF03EFC42464B461AF0EEFD68A3D3E94A
:107D200000231AF037FC42464B461AF0E5FDCDE938
:107D300000010022644B404649461AF0DDFDDDE9B2
:107D4000002306460F46404649461AF0D5FD5246E6
:107D5000804689465B46284621461AF0CDFD0246FC
:107D60000B46404649461AF013FC02460B46304685
:107D700039461AF00DFC02460B46002053491AF012
:107D800007FC05B0BDE8F08F02460B461AF0B4FDC3
:107D900041A3D3E90023804689461AF0ADFD40A3F4
:107DA000D3E900231AF0F6FB42464B461AF0A4FD35
:107DB0003DA3D3E900231AF0EBFB42464B461AF0F1
:107DC0009BFD3BA3D3E900231AF0E4FB42464B465C
:107DD0001AF092FD38A3D3E900231AF0D9FB4246EA
:107DE0004B461AF089FD36A3D3E900231AF0D2FBE3
:107DF0004B4642461AF080FD354B9E42CDE90001CC
:107E000097DD344B9E424FF0000238DCA6F500139C
:107E100000202E4916461F461AF0BAFBCDE9020192
:107E20000022294B404649461AF066FD32463B4641
:107E30001AF0AEFBDDE9002306460F4640464946F0
:107E40001AF05AFD5246804689465B46284621462E
:107E50001AF052FD02460B46404649461AF098FB7E
:107E600002460B46304639461AF092FB02460B4654
:107E7000DDE902011AF08CFB05B0BDE8F08F164B6E
:107E8000164FCDE902230026CAE71049002005B0AD
:107E9000BDE8F08FAFF30080D43888BEE9FAA8BD02
:107EA000C4B1B4BD9EEE213EAD529C804F7E923E49
:107EB0009015CB19A001FA3E7751C1166CC1563FFF
:107EC0004C5555555555A53F0000E03F0000F03F8B
:107ED0003233D33F0000E93F0000E73F0000D23FCC
:107EE0002DE9F04FADF5197D9C4CA29E9C4D54F8A8
:107EF000264005942646D41E85FB0475E417C4EB82
:107F0000A50424EAE4741D460893631CA3EB8303D1
:107F1000013D02EBC30304932B4609940295651BB4
:107F2000F418039006911AD42C4401340DF178080A
:107F300000260027DDF88C9208E059F825001AF099
:107F400075FC0135A542E8E9020108D0002DF4DAFC
:107F5000013530463946A542E8E90201F6D1059BD4
:107F6000002B2EDB089B4FEAC309039BA9F10808ED
:107F7000984420AB9944059B70AA02EBC30B0DF506
:107F8000DC7A029B002BC0F20F83039B4D46A3F1CA
:107F900008040026002775E90223F4E902011AF01B
:107FA000ABFC02460B46304639461AF0F3FA44451C
:107FB00006460F46EFD1EAE90267DA4509F10809FA
:107FC000DFD10598089A009000F18043013B9B00A7
:107FD0000CAC191F234402F100520B93039B013A8E
:107FE00021440A9103EBC20B009A98A901EBC2034A
:107FF000002A53E9284513462BDD01EBC308A8F1FD
:10800000A8080DF12C090DF5DC7A0022554B20460D
:1080100029461AF071FC1AF01FFF1AF007FC002223
:10802000514B06460F461AF067FC02460B462046A7
:1080300029461AF0ADFA1AF00FFF78E8022349F842
:10804000040F394630461AF0A5FAD04504460D46CD
:10805000DBD1DDF81090204629464A4601F05CF855
:1080600000224FF07F5304460D461AF045FCFCF702
:10807000EFFE00223D4B1AF03FFC02460B46204625
:1080800029461AF085FA0D4604461AF0E5FE8046A8
:108090001AF0CCFB0B460246294620461AF078FA25
:1080A0004B46002B06460F4640F3F780009A0CA97A
:1080B000013AC9F1180351F8225045FA03F101FAC7
:1080C00003F30CA8EB1A40F82230C9F117058844D5
:1080D00043FA05F5002D63DD009B002B08F1010834
:1080E00040F381820C9C002C00F0188301200023B7
:1080F0000CAAC4F1807442F82340009A824219DD30
:108100000CAA0CAC52F820106FF07F42511A44F8C0
:1081100020100099023399420CDD1046009A0CA9F8
:1081200001EB830301EB82011A68821A43F8042BE6
:108130008B42F9D1049B002B1ADD049B012B4FF0DD
:10814000010440F05882009B5A1E0CAB0CA953F856
:108150002230C3F3160341F8223058E27090020037
:10816000ABAAAA2A0000703E000070410000204027
:10817000022D15D132463B46002097491AF008FAE5
:1081800006460F46049A9449002000F0C5FF0246B7
:108190000B46304639461AF0FBF9022506460F46D3
:1081A00000220023304639461AF00EFE002800F067
:1081B0005282009A059B501E83420FDC02F18043DD
:1081C000013B0CAA0B9C02EB8303002253F8041919
:1081D000A34242EA0102F9D1002A6FD1059B0CAA01
:1081E000013B52F82330002B40F033820A9A0123DE
:1081F00052F8041901330029FAD0009AD31802F179
:10820000010A9A4507933DDC009B0899099A0B44A3
:1082100007990AEB0208994620AB08F1804803EB66
:10822000C9098B18A39A08F1FF3802EB880870AAD5
:1082300002EBCA0AA39A02EB8303009358F8040FD7
:108240001AF0F4FA029B002BE9E802011DDB039B04
:108250004D46A3F108040026002775E90223F4E93E
:1082600002011AF049FB02460B46304639461AF025
:1082700091F95C4506460F46EFD1009B9845EAE828
:108280000267DBD1079B0093AEE6009B0026002728
:108290009845EAE80267D1D1F4E706D1009B0CAA21
:1082A000013B52F82350ED1514E700224B4B1AF016
:1082B000A9FD002840F08281054671E70CA90295CE
:1082C00051F820300499CDF81C80183902460090EE
:1082D00004916BB900F18043013B0CA800EB8303D0
:1082E00053F80409013A18390028F9D00092049192
:1082F000049A3949002000F00FFF009B002B044630
:108300000D46C0F20382DA0070A901EB020B049261
:108310000CAA02EB8306DFF8C8900BF108070436BD
:108320004FF0000856F8040D1AF080FA22462B464A
:108330001AF0E2FA4B4667E9020142462046294616
:108340001AF0DAFA0CAB9E4204460D46EAD10DF55E
:10835000907ACDF80CA0DDF814A04FF00009BAF126
:10836000000FC0F23D81DFF87C805D4618A1D1E9A5
:10837000000100260027002403E04C4510DCF8E84B
:108380000201F5E802231AF0B7FA02460B4630461E
:1083900039461AF0FFF80134A24506460F46ECDADA
:1083A000039B03EBC903ABF1080BC3E900676EAB9A
:1083B0005B4509F10109D2D1A29BDDF80CA0032B8A
:1083C00000F28B80DFE813F0D100900090001000E5
:1083D00000000040FB21F93F0000F03F0000E03FBB
:1083E0000000703E506C0200009B002B40F3A48103
:1083F000049B0AEB0308D8E90067D34658E9029AC0
:1084000032463B46484651461AF0C4F804460D46EB
:1084100002460B46484651461AF0BAF832463B46E9
:108420001AF0B8F8C8E9000168E90245C3452646D4
:108430002F46E3D1009B012BDA4640F37D81049B5C
:108440005B44D3E90067984699460DF5947B59E95A
:1084500002343246184621463B46CDE900011AF067
:1084600099F804460D4602460B46DDE900011AF074
:108470008FF832463B461AF08DF8C9E9000169E9E8
:108480000245CB4526462F46E1D1002308F10808D6
:108490001D464CAC1846294678E902231AF07AF8B2
:1084A000444503460D46F5D1029A002A00F020818A
:1084B000DAF80440DAF80C20069FDAF80010DAF84F
:1084C00008003B6105F1004504F1004402F100425F
:1084D0007D617C60FA603960B860079B03F007003B
:1084E0000DF5197DBDE8F08F049C00260834544436
:1084F00033463046194674E902231AF04BF85445C6
:1085000006460B46F5D1029A30461946002A00F07D
:10851000DA80069803F10044324644600660DAE9E6
:1085200000011AF035F80B460099002902460EDDCD
:10853000012410461946FAE902231AF02BF80B46DB
:1085400000990134A1420246F3DA029909B103F11C
:1085500000431946069B1046C3E90201079B03F03E
:1085600007000DF5197DBDE8F08F049C002208344A
:10857000544413461046194674E902231AF00AF8C7
:10858000A24502460B46F5D1029909B103F1004319
:108590001946069B1046C3E90001079B03F007003C
:1085A0000DF5197DBDE8F08F00260027EAE9026786
:1085B000DA4509F108097FF4E4AC02E5009B002BE1
:1085C00008F10108C8BF02253FF78CAD32463B4693
:1085D0000020634919F0DCFF022506460F46DFE55F
:1085E00000260027DCE6049B002B26DD0024049BEC
:1085F000012B3FF4A8AD022B09D1009B5A1E0CABF6
:108600000CA953F82230C3F3150341F82230022D90
:108610007FF4C6AD32463B460020514919F0B8FF01
:1086200006460F46002C3FF4BBADABE50099013385
:10863000994278D1049B002BD9DC022D7FF4B0AD98
:1086400032463B460020464919F0A2FF06460F4637
:10865000A6E50123D1E53946049F02957A423046CA
:10866000CDF81C8000F058FD00223E4B04460D461C
:108670001AF0C8FB002862D000223B4B2046294656
:108680001AF03AF91AF0E8FB06461AF0CFF8002281
:10869000344B1AF031F902460B462046294619F0B0
:1086A00077FF1AF0D9FB00990B4601331A46009365
:1086B0003B46183304930B460CA941F8230013469C
:1086C00041F8236014E6069B3246C3E900010B46DD
:1086D000DAE9000119F05CFF0B4600990029024617
:1086E0003FF726AF1946069B1046C3E9020135E75E
:1086F00018462946DAE90023DAE90245069FC7E968
:108700000401C7E90023C7E90245E6E6A29B032B63
:108710003FF6E3AEDFE803F0211C1C0E009B012BAB
:1087200088DD0CAA012352F8044F002C3FF47EAFE1
:10873000581CDDE40DF5907A00231D46B4E6294669
:1087400020461AF089FB009A0CA941F82200CFE5D7
:10875000002633460DF5907AD5E60022134613E73E
:108760000000F03F000070410000703E000000007B
:108770002DE9F04F21F00046B6F1795F85B00C4647
:1087800090469946054604DA1AF066FB002800F088
:1087900085802A462346284621461AF0ADF806462B
:1087A0000F4602460B46284621461AF0A5F83EA37E
:1087B000D3E9002382468B46304639461AF09CF8AE
:1087C0003BA3D3E9002319F0E3FE32463B461AF0FF
:1087D00093F839A3D3E9002319F0DCFE32463B4677
:1087E0001AF08AF836A3D3E9002319F0D1FE3246F5
:1087F0003B461AF081F834A3D3E9002319F0CAFEEE
:108800000E9BCDE900019BB30022334B4046494605
:108810001AF072F8DDE90023CDE90201504659460D
:108820001AF06AF802460B46DDE9020119F0B0FEC3
:1088300032463B461AF060F842464B4619F0A8FE15
:1088400023A3D3E9002306460F46504659461AF0A3
:1088500053F802460B463046394619F09BFE024655
:108860000B462846214619F093FE05B0BDE8F08F6F
:1088700002460B46304639461AF03EF814A3D3E9B7
:10888000002319F085FE52465B461AF035F82A4659
:10889000234619F07FFE05B0BDE8F08F284621463B
:1088A00005B0BDE8F08F00BF7CD5CF5A3AD9E53D81
:1088B000EB9C2B8AE6E55A3E7DFEB157E31DC73E91
:1088C000D561C119A0012A3FA6F810111111813FED
:1088D000495555555555C53F0000E03F0000000083
:1088E0002DE9F04FDA4C21F00046A64287B08A46C7
:1088F00089461746984683461ADC1AF0ADFAA8BB9B
:108900005B461E43109B0133334300F0A981109B4B
:10891000012B00F0B9815A4653460020CD491AF088
:1089200015F904460D462046294607B0BDE8F08FEC
:10893000C94B9E421ADD0029C0F29F815A46534618
:10894000A5A1D1E9000119F023FE3A4643460446A9
:108950000D46A3A1D1E9000119F01AFE22462B46CB
:1089600019F018FE002783468A46B8465A465346F1
:108970005846514619F0C0FF03460C46CDE9003475
:1089800002460B4619F0B8FFDDE9002304460D4608
:108990005846514619F0B0FF93A3D3E90023CDE91F
:1089A00002012046294619F0A7FF91A3D3E900232D
:1089B00019F0F0FD22462B4619F09EFF8EA3D3E955
:1089C000002319F0E7FD22462B4619F095FF8CA3F2
:1089D000D3E9002319F0DEFD22462B4619F08CFF67
:1089E00089A3D3E9002319F0D5FD22462B4619F0BF
:1089F00083FF87A3D3E9002319F0CCFDDDE9002331
:108A000019F07AFF84A3D3E90023CDE904012046BD
:108A1000294619F071FF82A3D3E9002319F0BAFDAA
:108A200022462B4619F068FF7FA3D3E9002319F0F3
:108A3000B1FD22462B4619F05FFF7DA3D3E9002349
:108A400019F0A8FD22462B4619F056FF7AA3D3E968
:108A5000002319F09FFD22462B4619F04DFF78A305
:108A6000D3E9002319F096FD02460B46DDE9040127
:108A700019F090FDDDE9022319F03EFF3A46434626
:108A800019F088FDDDE9002319F036FF02460B4698
:108A90003846414619F07EFD6BA3D3E90023044616
:108AA0000D46DDE9020119F027FF22462B4619F099
:108AB00071FD0B46024651465846CDE9002319F098
:108AC00069FD654B9E4204460D463EDC109B012B22
:108AD00036D002460B4600205E491AF037F80024D3
:108AE0000F4606465A4653462046294619F050FD81
:108AF000A04602460B46DDE9000119F049FD424659
:108B00003B4619F0F9FEA94604460D4642463B464F
:108B10004046494619F0F0FE0022504B19F03AFD4C
:108B200002460B462046294619F034FD32463B46A4
:108B300019F0E2FE42463B4619F02CFD04460D4674
:108B40002046294607B0BDE8F08F109819F06EFE58
:108B5000224606460F462B462046294619F0CCFEF3
:108B60003246CDE902013B462046294619F012FD66
:108B700002460B46DDE9020119F0E8FFDDE90023BA
:108B800019F006FD02460B465846514619F000FD05
:108B900002460B4619F0FEFC02460B4630463946AB
:108BA00019F0F6FC04464FEAA97000F00200C0F18B
:108BB00001000D4619F03AFE02460B4620462946B2
:108BC00019F09AFE04460D462046294607B0BDE836
:108BD000F08F00BFAFF30080182D4454FB21E93F14
:108BE000075C143326A6813CD47ABF74702AFB3EFE
:108BF000E9A7F0320FB8123F68108D1AF726303F00
:108C00001583E0FEC8DB573F93846EE9E326823F7D
:108C1000FE41B31BBAA1AB3F735360DBCB75F3BE10
:108C2000A69237A0887E143F0165F2F2D844433FF4
:108C3000280356C9226D6D3F37D60684F464963FEB
:108C40007AFE10111111C13F635555555555D53F49
:108C5000FFFF2F3E0000F0BF2794E53F0000F03FEC
:108C6000584651461AF0C2FB02460B4600200849FE
:108C700019F06CFF04460D4662E701F1004308F16C
:108C8000004883469A4659E65C46554658E700BF79
:108C90000000F03F000000002DE9F04FD24A21F023
:108CA0000043934285B00C460E4605462DD9CF4A67
:108CB00093421AD8002E80F21681B5A3D3E900237F
:108CC0002846214619F066FC002200231AF086F897
:108CD000C0B9B1A3D3E900232846214619F00CFE00
:108CE00002460B460020C24908E1C24A934240F2C4
:108CF000D0800346C1F31302134340F0F6810029EC
:108D000080F2C4800020BC49C0E0BC4A934200F21B
:108D10002981BB4A934240F2DE8000230193002266
:108D2000B84B2846214619F0E7FD06460F46024695
:108D30000B462846214619F0DFFD99A3D3E900230D
:108D400082468B4619F0D8FD97A3D3E9002319F08A
:108D500021FC52465B4619F0CFFD95A3D3E90023D1
:108D600019F016FC52465B4619F0C6FD92A3D3E9F2
:108D7000002319F00FFC52465B4619F0BDFD90A38D
:108D8000D3E9002319F004FC52465B4619F0B4FD08
:108D900000229D4B19F0FEFB8046894602460B4699
:108DA0003046394619F0A8FD02460B460020974987
:108DB00019F0EEFB064602460B460F464046494672
:108DC00019F0E6FB3246804689463B462846214656
:108DD00019F092FD02460B4600208D4919F0D8FB90
:108DE00002460B464046494619F0B0FE52465B46E5
:108DF00019F082FD019E02460B46002E38D0DDE9B7
:108E0000026732463B4619F0C3FB2A46234619F057
:108E100073FD32463B4619F0BBFB5B46524619F0E8
:108E2000B7FB019B013306460F4600F00F81019B03
:108E3000012B00F0F180019B0133392B39D8019BC4
:108E4000132B40F31281019FC7F57F760336002272
:108E5000330519F09FFB02460B462846214619F0C0
:108E600097FB0022684B19F095FB01EB07510DE0D1
:108E70002846214619F040FD52465B4619F088FB12
:108E800002460B462846214619F082FB05B0BDE894
:108E9000F08F4DA3D3E9002319F0BEFF00283FF463
:108EA00009AF4BA3D3E900231046194619F024FD5E
:108EB000ECE72A46234619F06BFB02460B460020DE
:108EC000514919F065FB019A4F4B01EB0251002209
:108ED00019F05EFBDAE73EA3D3E9002319F05AFB51
:108EE00002460B46CAE72CA3D3E9002328462146B5
:108EF00019F002FD0B4643490246002019F04AFBD7
:108F000019F0AAFF019019F091FC33A3D3E90023D3
:108F100006460F4619F0F0FC02460B46284621464D
:108F200019F036FB2EA3D3E900238046894630464C
:108F3000394619F0E1FC06460F4632463B464046AC
:108F4000494619F025FB02460B4605460C464046AD
:108F5000494619F01DFB32463B4619F019FBCDE995
:108F60000201DCE62B4A934200F2978000291AA303
:108F7000D3E90023C0F2AE8019F00AFB012380463A
:108F80008946019316A7D7E90067D6E7AFF30080BB
:108F900059F3F8C21F6EA501FE822B654715F73FF6
:108FA0002DC3096EB7FD8ABE3952E686CACFD03EC0
:108FB000B7DBAA9E19CE143F8555FE19A0015A3F72
:108FC000F41011111111A13FEF39FAFE422E864023
:108FD0009C7500883CE4377E0000E0FE422EE63FB0
:108FE000763C7935EF39EA3D79684340412E864039
:108FF0000000E0BFFFFFEF7F0000F0BF422ED63F32
:10900000FFFF8F3C0000E03F0000F03F0000084001
:1090100000001840B1A2F03F2846214600223A4BFA
:1090200019F0DCFE002846D0284621460022374BA6
:1090300019F0B0FA02460B463046394619F0A8FA44
:1090400000224FF0404319F057FC1FE732463B46E1
:109050002846214619F09CFA00222C4B19F04CFCB2
:1090600000222A4B19F094FA10E7019E4FF4001EDB
:109070004EFA06FE2A462346CEF17F5719F088FAAB
:10908000002607F5401702460B463046394619F0D0
:109090007FFA019E01EB0651F8E617A3D3E90023FE
:1090A00019F02AFC002C02460B464FF00000FFF698
:1090B0001AAE164922E732463B462846214619F0A9
:1090C00067FA02460B4619F065FA0022104B19F0B8
:1090D00061FADBE619F05EFA4FF0FF33804689460D
:1090E000019307A7D7E9006727E702460B4619F067
:1090F00051FACBE6AFF30080FE822B654715F73FB0
:10910000763C7935EF39EABD0000D0BF0000E03F82
:109110000000F03F00000000F8B5C1F30A56044615
:109120000D460B4617460EBB21F00043034386460F
:1091300025D00022344B19F0DFFB344A9742044615
:109140000D460B462ADBC1F30A56363E3E4440F23A
:10915000FE72964228DC002E12DD23F0FF4323F43A
:10916000E00343EA065520462946F8BD40F2FF7267
:109170009642EBD102460B4619F00CFAF8BDF8BD49
:1091800016F1350F1DDA4CF250339F4222462B4622
:1091900025DC19A1D1E900011CF03EFC16A3D3E99E
:1091A000002319F0A9FBF8BD22462B4614A1D1E9F2
:1091B00000011CF031FC12A3D3E9002319F09CFB41
:1091C000F8BD23F0FF4323F4E003363643EA0655A7
:1091D0002046294600220E4B19F08EFBF8BD08A14F
:1091E000D1E900011CF018FC05A3D3E9002319F014
:1091F00083FBF8BDAFF3008059F3F8C21F6EA501E1
:109200009C7500883CE4377E00005043B03CFFFF73
:109210000000903C10B5054C237833B9044B13B1D2
:109220000448AFF300800123237010BD30020020FA
:1092300000000000FC9102000C4B43B10C480D49AA
:1092400010B5AFF300800C48036823B910BD0A487D
:10925000036833B97047094B002BF7D0BDE81040C5
:109260001847064B002BF5D0184700BF0000000040
:10927000FC91020034020020FC910200000000007A
:1092800070B504460E4600F0BBFA88B10368DB6A8D
:1092900005469847082C0CD0A4F10903012B14D9DA
:1092A0003246214610230D20BDE8704004F02EB94F
:1092B00070BD2B6828465B6A98470228F0DC2B6853
:1092C00028461B6A04219847EAE72B6828465B6A10
:1092D00098470528E4DC2B6828461B6A0821984734
:1092E000DEE700BF30B52DED028B83B0054600F000
:1092F00087FA044640B10368DB6A9847032D50D8CB
:10930000DFE805F0373F47080190019803B0BDEC56
:10931000028B30BD20460EF071FA07EE900A20460F
:10932000F8EEE78A0EF07AFA07EE900A2046B8EED9
:10933000E78A0EF083FA68EE087A07EE100AE8EE84
:10934000A87AB8EEC77AE7EE077AF5EE407AF1EE42
:1093500010FAB1EEE78A03D517EE900A1AF0E6FF8D
:10936000FDEEC87ACDED017A019803B0BDEC028B19
:1093700030BD204603B0BDEC028BBDE830400EF09E
:109380003DBA204603B0BDEC028BBDE830400EF084
:1093900045BA204603B0BDEC028BBDE830400EF06C
:1093A0004DBA00230193B0E738B5054600F028FA1E
:1093B00058B10368DB6A0446984745B1012D04D1D2
:1093C0002046BDE83840FBF77BB9002038BD204679
:1093D000BDE83840FBF754B910B5044600F010FA68
:1093E00028B1036821461B6ABDE81040184710BD2C
:1093F0000048704716FCFFFF704700BF10B5034BD5
:10940000036004460DF0DAFF204610BD68810200BB
:1094100010B5054B036004460DF0D0FF20461CF04C
:1094200097FF204610BD00BF688102002DE9F04380
:10943000B14F3C6885B01CB1204605B0BDE8F08353
:109440004FF0FF31012001F025FD04F019FF002845
:1094500000F04F810C201CF07DFF032105465120B8
:1094600001F018FDDFF8B4E2A44B064606F00F0841
:10947000C6F3031916F4807618BF7346A048414618
:109480004A460DF057F9321C18BF01224B4641469F
:10949000284613F06BFB9B48AC600DF04BF94FF086
:1094A000FF31032001F0F6FC04F0EAFE4FF0FF313B
:1094B0000446022001F0EEFC04F0E2FE002C00F075
:1094C000F180002800F0EE800146204604F0F2FC16
:1094D0000646002800F009814FF0FF31462001F0D8
:1094E000D9FCA0F130038046382B00F2AF80DFE8D2
:1094F00003F093AD93ADADADADAD79AD61AD45AD1F
:10950000ADADADADADADADADADADADADADADADAD8B
:10951000ADADADADADADADADADADADADADADADAD7B
:10952000ADADADADADADADADADAD1D004FF0FF31ED
:10953000012001F0AFFC04F0A3FE80464C201CF09B
:1095400009FF4FF0050E682304468DE808404246A7
:1095500031462B4611F034F92046A86003689B6A17
:109560009847A8680368DB6A984767480DF0E2F8F7
:109570002C4620463D6005B0BDE8F0834FF0FF313A
:10958000012001F087FC04F07BFE04462C201CF037
:10959000E1FE224631463C23804610F001F83C2093
:1095A0001CF0D8FE4146044605232A4610F0EEF88A
:1095B0002046D2E74FF0FF31012001F06BFC04F0B0
:1095C0005FFE804644201CF0C5FE4FF0050E3A2396
:1095D00004468DE80840424631462B4611F048F8D3
:1095E0002046BAE74FF0FF31012001F053FC04F0B0
:1095F00047FE804644201CF0ADFE4FF0050E382398
:1096000004468DE8084042462B46314611F030F8BA
:109610003E4B23602046A0E74FF0FF31012001F0D0
:1096200039FC04F02DFE81464C201CF093FE1FFAFD
:1096300088F34FF0050E044600934A463146CDF8B4
:1096400004E02B4610F09EFE204686E73268012497
:10965000002301940094D2F82080AB600F220DF11A
:109660000F0332213046C04778BB4FF032084146E5
:1096700027480DF05FF84FF0FF31012001F00AFCA0
:1096800004F0FEFD81464C201CF064FE05230446D8
:1096900001934A46CDF8008031462B4610F072FE09
:1096A00020465AE71B480DF045F84FF0FF311920CE
:1096B00001F0F0FB04F0E4FD4FF0FF310446182008
:1096C00001F0E8FB04F0DCFDFEE633680194009451
:1096D000D3F820800F220DF10F0330213046C04710
:1096E000F0B94FF030084146C2E70B480DF022F8C0
:1096F0003EE73C68A0E600BF4C020020DC6C0200A4
:10970000E46C0200046D02009C6D0200A06C02007B
:10971000C06D0200146D0200286D0200D46C0200BE
:10972000336801940094D3F820800D220DF10F03CB
:1097300038213046C04738B938212D480CF0FAFF9F
:1097400020464FF0FF3150E7336801940094D3F87E
:1097500020800D220DF10F033C213046C04738B95F
:109760003C2123480CF0E6FF20464FF0FF3108E78C
:10977000336801940094D3F820800D220DF10F037B
:109780003A213046C04738B93A2119480CF0D2FF87
:1097900020464FF0FF3110E7326801940094D2F870
:1097A00020800DF10F03752268213046C04738B97B
:1097B00068210F480CF0BEFF20464FF0FF31B8E69D
:1097C0000C480CF0B7FFA86800287FF4C7AE4FF034
:1097D000FF31032001F05EFB04F052FD18B1064892
:1097E0000CF0A8FFC4E605480CF0A4FFC0E600BFDB
:1097F000C06D0200AC6D0200406D02007C6D020085
:1098000008B5FFF713FE00B1806808BD08B501F088
:1098100069FCFBF7E1FDBDE8084001F0CFB900BFEE
:1098200008B501F05FFCFBF747FEBDE8084001F01A
:10983000C5B900BF08B501F055FC19F04DFEBDE8F3
:10984000084001F0BBB900BF08B501F04BFC1AF0AD
:10985000BFFBBDE8084001F0B1B900BF08B501F099
:1098600041FCFBF7C9FDBDE8084001F0A7B900BF06
:1098700008B501F037FC1AF061F8BDE8084001F0C6
:109880009DB900BF08B501F02DFCFBF705F8BDE858
:10989000084001F093B900BF08B501F023FC19F0AE
:1098A000A1FFBDE8084001F089B900BF70B5049E72
:1098B00096420C4628DB15466BB1002A00EB0201EC
:1098C00007DD2046A21811F8013D00F8013B904247
:1098D000F9D1002070BD042A0FD0022A02D110F065
:1098E000010306D001462A46204607F06BF8002007
:1098F00070BD02880A80184670BD10F00303F1D1D4
:1099000002680A60184670BD0846002108F03CFA5B
:109910004FF0FF3070BD00BF0830704740B10029E4
:1099200005DB4368994202DA0844007A7047002058
:10993000704700BF30B1002904DB43689942BCBFC7
:1099400040180272704700BF40B1002905DB436830
:10995000994202DA0844007A70470020704700BF3D
:10996000830705D120B1030F0CBF012000207047F1
:109970000120704730B1002904DB43689942BCBF25
:1099800040180272704700BF002B23DB002921DB47
:1099900070B54668B1421ADC5568761A1446EA1A60
:1099A000B242A8BF3246002A11DB84420D4607D0DE
:1099B000083408300844E11807F004F8002070BDAE
:1099C0000834E11860191CF0FFFC002070BD4FF056
:1099D000FF3070BD4FF0FF30704700BF40687047E8
:1099E00010B4141E10DB426894420DDC33EA2303EA
:1099F00028BF1346121B08309A422044A8BF1A46BB
:109A00005DF8044B08F0C0B95DF8044B704700BF27
:109A100043688B4210B400F108041846A8BF0846FA
:109A200032EA220128BF19461B1A99422044A8BFD6
:109A300019465DF8044B00F0B7BE00BF002BBCBF59
:109A400043689B1A002A70B50E4622DB44689918B9
:109A5000A1421EDC8A421CDCDBB136F0004118D08A
:109A600059428E4213DDB34211DD0830002E00EB67
:109A7000020516DB9C1B2246A91928461CF0A4FCF3
:109A8000324628190021BDE8704008F07DB9002C4D
:109A900000DA70BD224608300021BDE8704008F0B1
:109AA00073B974429A19294628191CF08DFC224674
:109AB00028460021BDE8704008F066B9034608302A
:109AC000596800F0F1BD00BF70B504460020616820
:109AD000490000F065FD6668002E11DD094D04F1B6
