:020000040002F8
:1060000000000420C5BB0300EDBB0300EFBB030091
:10601000F1BB0300F3BB0300F5BB0300000000006D
:10602000000000000000000000000000F7BB0300BB
:10603000F9BB030000000000FBBB0300FDBB030035
:10604000FFBB0300FFBB030065BA030029BA0300CE
:106050003DBA0300FFBB0300A5A80300FFBB03007C
:10606000BDB60300C5B60300CDB60300FFBB0300F9
:10607000FFBB0300FFBB0300FFBB0300FFBB03002C
:10608000FFBB0300FFBB0300FFBB0300FFBB03001C
:10609000FFBB0300FFBB0300FFBB0300FFBB03000C
:1060A000FFBB0300FFBB0300D5B60300DDB6030052
:1060B000FFBB0300FFBB0300000000000000000066
:1060C000FFBB0300FFBB0300FFBB030051BA03008B
:1060D000FFBB0300FFBB0300FFBB0300FFBB0300CC
:1060E0008DBA0300FFBB0300FFBB030000000000EC
:1060F00000000000FFBB03000000000079BA0300AD
:10610000000000000000000000000000000000008F
:10611000000000000000000000000000000000007F
:10612000000000000000000000000000000000006F
:10613000000000000000000000000000000000005F
:10614000000000000000000000000000000000004F
:10615000000000000000000000000000000000003F
:10616000000000000000000000000000000000002F
:10617000000000000000000000000000000000001F
:10618000000000000000000000000000000000000F
:1061900000000000000000000000000000000000FF
:1061A00000000000000000000000000000000000EF
:1061B00000000000000000000000000000000000DF
:1061C00000000000000000000000000000000000CF
:1061D00000000000000000000000000000000000BF
:1061E00000000000000000000000000000000000AF
:1061F000000000000000000000000000000000009F
:106200007CB0EE877CB0EE87FF00FF00FF00FF0050
:10621000FF00FF00FF00FF00FF00FF00FF00FF0086
:10622000FF00FF00FF00FF00FF00FF00FF00FF0076
:10623000FF00FF00FF00FF002DE9F04F85B0039144
:106240000778A7F10903042B044607F07F0200F149
:106250000100F5D9202AF3D02B2F04BF677804461C
:106260002D2F72D09FED427B8DED007B4FF000080B
:106270004FF000098FB34FF0000E4FF0000ADFF827
:1062800000B1754619E018F00DFD8046894630468C
:1062900018F0A2FC42464B4618F052FB524680468C
:1062A00089465B46DDE9000135B318F025FECDE9EE
:1062B0000001AE4614F8017F7FB1A7F13006092E28
:1062C00052465B4640464946DDD9C5B92E2F16D108
:1062D00014F8017F0125002FEFD142464B46DDE93E
:1062E000000118F0DFFC80468946039B4046494682
:1062F0001C6005B0BDE8F08F4FF0010EDAE7BEF18B
:10630000000F29D042464B46DDE9000118F0CAFCD7
:1063100007F0DF07452F80468946E6D10399601CC8
:106320000A2218F0F1FA16490246002019F01AF86C
:1063300002460B464046494618F0B4FC8046894662
:106340004046494605B0BDE8F08F9FED0B7B67786E
:106350008DED007B013489E7DFF828904FF00008CD
:106360004046494605B0BDE8F08F00BFAFF300805E
:10637000000000000000F03F000000000000F0BF3F
:10638000000024400000F87F2DE9F84F1646002356
:10639000002204460D4618F0F7FE002840F09D80CC
:1063A000002200232046294618F0E4FE28B13022BE
:1063B000002332707370BDE8F88F2046294616F02E
:1063C000F3FC18F01FFF7BA3D3E900238146294685
:1063D000204618F0D9FE002800F08680B9F1000FA1
:1063E000C0F2BE804A4600206F4918F0BBFF02464B
:1063F0000B462046294618F07FFD04460D4666A14F
:10640000D1E9000101274FF0000822462B4618F081
:1064100049FC0022654B18F093FA18F0DFFF002FBB
:10642000CC464FF0FF3AC1464FF0000840F385805C
:10643000DFF888E15E4C0122AEF1700945F6F325E4
:106440004FF02E0BA94208BFA0424FF0300309D3F2
:10645000001B61EB0501A94208BFA04203F1010343
:10646000F6D2DBB2337050EA010306F1010409D120
:10647000BA4210DACE4502F101020CD026467EE87F
:106480000245DFE7BA4204BF86F801B0B41CCE452E
:1064900002F10102F2D1B8F1000F0DD022463021F5
:1064A00002F8011BC2F1010353442344002BF7DC23
:1064B0002AEAEA7301331C44BCF1010F4CD0652376
:1064C000BCF1000F2370C5BF2B236370611CA11C9E
:1064D0006046BDE8F84F0EF02FBA05F100431D46A7
:1064E0002D23337001365BE72DA3D3E9002320462B
:1064F000294618F067FE00287FF470AFB9F10E0F3F
:1065000009F101073DDDA9F10E08424600202649A8
:1065100018F028FF02460B462046294618F0ECFCEE
:106520000022224B18F00CFA18F058FF002FA9F1A6
:106530000F0A4FF0010C3FF77BAF334630222E2479
:1065400003F8022B74707FEA090618D01E4403F882
:10655000012BB342FBD16BE700232370BDE8F88F1A
:10656000C9F100020020104918F0FCFE02460B465B
:106570002046294618F096FB04460D463FE71E4686
:1065800056E7C9F10E0200200749C84618F0EAFE96
:106590004FF0010939E700BF0000901EC4BCD6428D
:1065A00050EFE2D6E41A4B44000024400000E03FE4
:1065B00000407A108DEDB5A0F7C6B03EF8FE03009E
:1065C00070B54FF0FF3006F0D7F904466FF07F400A
:1065D00006F0D2F90646204618F0EEFA00220C4BDF
:1065E00018F060FB044630460D4618F0E5FA06A3A5
:1065F000D3E9002318F080FC02460B4620462946CA
:1066000018F09EF970BD00BF0000E0DFFFFF6F4390
:106610000000F03D0000000008B50FF073FCDFED56
:106620000C7A07EE100A67EE277A17EE900A18F038
:10663000E5FA05A3D3E9002318F05EFC18F0E2FDAB
:1066400008BD00BFAFF30080EA2E4454FB2119407F
:106650000000B4430000000008B50FF067FCDFED58
:106660000C7A07EE100A67EE277A17EE900A18F0F8
:10667000C5FA05A3D3E9002318F03EFC18F0C2FDCB
:1066800008BD00BFAFF30080EA2E4454FB2119403F
:106690000000B44300000000494A21F00043934247
:1066A0002DE9704304460D464BDC464A93420E46A4
:1066B0000EDC3FA3D3E9002318F042F90022424B3D
:1066C00018F080FD00284CD020462946BDE8708394
:1066D0003E4A93423BDCB3F1804F42DD15F05EFF52
:1066E0002246804689462B462046294618F0DAFA8B
:1066F0000022354B18F024F916F008FF02460B462D
:106700004046494618F01CF902460B4600202E4927
:1067100018F0F2FB424604460D464B4640464946B9
:1067200018F00EF902460B462046294618F008F9E3
:1067300002F06AF8002EC9DC01F100431946BDE8F9
:10674000708302460B4618F0FBF8BDE8708315F025
:1067500025FF02F059F818A3D3E9002318F0F0F848
:10676000E8E722462B462046294618F09BFA804649
:1067700089462046294615F011FF002204460D46A1
:10678000114B4046494618F0DBF816F0BFFE0022D8
:106790000D4B18F0D5F802460B464046494618F016
:1067A000ABFB22462B4618F0CBF800F0C5FAC1E748
:1067B0009C7500883CE4377EEF39FAFE422EE63FB6
:1067C000FFFFEF7FFFFF2F3E0000F03F0000B041D2
:1067D0002DE9F84FC44B21F000469E4204460D4679
:1067E0008A460EDDC14B9E4200F3AC8000F0A780CC
:1067F000BAF1000F40F3EA809FA1D1E90001BDE8A2
:10680000F88FBB4B9E4200F3B580A3F1DE739E422E
:1068100040F3A0804FF0FF3B22462B4620462946FE
:1068200018F040FA02460B468046894618F03AFABC
:1068300093A3D3E9002306460F4618F033FA92A338
:10684000D3E9002318F07CF832463B4618F02AFAC8
:106850008FA3D3E9002318F073F832463B4618F0B3
:1068600021FA8DA3D3E9002318F06AF832463B469B
:1068700018F018FA8AA3D3E9002318F061F8324619
:106880003B4618F00FFA88A3D3E9002318F058F814
:1068900042464B4618F006FA85A3D3E9002380460A
:1068A00089463046394618F0FDF983A3D3E9002321
:1068B00018F044F832463B4618F0F4F980A3D3E9C7
:1068C000002318F03BF832463B4618F0EBF97EA364
:1068D000D3E9002318F032F832463B4618F0E2F9CB
:1068E0007BA3D3E9002318F029F832463B4618F081
:1068F000D9F9BBF1FF3F02460B466CD040464946F2
:1069000018F01EF822462B4618F0CCF9794E7A4B37
:106910004FEACB0B5E449B44DBE9002318F00EF8F2
:1069200022462B4618F00AF802460B46D6E900012B
:1069300018F004F8BAF1000F43DBBDE8F88F002827
:106940003FF456AF22462B462046294617F0F8FF63
:10695000BDE8F88F60A3D3E9002317F0F1FF002210
:10696000664B18F02FFC00283FF454AF2046294610
:10697000BDE8F88F15F012FE614B9E4204460D46AD
:1069800039DCA3F550239E425EDC02460B4617F02D
:10699000D7FF0022594B17F0D1FF002206460F46C1
:1069A0004FF080432046294617F0CAFF02460B46A7
:1069B0003046394618F0A0FA4FF0000B04460D4659
:1069C0002AE701F100431946BDE8F88F44A1D1E957
:1069D0000001BDE8F88F4046494617F0B1FF224656
:1069E0002B4618F05FF902460B462046294617F061
:1069F000A5FFBDE8F88F434B9E421ADC0022424BB4
:106A000017F09CFF002206460F463F4B20462946C2
:106A100018F048F90022394B17F092FF02460B4656
:106A20003046394618F068FA4FF0020B04460D461E
:106A3000F2E602460B460020344918F05DFA4FF0AA
:106A4000030B04460D46E7E600222C4B17F076FFB9
:106A5000002206460F46294B2046294617F070FFB4
:106A600002460B463046394618F046FA4FF0010B05
:106A700004460D46D0E600BF182D4454FB21F93FD3
:106A800011DA22E33AAD903FEB0D76244B7BA93F20
:106A9000513DD0A0660DB13F6E204CC5CD45B73FEE
:106AA000FF8300922449C23F0D5555555555D53F9A
:106AB0002F6C6A2C44B4A2BF9AFDDE522DDEAD3F8E
:106AC0006D9A74AFF2B0B33F711623FEC671BC3F2E
:106AD000C4EB98999999C93F9C7500883CE4377E2E
:106AE000182D4454FB21F9BFFFFF0F440000F07F35
:106AF000FFFFDB3F08FF030028FF03000000F03F1B
:106B0000FFFFF23FFF7F03400000F83F0000F0BFAF
:106B10002DE9F843C1F30A59A9F2FF35132D0246B6
:106B20000B460C4606468846074622DC002D50DB05
:106B3000DFF8F09049FA05F901EA090E5EEA060667
:106B40001CD036A3D3E9002317F0FAFE002200235D
:106B500018F038FB48B1002C04DD4FF4801343FAE1
:106B600005F5A84428EA0904002721463846BDE86F
:106B7000F883332D06DDB5F5806F3DD010461946FC
:106B8000BDE8F883A9F213494FF0FF3E2EFA09F948
:106B900010EA090FF2D021A3D3E9002317F0D0FEA9
:106BA0000022002318F00EFB0028DED0002C09DDA7
:106BB000142D2BD00127C5F1340507FA05F5AE19C0
:106BC00028BFB844444626EA090721463846BDE8AE
:106BD000F88312A3D3E9002317F0B2FE00220023AA
:106BE00018F0F0FA0028C0D0002C0BDB54EA06079E
:106BF00006D00027084CB8E717F0A2FEBDE8F883DE
:106C00003C46B2E700274FF00044AEE704F101082C
:106C1000D8E700BFAFF300800000F03F9C7500880C
:106C20003CE4377EFFFF0F002DE9F041C1F30A5726
:106C3000A7F2FF35132D02460B460C468846064642
:106C40001CDC002D3FDB3A4F2F41864601EA070C42
:106C50005CEA0E0E17D034A3D3E9002317F070FEC0
:106C60000022002318F0AEFA20B1002C3FDB28EA06
:106C70000704002621463046BDE8F081332D06DDAD
:106C8000B5F5806F2FD010461946BDE8F081A7F208
:106C900013474FF0FF3E2EFA07F73842F3D022A3F6
:106CA000D3E9002317F04CFE0022002318F08AFAE3
:106CB0000028DFD0002C20DB444626EA07062146C8
:106CC0003046BDE8F08118A3D3E9002317F038FE61
:106CD0000022002318F076FA0028CBD0002C17DB16
:106CE00000263446C6E717F02BFEBDE8F0814FF4CE
:106CF000801343FA05F5A844B9E7142D10D00123F9
:106D0000C5F1340503FA05F5AE1928BF9844D3E759
:106D100024F00042074B324318BF1C460026A9E767
:106D200004F10108C8E700BF9C7500883CE4377E89
:106D3000FFFF0F000000F0BF2DE9F04FD84B994244
:106D400087B0804689460E4613DCD64B21F00044BE
:106D50009C4218DD0022D44B18F00CFA002879D0A0
:106D6000002200230020D14918F0C6F807B0BDE882
:106D7000F08FCF4B99422FDD42464B4617F0E0FD96
:106D800007B0BDE8F08FCB4B9C4270DDCA4B1E4470
:106D90009E427ED80022C94B4046494617F0D0FD9E
:106DA0004FEA215AAAF2FF3ABAF1000F04460D4603
:106DB0000E4640F3DE8142464B4617F0BFFD0246C9
:106DC0000B460020BD4917F0B9FD22462B4618F0AE
:106DD00093F8CDE902010BE0B94B9E42DADD9FED5D
:106DE0009A7B8DED027B4FEA265A4446AAF2FF3A7F
:106DF000B44BC6F313069E4246F07F5500F3E7807E
:106E000045F44015204629460022AC4B17F096FD6C
:106E1000002204460D46AC4B17F044FF22462B4699
:106E200017F040FFA046CDE90401A946CDE90001D5
:106E3000002E3AD1002200232046294618F09AF964
:106E4000002800F0CE80BAF1000F40F074810020DD
:106E5000002195E742464B464046314617F06EFD0D
:106E600002460B4618F048F807B0BDE8F08F002244
:106E7000964B17F065FD0022002318F0A3F90028B7
:106E800000F0CC80924B9C4200F3C88040464946BB
:106E900076E700228C4B17F005FF42464B4617F071
:106EA00001FFCDE900014FF0000A00224FF08043BE
:106EB0004046494617F044FD02460B4640464946C7
:106EC00018F01AF802460B4606460F4617F0EAFE7F
:106ED0005FA3D3E9002304460D4617F0E3FE5EA34B
:106EE000D3E9002317F02CFD22462B4617F0DAFEDB
:106EF0005BA3D3E9002317F023FD22462B4617F0AE
:106F0000D1FE59A3D3E9002317F01AFD22462B46E0
:106F100017F0C8FE56A3D3E9002317F011FD22464F
:106F20002B4617F0BFFE54A3D3E9002317F008FD4A
:106F300022462B4617F0B6FE51A3D3E9002317F0E3
:106F4000FFFC22462B4617F0ADFE04460D46BAF173
:106F5000000F00F0BF80504617F03EFE4AA3D3E971
:106F6000002382468B4617F09DFEDDE90023CDE924
:106F700004012046294617F0E3FC32463B4617F051
:106F800091FE43A3D3E9002304460D4650465946DB
:106F900017F088FEDDE9022317F0D2FC02460B460B
:106FA0002046294617F0CCFC02460B46DDE90001DD
:106FB00017F0C4FC42464B4617F0C0FC02460B4695
:106FC000DDE9040117F0BAFC07B0BDE8F08F45F425
:106FD0000015C6F5801620462946B6100AF1010AAA
:106FE00012E72DA3D3E900232046294617F05AFEC5
:106FF00002460B460020314917F0A0FCDDE90423CE
:1070000017F050FE06460F46BAF1000F73D1024644
:107010000B462046294617F091FCB1E642464B4606
:107020004046494617F03EFE0022274B17F03AFE35
:1070300002460B464046494617F080FC07B0BDE8C3
:10704000F08F00BFAFF300800000000000000000E0
:1070500044523EDF12F1C23F9FC678D0099AC33F27
:10706000DE03CB966446C73FAF788E1DC571CC3F1B
:10707000599322942449D23F04FA97999999D93F78
:10708000935555555555E53F0000E0FE422EE63F2D
:10709000763C7935EF39EA3D555555555555E53F1F
:1070A0007982DA3FFFFFEF3F0000F0BF000050C3DE
:1070B000FFFFEF7FFFFF1F3E3C412D400000F03FF0
:1070C000FFFF3F439DA006000000E03F000050434B
:1070D000FFFF8F3CDDE9004522462B4617F030FCD0
:1070E00032463B4617F0DEFD02460B462046294657
:1070F00017F024FC9CE7504617F06EFD23A3D3E95C
:10710000002382468B4617F0CDFD22A3D3E900234E
:10711000804689465046594617F0C4FDDDE90223F2
:1071200017F00EFC02460B463046394617F006FCB7
:1071300022462B46DCE7504617F04EFD15A3D3E957
:10714000002306460F4617F0ADFDDDE9022317F0D8
:10715000F7FB0EA3D3E9002304460D46304639461B
:1071600017F0A0FD02460B462046294617F0E8FB23
:1071700006E60022044B17F0E1FB02460B464046B0
:10718000494617F0DBFB20E60000F03F0000E0FE80
:10719000422EE63F763C7935EF39EA3D00000000AB
:1071A00008B515F081FD04A3D3E9002317F0A4FE70
:1071B00008BD00BFAFF30080EF39FAFE422EE63F74
:1071C0002DE9F043DFF8B4808BB004460D4601F0A2
:1071D000F3F898F90030013306460F462BD02246CB
:1071E0002B462046294617F0F7FF814618BB20465C
:1071F000294615F0D3F91FA3D3E9002317F0E2FFC6
:10720000C8B1194A98F90030CDF820900321CDE992
:107210000445CDE902458DE806008BB9134B4FF0CC
:107220006042CDE90623684617F08AF970B1089BE1
:107230009BB9DDE90667304639460BB0BDE8F083FF
:107240000B490020022BCDE90601ECD117F004FB1D
:1072500022230360089B002BEBD017F0FDFA089B5C
:107260000360E6E7AFF3008010140400FFFFEF4770
:107270000000F07F7DF8B98FCE338640FB8100207F
:107280002DE9F043DFF8E4808BB004460D4601F0B1
:1072900043F998F90030013306460F4633D02046B3
:1072A000294617F047F970B32CA3D3E900232046F1
:1072B000294617F087FF814650BB2AA3D3E9002354
:1072C0002046294617F060FFE8B198F90030204ABF
:1072D000CDF82090002600270421022BCDE904459B
:1072E000CDE90245CDE906678DE8060029D068465C
:1072F00017F026F928B3089B1BB117F0ADFA089BCD
:107300000360DDE90667304639460BB0BDE8F0831F
:107310000F4A98F90030019203210022CDE904457B
:10732000CDE90245009108922BB90A4B4FF060421B
:10733000CDE90623DBE708490020022BCDE9060151
:10734000D5D117F089FA22230360D4E7AFF3008088
:1073500018140400FFFFEF470000F07FEF39FAFE3A
:10736000422E864051302DD5104987C0FB81002028
:107370002DE9F04FDFF80C938DB006460F4614460A
:107380001D4601F0C5FC99F90080B8F1FF3FCDE939
:10739000000136D022462B462046294617F01CFF16
:1073A000834670BB32463B463046394617F014FFE1
:1073B0008246002840F0A280304639460022002351
:1073C00017F0D8FE10B3002200232046294617F0FC
:1073D000D1FE834600286AD09FEDA17B0122A44BF9
:1073E000CDF828A00292CDE90467CDE906458DEDE0
:1073F000087B0393B8F1000F45D09FED9B7B8DED8B
:10740000007BDDE900010DB0BDE8F08FDDE9000192
:1074100017F090F88046002800F08D804FF0000AA9
:107420004FF0000BDDE9000152465B4617F0A2FE6B
:107430000028E6D03046394617F07CF80028E0D026
:107440002046294617F076F80028DAD099F900305E
:10745000874A039204210022022BCDE90467CDE97B
:107460000645CDE908AB02910A9203D002A817F0B5
:1074700067F868B917F0F0F92223036008E09FED80
:10748000787B8DED087B02A817F05AF8002830D0E1
:107490000A9B1BB117F0E0F90A9B03609DED087B86
:1074A0008DED007BDDE900010DB0BDE8F08F2046D9
:1074B000294617F03FF80028A3D0002200232046D9
:1074C000294617F061FE00289BD099F90030684AE0
:1074D000CDF828B00121CDE90467CDE90645029138
:1074E0000392002BCBD063490020022BCDE9080189
:1074F000C9D117F0B1F921230360C9E700220023A5
:107500002046294617F036FE00283FF47AAF5A4B42
:107510005749CDF828B000220120B8F1020FCDE97B
:1075200004670290CDE90645CDE908230391AAD16D
:10753000CDE9002365E73046394616F0FBFF002809
:107540003FF46CAF2046294616F0F4FF00283FF4C4
:1075500065AFDDE900231046194617F03DFE00280F
:107560005FD1032399F900800293414B0A90CDE942
:107570000467CDE906450393B8F1000F2BD1DFF87E
:1075800008B14FF0604A0022002330463946CDE969
:1075900008AB17F0F9FD00283FF468AF0022374B25
:1075A0002046294617F07EFB04460D4616F0D0FF14
:1075B00002460B462046294617F0DCFD70BB304BD7
:1075C00099F900804FF06042CDE90823B8F1020F2D
:1075D0007FF44CAF4EE7DFF8B4B04FF0000A002262
:1075E000002330463946CDE908AB17F0CDFD002821
:1075F000ECD00022214B2046294617F053FB0446CD
:107600000D4616F0A5FF02460B462046294617F008
:10761000B1FD18B9174B0022CDE9082399F9008074
:10762000D4E799F90090124BCDF828800122CDE9DA
:107630000467CDE9064502920393B9F1000F3FF4C8
:107640001EAF002200231046194617F055FCB9F171
:10765000020FCDE908013FF44CAF14E7AFF300800F
:107660000000000000000000000000000000F03FEB
:10767000301404000000F0FF0000F03F0000E03F85
:10768000FFFFEFC7FB810020FFFFEF470000F07F07
:107690002DE9F84FC44E21F00043B34204460D4695
:1076A0000DDD03F1404303F58013034340F0B9803F
:1076B000002940F3408100200021BDE8F88FBB4E37
:1076C000B34240F3A6800029C0F2788102460B46FF
:1076D0000020B74917F032F90022B64B17F0E2FA52
:1076E00004460D4615F012FF95A3D3E90023894601
:1076F00080462946204617F0D5FA93A3D3E9002304
:1077000017F01EF922462B4617F0CCFA90A3D3E9C6
:10771000002317F013F922462B4617F0C3FA8EA365
:10772000D3E9002317F00CF922462B4617F0BAFADA
:107730008BA3D3E9002317F001F922462B4617F05B
:10774000B1FA89A3D3E9002317F0FAF822462B46B1
:1077500017F0A8FA86A3D3E9002382468B46204679
:10776000294617F09FFA84A3D3E9002317F0E6F81F
:1077700022462B4617F096FA81A3D3E9002317F08F
:10778000DFF822462B4617F08DFA7FA3D3E90023BA
:1077900017F0D4F822462B4617F084FA0022844BC7
:1077A00017F0CEF802460B465046594617F0A4FB98
:1077B00042464B4617F076FA002682468B46324602
:1077C0004B463046494617F06DFA02460B462046B6
:1077D000294617F0B3F8324604460D464B4640465C
:1077E000494617F0ADF802460B462046294617F0E9
:1077F00083FB02460B465046594617F0A1F8324625
:107800004B4617F09DF802460B4617F099F8BDE875
:10781000F88F694A93420EDC5DA1D1E90001BDE811
:10782000F88F02460B4617F089F802460B4617F010
:1078300063FBBDE8F88F02460B4617F033FA40A30E
:10784000D3E9002306460F4617F02CFA3EA3D3E9EE
:10785000002317F075F832463B4617F023FA3CA395
:10786000D3E9002317F06AF832463B4617F01AFABC
:1078700039A3D3E9002317F063F832463B4617F0EB
:1078800011FA37A3D3E9002317F058F832463B46E4
:1078900017F008FA34A3D3E9002317F051F8324661
:1078A0003B4617F0FFF932A3D3E90023804689460F
:1078B0003046394617F0F6F92FA3D3E9002317F025
:1078C0003DF832463B4617F0EDF92DA3D3E90023EE
:1078D00017F036F832463B4617F0E4F92AA3D3E90D
:1078E000002317F02BF832463B4617F0DBF9002255
:1078F0002F4B17F025F802460B464046494617F035
:10790000FBFA22462B4617F0CDF902460B4622A180
:10791000D1E9000117F012F802460B46204629462D
:1079200017F00CF802460B4619A1D1E9000117F037
:1079300005F8BDE8F88F1AA1D1E90001BDE8F88F7C
:1079400009F7FD0DE13D023F88B20175E0EF493FC7
:107950003B8F68B52882A43F5544880E55C1C93F66
:107960007D6FEB0312D6D43F555555555555C53F40
:1079700082922EB1C5B8B33F59018D1B6C06E63F0C
:10798000C88A599CE52A00404B2D8A1C273A03409F
:10799000182D4454FB21F93F075C143326A6913C73
:1079A000182D4454FB210940FFFFEF3FFFFFDF3F4D
:1079B0000000F03F0000E03F0000603C00225C4B14
:1079C00016F0BEFF00225B4B17F06CF940A3D3E921
:1079D000002304460D4617F065F93FA3D3E90023C1
:1079E00016F0AEFF22462B4617F05CF93CA3D3E914
:1079F000002316F0A3FF22462B4617F053F93AA3B3
:107A0000D3E9002316F09CFF22462B4617F04AF9D3
:107A100037A3D3E9002316F091FF22462B4617F037
:107A200041F935A3D3E9002316F08AFF22462B46FD
:107A300017F038F9804689462046294615F066FD3C
:107A40002FA3D3E9002306460F462046294617F008
:107A500029F92DA3D3E9002316F070FF22462B4607
:107A600017F020F92AA3D3E9002316F069FF224674
:107A70002B4617F017F928A3D3E9002316F05EFF71
:107A800022462B4617F00EF90022294B16F058FF1C
:107A900002460B464046494617F02EFA32463B4610
:107AA00017F000F91EA3D3E9002316F047FF324672
:107AB0003B4616F045FF02460B4616F041FF0246D4
:107AC0000B4619A1D1E9000116F038FFBDE8F88F87
:107AD00009F7FD0DE13D023F88B20175E0EF493F36
:107AE0003B8F68B52882A43F5544880E55C1C93FD5
:107AF0007D6FEB0312D6D43F555555555555C53FAF
:107B000082922EB1C5B8B33F59018D1B6C06E63F7A
:107B1000C88A599CE52A00404B2D8A1C273A03400D
:107B2000075C143326A6913C182D4454FB210940D0
:107B30000000F03F0000E03F434A91422DE9F84346
:107B400004460D4639DD414A914209DD02F1795280
:107B5000914240DD02460B4616F0F2FEBDE8F88386
:107B600001F1404202F58012024330D0B1F1804F62
:107B70003ADC0022364B16F0E1FE02460B46044684
:107B80000D4616F0DDFE224606460F462B462046E1
:107B9000294617F087F802460B463046394616F05C
:107BA000CFFE15F0B3FC0B4602462946204616F0E0
:107BB000C7FEBDE8F843FFF7BFB802460B4616F014
:107BC000BDFE02460B4617F097F9BDE8F88300208A
:107BD0000021BDE8F88300F017FE19A3D3E90023C4
:107BE00016F0AEFEBDE8F88302460B4617F05AF8D1
:107BF0000022174B16F0A2FE15F088FC22468046A4
:107C000089462B462046294616F09AFE42460646ED
:107C10000F464B462046294616F092FE02460B467A
:107C200000200B4917F068F90B46024639463046EA
:107C300016F084FEBDE8F84300F0E6BDAFF3008027
:107C4000EF39FAFE422EE63FFFFFEF3FFFFFAF4165
:107C50000000F03F000000002DE9F047BE4B21F08E
:107C60000048984584B004460D4612DD08F14048AE
:107C700008F58018034658EA030321D002460B4654
:107C800016F05CFE02460B4617F036F904B0BDE86C
:107C9000F087B24B98458A4629DCB8F1795F80F2CB
:107CA000658191A3D3E9002316F04AFE0022AC4B74
:107CB00017F088FAD8B12046294604B0BDE8F0870D
:107CC0008BA3D3E9002316F0EDFF8BA3D3E90023A8
:107CD00006460F462046294616F0E4FF02460B46AC
:107CE0003046394616F02CFE04B0BDE8F087204639
:107CF000294614F053FC02460B460020984916F022
:107D00001DFE0022974B16F0CDFF7DA3D3E9002383
:107D100004460D4616F0C6FF7BA3D3E9002316F0F8
:107D20000FFE22462B4616F0BDFF79A3D3E90023B0
:107D300016F004FE22462B4616F0B4FF76A3D3E9D4
:107D4000002316F0FDFD22462B4616F0ABFF74A370
:107D5000D3E9002316F0F2FD22462B4616F0A2FFCF
:107D600071A3D3E9002316F0EBFD22462B4616F053
:107D700099FF6FA3D3E90023CDE9000120462946EE
:107D800016F090FF6CA3D3E9002316F0D7FD22462E
:107D90002B4616F087FF6AA3D3E9002316F0D0FD27
:107DA00022462B4616F07EFF67A3D3E9002316F088
:107DB000C5FD22462B4616F075FF694B002216F0D2
:107DC000BFFDCDE902012046294615F09FFB664B19
:107DD000984506460F4666DCDDE90223DDE9000131
:107DE00017F08AF83246CDE900013B463046394665
:107DF00016F0A6FD02460B46DDE9000116F052FF23
:107E00004FF00008CDE9000142463B464046394666
:107E100016F048FF02460B462046294616F08EFD16
:107E2000424604460D463B463046394616F088FD2C
:107E300002460B462046294617F05EF802460B46DE
:107E400016F07EFD02460B462BA1D1E9000116F08B
:107E500075FD02460B46DDE9000116F06FFD424656
:107E600004460D463B464046394616F069FD02463B
:107E70000B4637A1D1E9000116F060FD02460B4622
:107E80002046294616F05AFD02460B4630A1D1E99C
:107E9000000116F053FDBAF1000F3FF7F7AE01F104
:107EA00000431946F2E6DDE90223DDE9000117F09F
:107EB00023F832463B4616F0F5FE32463B4616F0B6
:107EC0003FFD02460B4616F03BFD0BA3D3E9002312
:107ED00016F034FD02460B4605A1D1E9000116F06B
:107EE0002DFDD8E7AFF300809C7500883CE4377E19
:107EF000182D4454FB21F93F075C143326A6913C0E
:107F000009F7FD0DE13D023F88B20175E0EF493F01
:107F10003B8F68B52882A43F5544880E55C1C93FA0
:107F20007D6FEB0312D6D43F555555555555C53F7A
:107F300082922EB1C5B8B33F59018D1B6C06E63F46
:107F4000C88A599CE52A00404B2D8A1C273A0340D9
:107F5000182D4454FB21E93FFFFFEF3FFFFFDF3FB8
:107F60000000F03F0000E03F3233EF3F02460B4697
:107F700016F098FE37A3D3E9002306460F4616F005
:107F800091FE36A3D3E9002316F0DAFC32463B46D5
:107F900016F088FE33A3D3E9002316F0CFFC324657
:107FA0003B4616F07FFE31A3D3E9002316F0C8FC50
:107FB00032463B4616F076FE2EA3D3E9002316F098
:107FC000BDFC32463B4616F06DFE2CA3D3E90023E0
:107FD00016F0B6FC32463B4616F064FE29A3D3E900
:107FE0000023804689463046394616F05BFE27A3BB
:107FF000D3E9002316F0A2FC32463B4616F052FEAF
:1080000024A3D3E9002316F09BFC32463B4616F02E
:1080100049FE22A3D3E9002316F090FC32463B46EA
:1080200016F040FE00220A4B16F08AFC02460B4670
:108030004046494616F060FF22462B4616F032FEB7
:1080400022462B4616F07CFC04B0BDE8F08700BF4A
:108050000000F03F09F7FD0DE13D023F88B20175D8
:10806000E0EF493F3B8F68B52882A43F5544880E16
:1080700055C1C93F7D6FEB0312D6D43F55555555B9
:108080005555C53F82922EB1C5B8B33F59018D1BDE
:108090006C06E63FC88A599CE52A00404B2D8A1C95
:1080A000273A0340000000002DE9F84F1D465342D7
:1080B000134325F0004ADFF8E0E14AEAD373734541
:1080C000144606460F4647D8C0F1000848EA0008A3
:1080D00021F0004343EAD878F0458B463CD805F1BF
:1080E000404808F5801858EA020850D04FEAA578B1
:1080F00008F0020848EAD17850EA030134D052EA85
:108100000A023CD0F24557D0734538D0A3EB0A039E
:108110001B153C2B42DC002D70DB22462B463046E3
:10812000394616F0E9FE14F039FAFEF751FBB8F1C2
:10813000010F5FD0B8F1020F4ED0B8F1000F62D03E
:1081400043A3D3E9002316F0F9FB43A3D3E90023AB
:1081500016F0F4FBBDE8F88F32463B462046294630
:1081600016F0EEFBBDE8F88FB8F1020F1AD0B8F1A7
:10817000030F10D13AA1D1E90001BDE8F88FBBF19E
:10818000000F14DB38A1D1E90001BDE8F88FBDE88C
:10819000F84FFEF71DBB3946BDE8F88F32A1D1E993
:1081A0000001C4E72CA1D1E90001BDE8F88F30A19E
:1081B000D1E90001BDE8F88F534526D0B8F1020F90
:1081C000F0D0B8F1030FD5D0B8F1010F4FF0000097
:1081D00029D00021BDE8F88F1DA3D3E9002316F0B4
:1081E000ADFB02460B461CA1D1E9000116F0A6FB2F
:1081F000BDE8F88F01F10041BDE8F88F3C338CDA1F
:108200000020002193E7BDE8F88FB8F1020F18D0E5
:10821000B8F1030F10D0B8F1010F08D016A1D1E9C1
:108220000001BDE8F88F4FF00041BDE8F88F14A1C0
:10823000D1E90001BDE8F88F13A1D1E90001BDE843
:10824000F88F13A1D1E90001BDE8F88FAFF30080EA
:10825000075C143326A6A13C182D4454FB21094089
:10826000182D4454FB2109C0182D4454FB21F93F1B
:10827000182D4454FB21F9BF182D4454FB21E93F2C
:10828000182D4454FB21E9BFD221337F7CD902C091
:10829000D221337F7CD902400000F07F0000000033
:1082A00043422DE9F047034321F000463E4A46EAA7
:1082B000D373934204460D4613D896423DD03B4BB0
:1082C0009E428A4617DC36A3D3E9002316F038FB1A
:1082D0000022002316F076FFA8B320462946BDE809
:1082E000F08702460B4616F029FB02460B4616F0B5
:1082F00003FEBDE8F0872E4B9E42354624DD334613
:108300000246314616F01CFB224606460F462B4617
:108310000020254916F012FB02460B46304639462E
:1083200016F0EAFDFEF708FD0022224B16F0BAFC1B
:10833000BAF1000F2FDBBDE8F0870022002316F012
:10834000DBFDBDE8F087354622462B462046294610
:1083500016F0F6FA22462B4606460F4616F0A2FC09
:108360002246804689462B4600200F4916F0E6FA41
:1083700002460B464046494616F0BEFD32463B4695
:1083800016F0DEFAFEF7D8FC00220A4B16F08AFC43
:10839000BAF1000FCFDA01F100431946BDE8F087CA
:1083A0009C7500883CE4377E0000F03FFFFF2F3EC5
:1083B000FFFFDF3F0000E03F2DE9F8434E4B21F087
:1083C00000449C4206460F461BDC4C4B9C4222DD7F
:1083D0004B4B9C4263DD4B4B9C427BDD4A4B9C42AA
:1083E00046DD01339C4240D041A3D3E9002310462F
:1083F000194616F057FC06460F4630463946BDE88A
:10840000F88302460B4616F04DFC06460F463046F2
:108410003946BDE8F88314F0C1F802F0B1FC00223F
:108420003A4B8046894616F08BFAB4F1725F0646E5
:108430000F46ECDB42464B464046494616F032FCBE
:1084400032463B4604460D463046394616F078FA29
:1084500002460B462046294616F04EFD00222B4BC5
:1084600016F06EFA06460F46D1E7294B9842BBD864
:108470003046394614F092F80022264B16F012FCD2
:1084800000F04AF8002204460D46224B16F00AFC82
:1084900022462B4616F006FC06460F46B7E714F0B8
:1084A0007DF800F039F800221A4B06460F4616F008
:1084B000F9FB32463B4604460D460020154916F0AE
:1084C0001BFD02460B462046294616F039FA0646A1
:1084D0000F469CE714F062F800F01EF800220D4BE6
:1084E00016F0E0FB06460F4691E700BFAFF30080B1
:1084F0009C7500883CE4377EFFFFEF7F422ED63F1D
:10850000FFFF3540412E8640CD3386400000F03FCE
:108510007DF8B98F0000E03F2DE9F04FB04E21F01B
:108520000042B24283B004460D464FEAD1770DD9DE
:10853000AC4EB24225D9C1F31303034340F0EC80A3
:108540000FB10020002103B0BDE8F08FA64B9A4286
:1085500000F2CB80A54B9A4200F2DC808AA3D3E9DB
:10856000002316F0EDF90022A14B16F02BFE002897
:1085700000F006812046294600229D4B16F0E0F9C6
:10858000E1E783A3D3E9002316F01CFE002840F0A6
:10859000C88081A3D3E900232046294616F0F4FDC4
:1085A0000028CED1934E7EA3D3E9002306EBC70665
:1085B0002046294616F076FBD6E9002316F0C0F9CE
:1085C00016F020FE064616F007FB77A3D3E900233A
:1085D0008046894616F066FB02460B462046294631
:1085E00016F0ACF972A3D3E90023CDE900014046AF
:1085F000494616F057FB82468B4652465B46DDE9FC
:10860000000116F09BF904460D4622462B462046F3
:10861000294616F047FB68A3D3E900238046894624
:1086200016F040FB66A3D3E9002316F087F9424613
:108630004B4616F037FB64A3D3E9002316F080F90C
:1086400042464B4616F02EFB61A3D3E9002316F0F9
:1086500075F942464B4616F025FB5FA3D3E900238C
:1086600016F06EF942464B4616F01CFB02460B46CE
:108670002046294616F062F980468946002E58D0D9
:108680002046294642464B4616F00CFB424604461D
:108690000D464B4600204FF0804116F04FF9024640
:1086A0000B462046294616F027FC02460B4650464C
:1086B000594616F043F9DDE9002316F03FF90B4661
:1086C00002464B49002016F039F96FF47F739E4241
:1086D00051DA06F57A7601EB065100224FF0B873B5
:1086E00016F0E0FA03B0BDE8F08F434B9A423FF634
:1086F00059AF424BFC002344D3E9002316F01EF986
:108700003F4BC7F101062344CDE90001D3E900AB9B
:10871000F61B72E7002678E702460B4616F010F9C2
:1087200011E719A3D3E900231046194616F0BAFA47
:1087300009E702460B462046294616F0B3FA002206
:1087400006460F464FF080434046494616F0F6F87D
:1087500002460B463046394616F0CEFB22462B46E3
:1087600016F0ECF802460B460020214916F0E6F818
:1087700003B0BDE8F08F01EB065103B0BDE8F08F08
:10878000064642E7AFF300809C7500883CE4377EE4
:10879000EF39FAFE422E864051302DD5104987C060
:1087A000FE822B654715F73F0000E0FE422EE63FB4
:1087B000763C7935EF39EA3DD0A4BE726937663E22
:1087C000F16BD2C541BDBB3E2CDE25AF6A56113FD1
:1087D00093BDBE166CC1663F3E5555555555C53FB8
:1087E000412E8640FFFFEF7F422ED63FFFFF2F3EF8
:1087F0000000F03F48FF0300B1A2F03F58FF030024
:1088000068FF0300000000002DE9F04FB1F5801F64
:1088100085B006460F460B465ADA024621F0004460
:10882000224300F0F8800029C0F27A810022D64B62
:1088300016F038FAD54A0B46934206460F466FF0BB
:10884000350C4ADCC3F3130505F5152E0EF6647ED0
:108850000EF4801E8EF07F5282F440121C1542EA04
:108860000507A4F2FF3464440022C94B3046394660
:1088700004EB1E5416F062F8AB1CC3F31303022B77
:1088800082468B464FF0000230DC002316F072FC6B
:10889000002800F0C980002C00F04B81204616F023
:1088A0009BF9A5A3D3E9002306460F4616F0FAF973
:1088B000A3A3D3E9002304460D463046394616F0FB
:1088C000F1F902460B462046294616F039F80AE02F
:1088D000AE4A93424FF0000CB4DD32463B46304680
:1088E000394616F02DF805B0BDE8F08F4FF0804303
:1088F00016F026F802460B465046594616F0FCFA8A
:10890000064620460F4616F067F93246CDE90001CB
:108910003B4630463946CDE9026716F0C3F90246B8
:108920000B468046894616F0BDF987A3D3E900239C
:1089300006460F4616F0B6F985A3D3E9002315F0D5
:10894000FFFF32463B4616F0ADF983A3D3E900237F
:1089500015F0F6FF32463B4616F0A4F980A3D3E9A2
:10896000002315F0EDFF42464B4616F09BF97EA31F
:10897000D3E90023804689463046394616F092F9FD
:108980007BA3D3E9002315F0DBFF32463B4616F00C
:1089900089F979A3D3E9002315F0D2FF32463B468B
:1089A00016F080F90B4602464946404615F0C8FFCE
:1089B000A5F5C223C5F5D725A3F27A4351351D434A
:1089C000002D8046894656DD0022724B504659469E
:1089D00016F068F952465B4616F064F906460F46F3
:1089E000002C68D132463B464046494615F0A8FF68
:1089F000DDE9022316F056F902460B4630463946A9
:108A000015F09CFF02460B465046594615F096FF5E
:108A100005B0BDE8F08F0022002300205E4916F06B
:108A20006BFA05B0BDE8F08F55A3D3E9002350469B
:108A3000594616F037F902460B460020554915F005
:108A40007DFF524606460F465B465046594616F095
:108A500029F902460B463046394616F023F90646F8
:108A60000F46002C40F09A8002460B46504659466D
:108A700015F064FF37E7002C00F0A4802EA3D3E9A3
:108A80000023DDE9000116F00DF942464B4604468D
:108A90000D465046594615F051FFDDE9022316F008
:108AA00001F927A3D3E9002306460F46DDE90001BB
:108AB00016F0F8F821E020A3D3E90023DDE9000156
:108AC00016F0F0F832463B4604460D46404649460D
:108AD00015F036FFDDE9022316F0E4F818A3D3E918
:108AE000002380468946DDE9000116F0DBF80246E6
:108AF0000B464046494615F023FF02460B463046DA
:108B0000394615F01BFF52465B4615F017FF02462B
:108B10000B462046294615F011FF05B0BDE8F08F41
:108B200002460B4615F00AFF0022002316F0E4F976
:108B3000D9E600200021D6E60000E0FE422EE63F06
:108B4000763C7935EF39EA3D44523EDF12F1C23FBF
:108B5000DE03CB966446C73F599322942449D23F03
:108B6000935555555555E53F9FC678D0099AC33F53
:108B7000AF788E1DC571CC3F04FA97999999D93F6A
:108B8000555555555555D53F00005043FFFFEF7FD4
:108B90000000F03F0000E03F000050C3204616F008
:108BA0001BF80FA3D3E900238046894616F07AF814
:108BB0000DA3D3E9002304460D464046494616F06E
:108BC00071F89AE702460B465046594615F0B6FE34
:108BD000DDE9022316F066F814E700BFAFF300806A
:108BE0000000E0FE422EE63F763C7935EF39EA3D63
:108BF000B1F5801F2DE9F84304460D460B461ADAFD
:108C0000024621F00046324359D000295FDB0022A2
:108C10003B4B16F047F83B4A0D462B469342044621
:108C20006FF035010CDD22462B462046294615F013
:108C300087FEBDE8F883334A93424FF00001F2DC2F
:108C40001815A0F2FF3008444FEAD0794844C3F326
:108C5000130815F0C1FFC9F57F73033348EA0355C4
:108C600006460F4620462946FFF7CEFD1EA3D3E950
:108C70000023804689463046394616F013F81CA377
:108C8000D3E9002304460D464046494616F00AF84B
:108C900002460B462046294615F052FE16A3D3E99C
:108CA000002304460D463046394615F0FBFF0246C8
:108CB0000B462046294615F043FEBDE8F883002206
:108CC00000230020104916F017F9BDE8F88302468A
:108CD0000B4615F033FE0022002316F00DF9BDE817
:108CE000F88300BFAFF30080362BF111F3FE593D3E
:108CF0000EE526157BCBDB3F00609F501344D33F2E
:108D000000005043FFFFEF7F000050C30000000051
:108D10002DE9F04F23F0004757EA020493B037D013
:108D2000674C21F00046A64283460D4629DC9A4650
:108D3000964625D0A74224DC614CA74279D0002D6D
:108D400080468946CDE9002377DB0024BEF1000F81
:108D50002CD15B4B9F4200F08B805A4B9F4261D0DD
:108D6000BAF1804F00F0C383574B9A451ED1002DB6
:108D70001CDB4046494613B0BDE8F04F14F0C6BBBB
:108D800058B106F1404606F5801656EA0B0306D1A7
:108D90004C49002013B0BDE8F08FB742CCDD4B4802
:108DA00013B0BDE8F04F15F0CDBB00244046494656
:108DB00013F0F4FBBBF1000F19D126B1414B25F0A4
:108DC00040429A4213D1BAF1000FC0F2CA83002D7B
:108DD000E0DA06F1404606F5801656EA040300F094
:108DE000A584012CD6D101F100431946D2E7ED0F3D
:108DF000013D54EA05034ED0354B9F426EDD03F131
:108E000004739F4240F3FE83324B9E424EDDBAF123
:108E1000000F4EDD28A3D3E900231046194615F0B4
:108E200041FFB7E7BAF1000FC0F25284404649460D
:108E3000B0E7BEF1000F82D0A3E7274B9F4228DCAA
:108E4000A3F154739F4280DD3B15A3F2FF33142B33
:108E500040F35484C3F134032EFA03F202FA03F30D
:108E60009E457FF472AF02F00102C2F102046DE789
:108E700006F1404303F5801353EA0B0388D0154BEA
:108E80009E4240F33B83BAF1000F12DBDDE90001A3
:108E900080E702245AE742464B461046194615F031
:108EA0004DFD02460B4616F027F873E7BAF1000FA6
:108EB000B0DB002000216DE79C7500883CE4377E24
:108EC0000000F07F0000F03F0000E03FF0060400EB
:108ED0000000E041FFFFEF3FFFFF3F43B6F5801F7B
:108EE0004FF0000205DAD84B15F0DCFE6FF03402CB
:108EF0000E463315D54FC6F31306A3F2FF331344C2
:108F000046F07F5ABE421A460D934AF4401A40F387
:108F10002F83CF4B9E4240F30D849FEDB57B8DEDAB
:108F2000087B8DED0E7B9FEDB47B13468DED067BAC
:108F300001330D93AAF5801A0027DDE90623514677
:108F4000CDE90A0115F0FAFCDDE9062380468946E1
:108F5000DDE90A0115F0F4FC02460B460020BD498C
:108F600015F0CAFF0A460146CDE9101213464946DC
:108F70000246404615F096FE4FEA6A0343F000535E
:108F80008C46834603F50023CDE904BCDA468B46C4
:108F9000D9190023CDE902AB0293DDE902AB002031
:108FA00006460F4602460B465046594615F07AFED5
:108FB00002460B464046494615F0C0FCDDE9062353
:108FC000804689463046394615F0B8FC02460B46C5
:108FD000DDE90A0115F0B2FC52465B4615F062FE6F
:108FE00002460B464046494615F0A8FCDDE9102331
:108FF00015F058FEDDE90467CDE9060132463B462F
:109000003046394615F04EFE7DA3D3E900230646CF
:109010000F4615F047FE7CA3D3E9002315F090FC22
:1090200032463B4615F03EFE79A3D3E9002315F006
:1090300087FC32463B4615F035FE77A3D3E9002383
:1090400015F07EFC32463B4615F02CFE74A3D3E9A6
:10905000002315F075FC32463B4615F023FE72A343
:10906000D3E9002315F06CFC3246804689463B4626
:109070003046394615F016FE02460B464046494634
:1090800015F010FE524606460F465B46DDE9040128
:1090900015F056FCDDE9062315F004FE32463B468A
:1090A00015F04EFC5246804689465B46504659466E
:1090B00015F0F8FD0022684BCDE90A0115F040FCDF
:1090C00042464B4615F03CFC02980F460646324697
:1090D0003B465046594615F0E5FD002282468B4638
:1090E0005D4B3046394615F029FCDDE90A2315F0C1
:1090F00025FC02460B464046494615F01FFCDDE9BB
:10910000042315F0CFFD3246804689463B46DDE913
:10911000060115F0C7FD02460B464046494615F0CC
:109120000FFC8046894602460B4650465946CDE91B
:1091300004AB15F005FCDDE902AB3DA3D3E9002348
:1091400050460F4615F0AEFDDDE90423CDE90201DE
:109150003946504615F0F2FB02460B46404649465A
:1091600015F0ECFB34A3D3E9002315F09BFD34A3E9
:10917000D3E90023804689465046394615F092FDD2
:1091800002460B464046494615F0DAFBDDE90E2360
:1091900015F0D6FB80460D98894615F01DFD424618
:1091A00006460F464B46DDE9020115F0C9FBDDE935
:1091B000082315F0C5FB32463B4615F0C1FB32468D
:1091C0003B4650468B4615F0B9FBDDE9082315F008
:1091D000B5FBDDE9022315F0B1FB02460B46404624
:1091E000494615F0ABFB8046894637E0AFF3008077
:1091F0000000000000000000000000000000F03F40
:10920000EF4E454A287ECA3F65DBC9934A86CD3F6B
:1092100001411DA96074D13F4D268F515555D53F51
:10922000FFAB6FDBB66DDB3F033333333333E33FE9
:10923000000000E009C7EE3FFD033ADC09C7EE3F3E
:10924000F5015B14E02F3EBE000040438E98030002
:1092500079B60B000000F03F00000840013C54EAE2
:10926000050300F079819FEDC87B8DED047BDDE97E
:1092700000120B461446CDE9023400230293DDE9C7
:10928000024508462B461146224615F057FB52462A
:109290005B4615F007FDDDE9002306460F46404614
:1092A000494615F0FFFC02460B463046394615F09C
:1092B00047FB2246804689462B4650465946CDE913
:1092C000008915F0EFFC0B46024606460F46404665
:1092D000494615F035FBC64B994204460D468A4671
:1092E00040F3168101F13F4303F5E003034340F0EF
:1092F000F781A7A3D3E90023DDE9000115F020FBE6
:109300003246804689463B462046294615F016FBE4
:1093100002460B464046494615F054FF002840F0EF
:10932000DF81A8464FEA28534FF48012A3F2FE33A0
:1093300042FA03F35344C3F30A52AE4DA2F2FF3292
:109340001541C3F3130423EA05010020C2F1140BF5
:1093500044F48014BAF1000F02460B4644FA0BFBAA
:1093600030463946B8BFCBF1000B15F0E7FA02469C
:109370000B4606460F46DDE9000115F0E1FA4FEA1B
:109380000B5A0D46002484A3D3E900232046294626
:1093900015F088FC3246804689463B4620462946E1
:1093A00015F0CCFA02460B46DDE9000115F0C6FACD
:1093B0007BA3D3E9002315F075FC7BA3D3E900233D
:1093C00006460F462046294615F06CFC02460B4621
:1093D0003046394615F0B4FA06460F4602460B46AB
:1093E0004046494615F0ACFA42464B4604460D4607
:1093F00015F0A4FA02460B463046394615F09EFA9F
:109400002246804689462B462046294615F04AFCCE
:1094100067A3D3E9002306460F4615F043FC66A375
:10942000D3E9002315F08AFA32463B4615F03AFCA0
:1094300063A3D3E9002315F083FA32463B4615F0C7
:1094400031FC61A3D3E9002315F078FA32463B469C
:1094500015F028FC5EA3D3E9002315F071FA32461B
:109460003B4615F01FFC02460B462046294615F0E8
:1094700065FA06460F4602460B462046294615F079
:1094800011FC0022CDE900014FF0804330463946FF
:1094900015F054FA02460B46DDE9000115F02CFDEB
:1094A000424606460F464B462046294615F0FAFB33
:1094B00042464B4615F044FA02460B4630463946C2
:1094C00015F03CFA22462B4615F038FA02460B46B8
:1094D0000020494915F032FA8A44BAF5801FC0F2DB
:1094E00039815146DDE9042315F0DCFB52E44246A4
:1094F0004B464046494615F0D5FB4BE4BAF1000F08
:10950000BFF6D7ACDDE90034184604F1004141E470
:109510003A4B21F00048984540F3FF80384B0B440C
:1095200003430CD132463B4615F008FA02460B467F
:10953000DDE9000115F032FE00283FF4F3AEDDE96D
:10954000040125A3D3E9002315F0ACFB22A3D3E942
:10955000002315F0A7FB1DE49FED217B8DED047B1F
:1095600085E602460B460020234915F0C5FC2EE493
:109570009FED1D7B8DED087B8DED0E7B9FED027BBE
:1095800000278DED067BD8E4000000000000F03FCE
:10959000FE822B654715973C00000000432EE63FF6
:1095A000EF39FAFE422EE63F396CA80C615C20BE12
:1095B000D0A4BE726937663EF16BD2C541BDBB3ED9
:1095C0002CDE25AF6A56113F93BDBE166CC1663FB7
:1095D0003E5555555555C53F59F3F8C21F6EA50167
:1095E000000000000000F0BF0000000000000000CC
:1095F000FFFF8F40FFFF0F000000F03FFFCB9040C8
:1096000000346F3F684B9E427FF750AC674B9E42E1
:109610003FF7FDAB0022654B15F090F952A3D3E95B
:10962000002306460F4615F03DFB51A3D3E9002366
:10963000804689463046394615F034FB0022824682
:109640008B465B4B3046394615F02CFB02460B46E9
:1096500049A1D1E9000115F071F932463B4615F0F8
:1096600021FB02460B460020524915F067F93246AD
:10967000CDE902013B463046394615F013FB024660
:109680000B46DDE9020115F00DFB3DA3D3E90023F4
:1096900015F008FB02460B465046594615F04EF9A8
:1096A00002460B4606460F464046494615F048F925
:1096B00042464B46002082468B4615F03FF9024653
:1096C0000B463046394615F039F980468946C5E5DE
:1096D00042464B460020354915F00EFCFFF75ABBB9
:1096E000DDE9040128A3D3E9002315F0DBFA26A362
:1096F000D3E9002315F0D6FAFFF74CBBBEF1000FFB
:109700007FF453ABC3F1140347FA03F202FA03F3F5
:109710009F4223D07446FFF720BB264B98453FF766
:1097200001AEDDE90223924693462BE602460B4644
:10973000FFF7B3BB9FED167B8DED087B9FED167B8E
:109740008DED0E7B9FED167B4FF480278DED067B14
:10975000FFF7F3BB5A4601F04FFDC3E602F00102EA
:10976000C2F10204FFF7F9BA000000604715F73FA5
:1097700044DF5DF80BAE543E555555555555D53F14
:10978000FE822B654715F73F9C7500883CE4377EC9
:109790000000004003B8E23F06D0CF43EBFD4C3E53
:1097A000000000000000F83FFEFFEF3F0000F03F28
:1097B0000000D03F0000E03F2DE9F0479C4B21F036
:1097C00000479F4290B08046894640F38E80994B77
:1097D0009F420C46924626DC00298BA3D3E9002346
:1097E00040F3B08115F0AAF8934B9F4204460D4612
:1097F00000F0908086A3D3E9002315F09FF802467D
:109800000B46CAE900232046294615F097F880A3A5
:10981000D3E9002315F092F80125CAE90201284690
:1098200010B0BDE8F087854B9F4240F39080844B99
:109830009F4265DC3D15A5F21645A7EB0553194679
:109840001F46064615F0DEFC15F0C6F9804689462F
:1098500042464B4630463946CDE90A8915F06EF846
:109860000022784B15F01EFA8946804615F0CAFC96
:1098700015F0B2F906460F4632463B464046494689
:10988000CDE90C6715F05AF800226E4B15F00AFA74
:1098900000220023CDE90E0115F06CFC002800F039
:1098A0006F81002330463946002215F063FC002802
:1098B00014BF01230223644A019202212A46009127
:1098C0000AA8514600F08CFB002C054614DADAF8A1
:1098D0000420DAF80C3002F1004203F10043454263
:1098E000CAF80420CAF80C3006E000200021C2E9C2
:1098F0000089C2E902010025284610B0BDE8F087C2
:1099000002460B4615F01AF80025CAE90201CAE919
:109910000001F1E740A3D3E9002315F00FF840A3BD
:10992000D3E900230D46044615F008F802460B461D
:10993000CAE900232946204615F000F838A3D3E9E8
:10994000002314F0FBFF0125CAE90201D4E712F05D
:1099500025FE35A3D3E900238046894615F0A2F9F8
:1099600000223A4B14F0ECFF15F04CFC054615F0C4
:1099700033F925A3D3E90023CDE9060115F092F9C7
:1099800002460B464046494614F0D8FF20A3D3E9CF
:109990000023CDE90201DDE9060115F083F91F2D51
:1099A00080468946CDE9048954DC294B6A1E53F868
:1099B00022309F424ED002460B46DDE9020114F0F0
:1099C000BDFF80468946CAE9008942464B46DDE92B
:1099D000020114F0B3FFDDE9042314F0AFFF002C03
:1099E000CAE9020188DA09F1004401F100436D423D
:1099F000CAF80080CAF80440CAF80800CAF80C3057
:109A00007AE700BFAFF3008000004054FB21F93F2C
:109A10003163621A61B4D03D0000601A61B4D03D78
:109A20007370032E8A19A33B83C8C96D305FE43F6E
:109A3000FB21E93F7BD90240FB21F93FFB21394162
:109A4000FFFFEF7F00007041DC1404000000E03FE6
:109A50005C140400DDE90423DDE9020114F06EFF6B
:109A60003F15C1F30A53FB1A80468946102BCAE9F9
:109A70000089AADD58A3D3E90023DDE9060115F02A
:109A800011F98046894602460B46DDE9020114F0D1
:109A900055FF02460B46DDE90201CDE9082314F02B
:109AA0004DFF42464B4614F049FF4DA3D3E9002336
:109AB00080468946DDE9060115F0F4F842464B463A
:109AC00014F03CFF0B46CDE904010246DDE9080134
:109AD00014F034FFC1F30A53FF1A80468946312F30
:109AE000CAE900896CDD41A3D3E90023DDE9060161
:109AF00015F0D8F8DDE9088906460F4602460B4600
:109B00004046494614F01AFF02460B464046494675
:109B1000CDE9022314F012FF32463B4614F00EFF4B
:109B200034A3D3E9002306460F46DDE9060115F00C
:109B3000B9F832463B4614F001FF02460B46CDE928
:109B400004233AE714F0FCFE274B9F4204460D46DF
:109B500018D01FA3D3E9002314F0F2FE02460B46EF
:109B6000CAE900232946204614F0E8FE18A3D3E9E9
:109B7000002314F0E5FE4FF0FF35CAE90201BBE611
:109B8000032398E614A3D3E9002314F0D9FE14A309
:109B9000D3E900230D46044614F0D2FE02460B46DC
:109BA000CAE900232946204614F0C8FE0CA3D3E9D5
:109BB000002314F0C5FE4FF0FF35CAE902019BE611
:109BC0009DED087B8DED027BFFE600BFAFF30080CB
:109BD0003163621A61B4D03D0000601A61B4D03DB7
:109BE0007370032E8A19A33BFB21F93F0000002E5E
:109BF0008A19A33BC14920259A837B3900000000C4
:109C0000594A2DE9F84F21F00048904506460F4685
:109C10002BDC564B0029B4BF554D564D98454FF09F
:109C2000000410DC544B984570DC4DA3D3E90023AD
:109C300014F086FE0022514B15F0C4FAD8B130461C
:109C40003946BDE8F88F4E4B98457CDD4D4B984525
:109C500044DD013398453ED03046394640A3D3E930
:109C6000002315F01FF8BDE8F88F02460B4614F0EC
:109C700067FEBDE8F88F3046394612F08FFC01F0E0
:109C80007FF806460F4632463B463046394614F0CA
:109C900057FE324682468B463B463046394615F0E3
:109CA00001F8002280468946344B3046394614F08C
:109CB00047FE02460B464046494615F01DF902464E
:109CC0000B465046594614F039FE22462B4614F0F6
:109CD000E9FFBDE8F88F2C4B9842BDD83046394695
:109CE00012F05CFC0022234B14F0DCFFFEF714FCA6
:109CF00006460F4602460B462046294614F0D2FF80
:109D000032463B4614F0CEFFBDE8F88F12F046FC19
:109D100001F036F81D4B984506460F46B3DD00228C
:109D2000164B14F00DFE02460B463046394615F030
:109D3000E3F832463B4614F003FE22462B4614F06D
:109D4000B1FFBDE8F88F12F029FCFEF7E5FB0246F3
:109D50000B462046294614F0A5FFBDE8F88F00BF4A
:109D60003374AC3C1F7BAC7FFFFFEF7FFFFF3540C0
:109D70000000E0BF0000E03FFFFF2F3E0000F03F8B
:109D8000412E8640CD3386407DF8B98FFFFFEF3FEF
:109D90002DE9F04F21F00048B8F1795F85B0064613
:109DA0000F4692469B466BDA15F02CFA002800F01D
:109DB000EA8032463B463046394614F073FF74A3BE
:109DC000D3E9002304460D4614F06CFF72A3D3E9D7
:109DD000002314F0B5FD22462B4614F063FF70A358
:109DE000D3E9002314F0AAFD22462B4614F05AFFB3
:109DF0006DA3D3E9002314F0A3FD22462B4614F0F3
:109E000051FF6BA3D3E9002314F098FD22462B46A3
:109E100014F048FF68A3D3E9002314F091FD224613
:109E20002B4614F03FFFCDE900010022664B20468F
:109E3000294614F037FFDDE9002380468946204695
:109E4000294614F02FFF524604460D465B46304625
:109E5000394614F027FF02460B462046294614F0E7
:109E60006DFD02460B464046494614F067FD02462A
:109E70000B460020554914F061FD05B0BDE8F08F98
:109E800002460B4614F00EFF41A3D3E9002304461B
:109E90000D4614F007FF40A3D3E9002314F050FD52
:109EA00022462B4614F0FEFE3DA3D3E9002314F016
:109EB00045FD22462B4614F0F5FE3BA3D3E90023D3
:109EC00014F03EFD22462B4614F0ECFE38A3D3E9F5
:109ED000002314F033FD22462B4614F0E3FE36A394
:109EE000D3E9002314F02CFD2B46224614F0DAFEB1
:109EF000374B9845CDE9000197DD364B984539DC65
:109F0000A8F500130022002030499046994614F02D
:109F100015FDCDE9020100222B4B2046294614F005
:109F2000C1FE42464B4614F009FDDDE900238046A0
:109F300089462046294614F0B5FE524604460D4691
:109F40005B463046394614F0ADFE02460B462046CD
:109F5000294614F0F3FC02460B464046494614F0ED
:109F6000EDFC02460B46DDE9020114F0E7FC05B00A
:109F7000BDE8F08F9FED127B4FF000088DED027B66
:109F8000DFF85490C7E71149002005B0BDE8F08F15
:109F9000D43888BEE9FAA8BDC4B1B4BD9EEE213E56
:109FA000AD529C804F7E923E9015CB19A001FA3E97
:109FB0007751C1166CC1563F4C5555555555A53F67
:109FC000000000000000E73F0000E03F0000F03F1D
:109FD0003233D33F0000E93F0000D23F00000000D1
:109FE0002DE9F04FADF51B7D9F4CA49E9F4D54F87D
:109FF000264007942646D41E85FB0475E417C4EB5F
:10A00000A50424EAE4741D460A93631CA3EB8303AE
:10A01000013D02EBC30306932B460B940395651B8E
:10A02000F418049008911AD42C4400260027013417
:10A030000DF18808DDF8949208E059F8250014F035
:10A04000CBFD0135A542E8E8020108D0002DF4DA85
:10A05000013530463946A542E8E80201F6D1079BB2
:10A06000002BC0F2DF83079B03F1010B0A9B22A99F
:10A07000DB001A4601EB03090093049B0DF5E47A1B
:10A0800019460AEBCB0B01EB0208039B002BC0F235
:10A09000F582049C4D460026002775E90223F4E86A
:10A0A000020114F0FFFD02460B463046394614F01B
:10A0B00047FC444506460F46EFD1EAE80267DA4519
:10A0C00009F10809E1D107990098049C009101F178
:10A0D0008043013B9B0020441A1F83460EA8024484
:10A0E00003440C920D93009A9AA901EBC203002A33
:10A0F00053E9284529DD0DF5E47A0AEBC2080DF194
:10A10000340900225A4B2046294614F0CBFD15F0A5
:10A1100079F814F061FD0022564B06460F4614F004
:10A12000C1FD02460B462046294614F007FC15F0F7
:10A1300069F878E9022349F8040F3946304614F0EB
:10A14000FFFBD04504460D46DBD1DDF818902046D4
:10A1500029464A4601F050F800224FF07F5304464A
:10A160000D4614F09FFDFCF75FFD0022424B14F0FA
:10A1700099FD02460B462046294614F0DFFB0D46AA
:10A18000044615F03FF8804614F026FD0B460246C3
:10A190002946204614F0D2FB4B46002B06460F46BC
:10A1A00040F3F980009A0EA9013AC9F1180351F859
:10A1B000225045FA03F101FA03F30EA8EB1A40F816
:10A1C0002230C9F11705884443FA05F5002D6DDDED
:10A1D000009B002B08F1010840F36F820E9C002CBD
:10A1E00040F01683009B012B40F38F820EAA0123BF
:10A1F00052F8044F002C00F08382581C0EAAC4F1C0
:10A20000807442F82340009A824219DD0EAA0EACF7
:10A2100052F820106FF07F42511A44F82010009934
:10A22000023399420CDD1046009A0EA901EB83031C
:10A2300001EB82011A68821A43F8042B8B42F9D190
:10A24000069B002B1ADD069B012B4FF0010440F00A
:10A250003C82009B5A1E0EAB0EA953F82230C3F36A
:10A26000160341F822303CE27C190400ABAAAA2A6A
:10A270000000703E0000704100002040022D15D10A
:10A2800032463B460020924914F058FB06460F46E2
:10A29000069A8F49002000F0AFFF02460B46304679
:10A2A000394614F04BFB022506460F4600220023D8
:10A2B0003046394614F05EFF002800F03782009ADD
:10A2C000079B501E83420FDC02F18043013B0EAA24
:10A2D0000D9C02EB8303002253F80419A34242EAC7
:10A2E0000102F9D1002A67D1079B0EAA013B52F85F
:10A2F0002330002B40F018820C9A012352F80419E5
:10A3000001330029FAD0009AD31802F1010A9A45C4
:10A3100009933DDC009B0A990B9A0B4409990AEBBF
:10A320000208994622AB08F1804803EBC9098B1853
:10A33000A59A08F1FF3802EB880872AA02EBCA0A54
:10A34000A59A02EB8303009358F8040F14F044FC21
:10A35000039B002BE9E802014FF000064FF00007D5
:10A3600011DB049C4D4675E90223F4E8020114F068
:10A3700099FC02460B463046394614F0E1FA5C453A
:10A3800006460F46EFD1009B9845EAE80267DBD10D
:10A39000099B0093A7E606D1009B0EAA013B52F849
:10A3A0002350ED1512E700224A4B14F001FF00285C
:10A3B00040F06E81054679E70EA9039551F82030EB
:10A3C0000699CDF8248018390246009006916BB9A1
:10A3D00000F18043013B0EA800EB830353F804090E
:10A3E000013A18390028F9D000920691069A3849A6
:10A3F000002000F001FF009B002B04460D46C0F238
:10A40000F781DA0072A901EB020B06920EAA02EBA9
:10A410008306DFF8C4904FF000080BF108070436FC
:10A4200056F8040D14F0D8FB22462B4614F03AFCE3
:10A430004B4667E9020142462046294614F032FCA9
:10A440000EAB9E4204460D46EAD14AACDDF81C90A4
:10A4500004944FF0000AB9F1000FC0F22B81DFF82D
:10A460007C805D4618A1D1E9000100260027002468
:10A4700003E0544510DCF8E80201F5E8022314F08B
:10A4800011FC02460B463046394614F059FA0134A5
:10A49000A14506460F46ECDA049B03EBCA03ABF179
:10A4A000080BC3E9006770AB9B450AF1010AD2D1E2
:10A4B000A49B049C032B00F28980DFE803F0C58E87
:10A4C0008E1100BFAFF3008000000040FB21F93F78
:10A4D0000000F03F0000E03F0000703E90FF0300EE
:10A4E000009B002B40F38181069A04EB020ADAE913
:10A4F000008902F1080525440DF5987B1AED027BD1
:10A5000042464B4651EC170B8DED047B14F018FAC4
:10A5100006460F4602460B46DDE9040114F00EFA2A
:10A5200042464B4614F00CFA65E902015D45B0461F
:10A53000B9466AE90267E1D1009B012B40F35581DE
:10A54000069BE518D5E9008903F1080B04EB0B0A1B
:10A5500015ED027B42464B4651EC170B8DED007B0F
:10A5600014F0EEF906460F4602460B46DDE90001FF
:10A5700014F0E4F94B46424614F0E2F96AE90201AC
:10A580004EAB5345B046B94665E90267E0D10020BD
:10A59000002104EB0B0575E9022314F0D1F9AA455B
:10A5A000F9D1039B002B00F00A816268E368089FE1
:10A5B0002568A4683D6002F1004203F1004301F107
:10A5C00000417A60FB60BC6038617961099B03F0EF
:10A5D00007000DF51B7DBDE8F08F069D083525446D
:10A5E0000020002175E9022314F0AAF9A542F9D14F
:10A5F000039B002B00F0D280089E024601F100432D
:10A6000086E80C000B460246D4E9000114F096F9E6
:10A61000009B002B0BDD4CAD0124F5E8022314F068
:10A620008FF9009B0134A342F7DA039B13B101F1C8
:10A6300000431946089BC3E90201099B03F0070088
:10A640000DF51B7DBDE8F08F069D0835002000212B
:10A65000254475E9022314F073F9AC42F9D1039B48
:10A6600013B101F100431946089BC3E90001099B9E
:10A6700003F007000DF51B7DBDE8F08F00260027D5
:10A68000EAE80267DA4509F108097FF4FEAC1AE549
:10A69000009B002B08F10108C8BF02253FF79EADC3
:10A6A00032463B460020614914F048F9022506462F
:10A6B0000F46FBE500260027EEE6069B002B27DD74
:10A6C0000024069B012B3FF4C4AD022B09D1009B53
:10A6D0005A1E0EAB0EA953F82230C3F3150341F8EE
:10A6E0002230022D7FF4E2AD32463B4600204F4936
:10A6F00014F024F906460F46002C3FF4D7ADC7E509
:10A700000099013399427FF473AD069B002BD8DC8E
:10A71000022D7FF4CBAD32463B460020434914F076
:10A720000DF906460F46C1E50123ECE53946069FC3
:10A7300003957A423046CDF8248000F05DFD00227A
:10A740003B4B04460D4614F033FD002843D0002255
:10A75000384B2046294614F0A5FA14F053FD06465E
:10A7600014F03AFA0022324B14F09CFA02460B46DF
:10A770002046294614F0E2F814F044FD00990B46F7
:10A7800001331A4600933B46183306930B460EA935
:10A7900041F82300134641F8236027E6089B024650
:10A7A000C3E900010B46D4E9000114F0C7F8009B8F
:10A7B000002B3FF730AF089BC3E902013DE7D4E926
:10A7C0000067D4E90223089DC5E90401C5E90067D3
:10A7D000C5E90223FAE62946204614F013FD009A43
:10A7E0000EA941F8220001E64AAC00200021D8E67B
:10A7F000A49B032B3FF6EAAE01A252F823F000BF60
:10A800001FA8020017A8020017A80200E9A702006B
:10A8100001200023F2E4002000214AACE8E60020F9
:10A8200000211CE70A9BDB0000934CE40000F03F92
:10A83000000070410000703E2DE9F04F21F000460D
:10A84000B6F1795F85B004460D469046994604DA24
:10A8500014F0D8FC002800F0858022462B462046C4
:10A86000294614F01FFA06460F4602460B462046BC
:10A87000294614F017FA41A3D3E9002382468B46F8
:10A880003046394614F00EFA3EA3D3E9002314F003
:10A8900055F832463B4614F005FA3CA3D3E90023B1
:10A8A00014F04EF832463B4614F0FCF939A3D3E9D4
:10A8B000002314F043F832463B4614F0F3F937A373
:10A8C000D3E9002314F03CF80E9BCDE900019BB3C3
:10A8D0000022294B4046494614F0E4F9DDE9002303
:10A8E000CDE902015046594614F0DCF902460B4608
:10A8F000DDE9020114F022F832463B4614F0D2F9A9
:10A9000042464B4614F01AF819A3D3E90023064631
:10A910000F465046594614F0C5F902460B463046DC
:10A92000394614F00DF802460B462046294614F02D
:10A9300005F805B0BDE8F08F02460B4630463946B3
:10A9400014F0B0F90AA3D3E9002313F0F7FF52463D
:10A950005B4614F0A7F922462B4613F0F1FF05B031
:10A96000BDE8F08F2046294605B0BDE8F08F00BF56
:10A97000495555555555C53F0000E03F7CD5CF5A48
:10A980003AD9E53DEB9C2B8AE6E55A3E7DFEB15770
:10A99000E31DC73ED561C119A0012A3FA6F81011D9
:10A9A0001111813F000000002DE9F04FBE4C21F055
:10A9B000004687B0A64282468B460F46CDE900236B
:10A9C0001BDC14F01FFC002837D153461E43109B9C
:10A9D0000133334300F0B381109B012B00F0C88199
:10A9E00052465B460020B14914F086FA04460D46F3
:10A9F0002046294607B0BDE8F08FAD4B9E421CDDD6
:10AA00000029C0F2A98152465B4687A1D1E9000125
:10AA100013F094FFDDE9002304460D4684A1D1E93B
:10AA2000000113F08BFF9FED847B22462B468DEDBA
:10AA3000007B13F085FF82468B4652465B465046AC
:10AA4000594614F02FF902460B468046894614F009
:10AA500029F9424604460D464B465046594614F0E5
:10AA600021F977A3D3E90023CDE902012046294645
:10AA700014F018F974A3D3E9002313F061FF224600
:10AA80002B4614F00FF972A3D3E9002313F058FFFB
:10AA900022462B4614F006F96FA3D3E9002313F0E6
:10AAA0004FFF22462B4614F0FDF86DA3D3E9002397
:10AAB00013F046FF22462B4614F0F4F86AA3D3E9BC
:10AAC000002313F03DFF42464B4614F0EBF868A319
:10AAD000D3E90023CDE904012046294614F0E2F829
:10AAE00065A3D3E9002313F02BFF22462B4614F075
:10AAF000D9F863A3D3E9002313F022FF22462B46A3
:10AB000014F0D0F860A3D3E9002313F019FF224614
:10AB10002B4614F0C7F85EA3D3E9002313F010FF0F
:10AB200022462B4614F0BEF85BA3D3E9002313F0B2
:10AB300007FF02460B46DDE9040113F001FFDDE9E2
:10AB4000022314F0AFF8DDE9004522462B4613F04E
:10AB5000F7FE42464B4614F0A5F802460B46204647
:10AB6000294613F0EDFE4EA3D3E9002304460D461B
:10AB7000DDE9020114F096F822462B4613F0E0FEC0
:10AB80000B460246804689465046594613F0D8FE89
:10AB9000474B9E4204460D4600F38E80109B012BCE
:10ABA0003BD002460B460020404914F0A5F9002492
:10ABB00006460F462046294652465B46CDE90067C9
:10ABC000CDE90201009413F0B9FEDDE900AB0246C5
:10ABD0000B464046494613F0B1FE52465B4614F020
:10ABE00061F8524604460D465B46DDE9020114F069
:10ABF00059F800222F4B13F0A3FE02460B462046C5
:10AC0000294613F09DFE32463B4614F04BF852465F
:10AC10005B4613F095FE04460D462046294607B0D4
:10AC2000BDE8F08FAFF30080182D4454FB21E93FBD
:10AC3000075C143326A6813C0000000000000000E1
:10AC4000D47ABF74702AFB3EE9A7F0320FB8123FE6
:10AC500068108D1AF726303F1583E0FEC8DB573F9A
:10AC600093846EE9E326823FFE41B31BBAA1AB3F5A
:10AC7000735360DBCB75F3BEA69237A0887E143F7A
:10AC80000165F2F2D844433F280356C9226D6D3F57
:10AC900037D60684F464963F7AFE10111111C13F35
:10ACA000635555555555D53FFFFF2F3E0000F0BF6A
:10ACB0002794E53F0000F03F109813F08DFF2246E7
:10ACC000CDE900012B462046294613F0EBFFDDE9D4
:10ACD0000023CDE902012046294613F031FE024649
:10ACE0000B46DDE9020114F007F942464B4613F02A
:10ACF00025FE02460B465046594613F01FFE0246FB
:10AD00000B4613F01DFE02460B46DDE9000113F071
:10AD100015FE0446B81700F00200C0F101000D4610
:10AD200013F05AFF02460B462046294613F0BAFF9D
:10AD300004460D462046294607B0BDE8F08F504630
:10AD4000594611F02BFC02460B4600200A4914F02C
:10AD5000D3F804460D4660E7DDE9004501F1004106
:10AD6000224605F1004382468B46CDE900234AE6A0
:10AD700054465D4651E700BF0000F03F0000000070
:10AD80002DE9F04FD24A21F00043934285B082462C
:10AD90008B460C462DD9CF4A93421AD8002C80F20C
:10ADA0001681B5A3D3E900235046594613F0C8FDD8
:10ADB0000022002314F0E8F9C0B9B1A3D3E90023BD
:10ADC0005046594613F06EFF02460B460020C2491A
:10ADD00008E1C24A934240F2D0800346C1F3130215
:10ADE000134340F0F481002980F2C4800020BC4964
:10ADF000C0E0BC4A934200F22981BB4A934240F230
:10AE0000DE80002301930022B84B5046594613F0D0
:10AE100049FF06460F4602460B465046594613F078
:10AE200041FF99A3D3E9002304460D4613F03AFFEE
:10AE300097A3D3E9002313F083FD22462B4613F09A
:10AE400031FF95A3D3E9002313F078FD22462B466A
:10AE500013F028FF92A3D3E9002313F071FD2246DB
:10AE60002B4613F01FFF90A3D3E9002313F066FDD8
:10AE700022462B4613F016FF00229D4B13F060FD77
:10AE80008046894602460B463046394613F00AFF93
:10AE900002460B460020974913F050FD0646024635
:10AEA0000B460F464046494613F048FD3246804661
:10AEB00089463B465046594613F0F4FE02460B467F
:10AEC00000208D4913F03AFD02460B4640464946A4
:10AED00014F012F822462B4613F0E4FE019E0246BF
:10AEE0000B46002E38D0DDE9026732463B4613F0B0
:10AEF00025FD52465B4613F0D5FE32463B4613F025
:10AF00001DFD2B46224613F019FD019B0133064619
:10AF10000F4600F00F81019B012B00F0F180019B97
:10AF20000133392B39D8019B132B40F31281019C3B
:10AF3000C4F57F75033500222B0513F001FD024691
:10AF40000B465046594613F0F9FC0022684B13F0AB
:10AF5000F7FC01EB04510DE05046594613F0A2FEF8
:10AF600022462B4613F0EAFC02460B465046594651
:10AF700013F0E4FC05B0BDE8F08F4DA3D3E9002346
:10AF800014F020F900283FF409AF4BA3D3E90023C4
:10AF90001046194613F086FEECE752465B4613F066
:10AFA000CDFC02460B460020514913F0C7FC019A24
:10AFB0004F4B01EB0251002213F0C0FCDAE73EA335
:10AFC000D3E9002313F0BCFC02460B46CAE72CA3CE
:10AFD000D3E900235046594613F064FE0B4643491B
:10AFE0000246002013F0ACFC14F00CF9019013F0B1
:10AFF000F3FD33A3D3E9002306460F4613F052FEB8
:10B0000002460B465046594613F098FC2EA3D3E94E
:10B010000023804689463046394613F043FE0646F3
:10B020000F4632463B464046494613F087FC0246EF
:10B030000B4682468B464046494613F07FFC32461B
:10B040003B4613F07BFCCDE90201DCE62B4A934240
:10B0500000F2958000291AA3D3E90023C0F2AC8046
:10B0600013F06CFC012380468946019316A7D7E9AB
:10B070000067D6E7AFF3008059F3F8C21F6EA50151
:10B08000FE822B654715F73F2DC3096EB7FD8ABEBB
:10B090003952E686CACFD03EB7DBAA9E19CE143FFE
:10B0A0008555FE19A0015A3FF41011111111A13F4D
:10B0B000EF39FAFE422E86409C7500883CE4377ECC
:10B0C0000000E0FE422EE63F763C7935EF39EA3D5E
:10B0D00079684340412E86400000E0BFFFFFEF7FCC
:10B0E0000000F0BF422ED63FFFFF8F3C0000E03F44
:10B0F0000000F03F0000084000001840B1A2F03FFF
:10B100000022394B5046594614F03EF8002844D0EE
:10B11000504659460022354B13F012FC02460B46AE
:10B120003046394613F00AFC00224FF0404313F03A
:10B13000B9FD1FE702460B465046594613F0FEFB89
:10B1400000222A4B13F0AEFD0022284B13F0F6FB31
:10B1500010E7019C4FF400132341C3F17F5752467F
:10B160005B4613F0EBFB002607F5401702460B4643
:10B170003046394613F0E2FB01EB0451FAE616A320
:10B18000D3E9002313F08EFD002C02460B464FF04E
:10B190000000FFF61CAE154924E732463B465046F8
:10B1A000594613F0CBFB02460B4613F0C9FB0022B5
:10B1B0000F4B13F0C5FBDDE613F0C2FB4FF0FF337E
:10B1C00080468946019306A7D7E9006729E702462A
:10B1D0000B4613F0B5FBCDE6FE822B654715F73F16
:10B1E000763C7935EF39EABD0000D0BF0000E03F82
:10B1F0000000F03F00000000F8B5C1F30A56044615
:10B200000D460B4617460EBB21F00043034386460E
:10B2100025D00022344B13F045FD344A97420446B2
:10B220000D460B462ADBC1F30A56363E3E4440F239
:10B23000FE72964228DC002E12DD23F0FF4323F439
:10B24000E00343EA065520462946F8BD40F2FF7266
:10B250009642EBD102460B4613F072FBF8BDF8BDE7
:10B2600016F1350F1DDA4CF250339F4222462B4621
:10B2700025DC19A1D1E9000113F0D2FA16A3D3E914
:10B28000002313F00FFDF8BD22462B4614A1D1E98F
:10B29000000113F0C5FA12A3D3E9002313F002FD55
:10B2A000F8BD23F0FF4323F4E003363643EA0655A6
:10B2B0002046294600220E4B13F0F4FCF8BD08A1ED
:10B2C000D1E9000113F0ACFA05A3D3E9002313F090
:10B2D000E9FCF8BDAFF3008059F3F8C21F6EA50179
:10B2E0009C7500883CE4377E00005043B03CFFFF73
:10B2F0000000903C10B5054C237833B9044B13B1D2
:10B300000448AFF300800123237010BD1085002096
:10B3100000000000D41A04000C4B43B10C480D4946
:10B3200010B5AFF300800C48036823B910BD0A487C
:10B33000036833B97047094B002BF7D0BDE81040C4
:10B340001847064B002BF5D0184700BF000000003F
:10B35000D41A04001485002014820020000000008C
:10B36000154B002B08BF134B9D46A3F5803A0021D7
:10B370008B460F461348144A121A07F047FF0F4B2B
:10B38000002B00D098470E4B002B00D09847002090
:10B39000002104000D000D48002802D00C48AFF336
:10B3A000008013F073FA2000290005F08DF813F0E7
:10B3B00059FA00BF0000080000000420000000004F
:10B3C0000000000000840020948C00200000000099
:10B3D0000000000070B504460E4600F0C7FA88B1C0
:10B3E0000368DB6A05469847082C0CD0A4F10903D2
:10B3F000012B14D93246214610230D20BDE87040A0
:10B4000004F03CB970BD2B6828465B6A9847022857
:10B41000F0DC2B6828461B6A04219847EAE72B6872
:10B4200028465B6A98470528E4DC2B6828461B6A97
:10B4300008219847DEE700BF30B52DED028B83B0C1
:10B44000054600F093FA044640B10368DB6A98476A
:10B45000032D50D8DFE805F0373F470801900198E9
:10B4600003B0BDEC028B30BD20460AF0C3FC07EEF2
:10B47000900A2046F8EEE78A0AF0CCFC07EE900A24
:10B480002046B8EEE78A0AF0D5FC68EE087A07EEA7
:10B49000100AE8EEA87AB8EEC77AE7EE077AF5EE7A
:10B4A000407AF1EE10FAB1EEE78A03D517EE900A72
:10B4B00011F0B4FEFDEEC87ACDED017A019803B02B
:10B4C000BDEC028B30BD204603B0BDEC028BBDE865
:10B4D00030400AF08FBC204603B0BDEC028BBDE8C3
:10B4E00030400AF097BC204603B0BDEC028BBDE8AB
:10B4F00030400AF09FBC00230193B0E738B5054601
:10B5000000F034FA58B10368DB6A0446984745B145
:10B51000012D04D12046BDE83840FBF79DB800203E
:10B5200038BD2046BDE83840FBF776B810B5044674
:10B5300000F01CFA28B1036821461B6ABDE81040E0
:10B54000184710BD0048704716FCFFFF704700BF4A
:10B5500010B5034B036004460AF02CFA204610BDD8
:10B56000640F040010B5054B036004460AF022FA8C
:10B57000204614F0D9F8204610BD00BF640F040027
:10B580002DE9F043AC4F3C6885B01CB1204605B0B6
:10B59000BDE8F0834FF0FF31012001F031FDC0B272
:10B5A00004F044FB002800F06D810C2014F0BEF87C
:10B5B00003210546512001F023FDDFF89CE29F4B5B
:10B5C000064606F00F08C6F3031916F4807618BF76
:10B5D00073469B4841464A4609F0B0FB321C18BFEF
:10B5E00001224B46414628460DF03EFF9548AC608F
:10B5F00009F0A4FB4FF0FF31032001F001FDC0B2C0
:10B6000004F014FB4FF0FF310446022001F0F8FC77
:10B61000C0B204F00BFB002C00F0F880002800F012
:10B62000F5800146204604F00BF90646002800F09C
:10B6300025814FF0FF31462001F0E2FCA0F13003FC
:10B640008046382B00F2B480DFE803F097B297B25F
:10B65000B2B2B2B27CB263B246B2B2B2B2B2B2B2BB
:10B66000B2B2B2B2B2B2B2B2B2B2B2B2B2B2B2B2BA
:10B67000B2B2B2B2B2B2B2B2B2B2B2B2B2B2B2B2AA
:10B68000B2B2B2B21D004FF0FF31012001F0B8FCA0
:10B69000C0B204F0CBFA80464C2014F047F84FF0CB
:10B6A000050E682304468DE80840424631462B4685
:10B6B0000CF0A0FA2046A86003689B6A9847A86827
:10B6C0000368DB6A9847604809F038FB2C4620463F
:10B6D0003D6005B0BDE8F0834FF0FF31012001F07F
:10B6E0008FFCC0B204F0A2FA04462C2014F01EF81D
:10B6F000224631463C2380460BF0DAFD3C2014F014
:10B7000015F84146044605232A460BF0C7FE20469D
:10B71000D1E74FF0FF31012001F072FCC0B204F01C
:10B7200085FA8046442014F001F84FF0050E3A23C4
:10B7300004468DE80840424631462B460CF0B2F9EB
:10B740002046B8E74FF0FF31012001F059FCC0B2AC
:10B7500004F06CFA8046442013F0E8FF4FF0050E29
:10B76000382304468DE8084042462B4631460CF00B
:10B7700099F9364B236020469DE74FF0FF310120B9
:10B7800001F03EFCC0B204F051FA81464C2013F0A7
:10B79000CDFF1FFA88F34FF0050E044600934A468A
:10B7A0003146CDF804E02B460CF006F8204682E73F
:10B7B00032680124002301940094D2F82080AB6009
:10B7C0000F220DF10F0332213046C047002845D12A
:10B7D0004FF0320841461E4809F0B0FA4FF0FF31F1
:10B7E000012001F00DFCC0B204F020FA81464C208B
:10B7F00013F09CFF0523044601934A46CDF80080D0
:10B8000031462B460BF0D8FF204654E7114809F08B
:10B8100095FA4FF0FF31192001F0F2FBC0B204F0AD
:10B8200005FA4FF0FF310446182001F0E9FBC0B2E1
:10B8300004F0FCF9F5E600BF2C8500201C00040094
:10B840002400040044000400DC000400E0FF0300C6
:10B850000001040054000400140004003368019443
:10B860000094D3F820800F220DF10F0330213046D1
:10B87000C04748B94FF030084146ACE7364809F0B8
:10B880005DFA23E73C6881E6336801940094D3F8BD
:10B8900020800D220DF10F0338213046C04738B902
:10B8A00038212E4809F04AFA20464FF0FF314CE784
:10B8B000336801940094D3F820800D220DF10F031A
:10B8C0003C213046C04738B93C21244809F036FABB
:10B8D00020464FF0FF3102E7336801940094D3F81B
:10B8E00020800D220DF10F033A213046C04738B9B0
:10B8F0003A211A4809F022FA20464FF0FF310BE7AF
:10B90000326801940094D2F820800DF10F03752263
:10B9100068213046C04738B96821104809F00EFA4E
:10B9200020464FF0FF31B1E60D4809F007FAA8684C
:10B9300000287FF4C1AE4FF0FF31032001F060FB1F
:10B94000C0B204F073F918B1064809F0F7F9BDE682
:10B95000054809F0F3F9B9E66800040000010400A5
:10B96000EC00040080000400BC00040008B5FFF7F0
:10B9700007FE00B1806808BD08B501F069FCFBF75F
:10B980000FFCBDE8084001F0CFB900BF08B501F0D9
:10B990005FFCFBF775FCBDE8084001F0C5B900BFCE
:10B9A00008B501F055FC10F06FFEBDE8084001F04D
:10B9B000BBB900BF08B501F04BFC11F077FABDE848
:10B9C000084001F0B1B900BF08B501F041FCFBF738
:10B9D000F7FBBDE8084001F0A7B900BF08B501F0CA
:10B9E00037FC11F08FF8BDE8084001F09DB900BFA9
:10B9F00008B501F02DFCFAF74FFEBDE8084001F054
:10BA000093B900BF08B501F023FC10F0CFFFBDE8EB
:10BA1000084001F089B900BF70B5049E96420C46FB
:10BA200028DB15466BB1002A00EB020107DD20463A
:10BA3000A21811F8013D00F8013B9042F9D1002015
:10BA400070BD042A0FD0022A02D110F0010306D0E3
:10BA500001462A46204606F0F7F9002070BD02880C
:10BA60000A80184670BD10F00303F1D102680A6025
:10BA7000184670BD0846002107F0C8FB4FF0FF30A4
:10BA800070BD00BF0830704740B1002905DB436836
:10BA9000994202DA0844007A70470020704700BFDC
:10BAA00030B1002904DB43689942BCBF40180272E0
:10BAB000704700BF40B1002905DB4368994202DAB4
:10BAC0000844007A70470020704700BF830705D103
:10BAD00020B1030F0CBF01200020704701207047E8
