:10200000008000204D0A0100490A01006D720000A5
:1020100000000000000000000000000000000000C0
:10202000000000000000000000000000490A01005C
:102030000000000000000000490A0100490A0100F8
:10204000490A0100490A0100490A0100490A010040
:1020500069B20100490A0100D9D6010021A001009E
:10206000490A010005D3010015D3010025D3010061
:1020700035D3010045D3010055D30100EDC5010062
:10208000FDC501000DC601001DC6010029C60100E5
:1020900035C601000000000000000000490A0100F0
:1020A000490A0100490A0100490A0100490A0100E0
:1020B000000000007CB0EE877CB0EE87FF00FF00E0
:1020C000FF00FF00FF00FF00FF00FF00FF00FF0018
:1020D000FF00FF00FF00FF00FF00FF00FF00FF0008
:1020E000FF00FF00FF00FF00FF00FF0010B5064CDF
:1020F0002378002B07D1054B002B02D0044800E0C9
:1021000000BF0123237010BDE80200200000000082
:102110009CB70200084B10B5002B03D007490848B4
:1021200000E000BF07480368002B00D110BD064B3C
:10213000002BFBD09847F9E700000000EC020020DC
:102140009CB702009CB702000000000070B50500BB
:102150000E0000F07FFA041E0ED00368DB6A984779
:10216000082D0AD02B00093B012B12D91023320075
:1021700029000D2004F0E6FB70BD236820005B6A97
:1021800098470228F2DC236804211B6A2000984744
:10219000ECE7236820005B6A98470528E6DC2368A3
:1021A00008211B6A20009847E0E7C04670B505008B
:1021B00000F050FA041E3CD00368DB6A9847012DFA
:1021C0003DD030DD022D36D0032D32D120000FF06E
:1021D000A5FF1DF0EDF8061C20000FF0ADFF1DF06F
:1021E000E7F8051C20000FF0B5FF1DF0E1F8311CE9
:1021F000041C301C1CF0E8FD291C061C281C1CF0CB
:10220000E3FD011C301C1CF05DFA211C051C201C88
:102210001CF0DAFD011C281C1CF054FA20F010FF01
:102220001DF0A6F806E0002D03D120000FF076FF88
:1022300000E0002070BD20000FF08CFFFAE72000C6
:102240000FF07AFFF6E7C04670B5050000F002FA1D
:10225000041E06D00368DB6A9847002D07D0012DC5
:1022600001D0002070BD200010F022F8FAE7200015
:102270000FF0F4FFF6E7C04610B5040000F0EAF9ED
:10228000002803D0036821001B6A984710BDC04690
:102290000048704716FCFFFF7047C04610B50400A9
:1022A000024B03600FF0F0FC200010BDF4A402000C
:1022B00010B50400044B03600FF0E6FC200026F08C
:1022C00079F9200010BDC046F4A40200F0B5CE4656
:1022D000474680B5D14E85B03068002804D005B09F
:1022E0000CBC90469946F0BD01210130494201F0F5
:1022F00089FF05F05DFB002800D174E10C2026F079
:102300005DF903210400512001F07CFF80250F2797
:10231000010003116D00394080461F40054000D088
:1023200036E1BF4B3A00BF480EF04CFE6A1E9541A5
:1023300043460F21EAB2194020003B0015F06AFC29
:102340000023B948A3600EF03DFE0121032049425D
:1023500001F058FF05F02CFB012105004942022045
:1023600001F050FF05F024FB002D00D112E1002800
:1023700000D10FE10100280004F0C6FF071E00D1C4
:102380002DE101214620494201F03CFF0300303B92
:102390000500382B00D9CEE0A44A9B00D3589F46B5
:1023A0003B68019500951D6A0F2375226B446821D7
:1023B0003800A847002800D017E168219C480EF09B
:1023C00001FE01210120494201F01CFF05F0F0FA55
:1023D00080464C2026F0F2F8052305000193633374
:1023E000009342462300390013F06EF92800A060E4
:1023F00003689B6A9847A0680368DB6A98478D4822
:102400000EF0E0FD3460200069E73B68019500951F
:102410001B6A0D2298460F233C216B443800C047AD
:1024200000281FD13C2182480EF0CCFD0121012063
:10243000494201F0E7FE05F0BBFA05002C2026F02A
:10244000BDF82A003C233900804611F001FE3C20F3
:1024500026F0B4F8050005232200414611F0F2FEF3
:102460002800C4E73B68019500951B6A0D22984639
:102470000F233A216B443800C047002890D13A21FD
:102480006B480EF09FFD01210120494201F0BAFE88
:1024900005F08EFA8046442026F090F805230500CA
:1024A00001933533009342462300390013F062F85C
:1024B00028009CE73B68019500951B6A0D22984611
:1024C0000F2338216B443800C04700289DD13821A4
:1024D00057480EF077FD01210120494201F092FE9C
:1024E00005F066FA8046442026F068F805230500CA
:1024F00001933333009342462300390013F03AF836
:102500004D4B28002B6072E701210120494201F068
:1025100079FE05F04DFA81464C2026F04FF8052350
:1025200080460193ABB200934A462300390012F073
:10253000A7FE40465BE700230125A3603B680195A9
:1025400000951B6A0F2298460F2332216B443800F6
:10255000C047002831D132233221994634480EF049
:1025600031FD01210120494201F04CFE05F020FA25
:1025700080464C2026F022F8052301934B460500A7
:10258000009342462300390012F07AFE28002EE71D
:102590002A4BC7E62A480EF015FD012119204942B1
:1025A00001F030FE05F004FA01210500494218202F
:1025B00001F028FE05F0FCF9DCE63B68019500958A
:1025C0001B6A0F2298460F2330216B443800C04706
:1025D000002800D06EE7302330219946BEE7194825
:1025E0000EF0F0FC0EE7306879E617480EF0EAFCD2
:1025F000A068002800D0FBE601210320494201F039
:1026000001FE05F0D5F9002803D010480EF0DAFCE1
:10261000F8E60F480EF0D6FCF4E6C04604030020AE
:10262000488F0200508F0200708F0200208E02003F
:102630002C900200089002000C8F0200408F0200D4
:10264000808F0200948F020018900200AC8F02006D
:10265000E88F020010B5FFF739FE002801D080682E
:1026600010BD0020FCE7C04610B501F007FF1FF0C9
:10267000C1FB01F0F1FA10BD10B501F0FFFE1FF033
:1026800069FF01F0E9FA10BD10B501F0F7FE1FF087
:1026900033FC01F0E1FA10BD10B501F0EFFE20F0BF
:1026A00007FB01F0D9FA10BD10B501F0E7FE1FF0ED
:1026B000E7FE01F0D1FA10BD10B501F0DFFE1FF00A
:1026C00067FE01F0C9FA10BD10B501F0D7FE1EF08B
:1026D000B3FD01F0C1FA10BD10B501F0CFFE1FF03F
:1026E00097FD01F0B9FA10BD10B50C0002999142A6
:1026F00023DB002B0BD1042A19D0022A01D1C307F6
:1027000011D50100200008F0E3FB002010BD2100DE
:102710008018A418002AF8DD013803780B70013105
:10272000A142F9D1F1E7038800202380EEE7830777
:10273000E7D1036800202360E8E70021200009F0CA
:10274000AFFD01204042E1E7083070470300002060
:10275000002B06D0002904DB5A68914201DA5B188D
:10276000187A7047002806D0002904DB4368994294
:1027700001DA40180272704703000020002B06D0D7
:10278000002904DB5A68914201DA5B18187A704715
:102790000123820705D1002803D0000F434258418E
:1027A000C3B218007047C046002806D0002904DBD9
:1027B0004368994201DA40180272704770B5002BE5
:1027C00021DB00291FDB4668B1421CDC5568761A04
:1027D000ED1AB5420CDC002D15DB82420AD008321E
:1027E00008304018D1182A0008F072FB002070BD94
:1027F0003500F0E70832D31850182A00190025F0E8
:1028000017FF0020F3E701204042F0E740687047DF
:1028100010B5002A0DDB4468A2420ADC002B09DB5C
:10282000A41A9C4200DD1C0008308018220009F028
:1028300037FD10BD2300F3E7436810B51C008B4241
:1028400000DD0C00002A08DB191B914200DD11009D
:102850000830001900F052FF10BD1A00F4E7C0461E
:1028600070B50E00002B20DB002A1DDB4468991890
:10287000A14219DC8A4217DC002B15D0710013D05D
:1028800059428E4214DDB34212DD08308518002E05
:1028900016DB9C1BA9192200280025F0C9FE281967
:1028A0003200002109F0FCFC70BD43689B1ADBE795
:1028B000002CF9DB22000021083009F0F1FCF3E7DD
:1028C00074429A192900281925F0B2FE220000212D
:1028D000280009F0E5FCE7E710B54168083000F092
:1028E00079FE10BDF8B5040043680020590000F0DF
:1028F000EBFD6668002E0FDD0F272200A619074C9E
:10290000811D137A01321D113B40655DE35C0D7042
:102910004B7002319642F4D1F8BDC046C890020017
:1029200070B50400160008001D1E2BDB002E28DBEE
:102930006268AB19934224DC9E4222DC002D20D039
:1029400043001ED0002822DB29001BF099FC00293F
:1029500020DB220008329219511855198A4210D0F2
:102960000B0004E003008A420FD0934209D0147890
:102970001E78581C167001321C708542F2D10B0073
:10298000F3E770BD63689D1AD0E70100EDE72B0205
:10299000C018D9E74919DCE7012300B55B4283B0D1
:1029A00000930023FFF70AFF03B000BD10B50C1E13
:1029B0000DDD4168083002F053FB1F2C06DC0300DC
:1029C000E34058400123A340013B184010BD0020C4
:1029D000FCE7C04610B50100002000F08FFE10BDDE
:1029E00070B50021050000F023FE0100002000F07A
:1029F00085FE010004000831280000F019FE2000C7
:102A000070BDC04630B5040083B00D00102A0DD84B
:102A1000544992008A589746180001F047FE0090EA
:102A2000032D03DDA30700D096E0206003B030BD86
:102A3000180001F0A7FD002DF8DD2070F6E7180062
:102A400001F0A0FD6B461880012DEFDD1B7863704F
:102A50006B465B782370E9E7180001F093FD009066
:102A6000032DE3DD00216A46231D505C013B1870F5
:102A700001319C42F9D1D9E7180001F083FDC0B2C1
:102A8000002DD3DD2070D1E7180001F0F7FC009095
:102A90000191072DCADD08226946200008F018FAC6
:102AA000C4E7180001F012FD0090032DBADCBDE769
:102AB000180001F00BFD0090032DB7DD00216A46E0
:102AC000231D505C013B187001319C42F9D1ADE7E8
:102AD000180001F0D3FC00900191072DA6DD230022
:102AE0006A4608331178013B197001329C42F9D1D2
:102AF0009CE7180001F0DAFD0090032D96DD00211F
:102B00006A46231D505C013B187001319C42F9D18B
:102B10008CE7180001F036FD6B461880012D00DCB3
:102B200084E7E30716D502226946200008F0D0F9B1
:102B30007CE7180001F026FD6B4680B21880012D5D
:102B4000EFDC73E7180001F01DFD0090032D00DDA0
:102B500068E76BE7208069E704226946200008F0F7
:102B6000B7F963E74090020010B5002A07DB44681C
:102B70000830A41A80180A002100FFF743FF10BD97
:102B800010B584B0102A00D977E03D4B92009B58D5
:102B90009F460123009102A90822FFF7A5FD029894
:102BA000039901F059F804B010BD002302AC009164
:102BB00001222100FFF798FD0020205601F048F97E
:102BC000F1E7002302AC009101222100FFF78CFD08
:102BD000207801F03DF9E6E7002302AC00910222E3
:102BE0002100FFF781FD0023E05E01F031F9DAE713
:102BF000002302AC009102222100FFF775FD20881E
:102C000001F026F9CFE700230091042202A9FFF783
:102C10006BFD029801F01CF9C5E702AC009101239D
:102C2000C6E702AC00910123CEE702AC009101237C
:102C3000D5E702AC00910123DDE700910123E4E731
:102C400000230091042202A9FFF74EFD029801F033
:102C50000BF9A8E700910123F4E700230091042277
:102C600002A9FFF741FD029801F0ECF89BE7009103
:102C7000002390E700910123F1E7002093E7C0468D
:102C80008490020010B5002A08DB436808309B1AC4
:102C900080180A001900FFF773FF10BD002001F033
:102CA000D7F8FAE710B503F00DFD10BD10B503F02D
:102CB0000DFD8000800810BD10B503F043FE10BD6F
:102CC00010B50DF093FE10BD10B5C11703F0BCFC9C
:102CD00010BDC04610B503F0CBFC10BD10B503F01D
:102CE000D7FC10BD00B583B003F0E8FC0090019163
:102CF0000821684602F0B4F98000800803B000BDE6
:102D000000B583B003F0DAFC009001910821684619
:102D100000F0F4FC03B000BD70B50C1E0CD00B68C5
:102D200008001B6A9847236805005B6A20009847E3
:102D30000100280005F092FA70BDC04610B502F0FF
:102D4000ABF810BD10B5012002F048FB10BDC04625
:102D500010B5022002F042FB01480AF007F810BD4E
:102D600093030000014B18607047C0460803002021
:102D70007047C04600207047F0B54E46DE465746C5
:102D80004546E0B5894685B0111E00DCE3E04023EE
:102D90005B429B467F339A46203B9C46103B002477
:102DA000002298464D4609E001347F2B1DD80132A0
:102DB000002801D003700130A14226DD2B5D5FB2F7
:102DC000002FF1DA1F006646B743FFB2C02F00D1D3
:102DD00077E01F004646B743FFB2E02F00D18DE0F9
:102DE000F8271F40F02F18D0013402320028E3D01A
:102DF0005E469F093743564633408026764233432A
:102E0000077043700230A142D8DC100005B03CBC12
:102E100090469946A246AB46F0BDE71CB942E3DDB9
:102E200057462E19019676780296BE43802EDBD146
:102E3000019EB6780396BE43802ED5D1019EF678CA
:102E4000370001965646B743802FCDD1E0279E0428
:102E50007F033E40B1465646019F37404E463E43B3
:102E6000B146029E3703FC26B60237404E463E432B
:102E7000039F0196BE01FC273F013E403700019EA3
:102E80003743524EB146524EB944B145ACD80434E2
:102E9000504B9F4267D80332002800D18CE7202690
:102EA0003B0B7642334356460370BB0933408026C2
:102EB00076423343437053463B4033438370033081
:102EC0007AE7661CB146B14200DC82E72F197E78B2
:102ED000370001965646B743802F00D079E7F82790
:102EE0009E01FF00374002975746019E3E40029FD9
:102EF00037437F2F31DD3B00023476E7A71CB94210
:102F000000DC6DE757462E19019676780296BE438F
:102F1000802E00D064E7019EB6783700B146564651
:102F2000B743802F00D05BE71F073F0C01974E4649
:102F300057463E40019F3E43029F0196BE01FC273B
:102F40003F013E403700019E3743234EB74200DC2D
:102F50004AE703349CE7002257E702324C46002838
:102F600000D045E72AE7D8263602B146174B06328D
:102F7000FB189F0A4F44002800D11DE7ED2601975A
:102F80000670BE0957463E4080277F423E4346704A
:102F90005646019F9B053740802676423743DC2604
:102FA0003602B146ED26C67056469B0D4B448770DF
:102FB0009F09374080267642374356463340802665
:102FC00076423343077143710630F5E60000FFFF98
:102FD000FFFF0F00FFFF0000FF0700000200007866
:102FE00041B2002900DB70471F2301009943C0292B
:102FF00010D0F0230340E02BF5D1FC2153780901D8
:103000009B01194003073F2092781B0C0B43104093
:103010001843E8E78301F820C00003403F205278BE
:1030200010401843DFE7C0467047C04680880A302A
:1030300080087047063070478088704783888B42CD
:1030400002D30630401870470020FCE780880A3021
:10305000800870477047C0460630704780887047C8
:10306000F0B58488851D0020002C16D000231F2673
:103070000F2702E001339C420FDDEA5C013051B2C0
:103080000029F7DA1100B143C02907D0BA43E02A7A
:10309000F0D1023301339C42EFDCF0BD0133E9E7AC
:1030A000F0B5851D86880F20002200231F27844647
:1030B00002E001339E4213DBE818013204789142AA
:1030C0000FDB60B20028F4DA2000B843C02809D032
:1030D00060468443E02CECD1023301339E42EBDAAC
:1030E0000020F0BD0133E4E7C38880681B095B0062
:1030F000C018704780887047C088704703207047A9
:1031000040680B3080087047F0B54E464546DE46B5
:103110005746E0B5C6888268360976003300944683
:1031200083B06344019380468488002903D0220041
:10313000180007F0CDFE0023019A13554346DF889F
:103140003F0935D0130091467A00A14492461F00F2
:1031500000241F254B46DE1B1CD40F203A7810217B
:103160000023834607E001339E4213DBF818013940
:103170000278002925D050B20028F4DA1000A843C4
:10318000C0281CD058468243E02AECD102330133D8
:103190009E42EBDADC20800009F0E8FD0023019A72
:1031A00000279B1A4246926813530234A245D1D19C
:1031B00003B03CBC90469946A246AB46F0BD0133F5
:1031C000D1E70300019A07009B1A42469268135305
:1031D0000234A245BED1EBE710B58068002801D0CB
:1031E00001F0DAFF10BDC04610B50400406801F0E0
:1031F000F9FFA06801F0F6FF10BDC046F0B5C64665
:10320000070000B5994225D3126809094900180939
:103210005118002824D11F20844610380024002291
:10322000804602E00132974214DB881801340578A9
:10323000A34210DB6EB2002EF4DA28006646B043DB
:10324000C0280BD040468543E02DEBD1023201323D
:103250009742EADA002004BC9046F0BD0132E1E773
:10326000054CA44660444000805A0F223F1A0918BA
:10327000BFB21340CFE7C046FFFFFF7F020010B58B
:103280000B000832C1888088FFF7B8FF10BDC04628
:10329000F0B5DE4657464E464546E0B5434C83B052
:1032A000A1888346002900D075E05A46200002F02C
:1032B000D3FD0023994698463D4EA388002B11D09C
:1032C000200002F0DDFD036805009E424DD09B6AA0
:1032D00098472B6880445B6A28009847A3888144FC
:1032E000002BEDD143461E094B467600581C801931
:1032F00002F060FB8446A1880190664400294FD10A
:103300005A46200002F0A8FD294B9A46A388002BBC
:1033100016D0200002F0B4FD036805009A452FD0B6
:103320005B6A98472B6807001B6A280098473A0099
:103330000100300007F0CCFDA388F619002BE8D17E
:103340005A461C4B002113605B464A469A8042460F
:10335000DA80019A58469A60FFF7D6FE03B03CBC6B
:1033600090469946A246AB46F0BDA18882682000EF
:1033700002F072FD6A68A188200002F06DFD9CE7F2
:10338000A1888268200002F067FD6A68A188200099
:1033900002F062FDBAE7084809F0E8FCA18884E77A
:1033A000054809F0E3FCA188AAE7C0461003002005
:1033B0004C910200949102007103000010B50400CA
:1033C000FFF766FFE08810BD10B50400FFF760FF4F
:1033D000A08810BD10B50400FFF75AFFE088A3686D
:1033E00000094000181810BD70B504000D00FFF76B
:1033F0004FFF22002B000832E188A088FFF7FEFE75
:1034000070BDC04603207047032070478088704716
:103410007047C04600280FD043688B4201D0002B74
:1034200006D1531C07D083689A4204D0002B02D0E7
:1034300000680028F0D170470020FCE7084B1B68AB
:10344000002B0BD05A68904201D0002AF7D14A1CB9
:1034500004D09A68914201D0002AF0D11800704738
:103460000C030020F0B5C646164F00B53B680400BB
:103470000D009046002B03D10DE01B68002B0AD0F5
:103480005A68A242F9D19A68AA42F6D14246DA6055
:1034900004BC9046F0BD102002F09EFA061E04D037
:1034A00010220021300008F0FBFE3B683000336042
:1034B00043467460B560F3600C30012102F03CFBC0
:1034C0003E60E5E70C030020F8B506000C1E4FDB5C
:1034D000002C01D13B48F8BD002E68D0002C0CDD3B
:1034E00033787F2B1DD8731C311904E000229A56C3
:1034F0000133002A15DB9942F8D1E01D02F0A6F94C
:10350000051E5DD0304B2B60AC80002E04D0A81D72
:103510002200310007F0DCFC00232C19A3712800E5
:10352000D9E7132C28DD0C2002F090F9051E01D0FC
:10353000264B036000232800AB6002F015FB0F212F
:10354000AC80002200231F278C4602E001339C42FE
:1035500019DDF15C013248B20028F7DA0800B843FF
:10356000C0282BD060468143E029EFD10233EDE73C
:1035700025F0BEF80400ABE7E01D02F067F9051E78
:103580001ED0134BBFE7002392B2EA80120950000D
:103590000134AB60001902F00DFA3100A860280078
:1035A000FFF7B2FD280002F0F1FA280093E7E01DD2
:1035B00002F04CF9051EA5D1B480ADE70133C5E793
:1035C000AC80A4E7EC920200F49102009491020016
:1035D000C4910200F8B505000C1E1DDB002C02D1C1
:1035E000124C2000F8BD220029000020FFF7C4FB88
:1035F0000600844214D0300002F0EEF907002200E9
:103600002900FFF7B9FB31003800FFF75DFF040028
:10361000380002F0FFF8E4E725F06AF80400DDE77F
:1036200021002800FFF750FF0400DAE7EC920200C7
:10363000F8B5DE4657464E46454603680400E0B5F9
:103640001B6A0E009847236880465B6A20009847F3
:10365000071E4AD0264B002400259B4643461819D6
:103660000378ED2B0DD0002E00D0735501350134B9
:10367000BC42F3D328003CBC90469946A246AB46D8
:10368000F8BD621D9246BA42EDD2FFF7A7FC814613
:10369000E01C4044FFF7A2FC164B4B445B45E6D8C8
:1036A000154A82185A45E2D89022920194469B020C
:1036B0006044C318002E15D010213F209A144942AF
:1036C0000A4319130140BF38725501437219BF30C4
:1036D000517099110140BF38014391703F210B4057
:1036E0000343D37004355446C1E70020C3E7C04606
:1036F000FF0300000028FFFF0024FFFF70B5060055
:103700000D1E12DD0800083002F0A0F8041E01D0E2
:10371000094B23602000656008302A00002E06D087
:10372000310007F0D5FB200070BD0448FCE7002104
:1037300008F0B6FD2000F7E760920200E092020078
:10374000014B18607047C046B8000020034B044A84
:1037500058431368584010607047C046CB5725CA7D
:10376000B80000200F4BF0B59C46050001241F68EF
:103770002A000020BE09FB0F73407B403E097908F8
:103780007340BF087B404B40DB070B431F00230007
:1037900040003B4018435208ECD18542E8D36346D1
:1037A0001F60F0BDB800002000487047EC92020096
:1037B00010B5030482B01B0C7F2B24DD144A01A832
:1037C000934213DD2022191352420A433F248021E1
:1037D00002709A114942224023400A4319438170E2
:1037E00003214270FFF770FE02B010BD4022991114
:1037F00052420A4302703F221A4080235B42134325
:1038000043700221EEE701A803700121EAE7C046F8
:10381000FF070000F0B5D6464F4646460400C0B547
:103820000D0000284DD04A4B00294FD0984200D1BE
:103830007EE09D4219D02668464FB7421BD0736A7E
:10384000200098472B6880465B6A2800984706004E
:1038500046448146322E3ED90C2001F0F7FF002865
:1038600000D0076044600400856020001CBC9046C6
:103870009946A246F0BD2B689E42EDD0A068036831
:103880009E42E9D05B6A98472B6880465B6A2800B5
:10389000984740443228DFD80C2001F0D7FF071E9C
:1038A00000D00660380002F05FF9636829007B6091
:1038B000A068FFF7AFFFB860380002F067F93C007E
:1038C000D3E7002939D0244C214BB2E798423CD0B1
:1038D0000668214DB0E7236820001B6A98472B68D3
:1038E00082461B6A28009847310007000020FFF736
:1038F000EBFD036804001B6A9847424651460500E9
:1039000007F0E6FA43464A46E818390007F0E0FABD
:10391000002EAAD02B787F2B0CD86B1C751904E0D5
:1039200000229A560133002A04DBAB42F8D19CE70F
:103930000C009AE7094B236097E7074D054F084EA7
:103940002C00B74200D07AE786E7034C8DE7C046EB
:10395000EC9202004C91020040930200C4910200DC
:1039600040505854F8B505000E0088421BD003683B
:103970005B6A9847336807005B6A300098472B689A
:1039800004001B6A28009847336805001B6A300052
:103990009847BC4209D80023595D1A5C914206D170
:1039A0000133A342F8D90020F8BD3C00F3E7012021
:1039B0009142F9DA01204042F6E7C04610B50368AB
:1039C0009B6A984710BDC046F0B54646DE4657464E
:1039D0008846C0B57F22060082B037783B00093B9D
:1039E000042B5CD913003B40202B58D02B2F00D147
:1039F0007FE02D2F00D175E00023424C009301940D
:103A0000002F00D17BE000220023934600240025F4
:103A100021E000223C4B200029001CF0A3FC040004
:103A20000D0050461DF088FA22002B001BF056FDB9
:103A30005A4604000D000123002A08D0009801997D
:103A4000314B00221CF05AF85B4600900191013680
:103A50003778002F11D0302252429246BA44524653
:103A6000092AD6D95A46002A1BD12E2F19D1012254
:103A7000013637789346002FEDD122000098019946
:103A80002B001CF06FFC04000D0043461E6020005C
:103A9000290002B01CBC90469A46A346F0BD0136F0
:103AA0009BE7002B28D0009801992B0022001CF0E6
:103AB00059FC202304000D009F43452FE5D10A2225
:103AC0004146701C24F050FD0F49020000201AF0FE
:103AD0009FFC02000B00200029001CF043FC0400A6
:103AE0000D00D4E70023094C777800930194013648
:103AF00086E7777801367CE70024054DC7E7002488
:103B00000025BAE70000F03F000024400000F0BFAD
:103B10000000F87FF8B505000C00161E1BDD0368D9
:103B20009B6A9847002C18DB001B864211DA2B6831
:103B30002100DB6A280098472B68A1190700DB6A7F
:103B400028009847041E12D0E11B3800FFF7BCFC88
:103B500002E0002809DC0848F8BD2418E343DB171D
:103B60001C40001B8642E2DBF3E70600DFE7034868
:103B700009F0FCF8E8E7C046EC920200720300008E
:103B8000F8B54746CE46060080B514000F00002861
:103B90004CD000294AD003681B6A9847E14380460D
:103BA0003368C9172140DB6A300098474346C51A7D
:103BB000336804005B6A300098473B68451B5B6ACA
:103BC000380098470600002C30D085422ED33B6841
:103BD00038001B6A98478146077803E0013D0134AD
:103BE000B54223D32378BB42F8D1320049462000A6
:103BF00024F00FFD0028F1D14346E41A0023002CE5
:103C000016DD1F250F2602E00130844210DD4246FA
:103C1000125C013351B20029F6DA1100A943C02920
:103C20000BD0B243E02AEFD10230EDE701235B4233
:103C300018000CBC90469946F8BD0130E4E7C04638
:103C400010B5FFF79DFF0130431E984110BDC046DF
:103C5000012358407047C04670B50A0005000C1E8D
:103C600014D10120002D10D02A00230028002100AB
:103C70001DF00EF9002848D10C2001F0E7FD0028C6
:103C800001D0234B03604560846070BD4B00214927
:103C90005B0D59181D292AD8142915DC0028E3D1F9
:103CA0001D488446200063449840031EDCD18020D8
:103CB000E40200061F332043591AC840002A1FDBC4
:103CC000012340001843E0E7144884462800634479
:103CD0009840031EC8D18020E40200061F335B1AFF
:103CE0002043D8403423591ACD402843E6E71E2903
:103CF000BAD10028B8D10A4B9C42B5D10948C4E7D3
:103D00000123404240001843BFE70E20BDE7C046F4
:103D10009092020001FCFFFF0DFCFFFFEDFBFFFF97
:103D20000000D0C10100008070B5036882B01B6A3A
:103D3000984701A9FFF748FE04000D000022002368
:103D4000200029001AF0B2FA002827D101226E00C3
:103D500076085242144B200031001DF099F80028DB
:103D60001AD10122104B5242200031001AF0B8FA49
:103D7000002811D1802300225B03200031001DF0B8
:103D800087F8002808D1802300225B03200031003F
:103D90001AF092FA002801D00024044D20002900D6
:103DA000FFF75AFF02B070BDFFFFEF7F0000F87F02
:103DB00010B51DF0C1F8FFF74FFF10BD036870B5D7
:103DC000DB6A04009847051E1AD0FFF707F90028A0
:103DD00006D043005A1090420FD0FFF7E9FF70BDA4
:103DE000236820001B6A9847236806005B6A20004E
:103DF00098473618B54203D0002301201843EEE758
:103E00000E20ECE710B5002802D0FFF7D7FF10BD59
:103E10000E20FCE710B500280ED0FFF7CFFF0400FE
:103E20000E2809D0C30703D56010FFF7C1FC10BDF1
:103E3000024808F09BFFF7E70148F8E7710300002C
:103E4000EC92020010B51DF0F1F8FFF705FF10BD70
:103E5000430010B55A10904202D0FFF7A9FF10BDE1
:103E600001201843FBE7C046064B10B5984203D823
:103E700001234000184310BD1DF0A0F8FFF7ECFE31
:103E8000F9E7C046FFFFFF3F4223002800D1383B3F
:103E900018007047F0B54E464546DE465746E0B539
:103EA000002383B01600002205000C001AF004FA6B
:103EB000002800D0ACE000220023280021001AF0E6
:103EC000F5F900280AD0302333700023737003B053
:103ED0003CBC90469946A246AB46F0BD2800210066
:103EE0001EF0AEFC1CF0F4FF7D4A80467D4B28009E
:103EF00021001AF0E1F9002800D191E04346002B9F
:103F000000DAD0E04246002077491AF081FA020038
:103F10000B00280021001BF0F1FD05000C0001231F
:103F2000019300239946714871492A0023001CF02F
:103F300019FA00226F4B1BF0D1FA1AF0E5FA0B00C8
:103F4000012149428A460021C446C8468946019952
:103F50000200002900DC93E02E21674D674F01200D
:103F6000674C8B469D421CD89D4227D0302101E0F2
:103F70009D4227D0121BAB4101319D42F8D9CCB2F2
:103F800034701400711C1C4311D1019CA0421CDA36
:103F9000083F0F2819D03C6F7D6F01300E009D4205
:103FA000E2D9302434701400711C1C43EDD0019C04
:103FB000A042EDD15C46B11C7470E9E79442D5D9BA
:103FC0003024EFE79442D5D9D9E74B46002B0FD0E8
:103FD000524600233020541CC8540133E21A002AF0
:103FE000FADC5346DB435246DB1713400133C91852
:103FF0006346012B54D065230B706346002B60DDB4
:104000002B228B1C4A70190060460CF0A7FD5EE75E
:104010002D23337080231B069C46013664444AE7F7
:10402000384A394B280021001AF05AF9002800D0EC
:1040300064E743460133019343460E2B45DD0E23CF
:104040005B4243441A000020274999461AF0E0F9E0
:1040500002000B00280021001BF050FD0022254B20
:104060001BF03CFA1AF050FA0B000F214942414470
:104070008A4601218C4601990200002900DD6BE788
:104080002E203021707040463170B11CC643002E86
:1040900019D030208E19087001318E42FBD15BE7B8
:1040A00000230B7013E75A4200200F491AF0B0F9B1
:1040B00002000B00280021001CF054F905000C0040
:1040C0002DE74B1C9FE70E0046E743460E220020DB
:1040D000D21A05491AF09CF90123C146984624E7F3
:1040E0008DEDB5A0F7C6B03E000024400000901E44
:1040F000C4BCD6420000E03FF35A0000D88C020056
:1041000000407A1050EFE2D6E41A4B44012070B51B
:104110004042FFF727FB04000D48FFF723FB060092
:1041200020001CF04BFF00220A4B1CF01BF904007E
:1041300030000D001CF042FF074A084B1BF0DEFC6C
:1041400002000B00200029001BF0C8F970BDC0461A
:10415000FFFFFF000000F03D0000E0DFFFFF6F43C6
:1041600010B5FFF7D3FFFFF777FD10BD4843704749
:1041700010B519F09FFF10BD10B50C2001F066FBC3
:10418000041E01D001F084FF200010BD008970479B
:1041900010B5043001F0EAFE10BDC04610B50A00AB
:1041A0000430818801F0C8FE10BDC04610B504304F
:1041B00001F0ECFE10BDC04603894268994202D26C
:1041C0008900885870470020FCE7C04610B50430CD
:1041D00001F0B2FE10BDC04610B5043001F0E6FE9D
:1041E00010BDC04610B5043001F004FF10BDC0463C
:1041F000024B1B68588CC0007047C046500300201B
:104200007047C0461B4B70B51B6804000D00002BA7
:1042100016D0586A002813D003689C4227D0002B80
:104220000ED003000021083302E00833002A07D033
:104230001A680231A242F8D101318900405870BD9C
:1042400003F0F6FE002810D003689C420FD0002B2C
:104250000BD003000021083302E00833002A04D009
:104260001A6802319442F8D1E6E72800E7E7042112
:10427000E4E7C04650030020406870474160704743
:1042800010B5082001F0E2FA041E01D001F00AFF87
:10429000200010BD70B505000C00160000290EDBD3
:1042A000838899420BDAA4002C19E368002B03D011
:1042B0000B21054801F058FF2800E66070BD0A2177
:1042C000014801F051FFEEE78603000010B508F049
:1042D0004DFD10BD002802D0024B984200D070471F
:1042E0000020FCE7EC920200431E98417047C04654
:1042F00010B5142001F0AAFA041E01D001F0DAFE74
:10430000200010BD10B5040001F0E0FE002806DB1F
:10431000238AE268984202D28000805810BD0020B3
:10432000FCE7C046F0B5C646204B00B51B68070049
:10433000DB6A1A1D1C689B689046651E984220D354
:10434000AB009B5898421CD8002D15DD6410A300CB
:104350009B58984211D0012209E0621CAA420BDC52
:10436000414654196410A3005B589F4205D09F42F8
:10437000F3D8651EAA42F3DD0024200004BC904659
:10438000F0BD002DF8DD012602E0651EB542F3DB2D
:10439000424674196410A30098583900FFF7E2FAF6
:1043A0000028EAD0F1DA661CF0E7C046500300208E
:1043B000044B10B51B680131DB6A8900C958FFF74F
:1043C000A1FF10BD5003002070B504000D001600C1
:1043D00001F07CFE002806DB0C34010032002000D6
:1043E00001F0AAFD70BD2189201D2A0001F0A4FD65
:1043F0002000218A0C30320001F09EFDF2E7C04619
:10440000044B10B51B680131DB6A8900C958FFF7FE
:10441000DBFF10BD50030020014B18687047C046F9
:104420004C0300207047C04610B50300820709D135
:1044300000281CD0012203689343DA78F92A14D0AB
:10444000042010BD0020002BFBD00220DA07F8D496
:104450000E2BF6D0422B0CD00A2B0AD0062BEFD015
:10446000054808F083FC0420EBE79878E9E7002092
:10447000E7E70120E5E7C0462103000070B504002E
:104480000E281BD0002819D0830711D12000FFF778
:10449000CBFF0500022814D0032D0FD12000FFF719
:1044A00043FC04000E2809D0002C07D02C42EDD08C
:1044B000200000F00BF81CF03FFD70BD0020024909
:1044C000FBE76068A168F8E70000F87F70B542106C
:1044D000C30741D4830741D4002844D0FFF7CEFF5F
:1044E00001224C0064080E005242244B21000500BA
:1044F0001CF0CEFC002836D10122204B524228006D
:10450000210019F0EDFE00282DD1802300225B034D
:10451000280021001CF0BCFC002824D180230022AC
:104520005B032800210019F0C7FE00281BD12800DA
:1045300031001DF063FD0022114B1EF08DF80022AA
:10454000002304000D0019F0B7FE00280DD1200053
:10455000290019F0BBFF0200100070BD801102009D
:10456000501E8241F8E70022F6E7200029000022D1
:10457000034B1AF0B3FF04000D00E8E7FFFFEF7FE5
:104580000000F04110B5FFF7A1FF10BD70B50D00A0
:10459000FFF79CFF04002800FFF798FF1F23184037
:1045A0008440630020005A10944202D0FFF700FCC0
:1045B00070BD01201843FBE770B50D00FFF786FFC3
:1045C00004002800FFF782FF1F2318400441630006
:1045D00020005A10944202D0FFF7EAFB70BD012080
:1045E0001843FBE770B50D00FFF770FF04002800CB
:1045F000FFF76CFF604043005A10904202D0FFF773
:10460000D7FB70BD01201843FBE7C04670B50D0015
:10461000FFF75CFF04002800FFF758FF204343002A
:104620005A10904202D0FFF7C3FB70BD012018431F
:10463000FBE7C04610B5FFF749FFC04343005A10DF
:10464000904202D0FFF7B4FB10BD01201843FBE7F6
:1046500070B50D00FFF73AFF04002800FFF736FFA2
:10466000204043005A10904202D0FFF7A1FB70BDDA
:1046700001201843FBE7C04670B50D00FFF726FF89
:1046800004002800FFF722FF1F231840C440064BF8
:1046900020009C4203D801236000184370BD1CF029
:1046A0008DFCFFF7D9FAF9E7FFFFFF3F10B5FFF7E1
:1046B000E5FE1CF00DFD10BD70B50E00FFF7DEFE2F
:1046C000040030000D00FFF7D9FE02000B002000AF
:1046D00029001AF003FFFFF7BFFA70BD70B50E0096
:1046E000FFF7CCFE040030000D00FFF7C7FE02000C
:1046F0000B00200029001CF0B5F8FFF7ADFA70BDE3
:10470000012213000B40D0B50C00184203D0C31394
:104710000133012B0FD9FFF7B1FE060020000F0077
:10472000FFF7ACFE02000B00300039001BF01AFE50
:10473000FFF792FAD0BDE3130133012BEBD8401001
:104740006410604343005910884202D0FFF730FBE9
:10475000F0E713431800EDE770B50E00FFF78EFE8B
:10476000040030000D00FFF789FE02000B0020005E
:1047700029001BF0C3F9FFF76FFA70BDF8B50125EA
:104780000C00284201D029420FD1FFF777FE060026
:1047900020000F00FFF772FE02000B00300039000E
:1047A0001DF05AFFFFF758FAF8BD4B10EDD0FFF798
:1047B0008DFE06002000FFF789FE0100300019F091
:1047C0005FFD48004210914201D12843ECE7080008
:1047D000FFF7EEFAE8E7C04670B50E00FFF74EFEB1
:1047E000040030000D00FFF749FE02000B0020001E
:1047F00029001EF0B1F8FFF72FFA70BD0123F0B5C4
:104800000E0083B018421DD1FFF738FE04003000BF
:104810000D00FFF733FE06000F0002000B00200022
:10482000290019F05DFD00282ED132003B00200048
:10483000290019F03BFD002820D020002900FFF7B7
:104840000BFA08E01942DFD040107610864207DBF1
:1048500003D17000184303B0F0BD33000600180008
:10486000801BFEF77FFF301844006310984202D08F
:10487000FFF79EFAEFE701202043ECE732003B0010
:1048800026002F0014001D00FFF740FC32000090AE
:1048900001913B00200029001BF0E4FF009A019BDE
:1048A0001BF060FD32003B001AF018FEFFF7D4F950
:1048B000D1E7C04610B5FFF7E1FD1DF039FFFFF766
:1048C000CBF910BD10B5FFF7D9FD1DF0B9FFFFF70B
:1048D000C3F910BD10B5FFF7D1FD1CF0C7FFFFF7FE
:1048E000BBF910BD10B5FFF7C9FD1CF0DFFEFFF7E7
:1048F000B3F910BD10B5FFF7C1FD1DF07FFBFFF749
:10490000ABF910BD10B5FFF7B9FD0022034B1AF04B
:10491000E5FD1CF0ABFFFFF79FF910BD0000E03F85
:10492000F8B504000D000E2807D00E2905D08842E6
:1049300029D00B000340DB0701D50020F8BDFFF7AD
:1049400073FD06002800FFF76FFD8642F5D12300B6
:104950002B439B07F1D1032E17D0022EEDD120005F
:10496000FFF78CFD060028000F00FFF787FD02000F
:104970000B0030003900012419F098FC002800D108
:104980000024E0B2DAE70120D8E729002000FEF792
:10499000E9FF43425841C0B2D0E7C04610B5FFF727
:1049A000BFFF4223002800D1383B180010BDC0468D
:1049B00010B5FFF7B5FF4223002800D0383B1800A0
:1049C00010BDC046F8B504000D000E2815D00E2904
:1049D00013D0062846D0422849D00A2831D00300F7
:1049E000062900D17EE0422D09D00A2D43D09D42F8
:1049F0003FD02B002340DB0704D50020F8BD032265
:104A0000934236D02000FFF70FFD06002800FFF785
:104A10000BFD0300032E30D0032816D0012E3AD010
:104A200001282FD09E42E8D122002A439207E4D1E8
:104A3000032B4FD0022B33D02C1B60426041C0B2FD
:104A4000DCE70123062DDDD0CDE7022E28D0012E94
:104A5000D3D1062CD1D00226422C39D00A2CDFD15A
:104A60000124DDE701200629C8D00023BBE703238A
:104A7000E8E70120C2E70122C2E7022810D003289C
:104A8000CED1D1E70223062D1ED0422D1ED00A2DF5
:104A9000C8D10125C6E7062CDDD102260024BFE7D8
:104AA0002000FFF7EBFC060028000F00FFF7E6FCF4
:104AB00002000B0030003900012419F0F7FB002838
:104AC00000D10024E0B299E70025ABE70325A9E770
:104AD0000324A5E729002000FEF744FF4342584184
:104AE000C0B28BE700228BE710B5FFF76BFF10BD5C
:104AF00010B5FFF767FF4223002800D1383B1800AC
:104B000010BDC04610B5FFF75DFF4223002800D05E
:104B1000383B180010BDC046F8B506890F0045683F
:104B20000024002E04D10BE001340435A64207D93D
:104B300039002868FFF746FF0028F5D0200001E083
:104B400001204042F8BDC04610B500220400FFF726
:104B5000E3FF002806DB04340100200001F026FA00
:104B6000012010BD0020FCE7F8B5040083071ED12A
:104B700000282AD0FFF758FC032828D00125022856
:104B800021D12000FFF77AFC02000B0006000F0085
:104B90001CF07EF9002818D10023002230003900D3
:104BA00019F084FB434243415B421D400BE00A285D
:104BB0000BD0002C09D00E2C07D0062C05D0013CC0
:104BC00025006C1EA5412800F8BD0025FBE7024B1F
:104BD0009C42FAD00125F6E7EC92020010B542287B
:104BE00006D00A2802D0FFF7BFFF10BD0020FCE767
:104BF0000120FAE7F8B504000E000E2842D00E2975
:104C000040D0FFF711FC05003000FFF70DFC032D2D
:104C10002FD0B44234D02000FFF730FC0400300025
:104C20000D00FFF72BFC220006000F002B002000D8
:104C300029001CF02DF9002824D132003B0030005F
:104C400039001CF025F900281CD132003B0020005F
:104C5000290019F031FB002817D13B003200200059
:104C6000290019F03DFB431E9841012340421840A2
:104C7000F8BD0328CDD131002000FEF773FEF7E721
:104C80000020F5E702204042F2E701204042EFE732
:104C90000B00034010B5DB0706D4FFF7ABFF0300A2
:104CA000C00F023308D010BD0123884201DAD8B208
:104CB000F9E70023D8B2F6E70020F4E70B00034041
:104CC00010B5DB0707D4FFF795FF831C01D0002840
:104CD00003DD0A2010BD8842FBDC4220FAE7C04613
:104CE0000B00034010B5DB0707D4FFF783FF831CDD
:104CF00001D0002803DB0A2010BD8842FBDA4220E5
:104D0000FAE7C0460B00034010B5DB0705D4FFF7F8
:104D100071FF002803DB422010BD8842FBDA0A2025
:104D2000FAE7C0460B00034010B5DB0705D4FFF7D8
:104D300061FF002803DD422010BD8842FBDC0A2011
:104D4000FAE7C04670B590B00400FFF76DFB03288A
:104D500042D002280ED0052832D0002C53D00A2C85
:104D600053D00E2C3AD0422C51D0062C51D02B4887
:104D700010B070BDE30725D40E2C2FD02000FFF714
:104D80007DFB01224C0064080E005242244B21009E
:104D900005001CF07DF8002822D10122204B524250
:104DA0002800210019F092FA002819D100220023CE
:104DB0002800310019F080FA00282CD11948D7E7D3
:104DC0001948D5E7694660100BF0C8FE0121684616
:104DD0004942FEF779FBCBE72000C9E71348C7E754
:104DE0002A003300280031001CF052F80028F5D1C9
:104DF000280031006A46FFF74DF801216846494214
:104E0000FEF762FBB4E70A48B2E70A48B0E70A488F
:104E1000AEE70A48ACE70A48AAE7C0466493020036
:104E2000FFFFEF7F149302007493020024930200AB
:104E3000D0920200589302004C930200409302006B
:104E40003093020010B5FFF7EFFA05280FD80A4B90
:104E500080001B589F46094810BD0948FCE70948D7
:104E6000FAE70948F8E70948F6E70948F4E7094886
:104E700007F07CFF0020EFE7DC90020004930200C3
:104E8000C092020088930200A89302009893020047
:104E9000F49202002203000070B50400FFF7C4FA88
:104EA000042815D02000FFF74DFF05002000FFF774
:104EB000C9FF03681B6A98472B6806001B6A280015
:104EC00098472200030031000E480CF07BF870BDBB
:104ED000002C01D0A30704D021000B480CF072F87D
:104EE000F5E7216801230A009A4353690748834282
:104EF00002D020009847EAE71388054812890CF091
:104F000061F8E4E74492020054920200994E0000D6
:104F10002492020010B50100040011480CF052F870
:104F2000002C03D0A3070BD0062C16D02000FFF7CF
:104F30007BFAF5239B009C46604407F017FF10BDE9
:104F4000012321689943CB78F92BEDD10B898A781D
:104F500004480CF037F8062CE8D10348EDE7C046CA
:104F6000F490020010910200DD03000010B5010072
:104F700003480CF027F8E420800007F0F7FE10BD8E
:104F80007C91020010B501F0A5FB0400102000F098
:104F900023FD23690360206110BDC04670B501F098
:104FA00099FB04690500002C05D0236820002B61C3
:104FB00000F030FC70BD024807F0D8FEF5E7C046AF
:104FC00053030000F0B5C64600B584B0804601F03A
:104FD00081FB04690600002C16D02368220033618F
:104FE0006B4683CA83C3126820001A6000F012FC6B
:104FF00043467361094B31001B6868469B6B9847B9
:1050000004B004BC9046F0BD05480BF0DBFF404601
:10501000FFF742FF034807F0A9FEDEE75003002038
:1050200030910200E703000010B501F053FB12239A
:1050300044694361122C01D0200010BD014807F0E3
:1050400095FEF9E75303000010B501F043FB4369F7
:10505000122B03D0FFF7E8FFFFF7B4FF10BDC046E7
:1050600010B500290AD003004118054C05486043DB
:105070001A78013350408B42F9D110BD0148FCE74A
:1050800093010001C59D1C81032370B504680500D0
:105090009C4310D0A30F11D02501AD09002D05D0E0
:1050A00080235B019D4204D9002C02DB064807F0F7
:1050B0005DFE280070BD054807F058FE2800E36932
:1050C00098470500EAE7C046490300005103000085
:1050D000124970B58A880B68551E0FD3AC00E4588E
:1050E000A04217D0023A92009B182A0004E01C004C
:1050F000043B5E68864206D0013AF8D2D220800096
:1051000007F034FE70BD954204D0080000F0B8FEF0
:105110002060F7E7080000F0B3FEF3E72403002067
:1051200010B518210148FEF7E9FA10BD2C03002044
:1051300001220368934318888010704710B5002837
:1051400015D0C468002C13D02368043C4360A368C6
:105150008360E3682268C360530F032B03D00D48BC
:1051600007F004FE226880231B061343236010BD52
:10517000041F2268530F032B03D0064807F0F6FDE7
:10518000226880231B0613432360002001F0ACFA41
:10519000EDE7C0464903000010B5041F2368DB0794
:1051A00015D40D4B1B68002B0DD01A000832944209
:1051B000F8D359688C4662449442F3D201232268A2
:1051C0001343236010BD054807F0D0FDF6E70448FF
:1051D00007F0CCFDE5E7C046180300204A030000B5
:1051E0004F03000010B50400830703D1002801D04D
:1051F000030F00D110BD2168104B1942FAD1CB78B2
:10520000F92BF7D10E4B1B68002B11D01A00083276
:105210009442F8D35868844662449442F3D20123FE
:105220000848194321608188220000F015FEE1E75B
:10523000054807F09BFD2168F1E7C04603000040E8
:1052400018030020100300204A030000F0B5D646E2
:105250004F4646468246C0B500250F00060000298D
:1052600015D0244B9946244B98463468A3070AD19D
:10527000002C08D0230F06D02168204B194202D100
:10528000CB78F92B08D001350436AF42EDD11CBCE8
:1052900090469946A246F0BD4B461B68002B23D092
:1052A0001A0008329442F8D3586884466244944203
:1052B000F3D20123194343462160998822004046D6
:1052C00000F0CAFD43469B88642BDCD90C200CF00F
:1052D000B9FB0B4A0135136810600360AB005344FF
:1052E0007D1B43608560D2E7064807F03FFD2168DB
:1052F000DFE7C04618030020100300200300004031
:105300001C0300204A03000070B504680500002C4F
:1053100006D02000FFF740FFA9882000FFF796FF86
:1053200070BDC046F0B5C646040000B5830703D182
:10533000002801D0030F02D104BC9046F0BD2168C3
:10534000214B1942F8D1CB78F92BF5D11F4B1B68B3
:10535000002B34D01A0008329442F8D3586884469F
:1053600062449442F3D201230B4323600323994305
:105370008B69002B01D02000984703239846144DD9
:10538000144CAB88002B0FD120680028D4D00368C0
:105390008768466823600CF07FFB39003000FFF718
:1053A00055FFAB88002BEFD0280000F069FD424686
:1053B000036893439B69002BE3D09847E1E70648D5
:1053C00007F0D4FC2168CEE703000040180300205A
:1053D000100300201C0300204A030000F0B5DE4645
:1053E00057464E464546E0B59E4B85B01B78039028
:1053F0009A0705D5D220800007F0B8FC994B1B789E
:1054000002221343974A1370974B039A1C689F8894
:1054100002231A40904600D011E100250126002FFA
:105420000AD02068304201D0B04300680135FFF750
:1054300079FF0434AF42F4D8039801F05BF98B4C48
:105440002368002B15D08A4B1B685D8D00F0A6FEEB
:10545000AB00461B2568ED184346002B00D0F7E053
:10546000002E06D0002401CD0134FFF75BFFA642D9
:10547000F9D1804B00241D687F4B1E78002E05D08B
:1054800001CD0134FFF74EFFA642F9D800237B4A35
:1054900013607B4B7A4A1B68009301331360794B8E
:1054A0001B689A46002B00D1D8E0002301279946BB
:1054B0009B46009301935346019A5B6894469B0870
:1054C00055469C449E0063460835AE190193B5428B
:1054D00050D2534602932B683B4200D08CE01A0F07
:1054E000062A00D188E0AE4200D894E08022D2059E
:1054F0002C00904600E02368002B10DB3B4215D1C6
:105500001A0F062A12D04246134208D1DB78F92B33
:1055100002D05D4807F02AFC200000F077FC200054
:10552000FFF7B2FD80002418A642E4D8631B9B104D
:1055300098469A0080231B0613439A46009BC34457
:10554000434501DA43460093FF21280006F0A8FEF8
:1055500053462B604346012B56DD00236B604B46C0
:10556000002B53D04B46A9465D602500AE42B2D811
:10557000029B9A4653461B689A46002B9BD1434890
:105580000368002B14D05B465C083C4B1A68002A69
:105590000ED01368190189098C4206D248E01368BD
:1055A0001B019B09C9188C4243D35268002AF6D1CB
:1055B0005B469900019B9A00009B9B003048C160AC
:1055C00003614069002814D0884212D80398C007AC
:1055D00002D52F480BF0F6FC0222224B1B78934396
:1055E000204A137005B03CBC90469946A246AB4693
:1055F000F0BD23484161E9E7BB432B602800FFF77A
:1056000043FD80002D18B1E72500AFE71B4BA946ED
:105610001D602500AAE7009B002B03DB80231B06EF
:105620002B60A3E780231B062B60002300939DE7DC
:105630000B00E318591A890052180260B8E71548A0
:105640000BF0C0FC3A00210013480BF0BBFCE4E671
:105650003200290011480BF0B5FC01E700230022BD
:105660000021ABE7200C0020240300204C03002085
:105670005003002044030020210C00204803002098
:105680002C03002018030020490300002003002001
:10569000D8930200B8930200C0930200CC9302009A
:1056A000F8B5404E3368002B08D01B68002B67D03C
:1056B0000220FFF793FE152007F058FB0021CF20B2
:1056C000FEF7A0FD802104004901CE20FEF79AFDDF
:1056D000050000200CF04CF90027451B002C37D1A9
:1056E00028000CF0AFF90400280008386060A761BA
:1056F00083073FD12C4B31685A6801325A609A684F
:1057000012189A60294AC31C1A4080231B061343AF
:10571000274AA36013688008E36023000833181841
:105720001360244B1860002921D0A1421FD80A68B9
:10573000002A34D0944207D213000A002360146078
:10574000F8BDA342FAD81A001368002BF9D1F5E787
:10575000194BA4029C466044C30BDB031C1B002CAA
:10576000BEDD20000CF06EF92D1B0700B8E72160AC
:105770003460E5E7D220800007F0F8FA6068B9E706
:105780000021CD20FEF73EFD0C4BC318002B00DCA2
:105790008EE70B4B0B4C9C4660446060A8E70023EF
:1057A0000A00CBE7180300202C030020FCFFFF7F3A
:1057B0004803002020030020FF7F0000FC7BFFFF48
:1057C000F47BFFFF0084002010B5002819D00F4B98
:1057D0001B68002B16D01A0008329042F8D3596883
:1057E0008C4662449042F3D2041F2268530F032B6D
:1057F00003D0074807F0BAFA226880231B06134338
:10580000236010BD0CF048F9FBE7C04618030020E8
:105810004903000070B5041F22680500530F032BD5
:1058200003D0054807F0A2FA226880231B06134321
:105830002800236070BDC046490300000421024ACD
:1058400013780B4313707047200C0020F8B54E46B8
:10585000DE46574645468023E0B5C61CB608DB0148
:10586000984200DD8BE04B4B5B68DB0500D174E0B8
:10587000494B9A46494807F079FA53461B7801226A
:1058800013435246137000F025FF002803D04368ED
:10589000002B00D17AE0424B00279B46414B9946B2
:1058A0005B461D6800239846002D12D11CE03E483F
:1058B00007F05CFA2C68002C02DB3C4807F056FA33
:1058C0002401A409A41B6B6817D5A846002B0BD094
:1058D0001D00002F03D14B461B68AB4238D3AB07EA
:1058E000E5D12B0FE3D0E5E7002F31D0012F42D0D7
:1058F000152007F03BFA0137D2E7002C0AD08022AE
:10590000B600A1001206AE190A433260012C01D084
:10591000736033004246002A35D0536000222A606B
:10592000002B08D05B68002B05D09A071CD0D42030
:10593000800007F01BFA534601221B78280093438E
:10594000524613703CBC90469946A246AB46F8BD01
:105950000020FFF743FD0137A2E70F4B9A461B7863
:105960005A0700D086E78AE71B0FE4D1D4208000D5
:1059700007F0FCF9DFE7FFF793FE013790E7162009
:1059800007F0F4F96FE75A461360C7E7084807F0D5
:10599000EDF980E700ED00E0200C0020920300000C
:1059A0004803002020030020510300004B030000A7
:1059B0004E030000032310B5C41C9C43201DFFF7B9
:1059C00045FF044B07341C408023DB051C4310C0FB
:1059D00010BDC046FCFFFFBF10B5002808D0FFF780
:1059E000E9FF8023021F11689B050B43136010BD64
:1059F0000020FCE7F8B51F4B06005B680D00DB05D7
:105A00001FD100F067FE1C4B1C4F1D60751BAD10B5
:105A1000041E3D7019D00C20FFF7CCFF8023021F1D
:105A200011689B050B43136063680360A3684360C0
:105A3000E3688360E0600023A6603B702000636041
:105A4000F8BD0F4807F092F9DBE71820FFF7B2FF27
:105A50008023021F11689B050B431360094B05004F
:105A60001B68C460036012230461436100F03CFEC4
:105A70002C00E0E700ED00E044030020210C0020B2
:105A8000920300004C0300200C4B10B55B68DB0553
:105A90000ED10B4B1B78002B0AD100280BD0FFF73F
:105AA00089FF8023021F11689B050B43136010BD03
:105AB0000BF0C8FFFBE70020F9E7C04600ED00E06F
:105AC000200C0020F8B504000D00194B1B68002BBA
:105AD00028D01A0008329442F8D359688C466244A0
:105AE0009442F3D22800FFF7CFFF0600002C17D016
:105AF000002E15D0271F3A68530F032B03D00D48F3
:105B000007F034F93A68120192099200AA4200D9CA
:105B10002A002100300005F0DBF92000FFF754FED9
:105B20003000F8BD290020000BF0E4FF0600F7E785
:105B3000180300204903000070B5002909D001298D
:105B400008DD4C1E051D0121FFF7F6FF2800013C72
:105B5000F8D270BD012202430248818800F07CF92E
:105B6000F7E7C0462403002010B5830703D10028BF
:105B700001D0030F00D110BD034B0200998818001B
:105B800000F06AF9F7E7C0462403002010B5830748
:105B900003D1002801D0030F00D110BDFFF798FA00
:105BA000FBE7C04610B54068FFF71CFB10BDC046C0
:105BB00010B50430FFF7A8FB10BDC04610B58188B2
:105BC0000C30FFF743FB10BD10B54068FFF70AFB30
:105BD00010BDC04610B504000430FFF795FB20004F
:105BE0000C30FFF791FB10BD012208C810B593439C
:105BF000198804398908FFF729FB10BD0220704776
:105C000003207047808880000F3080087047C046AE
:105C100002207047052070470023044A13609380D8
:105C2000D380034A13609380D380704724030020FD
:105C30001003002010B500F00BFD10BD10B50028BA
:105C400001DB00F0FDFC10BD0023438103814360B4
:105C50007047C0467047C0460023438103814360BC
:105C600043820382C360704710B5054A01008388F0
:105C700012688068821A03480BF0A4F910BDC04670
:105C800050030020DC94020010B501004268024875
:105C90000BF098F910BDC046F493020010B5010056
:105CA000028902480BF08EF910BDC0468C940200A8
:105CB000F8B5C38804000D008B421AD20420002BD3
:105CC0002DD12E00854221DBB0000BF0BBFE07007A
:105CD000E088002830D1321A800092000021381864
:105CE00006F0DEFA20680BF0D7FE2760E680A5807C
:105CF000F8BD82889142FAD22368521A9C468800E5
:105D000092006044002106F0CBFAF0E70600B000F4
:105D10000BF098FE0700E0880028DCD00CE058006B
:105D20003F2BCEDD0B4A93420DDD581C0A4BFF3052
:105D30009842C6D90948C4E782002168380005F0B6
:105D4000C7F8E088C7E79800C018032118F0B2F937
:105D5000B7E7C046FF010000FEFF0000FFFF0000A4
:105D60007047C0467047C046012370B50A680500F9
:105D70009A4313890E00042B07D0104801221049C2
:105D80000BF020F90E4806F0F1FF3000002D00D195
:105D900070BDE81C8000FFF759FD041E01D0094BBF
:105DA00003602000B3682A04A580A360920B0C3026
:105DB000002106F075FA2000EAE7C046CC94020004
:105DC00085030000409402000E4B026970B5050087
:105DD0009A4209D0E2210C48032289000BF0F2F824
:105DE000E220800006F0C2FF2888FFF72FFD041E86
:105DF00000D005602A88201D043A002106F050FAE0
:105E0000200070BD615D0000CC940200012310B53C
:105E100002689A431369984710BDC046012310B524
:105E200002689A431369984710BDC046012310B514
:105E3000026801009A43128801480BF0C3F810BDB4
:105E400024940200034B10B5994201D8FFF730FFAC
:105E500010BDC046FFFF0000084B70B505000C00E8
:105E60001600994205D88388994203D22B68A40072
:105E7000E65070BD0131FFF71BFFF7E7FEFF0000A2
:105E80008388002B09D0013B02689BB283809B0072
:105E9000D318002218681A6070470020FCE7C0463B
:105EA000F8B5C78806000C00002F15D10D00032996
:105EB00025DC102004250424FFF77CFD0700F08872
:105EC000002828D12A1A800092003818002106F0F4
:105ED000E7F93760F480F8BD3F2F19DD134B9F427F
:105EE0000FDD781C124BFF3098421BD9114803007C
:105EF0002500844201DA1C001D00AF42EBDAA0004D
:105F0000DAE7B800C019032118F0D4F883B2EFE73C
:105F1000780083B2ECE782003168380004F0D8FFE3
:105F2000F088CFE783B20004000CE1E7FF01000036
:105F3000FEFF0000FFFF0000C38870B505000C00E5
:105F400016008B4207D8084B994200D970BD013129
:105F500089B2FFF7A5FF2A68A3009E50AB889C4238
:105F6000F4D30134AC80F1E7FEFF0000C38870B5C4
:105F700005008B4202D28AB29A4202DA8CB2AC801D
:105F800070BD11001400FFF78BFFF8E78388002B2A
:105F900009D0013B02689BB283809B00D31800228A
:105FA00018681A6070470020FCE7C046F8B5828880
:105FB00005008A421AD903688E0098194F1C04689C
:105FC000BA4207D80021013A92B2AA809200D15079
:105FD0002000F8BD521A06498C46311D62449200D9
:105FE000591822F025FBAA882B68EBE70024EFE77D
:105FF000FFFFFF3FF8B51700828804000D008A42BA
:1060000018D9511CC38889B299420FDA6B1C9B00C6
:1060100020681E1F521B81199200C01822F008FB35
:1060200023689F51A3880133A380F8BDFFF738FF91
:10603000A288EBE73A00FFF77FFFF6E770B50500AF
:10604000C3888288016809480AF0BCFFEB88002BEE
:106050000BD00024064E2A68A300995830000AF09D
:10606000B1FFEB880134A342F5D870BDA0940200C3
:10607000C494020010B504000289010003480AF02C
:10608000A1FF201DFFF7DAFF10BDC04608940200F3
:10609000034B036000234360038143817047C04684
:1060A00058950200024B0360002343607047C046CE
:1060B00028950200044B0360002343600381438161
:1060C000C360038243827047F8940200F8B54746E4
:1060D000CE4680B507890C004668002F34D033685F
:1060E0008B423CD0331D002004E004331A1F126899
:1060F000A24225D00130B842F7D3236820005B6A62
:106100009847236880461B6A2000984700248146F0
:1061100003E001340436BC421ED235682B682800E7
:106120005B6A98474045F4D12B6828001B6A984762
:1061300042460100484622F06CFA0028E9D12000CE
:106140000CBC90469946F8BD0B6808005B6A9847FE
:10615000236820001B6A984701204042F0E7002096
:10616000EEE7C0467047C04610B504000A000100C3
:1061700003480AF027FF200006F0F8FD10BDC046D6
:10618000CC940200014B1B68186970475003002033
:10619000014B1B689869704750030020014B1B6836
:1061A000188C704750030020014B1B68D86B704758
:1061B000500300201D4B026870B506009A4200D0C3
:1061C000FEE741681A4D1B4B0A6829609A4224D0A9
:1061D000088C8000FFF700FC2B68174C1A8C0021FC
:1061E0009200206006F05CF823681C602C68134B5A
:1061F00022689A4200D0FEE7B36822699A42FAD137
:1062000000F00EFB20002B6800221C6B00210023F5
:106210004030A04700F010FA06E0094810310AF0BB
:10622000D1FE084806F0A2FD70BDC0461042000035
:1062300050030020718E3B924C030020708E3B92E5
:10624000709402009F03000010B50248FFF7B2FFF0
:1062500010BDC04680870200002801D0830701D00E
:1062600000207047012203689343DA78F92AF7D1B6
:106270001889063843425841C0B2F2E770B50500AC
:106280000C20FFF7E3FA041E05D0174B0360002330
:10629000436003814381002D08D0AB0706D1012361
:1062A0002A689A431300D278F92A01D0200070BDE1
:1062B0000E4A9342FAD12E89002EF7D02000FFF724
:1062C00053FC63899E4204D903DB201D3100FFF794
:1062D000E7FD2681B2006968606804F0F9FD2000DE
:1062E000FFF754FCE2E7C04658950200F89402001C
:1062F00070B504000D00002801D0830713D00F48AB
:1063000006F034FD29002000FFF7E0FE051E08DB43
:106310002900201DFFF74AFE200029000C30FFF75E
:1063200045FE422070BD012302689A431300D278D3
:10633000F92AE4D1024A9342E4D0E0E79B0300004B
:10634000F894020070B50E00FEF798F804003000D3
:106350000D00FEF793F802000B00200029001CF04E
:1063600013F8FDF779FC70BD10B5FEF787F81BF048
:1063700095FDFDF771FC10BD10B5FEF77FF81BF021
:1063800045FDFDF769FC10BD10B5FEF777F81BF071
:1063900023FAFDF761FC10BD10B5FEF76FF81AF097
:1063A000E9FFFDF759FC10BD10B5FEF767F81BF0CB
:1063B0008BFFFDF751FC10BD10B5FEF75FF81BF029
:1063C000C7FEFDF749FC10BD10B5FEF757F81CF0ED
:1063D000DFFCFDF741FC10BDF0B5C64600B5030279
:1063E00082B00D001B0E00D01D00FA230004040C27
:1063F0001B01E618300001F0F7FA002803D002B0C4
:1064000004BC9046F0BDF0232B40102B1CD0202B59
:106410001DD000229046302B02D00E4806F0A6FC7C
:10642000200001F0C5FA0700182022F0C7F8434603
:1064300001930F2304001D40B2B200950E3B3900BA
:106440000DF00AFD2000DAE701239846E8E7022371
:106450009846E5E72303000070B50D00012149428D
:10646000FDF7D0FE0400431C04D029002000FFF7F4
:10647000B3FF70BD014806F079FCF6E78B0300001E
:10648000F8B505000F0016001C0001F0ADFA002859
:1064900000D0F8BD21003800FFF79EFF2100070063
:1064A0003000FFF799FF0600102022F087F8040063
:1064B000ABB2B288B9880FF0C7FE002138000DF0EA
:1064C000FDFC002130000DF0F9FC200001210FF04F
:1064D0004FFE2000DDE7C046012170B549420400AF
:1064E0000420FDF78FFE0121050049420520FDF73C
:1064F00089FE20210600CA20FDF784FE002C0AD068
:10650000012C12D0022C0BD10300320029000320F1
:10651000FFF7B6FF70BD01002800FFF75DFFF9E748
:10652000044806F023FC0020F4E701003000FFF7E8
:1065300053FFEFE78D03000010B52021007CFFF72B
:106540004BFF10BD10B51023808800F0FBF910BD83
:10655000036810B59B699847431E9841C0B210BDAF
:1065600010B50BF083FB431E9841C0B210BDC0466E
:106570008088704710B5044B00221B6800211C6BFB
:106580000023A04710BDC04650030020F0B5CE4602
:106590004746060080B585B000900191029287B20F
:1065A0001022360C69461248039304F091FC310026
:1065B0003800FCF743FF04003000FDF749FC80463B
:1065C000002C10D00B4B99464B461B6800221D6BCC
:1065D00041460023E068A847206832003900FCF7F4
:1065E00019FF041EF0D105B00CBC90469946F0BDD1
:1065F000D80200205003002010B5FFF7C7FA0BF0B7
:10660000DBF810BD70B50600054D2B6800221C6B31
:10661000002100233000A04714200BF09BF8F4E782
:106620005003002010B5034C200006F09FFB200013
:1066300010BDC0460BFCFFFF10B50BF0BDF810BD40
:1066400010B50BF087F810BD10B50AF0C3F910BDF6
:1066500010B5041E06D0FFF787FA034A210003484D
:106660000AF070FF10BDC046411801000566000029
:1066700010B5041E06D0FFF777FA034A210003483D
:106680000AF060FF10BDC046F965000075650000A6
:1066900010B589B280B20BF07FF810BD054B10B574
:1066A0001C68FDF7A5FD044B9C4664442018400A75
:1066B000400210BD50030020FF01000010B50AF099
:1066C000A3F910BD10B50DF0DDF910BD10B50DF03A
:1066D000E9F910BD034B1B68002B01D0186A704705
:1066E0000020FCE7CC0A0020014B1B6818627047B1
:1066F000CC0A0020F0B54E46DE4657464546E0B58A
:106700003E4B89B099461B680490002B6DD0002049
:106710000AF082FC0400039080000BF093F90590CE
:106720000AF07AFC844203D0CB20800006F01EFBE6
:10673000039B002B3FDD059B019300239B460293A7
:10674000019B1F683E6A002E2CD07069FEF7EAFD9F
:106750000223049A043613409A464B461B68346859
:106760009F4232D03868BD680AF064F94B461B6816
:106770002D1A641975689F4207D0BB68386898461F
:106780000AF058F94346181A2D185346002B20D109
:10679000A54204D901CCFEF7C5FDA542FAD8B668DA
:1067A000002EDAD1019A029B04320192039A01333E
:1067B00002939A42C4D105980BF06EF909B03CBC23
:1067C00090469946A246AB46F0BD53467568002BED
:1067D000DED001235B4498462B1B59469B102200B8
:1067E00007480AF0EFFBC346D2E701200BF02AF975
:1067F000079007980BF050F9E0E7C046CC0A00205C
:106800008895020010B501F07DFB0400302021F0D6
:10681000D5FE0123002221000DF0B0F910BDC046C5
:10682000F0B583B0FFF7EEFF01F004FC2F4B1B68BF
:106830001F8D002F2CD000252D4E05E0B44213D023
:10684000B4424ED82560250004200BF0FBF80190DF
:10685000019B04005B07F1D50BF01EF908200BF03B
:10686000F1F80400B442EBD120000BF015F9380028
:106870000BF0E8F8A04209D01E4806F077FA002D88
:1068800006D02C6828000BF007F92500002DF8D160
:1068900019480AF01DFD194C194E651CFF3502E020
:1068A0000434AC420AD020680028F9D003681B6881
:1068B000B342F5D004349847AC42F4D101F098FCCF
:1068C00001210D204942FDF79DFC01F071F80028DF
:1068D00003D0036800211B68984701F081FB03B0D7
:1068E000F0BD084806F042FAACE7C046500300206D
:1068F000001000202A03000054030020C8050020D7
:10690000912200002B03000010B5084811F018FA7E
:10691000074C20000FF026FA064A0749200021F014
:1069200062FE064A064B1A6010BDC046D80200201F
:1069300054030020B4000020F95D0100009E020015
:1069400078030020F0B557464E464546DE46E0B592
:106950008DB004000D0016001F00FCF76FFD00282D
:106960000BD0320029002000FCF77CFD0DB03CBCB0
:1069700090469946A246AB46F0BDBFB20F2C3FD021
:10698000282021F01BFE82461F4BA1B2AAB200971D
:106990000BF0CCF81D4B514618000EF0D3FF002829
:1069A00005D050460BF0DCF8504621F003FE002DD8
:1069B000D7D1012120004942FCF740FD071ED0D06D
:1069C000A3B29B46104B9946104B984610239A460B
:1069D00053463A895946009302A84B460BF0A6F855
:1069E00002A940460EF068FF02A80BF0B9F8012298
:1069F000386852422100FCF70DFD071EE8D1B0E7D0
:106A0000C02FBDD0D3E7C0468D65000054030020E1
:106A100000B585B08AB2012381B2684611F06EF9E3
:106A200005B000BD012110B549420248FCF7D2FD76
:106A300010BDC0469495020010B50FF053F910BD7B
:106A4000036810B51B6A9847010002480AF0BAFAB9
:106A500010BDC0469C950200036810B51B6A0C006F
:106A600098472200010002480AF0ACFA10BDC04667
:106A7000A49502000148C000C008704700800020B3
:106A80000048704716FCFFFF0048704716FCFFFFE8
:106A90000048704716FCFFFF002070473123C05CA0
:106AA000303B58407047C0460048704716FCFFFF17
:106AB0003023C35C002B01D1014870470148FCE73B
:106AC000D8950200B095020000487047C4950200B6
:106AD00070B50D00040040220021280005F0E0FB05
:106AE00009F06AFFA369002B16D0E369002B1CD1C3
:106AF0002023A269E35C3F2A11D8A6693343DBB2A5
:106B00002B703200681C616904F0E2F963699B191B
:106B10006361A3699E1BA66109F040FF70BD402B15
:106B20000ED03F223F261343EAE7042321002B70B7
:106B3000681C1C31042204F0CBF90023E361EBE76D
:106B40003F263F23DCE7C046302370B5C35C90B0DE
:106B500004000D00002B2DD113787F2B1BD8537808
:106B6000092B27D19678002E24D1D378022B21D15E
:106B7000D37991791B020B43402B1BDC0122292383
:106B8000C254144B1B68986913F0ECF9462300209B
:106B9000EE5210B070BD5378012B0BD19378002BBF
:106BA00008D1D378012B05D1D37991791B020B43FE
:106BB000402B01D00848ECE7FFF784FD694660628E
:106BC0002000FFF785FF40226946280013F060FA95
:106BD0000020DEE7F40A002016FCFFFF302310B58A
:106BE000C35C90B00400002B07D1436A002B19D17D
:106BF00000236362A36110B010BD0F4B18680BF047
:106C0000D5FC0028F7D004E040226946A06813F0C4
:106C10003FFA69462000FFF75BFF6B461B78002BAD
:106C2000F2D1E8E7FFF74EFD636AC01AFA239B0032
:106C30009842DDD8DFE7C046F40A0020F0B5C6462A
:106C40001A4B00B598461A4D1A4E1B4F2C78E4B2D9
:106C5000002C1DD1F06A042247604146083004F040
:106C600037F9F36A40220433736120233000F25471
:106C7000183BF461B361FFF7B1FF14342B78002B9C
:106C8000E4D13220013C0AF065FD002CF6D1DCE7AE
:106C90000A4C2068002803D00AF0FEFE002323607F
:106CA00000232B7004BC9046F0BDC0467C0300203E
:106CB000220C002004040020FDF9923684030020F9
:106CC000F8B54746CE4680B50400894690461F0079
:106CD000089D202602E005200AF03CFD2000FFF779
:106CE0007DFFA369002BF6D1002D14DB09F064FEB3
:106CF000A369002B13D14346E3614B466761A3555B
:106D0000A561012509F04AFE2000FFF767FFA3698E
:106D10006D42002BDFD10CBC90469946F8BD09F0BE
:106D20003DFEDBE7030000B5054A83B010689A78A2
:106D300040210C320092034AFFF7C2FF03B000BDAE
:106D4000800300202000800010B52824045D82B05C
:106D5000002C08D0C024002B08D000920B00002289
:106D60002100FFF7ADFF002002B010BD403CF4E76A
:106D7000302370B5C35C90B005006C46002B2DD05D
:106D800040226946C06813F009F9002824DD302349
:106D9000EB5C002B3BD0EB6A24781988002925D1C5
:106DA0003F262640181D6B4640183200591C04F03F
:106DB0008FF83F21EB6A8C431A880020921992B217
:106DC0001A80002C08D0402C29D0802C29D00221F8
:106DD0009970100000221A8010B070BD164B40222E
:106DE0001B686946986913F0D9F8CEE762B2002AA9
:106DF0001ADB3F2682222640701852009042D1DDD5
:106E00001220FF300BF0CEFEEB6A1988CAE70A4B5E
:106E100000221B680949586913F03AF9BBE79870DA
:106E2000D7E701219970D4E71020FF300BF0BAFEAC
:106E3000EB6A1988DDE7C046F40A00203C9702009F
:106E4000802370B55B00040015009A420BDDC36A15
:106E500041615B684022C3612023C2548561FFF712
:106E6000BDFE002070BDC06A0435083004F030F863
:106E7000E36A4022043363610023E3612033E25478
:106E80002000A561FFF7AAFEEBE7C046F0B5C646B5
:106E9000302300B5C35C84B00400002B03D1293338
:106EA000C35C002B09D02000FFF762FF804600285A
:106EB00003D0E56AAF78002F04D0002004B004BCF2
:106EC0009046F0BD2B896E68AB80EF80FFF7FAFB30
:106ED000012328226062A354102E00D1EFE016D8BF
:106EE000032E00D1DFE000D885E0082E2FD0092E38
:106EF00000D194E0042E1AD1844B1F60BFF34F8F52
:106F0000834A844BDA60BFF34F8FC046FDE7824A65
:106F1000964200D1B2E05CD9804A96423ED0804A87
:106F2000964200D1B7E07F4A964200D1ACE00123FF
:106F3000EB80E36A4022043363610023E361203382
:106F4000E2541C3BA3612000FFF748FEB5E743462F
:106F5000102B03D0CD2040000BF024FE2E69402ED4
:106F600000D9CAE02900E8680831731E002E05D058
:106F70000A00551A2D5820C2013BFAD2E36A40227A
:106F8000043363610023B600E36104362033E25426
:106F90002000A661FFF722FE00208FE7FFF7FEF832
:106FA000614B0290E06A1B68082202A90830019335
:106FB000039303F08DFFE36A4022043363612023CF
:106FC000E761E254143B2000A361FFF707FE0020B5
:106FD00074E7202E79D0212EA9D1544B1B68002BA9
:106FE0007CD028000C309847E36AE7610433636182
:106FF00040222023A4E7012E29D0022E97D14C4B0A
:10700000DD684C4B6A1EFF3A9A4273D8280021F083
:107010006FFB020029002000FFF712FF4EE72B69EB
:107020009A001032904504D0CA2040000BF0BAFDFF
:107030002B69E8681435591E2A00002B00D178E727
:107040001668531B1E5004320139F9D271E702232E
:10705000AB600333FF336B61374BEF602F61AB6184
:10706000E36A4022043363612023E761E254083B72
:107070002000A361FFF7B2FD00201FE72F4A304B2D
:107080001A6009F0B3FC54E7274AE96812681160F6
:107090002C4A1370A8E72C4B20001A682B4B196858
:1070A000FFF7CEFE0AE72A4A184B1A60BFF34F8F4C
:1070B000174A184BDA60BFF34F8FC046FDE72549EA
:1070C000200004C9FFF7BCFEF8E62B7B002B0ED096
:1070D000214B224A1C60224B1A602AE70222EA80D6
:1070E000E26AE361043262612023402228E71C4AFD
:1070F00013601EE703221B4D8CE7CE2040000BF0EF
:1071000051FD2900E8680831731E31E7FC7F00203B
:107110000400FA0500ED00E093BD2011E066FC5389
:10712000101590703159A5274C0300200004002051
:10713000F01F0000FF1E0000882BED687FACEBF015
:1071400004780020220C0020880300208403002003
:10715000EF6926F0C806002080030020256D00009E
:10716000FC030020EC950200094A0023083202606B
:1071700028228360C3600371036183540132835406
:10718000C162012107328154013283544362704746
:107190000C960200F0B50400C56983B029002A48A6
:1071A00009F010FFE369002B1BDB6068A91E6B88E8
:1071B0002A8809880190A0690090244809F002FFFC
:1071C0002B88234A934204D0D022D201934210D07C
:1071D000FEE7E3690233E3616368032B29D003B060
:1071E000F0BD03225B005B08E3611A4B1B681A6069
:1071F000F5E72600E369184FDA1CA261174A02334B
:107200001360174B2436174D38689B1B2B600028E2
:1072100002D00AF041FC2B6818000AF013FC2A681F
:107220003100386003F054FE01220F4B9343E361B9
:10723000D5E70022074B1B681A608023A2691B0652
:107240001343A361CBE7C0462896020030960200A4
:10725000406800004C030020840300207C030020D1
:1072600000800020880300203D6C000000B56846C7
:10727000FFF790FF00BD7047F8B505000E0000282D
:1072800026D0002924D01C4F3C68002C03D10CE0F0
:10729000246C002C09D023689D42F9D163689E427A
:1072A000F6D1164809F08EFE10E0154809F08AFE66
:1072B000442021F083F90400056046603200083064
:1072C000290013F059F93B683C6023642000F8BDA5
:1072D0000C4809F077FE012119204942FCF792FF82
:1072E00000F066FB0121050049421820FCF78AFFE7
:1072F00000F05EFB0600C6E78C03002080960200CB
:10730000649602004896020010B5FFF7B5FF0830FA
:1073100010BDC046F0B5C64600B5060082B00C00F0
:107320000020110017009846FCF7E8F943460500D5
:10733000020030006400009308323B00A1B2083024
:1073400013F0D8F84342584140420540280002B0AB
:1073500004BC9046F0BDC04610B51C0082B0490088
:10736000536889B208320094083013F081F802B0F3
:1073700010BDC04670B5094D2868002800D070BD0A
:107380000D30FF3021F01AF9040011F0B7FB201D79
:1073900021000DF0DDFC2C602000F0E790030020C0
:1073A000F0B5050083B00C00FFF7E4FF2B68060082
:1073B0001B6A280098472B6807005B6A28009847DB
:1073C000390002B2684610F085FD694601A810F048
:1073D0009DFD22006368083201A9301D0DF0F8FD03
:1073E00001A810F039FD684610F036FD03B0F0BD7D
:1073F00070B5040082B0FFF7BDFF236805001B6A6B
:1074000020009847236806005B6A200098473100F7
:1074100002B2684610F05EFD694601A810F076FDE4
:10742000281D01A90DF0F8FC040001A810F014FDBE
:10743000002C0ED0200020211030FCF75FF9050051
:107440002000FEF7C1F9684610F006FD280002B0E2
:1074500070BD0025F7E7C04670B5040082B0FFF7A5
:1074600089FF236805001B6A2000984723680600EF
:107470005B6A20009847310002B2684610F02AFD8E
:10748000694601A810F042FD01A9281D0DF03EFE3D
:1074900001A810F0E1FC684610F0DEFC02B070BDFF
:1074A00010B5FFF767FF04300DF036FE10BDC04683
:1074B00070B5D31872B61578013280244160032666
:1074C000013EFDD12C4200D101600626013EFDD1D6
:1074D0000160641004D0E4B20226013EFDD1EDE764
:1074E0009A4200D2E7E762B670BDC04610B5041EEE
:1074F0000BD0012113204942FCF784FE00F058FA1A
:10750000201A44426041C0B210BD0020FCE7C046D2
:10751000C823F0B5DE4657464E4645469446994642
:10752000E0B557006744B94487B0804648460491A7
:10753000039221F05FF84A4600210400002704F07E
:10754000AFFE80238022642003998F421FDA261821
:10755000317819433170591041D0C9B28C4669460F
:107560009B10CB759A46CB7D0499C95D114203D01F
:10757000654631780D4335705146002925D10130DB
:10758000521038D00399D2B240238F42DFDB002261
:107590000021404600F086FD036805001B681A497B
:1075A000984700222B680092DE684A46002321009B
:1075B0002800B047200020F0FDFF07B03CBC9046FB
:1075C0009946A246AB46F0BD4023521017D0591041
:1075D000D2B2CBB20029B7D101308023B4E7049BEB
:1075E0000130DB5D1342EFD040218A464031402319
:1075F0008C462618BCE7013780324023A4E7591097
:10760000CBB201378022E5E7009F2400F8B50500E2
:107610000F001600182A18D82B6800211B682800B4
:107620002C7C98471F230121234099400C4B60116B
:107630009C46C001604433003A00FFF739FF2B68D5
:1076400000211B6828009847F8BDFFF74FFF00286E
:10765000E2D0320039002800FFF75AFFF4E7C046B5
:1076600014440041F0B5D6464F4646461D00036817
:10767000C0B50C001B68002107002026984723682E
:1076800001211B6820009847236800211B68200007
:10769000013E9847002EF2D1A846089B43449946E4
:1076A000089B002B1FD043461B7808269A4680254E
:1076B000514629404B1E99413B6838001B6898474A
:1076C000236801211B6820009847236800211B685C
:1076D0002000013E98476D08002EE9D101239C4609
:1076E000E044C145DFD13B6801211B683800984761
:1076F0002025236801211B6820009847236800216A
:107700001B682000013D9847002DF2D11CBC90461B
:107710009946A246F0BDC046F0B5CE46474680B574
:107720000A0083B00021984600F0BCFC002405004C
:107730000368184E0094DF68042200233100B84724
:107740002B680094DF680A9A002341462800B84756
:107750002B680094DC680422002331002800A04735
:107760000A9BDF0810D00C4B002499460023984652
:1077700042462B680092DE68042200234946280016
:107780002034B047BC42F3D303B00CBC90469946BA
:10779000F0BDC04694030020BC000020F0B50400FA
:1077A00083B00D0017001E00002810D000290ED055
:1077B000002B0CD0089B002B09D0182B09D8089B54
:1077C0003A000093290033002000FFF74BFF03B07D
:1077D000F0BDFFF78BFE0028F1D0089B3A00009324
:1077E000290033002000FFF797FFF0E710B582B0C3
:1077F00000280BD0002B09D05C68002C06D0083381
:10780000042A05D019002200FFF700FF02B010BDC6
:107810000094FFF7C3FFF9E7F0B5CE4647460121D4
:1078200080B583B002AF49421420FCF7EBFC00F0B6
:10783000BFF800210500C820FCF7E4FC002D13D0A0
:10784000002811DB6A4644002418E31DDB08DB0036
:10785000D31AE8469D4602AE22000021300004F013
:107860001FFD002C40D1C546012108204942FCF7EC
:10787000C9FC00F09DF80121060049420720FCF7F1
:10788000C1FC00F095F800218046C920FCF7BAFC45
:10789000002E23D04346002B20D000281EDD6A4650
:1078A0008400E31DDB08DB00D31AE9469D4602ADE8
:1078B00022000021280004F0F3FC0023E022002C29
:1078C00003DDEA5404339C42FBDC802200942B004D
:1078D000520041463000FFF7C5FECD46BD4601B01F
:1078E0000CBC90469946F0BD220031002800FFF7FD
:1078F0008DFEC546B8E7C046F0B5C646040400B5DF
:10790000240C3F2C2CDC194D2B5D002B09D0184A80
:10791000126818498C4663449B00985804BC9046F2
:10792000F0BD134B144E9846317818680131890028
:10793000FEF7C8F843461860202020F03FFE2100E3
:10794000E2B264310323070013F078F9434631783B
:107950001A684B1CDBB2890033708F502B55D8E767
:10796000E320800005F002FACDE7C046980300202E
:10797000D8030020FFFFFF3F230C0020012110B59A
:107980004942FCF73FFCFFF7B7FF10BD70B504009C
:107990000D003F2803D9E320800005F0E7F9280017
:1079A000FFF7AAFF014B5A5D1A5570BD98030020DE
:1079B00010B5002806DBFF2804D00004000CFFF7F8
:1079C0009BFF10BD0020FCE7012110B54942FCF7E8
:1079D00019FC002806DBFF2804D00004000CFFF788
:1079E0008BFF10BD0020FCE7084B10B55C1CFF347A
:1079F00002E00433A34207D01A68002AF9D0918824
:107A00008142F6D1100010BD0022FBE7C80500201E
:107A100010B5FFF7D9FF10BD10B501000020FBF72E
:107A20006DFE10BD014B98687047C046D80200201B
:107A300010B503685B69984710BDC04610B5036870
:107A4000DB68984710BDC0467047C0460048704785
:107A500016FCFFFF044B10B5036000230400C38035
:107A600009F080F9200010BDA0960200064B10B569
:107A7000036000230400C38009F074F9200020F0A3
:107A800099FD200010BDC046A0960200044B10B521
:107A9000036000230400C38009F064F9200010BDD6
:107AA000A0960200064B10B5036000230400C380BB
:107AB00009F058F9200020F07DFD200010BDC046DF
:107AC000A0960200F0B5CE4647462C2380B5C35C95
:107AD00085B00400002B04D105B00CBC904699463B
